{
  "_format": "hh-sol-artifact-1",
  "contractName": "BasedToken",
  "sourceName": "contracts/BasedToken.sol",
  "abi": [
    {
      "anonymous": false,
      "inputs": [
        {
          "indexed": true,
          "internalType": "address",
          "name": "owner",
          "type": "address"
        },
        {
          "indexed": true,
          "internalType": "address",
          "name": "spender",
          "type": "address"
        },
        {
          "indexed": false,
          "internalType": "uint256",
          "name": "value",
          "type": "uint256"
        }
      ],
      "name": "Approval",
      "type": "event"
    },
    {
      "anonymous": false,
      "inputs": [
        {
          "indexed": true,
          "internalType": "address",
          "name": "from",
          "type": "address"
        },
        {
          "indexed": true,
          "internalType": "address",
          "name": "to",
          "type": "address"
        },
        {
          "indexed": false,
          "internalType": "uint256",
          "name": "value",
          "type": "uint256"
        }
      ],
      "name": "Transfer",
      "type": "event"
    },
    {
      "inputs": [],
      "name": "TOTAL_SUPPLY",
      "outputs": [
        {
          "internalType": "uint256",
          "name": "",
          "type": "uint256"
        }
      ],
      "stateMutability": "view",
      "type": "function"
    },
    {
      "inputs": [
        {
          "internalType": "address",
          "name": "",
          "type": "address"
        },
        {
          "internalType": "address",
          "name": "",
          "type": "address"
        }
      ],
      "name": "allowance",
      "outputs": [
        {
          "internalType": "uint256",
          "name": "",
          "type": "uint256"
        }
      ],
      "stateMutability": "view",
      "type": "function"
    },
    {
      "inputs": [
        {
          "internalType": "address",
          "name": "sp",
          "type": "address"
        },
        {
          "internalType": "uint256",
          "name": "amt",
          "type": "uint256"
        }
      ],
      "name": "approve",
      "outputs": [
        {
          "internalType": "bool",
          "name": "",
          "type": "bool"
        }
      ],
      "stateMutability": "nonpayable",
      "type": "function"
    },
    {
      "inputs": [
        {
          "internalType": "address",
          "name": "",
          "type": "address"
        }
      ],
      "name": "balanceOf",
      "outputs": [
        {
          "internalType": "uint256",
          "name": "",
          "type": "uint256"
        }
      ],
      "stateMutability": "view",
      "type": "function"
    },
    {
      "inputs": [
        {
          "internalType": "uint256",
          "name": "amt",
          "type": "uint256"
        }
      ],
      "name": "burn",
      "outputs": [],
      "stateMutability": "nonpayable",
      "type": "function"
    },
    {
      "inputs": [],
      "name": "curve",
      "outputs": [
        {
          "internalType": "address",
          "name": "",
          "type": "address"
        }
      ],
      "stateMutability": "view",
      "type": "function"
    },
    {
      "inputs": [],
      "name": "decimals",
      "outputs": [
        {
          "internalType": "uint8",
          "name": "",
          "type": "uint8"
        }
      ],
      "stateMutability": "view",
      "type": "function"
    },
    {
      "inputs": [],
      "name": "description",
      "outputs": [
        {
          "internalType": "string",
          "name": "",
          "type": "string"
        }
      ],
      "stateMutability": "view",
      "type": "function"
    },
    {
      "inputs": [],
      "name": "factory",
      "outputs": [
        {
          "internalType": "address",
          "name": "",
          "type": "address"
        }
      ],
      "stateMutability": "view",
      "type": "function"
    },
    {
      "inputs": [],
      "name": "imageUri",
      "outputs": [
        {
          "internalType": "string",
          "name": "",
          "type": "string"
        }
      ],
      "stateMutability": "view",
      "type": "function"
    },
    {
      "inputs": [
        {
          "internalType": "string",
          "name": "_name",
          "type": "string"
        },
        {
          "internalType": "string",
          "name": "_symbol",
          "type": "string"
        },
        {
          "internalType": "address",
          "name": "_curve",
          "type": "address"
        },
        {
          "internalType": "address",
          "name": "_factory",
          "type": "address"
        }
      ],
      "name": "initialize",
      "outputs": [],
      "stateMutability": "nonpayable",
      "type": "function"
    },
    {
      "inputs": [],
      "name": "isGraduated",
      "outputs": [
        {
          "internalType": "bool",
          "name": "",
          "type": "bool"
        }
      ],
      "stateMutability": "view",
      "type": "function"
    },
    {
      "inputs": [],
      "name": "metaSet",
      "outputs": [
        {
          "internalType": "bool",
          "name": "",
          "type": "bool"
        }
      ],
      "stateMutability": "view",
      "type": "function"
    },
    {
      "inputs": [],
      "name": "name",
      "outputs": [
        {
          "internalType": "string",
          "name": "",
          "type": "string"
        }
      ],
      "stateMutability": "view",
      "type": "function"
    },
    {
      "inputs": [
        {
          "internalType": "string",
          "name": "_img",
          "type": "string"
        },
        {
          "internalType": "string",
          "name": "_desc",
          "type": "string"
        },
        {
          "internalType": "string",
          "name": "_web",
          "type": "string"
        },
        {
          "internalType": "string",
          "name": "_tw",
          "type": "string"
        },
        {
          "internalType": "string",
          "name": "_tg",
          "type": "string"
        }
      ],
      "name": "setMeta",
      "outputs": [],
      "stateMutability": "nonpayable",
      "type": "function"
    },
    {
      "inputs": [],
      "name": "symbol",
      "outputs": [
        {
          "internalType": "string",
          "name": "",
          "type": "string"
        }
      ],
      "stateMutability": "view",
      "type": "function"
    },
    {
      "inputs": [],
      "name": "telegram",
      "outputs": [
        {
          "internalType": "string",
          "name": "",
          "type": "string"
        }
      ],
      "stateMutability": "view",
      "type": "function"
    },
    {
      "inputs": [],
      "name": "totalSupply",
      "outputs": [
        {
          "internalType": "uint256",
          "name": "",
          "type": "uint256"
        }
      ],
      "stateMutability": "pure",
      "type": "function"
    },
    {
      "inputs": [
        {
          "internalType": "address",
          "name": "to",
          "type": "address"
        },
        {
          "internalType": "uint256",
          "name": "amt",
          "type": "uint256"
        }
      ],
      "name": "transfer",
      "outputs": [
        {
          "internalType": "bool",
          "name": "",
          "type": "bool"
        }
      ],
      "stateMutability": "nonpayable",
      "type": "function"
    },
    {
      "inputs": [
        {
          "internalType": "address",
          "name": "from",
          "type": "address"
        },
        {
          "internalType": "address",
          "name": "to",
          "type": "address"
        },
        {
          "internalType": "uint256",
          "name": "amt",
          "type": "uint256"
        }
      ],
      "name": "transferFrom",
      "outputs": [
        {
          "internalType": "bool",
          "name": "",
          "type": "bool"
        }
      ],
      "stateMutability": "nonpayable",
      "type": "function"
    },
    {
      "inputs": [],
      "name": "twitter",
      "outputs": [
        {
          "internalType": "string",
          "name": "",
          "type": "string"
        }
      ],
      "stateMutability": "view",
      "type": "function"
    },
    {
      "inputs": [],
      "name": "website",
      "outputs": [
        {
          "internalType": "string",
          "name": "",
          "type": "string"
        }
      ],
      "stateMutability": "view",
      "type": "function"
    }
  ],
  "bytecode": "0x6080806040523461001657611595908161001c8239f35b600080fdfe6080604090808252600436101561001557600080fd5b60003560e01c90816306fdde031461123c57508063095ea7b3146111ca5780630bf82da41461113657806318160ddd14610b1157806323b872dd146110b3578063313ce5671461109757806342966c681461104c57806347ecb66514610fb857806370a0823114610f7f5780637165485d14610f565780637284e41614610ec25780638480fd7c14610e9e5780638f15b41414610b37578063902d55a514610b1157806395d89b4114610a885780639e5f2602146109e4578063a9059cbb146109b4578063abfaeee014610920578063beb0a41614610855578063c45a01551461082c578063cc0d24e7146101645763dd62ed3e1461011357600080fd5b3461015f578060031936011261015f5760209061012e611373565b610136611389565b9060018060a01b03809116600052600b8452826000209116600052825280600020549051908152f35b600080fd5b3461015f5760a036600319011261015f576004356001600160401b03811161015f5761019490369060040161139f565b906024356001600160401b03811161015f576101b490369060040161139f565b9092906044356001600160401b03811161015f576101d690369060040161139f565b906064356001600160401b03811161015f576101f690369060040161139f565b90969093906084356001600160401b03811161015f5761021a90369060040161139f565b96909760018060a01b036003541633148061081f575b1561015f576009805460ff191660011790556001600160401b0382116104aa57819061025d6004546112cd565b601f81116107c4575b50600090601f831160011461074f57600092610744575b50508160011b916000199060031b1c1916176004555b6001600160401b0382116104aa5781906102ae6005546112cd565b601f81116106f3575b50600090601f831160011461067e57600092610673575b50508160011b916000199060031b1c1916176005555b6001600160401b0382116104aa5781906102ff6006546112cd565b601f8111610615575b50600090601f83116001146105a057600092610595575b50508160011b916000199060031b1c1916176006555b6001600160401b0381116104aa5761034e6007546112cd565b601f8111610542575b506000601f82116001146104cb57819293946000926104c0575b50508160011b916000199060031b1c1916176007555b6001600160401b0381116104aa576103a06008546112cd565b601f8111610457575b506000601f82116001146103e55781926000926103da575b5050600019600383901b1c191660019190911b17600855005b0135905082806103c1565b60086000908152601f198316936000805160206114e083398151915292909160205b86821061043f5750508360019510610425575b505050811b01600855005b0135600019600384901b60f8161c1916905582808061041a565b80600184968294958701358155019501920190610407565b60086000526000805160206114e0833981519152601f830160051c810191602084106104a0575b601f0160051c01905b81811061049457506103a9565b60008155600101610487565b909150819061047e565b634e487b7160e01b600052604160045260246000fd5b013590508480610371565b60076000908152601f198316956000805160206114c083398151915292909160205b88821061052a57505083600195969710610510575b505050811b01600755610387565b0135600019600384901b60f8161c19169055848080610502565b806001849682949587013581550195019201906104ed565b60076000526000805160206114c0833981519152601f830160051c8101916020841061058b575b601f0160051c01905b81811061057f5750610357565b60008155600101610572565b9091508190610569565b01359050868061031f565b600660009081529350600080516020611520833981519152915b601f19841685106105fd576001945083601f198116106105e3575b505050811b01600655610335565b0135600019600384901b60f8161c191690558680806105d5565b818101358355602094850194600190930192016105ba565b6006600052909150600080516020611520833981519152601f840160051c81019160208510610669575b90601f859493920160051c01905b81811061065a5750610308565b6000815584935060010161064d565b909150819061063f565b0135905088806102ce565b600560009081529350600080516020611480833981519152915b601f19841685106106db576001945083601f198116106106c1575b505050811b016005556102e4565b0135600019600384901b60f8161c191690558880806106b3565b81810135835560209485019460019093019201610698565b90915060056000526020600020601f840160051c81016020851061073d575b90849392915b601f830160051c8201811061072e5750506102b7565b60008155859450600101610718565b5080610712565b013590508a8061027d565b600460009081529350600080516020611540833981519152915b601f19841685106107ac576001945083601f19811610610792575b505050811b01600455610293565b0135600019600384901b60f8161c191690558a8080610784565b81810135835560209485019460019093019201610769565b6004600052909150600080516020611540833981519152601f840160051c810160208510610818575b90849392915b601f830160051c82018110610809575050610266565b600081558594506001016107f3565b50806107ed565b5060ff6009541615610230565b503461015f57600036600319011261015f5760035490516001600160a01b039091168152602090f35b503461015f57600036600319011261015f578051600091600654610878816112cd565b8084526001918083169081156108f857506001146108b0575b50506108a2826108ac940383611307565b519182918261132a565b0390f35b6006600090815260209550916000805160206115208339815191525b8284106108e5575050508201909201916108a282610891565b80548685018801529286019281016108cc565b6108ac96506108a293506020915091859260ff191682840152151560051b8201019450610891565b503461015f57600036600319011261015f578051600091600754610943816112cd565b8084526001918083169081156108f8575060011461096c5750506108a2826108ac940383611307565b6007600090815260209550916000805160206114c08339815191525b8284106109a1575050508201909201916108a282610891565b8054868501880152928601928101610988565b503461015f578060031936011261015f576020906109dd6109d3611373565b60243590336113ef565b5160018152f35b503461015f57600036600319011261015f576002546001600160a01b0316908115159081610a19575b60209250519015158152f35b905060206004928251938480926318160ddd60e01b82525afa8015610a7d57600090610a4b575b602092501590610a0d565b506020823d8211610a75575b81610a6460209383611307565b8101031261015f5760209151610a40565b3d9150610a57565b50513d6000823e3d90fd5b503461015f57600036600319011261015f57805160009160018054610aac816112cd565b808552908281169081156108f85750600114610ad35750506108a2826108ac940383611307565b93508060005260209384600020916000925b828410610afe575050508201909201916108a282610891565b8054868501880152928601928101610ae5565b503461015f57600036600319011261015f5751676765c793fa10079d601b1b8152602090f35b503461015f57608036600319011261015f576001600160401b039060043582811161015f57610b6a90369060040161139f565b9060243584811161015f57610b8390369060040161139f565b6001600160a01b03956044358781169392919084900361015f5760643597881680980361015f57600395865460ff8160a01c16610e645760ff60a01b1916600160a01b1787558181116104aa5780610bdc6000546112cd565b96601f97888111610e13575b50600090888311600114610d9c57600092610d91575b50508160011b9160001990891b1c1916176000555b81116104aa578693600192610c2884546112cd565b828111610d38575b506000918311600114610cb957928260209693600099969360008051602061150083398151915299968b92610cae575b5050891982871b1c191690821b1790555b600280546001600160a01b03199081169092179055825416179055848452600a8252808420676765c793fa10079d601b1b908190559051908152a3005b013590503880610c60565b600084815260208082209391601f198616915b828210610d1e57505093600099969386936000805160206115008339815191529a97938360209b9810610d07575b505050811b019055610c71565b01358b1983891b60f8161c19169055388080610cfa565b8484013586558c9950948701949283019290810190610ccc565b909192938095965060005260206000208380860160051c82019260208710610d88575b948b9897969594939291940160051c01905b818110610d7a5750610c30565b600081558a97508501610d6d565b92508192610d5b565b013590503880610bfe565b60008080526000805160206114a08339815191529350909190601f1985169060205b828210610dfb575050908460019594939210610de3575b505050811b01600055610c13565b0135600019838b1b60f8161c19169055388080610dd5565b80600185978294968801358155019601930190610dbe565b9091506000805260206000208880850160051c82019260208610610e5b575b9085949392910160051c01905b818110610e4c5750610be8565b60008155849350600101610e3f565b92508192610e32565b885162461bcd60e51b8152602060048201526013602482015272105b1c9958591e481a5b9a5d1a585b1a5e9959606a1b6044820152606490fd5b503461015f57600036600319011261015f5760209060ff6009541690519015158152f35b503461015f57600036600319011261015f578051600091600554610ee5816112cd565b8084526001918083169081156108f85750600114610f0e5750506108a2826108ac940383611307565b6005600090815260209550916000805160206114808339815191525b828410610f43575050508201909201916108a282610891565b8054868501880152928601928101610f2a565b503461015f57600036600319011261015f5760025490516001600160a01b039091168152602090f35b503461015f57602036600319011261015f576020906001600160a01b03610fa4611373565b16600052600a825280600020549051908152f35b503461015f57600036600319011261015f578051600091600854610fdb816112cd565b8084526001918083169081156108f857506001146110045750506108a2826108ac940383611307565b6008600090815260209550916000805160206114e08339815191525b828410611039575050508201909201916108a282610891565b8054868501880152928601928101611020565b503461015f57602036600319011261015f5760009060043590338352600a60205280832061107b8382546113cc565b90555190815260008051602061150083398151915260203392a3005b503461015f57600036600319011261015f576020905160128152f35b503461015f57606036600319011261015f576020906109dd6110d3611373565b6110db611389565b6001600160a01b0382166000818152600b875285812033825287528590205460443593919060010161110e575b506113ef565b600052600b8652846000203360005286528460002061112e8482546113cc565b905538611108565b503461015f57600036600319011261015f578051600091600454611159816112cd565b8084526001918083169081156108f857506001146111825750506108a2826108ac940383611307565b6004600090815260209550916000805160206115408339815191525b8284106111b7575050508201909201916108a282610891565b805486850188015292860192810161119e565b503461015f578060031936011261015f576020906111e6611373565b60243533600052600b8452826000209160018060a01b03169182600052845280836000205582519081527f8c5be1e5ebec7d5bd14f71427d1e84f3dd0314c0f7b2291e5b200ac8c7c3b925843392a35160018152f35b90503461015f57600036600319011261015f5760009160005461125e816112cd565b8084526001918083169081156108f857506001146112875750506108a2826108ac940383611307565b600080805260209550916000805160206114a08339815191525b8284106112ba575050508201909201916108a282610891565b80548685018801529286019281016112a1565b90600182811c921680156112fd575b60208310146112e757565b634e487b7160e01b600052602260045260246000fd5b91607f16916112dc565b601f909101601f19168101906001600160401b038211908210176104aa57604052565b6020808252825181830181905290939260005b82811061135f57505060409293506000838284010152601f8019910116010190565b81810186015184820160400152850161133d565b600435906001600160a01b038216820361015f57565b602435906001600160a01b038216820361015f57565b9181601f8401121561015f578235916001600160401b03831161015f576020838186019501011161015f57565b919082039182116113d957565b634e487b7160e01b600052601160045260246000fd5b90916001600160a01b039182169182151580611474575b1561015f57600093838552600a602052604085206114258482546113cc565b90551692838152600a6020526040812080549183830180931161146057505560405190815260008051602061150083398151915290602090a3565b634e487b7160e01b81526011600452602490fd5b50808416151561140656fe036b6384b5eca791c62761152d0c79bb0604c104a5fb6f4eb0703f3154bb3db0290decd9548b62a8d60345a988386fc84ba6bc95484008f6362f93160ef3e563a66cc928b5edb82af9bd49922954155ab7b0942694bea4ce44661d9a8736c688f3f7a9fe364faab93b216da50a3214154f22a0a2b415b23a84c8169e8b636ee3ddf252ad1be2c89b69c2b068fc378daa952ba7f163c4a11628f55a4df523b3eff652222313e28459528d920b65115c16c04f3efc82aaedc97be59f3f377c0d3f8a35acfbc15ff81a39ae7d344fd709f28e8600b4aa8c65c6b64bfe7fe36bd19ba2646970667358221220ab2692ae1f067e9341026b0935997d1511195fc0fb1424629d2e2c7a20a8b8d964736f6c63430008140033",
  "linkReferences": {},
  "deployedLinkReferences": {}
}