{
  "_format": "hh-sol-artifact-1",
  "contractName": "WarChest",
  "sourceName": "contracts/WarChest.sol",
  "abi": [
    {
      "inputs": [
        {
          "internalType": "address",
          "name": "_platform",
          "type": "address"
        },
        {
          "internalType": "address",
          "name": "_vault",
          "type": "address"
        }
      ],
      "stateMutability": "nonpayable",
      "type": "constructor"
    },
    {
      "anonymous": false,
      "inputs": [
        {
          "indexed": true,
          "internalType": "address",
          "name": "curve",
          "type": "address"
        }
      ],
      "name": "CurveAuthorized",
      "type": "event"
    },
    {
      "anonymous": false,
      "inputs": [
        {
          "indexed": true,
          "internalType": "address",
          "name": "from",
          "type": "address"
        },
        {
          "indexed": false,
          "internalType": "uint256",
          "name": "amount",
          "type": "uint256"
        }
      ],
      "name": "EthReceived",
      "type": "event"
    },
    {
      "anonymous": false,
      "inputs": [
        {
          "indexed": true,
          "internalType": "address",
          "name": "token",
          "type": "address"
        },
        {
          "indexed": false,
          "internalType": "uint256",
          "name": "payout",
          "type": "uint256"
        }
      ],
      "name": "PayoutTriggered",
      "type": "event"
    },
    {
      "inputs": [],
      "name": "ARMORY_BPS",
      "outputs": [
        {
          "internalType": "uint256",
          "name": "",
          "type": "uint256"
        }
      ],
      "stateMutability": "view",
      "type": "function"
    },
    {
      "inputs": [],
      "name": "FORTIFY_BPS",
      "outputs": [
        {
          "internalType": "uint256",
          "name": "",
          "type": "uint256"
        }
      ],
      "stateMutability": "view",
      "type": "function"
    },
    {
      "inputs": [],
      "name": "HOLDERS_BPS",
      "outputs": [
        {
          "internalType": "uint256",
          "name": "",
          "type": "uint256"
        }
      ],
      "stateMutability": "view",
      "type": "function"
    },
    {
      "inputs": [],
      "name": "LASTBUY_BPS",
      "outputs": [
        {
          "internalType": "uint256",
          "name": "",
          "type": "uint256"
        }
      ],
      "stateMutability": "view",
      "type": "function"
    },
    {
      "inputs": [],
      "name": "LIQ_BPS",
      "outputs": [
        {
          "internalType": "uint256",
          "name": "",
          "type": "uint256"
        }
      ],
      "stateMutability": "view",
      "type": "function"
    },
    {
      "inputs": [],
      "name": "MAX_PAYOUT",
      "outputs": [
        {
          "internalType": "uint256",
          "name": "",
          "type": "uint256"
        }
      ],
      "stateMutability": "view",
      "type": "function"
    },
    {
      "inputs": [],
      "name": "PLATFORM_BPS",
      "outputs": [
        {
          "internalType": "uint256",
          "name": "",
          "type": "uint256"
        }
      ],
      "stateMutability": "view",
      "type": "function"
    },
    {
      "inputs": [],
      "name": "THRESHOLD",
      "outputs": [
        {
          "internalType": "uint256",
          "name": "",
          "type": "uint256"
        }
      ],
      "stateMutability": "view",
      "type": "function"
    },
    {
      "inputs": [
        {
          "internalType": "address",
          "name": "curve",
          "type": "address"
        }
      ],
      "name": "authorizeCurve",
      "outputs": [],
      "stateMutability": "nonpayable",
      "type": "function"
    },
    {
      "inputs": [
        {
          "internalType": "address",
          "name": "",
          "type": "address"
        }
      ],
      "name": "authorizedCurves",
      "outputs": [
        {
          "internalType": "bool",
          "name": "",
          "type": "bool"
        }
      ],
      "stateMutability": "view",
      "type": "function"
    },
    {
      "inputs": [
        {
          "internalType": "address",
          "name": "",
          "type": "address"
        }
      ],
      "name": "authorizedVaults",
      "outputs": [
        {
          "internalType": "bool",
          "name": "",
          "type": "bool"
        }
      ],
      "stateMutability": "view",
      "type": "function"
    },
    {
      "inputs": [],
      "name": "factory",
      "outputs": [
        {
          "internalType": "address",
          "name": "",
          "type": "address"
        }
      ],
      "stateMutability": "view",
      "type": "function"
    },
    {
      "inputs": [],
      "name": "getBalance",
      "outputs": [
        {
          "internalType": "uint256",
          "name": "",
          "type": "uint256"
        }
      ],
      "stateMutability": "view",
      "type": "function"
    },
    {
      "inputs": [],
      "name": "isActive",
      "outputs": [
        {
          "internalType": "bool",
          "name": "",
          "type": "bool"
        }
      ],
      "stateMutability": "view",
      "type": "function"
    },
    {
      "inputs": [
        {
          "internalType": "address",
          "name": "",
          "type": "address"
        }
      ],
      "name": "lastBuyBlock",
      "outputs": [
        {
          "internalType": "uint256",
          "name": "",
          "type": "uint256"
        }
      ],
      "stateMutability": "view",
      "type": "function"
    },
    {
      "inputs": [
        {
          "internalType": "address",
          "name": "",
          "type": "address"
        }
      ],
      "name": "lastBuyer",
      "outputs": [
        {
          "internalType": "address",
          "name": "",
          "type": "address"
        }
      ],
      "stateMutability": "view",
      "type": "function"
    },
    {
      "inputs": [],
      "name": "locked",
      "outputs": [
        {
          "internalType": "bool",
          "name": "",
          "type": "bool"
        }
      ],
      "stateMutability": "view",
      "type": "function"
    },
    {
      "inputs": [],
      "name": "payoutCount",
      "outputs": [
        {
          "internalType": "uint256",
          "name": "",
          "type": "uint256"
        }
      ],
      "stateMutability": "view",
      "type": "function"
    },
    {
      "inputs": [],
      "name": "platformWallet",
      "outputs": [
        {
          "internalType": "address",
          "name": "",
          "type": "address"
        }
      ],
      "stateMutability": "view",
      "type": "function"
    },
    {
      "inputs": [],
      "name": "protocolVault",
      "outputs": [
        {
          "internalType": "address",
          "name": "",
          "type": "address"
        }
      ],
      "stateMutability": "view",
      "type": "function"
    },
    {
      "inputs": [],
      "name": "receiveEth",
      "outputs": [],
      "stateMutability": "payable",
      "type": "function"
    },
    {
      "inputs": [
        {
          "internalType": "address",
          "name": "token",
          "type": "address"
        },
        {
          "internalType": "address",
          "name": "buyer",
          "type": "address"
        },
        {
          "internalType": "uint256",
          "name": "",
          "type": "uint256"
        }
      ],
      "name": "recordBuy",
      "outputs": [],
      "stateMutability": "nonpayable",
      "type": "function"
    },
    {
      "inputs": [
        {
          "internalType": "address",
          "name": "",
          "type": "address"
        }
      ],
      "name": "recordGraduation",
      "outputs": [],
      "stateMutability": "nonpayable",
      "type": "function"
    },
    {
      "inputs": [
        {
          "internalType": "address",
          "name": "_factory",
          "type": "address"
        }
      ],
      "name": "setFactory",
      "outputs": [],
      "stateMutability": "nonpayable",
      "type": "function"
    },
    {
      "inputs": [],
      "name": "totalPaidOut",
      "outputs": [
        {
          "internalType": "uint256",
          "name": "",
          "type": "uint256"
        }
      ],
      "stateMutability": "view",
      "type": "function"
    },
    {
      "inputs": [],
      "name": "totalReceived",
      "outputs": [
        {
          "internalType": "uint256",
          "name": "",
          "type": "uint256"
        }
      ],
      "stateMutability": "view",
      "type": "function"
    },
    {
      "inputs": [
        {
          "internalType": "address",
          "name": "token",
          "type": "address"
        }
      ],
      "name": "triggerPayout",
      "outputs": [],
      "stateMutability": "nonpayable",
      "type": "function"
    },
    {
      "stateMutability": "payable",
      "type": "receive"
    }
  ],
  "bytecode": "0x60c034610146576111f790601f38839003908101601f19168201906001600160401b0382118383101761014b578083916040958694855283398101031261014657610055602061004e83610161565b9201610161565b6001600160a01b038281161561010f5781169182156100db5760805260a052600052600760205280600020600160ff19825416179055516110819081610176823960805181818161017601528181610a6b01528181610aec01528181610b9901528181610c100152610e43015260a0518181816104c4015281816109370152610cec0152f35b835162461bcd60e51b815260206004820152600d60248201526c125b9d985b1a59081d985d5b1d609a1b6044820152606490fd5b835162461bcd60e51b815260206004820152601060248201526f496e76616c696420706c6174666f726d60801b6044820152606490fd5b600080fd5b634e487b7160e01b600052604160045260246000fd5b51906001600160a01b03821682036101465756fe608060408181526004918236101561002a575b505050361561002057600080fd5b610028610780565b005b600092833560e01c91826312065fe0146106b8575081631357e1dc1461069957816314ea9b35146106225781631cb19421146101a957816322f3e2d4146105fc578163351afe83146105df57816337b28bfd146105a7578163393b8516146105695781634185f8eb146105525781634657592f146105355781634b9ddafe1461051257816357831809146104f35781635a9249e6146104af5781635bb47808146104305781635f8282181461020f5781637756cf7e146103fa578163785ffb37146103d7578163a3c2c462146103b8578163a5bb625e1461037e578163b0efd714146102d3578163ba65b81b1461023b57508063c45a015514610214578063ce91e1641461020f578063cf309012146101eb578063d304052f146101ae578063e4e4f374146101a95763fa2af9da146101635780610012565b346101a557816003193601126101a557517f00000000000000000000000000000000000000000000000000000000000000006001600160a01b03168152602090f35b5080fd5b6106ed565b50346101a55760203660031901126101a55760209160ff9082906001600160a01b036101d86106d2565b1681526006855220541690519015158152f35b50346101a557816003193601126101a55760ff6020925460a01c1690519015158152f35b61070a565b50346101a557816003193601126101a557905490516001600160a01b039091168152602090f35b919050346102cf5760203660031901126102cf576102576106d2565b9083549260ff8460a01c166102a1575060ff60a01b19928316600160a01b178455338452600760205283205461029991906102949060ff166107bd565b61086b565b815416815580f35b6020606492519162461bcd60e51b835282015260096024820152681499595b9d1c985b9d60ba1b6044820152fd5b8280fd5b9050346102cf5760203660031901126102cf576102ee6106d2565b83546001600160a01b0392908316330361034c57501690610310821515610727565b81835260066020528220805460ff191660011790557f540b949a90633cbabff7a7fc81ac68cf370da403ab1d04575688b08556a5a7b68280a280f35b606490602085519162461bcd60e51b8352820152600c60248201526b4f6e6c7920666163746f727960a01b6044820152fd5b9050346102cf5760203660031901126102cf576020926001600160a01b0391839190836103a96106d2565b16825285522054169051908152f35b5050346101a557816003193601126101a5576020906001549051908152f35b5050346101a557816003193601126101a55760209051670de0b6b3a76400008152f35b5050346101a55760203660031901126101a55760ff61042d9161041b6106d2565b503384526006602052832054166107bd565b80f35b919050346102cf5760203660031901126102cf5761044c6106d2565b8354926001600160a01b039283851661047e575050169061046e821515610727565b6001600160a01b03191617815580f35b906020606492519162461bcd60e51b8352820152600b60248201526a105b1c9958591e481cd95d60aa1b6044820152fd5b5050346101a557816003193601126101a557517f00000000000000000000000000000000000000000000000000000000000000006001600160a01b03168152602090f35b5050346101a557816003193601126101a5576020906003549051908152f35b5050346101a557816003193601126101a55760209051671bc16d674ec800008152f35b5050346101a557816003193601126101a557602090516103e88152f35b83806003193601126105665761042d610780565b80fd5b5050346101a55760203660031901126101a55760209160ff9082906001600160a01b036105946106d2565b1681526007855220541690519015158152f35b5050346101a55760203660031901126101a55760209181906001600160a01b036105cf6106d2565b1681526005845220549051908152f35b5050346101a557816003193601126101a55760209051610fa08152f35b5050346101a557816003193601126101a55751670de0b6b3a76400004710158152602090f35b9050346102cf5760603660031901126102cf5761063d6106d2565b6001600160a01b0360243581811693929084900361069557338652600660205261066c60ff86882054166107bd565b168452602090815282842080546001600160a01b03191690921790915560059052812043905580f35b8580fd5b5050346101a557816003193601126101a5576020906002549051908152f35b8490346101a557816003193601126101a557602090478152f35b600435906001600160a01b03821682036106e857565b600080fd5b346106e85760003660031901126106e85760206040516101f48152f35b346106e85760003660031901126106e85760206040516107d08152f35b1561072e57565b60405162461bcd60e51b8152602060048201526007602482015266125b9d985b1a5960ca1b6044820152606490fd5b9190820180921161076a57565b634e487b7160e01b600052601160045260246000fd5b61078c3460015461075d565b6001556040513481527f85177f287940f2f05425a4029951af0e047a7f9c4eaa9a6e6917bcd869f8669560203392a2565b156107c457565b60405162461bcd60e51b815260206004820152600e60248201526d139bdd08185d5d1a1bdc9a5e995960921b6044820152606490fd5b9190820391821161076a57565b600019811461076a5760010190565b61014081019081106001600160401b0382111761083257604052565b634e487b7160e01b600052604160045260246000fd5b601f909101601f19168101906001600160401b0382119082101761083257604052565b904791670de0b6b3a76400008310610c7d57600092671bc16d674ec800009081811115610c7657505b610fa090818102928115928285041483171561076a576127108094046107d0808402908482041485171561076a57859004946103e8808502908582041486171561076a57819004946101f4908186029186830414171561076a57049161090f8361090a8161090a8961090a8c61090a8a8d6107fa565b6107fa565b9761091c8560025461075d565b60025561092a600354610807565b6003556001600160a01b037f000000000000000000000000000000000000000000000000000000000000000081169490853b156106e8576040958651998a956304523fbf60e01b87528660008583169d8e9a60049b8c83015260249a8b91885af18015610c6b57610c39575b50906109a191610cbd565b8984526020868152878520549099908316908115610c09576109c291610fb3565b86516305210f5d60e51b81528681018b905289818781855afa908115610bff57859184918391610bc2575b5016848115610b90578280929181925af1610a06610f74565b5015610b58575b888a86895180948193639ed1057d60e01b83528b8301525afa908115610b4e578491610b15575b50168015610acb5782809281925af1610a4b610f74565b5015610a96575050610a8f60008051602061102c8339815191529495965b7f0000000000000000000000000000000000000000000000000000000000000000610fb3565b51908152a2565b60129085606494519362461bcd60e51b855284015282015271105c9b5bdc9e481cd95b990819985a5b195960721b6044820152fd5b50610a8f935060008051602061102c8339815191529798999250610b1091507f0000000000000000000000000000000000000000000000000000000000000000610fb3565b610a69565b90508881813d8311610b47575b610b2c8183610848565b81010312610b4357610b3d90610c82565b38610a34565b8380fd5b503d610b22565b87513d86823e3d90fd5b865162461bcd60e51b81528087018a905260138187015272119bdc9d1a599e481cd95b990819985a5b1959606a1b6044820152606490fd5b9050610bbd91507f0000000000000000000000000000000000000000000000000000000000000000610fb3565b610a0d565b925050508981813d8311610bf8575b610bdb8183610848565b81010312610bf45782610bee8692610c82565b386109ed565b8480fd5b503d610bd1565b88513d87823e3d90fd5b610c3491507f0000000000000000000000000000000000000000000000000000000000000000610fb3565b6109c2565b9095506001600160401b038111610c575788526000946109a1610996565b86604189634e487b7160e01b600052526000fd5b8a513d6000823e3d90fd5b9050610894565b509050565b51906001600160a01b03821682036106e857565b90600a811015610ca75760051b0190565b634e487b7160e01b600052603260045260246000fd5b604051630ab6c60960e41b81526001600160a01b039182166004808301919091529261028092906024848482817f000000000000000000000000000000000000000000000000000000000000000087165afa948515610f68576000948596610eaa575b5050600090815b600a8110610e69575081159586610e3557600097885b600a8a10610d515750505050505050505050565b86610d5c8b8a610c96565b5116158015610e23575b610e195789888888600060098503610db35750610da793928592610d9b610d93610dad98610da2956107fa565b958693610c96565b5116610fb3565b61075d565b99610807565b98610d3d565b93915050610dc2915085610c96565b5190818802918883041488151715610e07578a610df557508a610dad92610da28b8b610d9b8b610da79704958693610c96565b634e487b7160e01b8152601284528590fd5b634e487b7160e01b8152601184528590fd5b98610dad90610807565b50610e2e8a84610c96565b5115610d66565b50505092505050610e6791507f0000000000000000000000000000000000000000000000000000000000000000610fb3565b565b84610e748288610c96565b5116610e89575b610e8490610807565b610d27565b91610ea2610e8491610e9b858a610c96565b519061075d565b929050610e7b565b9080959296503d8611610f61575b610ec28183610848565b81019085818303126102cf5781601f820112156102cf5760405192610ee684610816565b610140820190848483116101a55783905b838210610f495750508361015f840112156105665760405197610f1989610816565b8893019384116105665750905b828210610f395750505092933880610d20565b8151815260209182019101610f26565b60208091610f5684610c82565b815201910190610ef7565b503d610eb8565b6040513d6000823e3d90fd5b3d15610fae573d906001600160401b0382116108325760405191610fa2601f8201601f191660200184610848565b82523d6000602084013e565b606090565b8115801561101a575b611016576000918291829182916001600160a01b03165af1610fdc610f74565b5015610fe457565b60405162461bcd60e51b815260206004820152600a6024820152691155120819985a5b195960b21b6044820152606490fd5b5050565b506001600160a01b03811615610fbc56feaa4198e15ce4666385864542abb6c33c50cc9415ee36bb7eb4e6f8188fff6347a264697066735822122048de7ec6de20b6de3b6225c62e163d81e078e0fabe09a2172762d376418eee8664736f6c63430008140033",
  "linkReferences": {},
  "deployedLinkReferences": {}
}