{
  "_format": "hh-sol-artifact-1",
  "contractName": "ArmoryVault",
  "sourceName": "contracts/ArmoryVault.sol",
  "abi": [
    {
      "anonymous": false,
      "inputs": [
        {
          "indexed": false,
          "internalType": "uint256",
          "name": "amount",
          "type": "uint256"
        },
        {
          "indexed": false,
          "internalType": "string",
          "name": "reason",
          "type": "string"
        }
      ],
      "name": "ETHReceived",
      "type": "event"
    },
    {
      "anonymous": false,
      "inputs": [
        {
          "indexed": false,
          "internalType": "uint256",
          "name": "id",
          "type": "uint256"
        },
        {
          "indexed": false,
          "internalType": "uint8",
          "name": "result",
          "type": "uint8"
        },
        {
          "indexed": false,
          "internalType": "uint256",
          "name": "amount",
          "type": "uint256"
        }
      ],
      "name": "VoteExecuted",
      "type": "event"
    },
    {
      "anonymous": false,
      "inputs": [
        {
          "indexed": false,
          "internalType": "uint256",
          "name": "id",
          "type": "uint256"
        },
        {
          "indexed": false,
          "internalType": "uint256",
          "name": "start",
          "type": "uint256"
        },
        {
          "indexed": false,
          "internalType": "uint256",
          "name": "end",
          "type": "uint256"
        }
      ],
      "name": "VoteStarted",
      "type": "event"
    },
    {
      "anonymous": false,
      "inputs": [
        {
          "indexed": false,
          "internalType": "address",
          "name": "voter",
          "type": "address"
        },
        {
          "indexed": false,
          "internalType": "uint256",
          "name": "voteId",
          "type": "uint256"
        },
        {
          "indexed": false,
          "internalType": "uint8",
          "name": "choice",
          "type": "uint8"
        },
        {
          "indexed": false,
          "internalType": "uint256",
          "name": "weight",
          "type": "uint256"
        }
      ],
      "name": "Voted",
      "type": "event"
    },
    {
      "inputs": [],
      "name": "creator",
      "outputs": [
        {
          "internalType": "address",
          "name": "",
          "type": "address"
        }
      ],
      "stateMutability": "view",
      "type": "function"
    },
    {
      "inputs": [],
      "name": "executeVote",
      "outputs": [],
      "stateMutability": "nonpayable",
      "type": "function"
    },
    {
      "inputs": [],
      "name": "factory",
      "outputs": [
        {
          "internalType": "address",
          "name": "",
          "type": "address"
        }
      ],
      "stateMutability": "view",
      "type": "function"
    },
    {
      "inputs": [
        {
          "internalType": "uint256",
          "name": "",
          "type": "uint256"
        },
        {
          "internalType": "address",
          "name": "",
          "type": "address"
        }
      ],
      "name": "hasVoted",
      "outputs": [
        {
          "internalType": "bool",
          "name": "",
          "type": "bool"
        }
      ],
      "stateMutability": "view",
      "type": "function"
    },
    {
      "inputs": [
        {
          "internalType": "address",
          "name": "_token",
          "type": "address"
        },
        {
          "internalType": "address",
          "name": "_creator",
          "type": "address"
        },
        {
          "internalType": "address",
          "name": "_factory",
          "type": "address"
        }
      ],
      "name": "initialize",
      "outputs": [],
      "stateMutability": "nonpayable",
      "type": "function"
    },
    {
      "inputs": [],
      "name": "startVote",
      "outputs": [],
      "stateMutability": "nonpayable",
      "type": "function"
    },
    {
      "inputs": [],
      "name": "token",
      "outputs": [
        {
          "internalType": "address",
          "name": "",
          "type": "address"
        }
      ],
      "stateMutability": "view",
      "type": "function"
    },
    {
      "inputs": [],
      "name": "totalBuyback",
      "outputs": [
        {
          "internalType": "uint256",
          "name": "",
          "type": "uint256"
        }
      ],
      "stateMutability": "view",
      "type": "function"
    },
    {
      "inputs": [],
      "name": "totalETH",
      "outputs": [
        {
          "internalType": "uint256",
          "name": "",
          "type": "uint256"
        }
      ],
      "stateMutability": "view",
      "type": "function"
    },
    {
      "inputs": [],
      "name": "totalLiquidity",
      "outputs": [
        {
          "internalType": "uint256",
          "name": "",
          "type": "uint256"
        }
      ],
      "stateMutability": "view",
      "type": "function"
    },
    {
      "inputs": [
        {
          "internalType": "uint8",
          "name": "choice",
          "type": "uint8"
        }
      ],
      "name": "vote",
      "outputs": [],
      "stateMutability": "nonpayable",
      "type": "function"
    },
    {
      "inputs": [],
      "name": "voteId",
      "outputs": [
        {
          "internalType": "uint256",
          "name": "",
          "type": "uint256"
        }
      ],
      "stateMutability": "view",
      "type": "function"
    },
    {
      "inputs": [
        {
          "internalType": "uint256",
          "name": "",
          "type": "uint256"
        },
        {
          "internalType": "address",
          "name": "",
          "type": "address"
        }
      ],
      "name": "voteWeight",
      "outputs": [
        {
          "internalType": "uint256",
          "name": "",
          "type": "uint256"
        }
      ],
      "stateMutability": "view",
      "type": "function"
    },
    {
      "inputs": [
        {
          "internalType": "uint256",
          "name": "",
          "type": "uint256"
        }
      ],
      "name": "votes",
      "outputs": [
        {
          "internalType": "uint256",
          "name": "start",
          "type": "uint256"
        },
        {
          "internalType": "uint256",
          "name": "end",
          "type": "uint256"
        },
        {
          "internalType": "uint256",
          "name": "buyVotes",
          "type": "uint256"
        },
        {
          "internalType": "uint256",
          "name": "sellVotes",
          "type": "uint256"
        },
        {
          "internalType": "uint256",
          "name": "totalSnap",
          "type": "uint256"
        },
        {
          "internalType": "bool",
          "name": "executed",
          "type": "bool"
        }
      ],
      "stateMutability": "view",
      "type": "function"
    },
    {
      "stateMutability": "payable",
      "type": "receive"
    }
  ],
  "bytecode": "0x6080806040523461001657610a74908161001c8239f35b600080fdfe608060409080825260049081361015610076575b50361561001f57600080fd5b7f2b227799c94810d40ee698c787147d7f157fb22c1ffc4784984fdddca3fa31669160809161004f3482546109ab565b90556008815191348352806020840152820152671c9958d95a5d995960c21b6060820152a1005b600090813560e01c90816302d05d3f1461096b5750806315770f921461094c57806327b911091461092d5780632b0a999d146108ea57806336bdee74146108cb57806343859632146108835780634c0a6af0146106375780635df81330146105d5578063b3f98adc146103a2578063bfa068301461021d578063c0c53b8b1461018c578063c45a015514610163578063fbb39651146101445763fc0c546a03610013578234610140578160031936011261014057905490516001600160a01b039091168152602090f35b5080fd5b5082346101405781600319360112610140576020906003549051908152f35b50823461014057816003193601126101405760025490516001600160a01b039091168152602090f35b50903461014057606036600319011261014057356001600160a01b0381811691829003610219576101bb610990565b9160443591808316809303610215576002549360ff8560a01c166102115785546001600160a01b031990811690931786556001805490931691161790556001600160a81b031990911617600160a01b1760025580f35b8580fd5b8480fd5b8280fd5b5090346101405781600319360112610140576003548252600760205282822060058101805461024f60ff821615610a07565b600183015442118015610357575b156103285760ff19166001179055479182156102fc575060028101546003909101547fe6253a32e35a2a0fbb8f74db851774bc839e1df1d0e6ac4fbab8583b9f79f293926060928692116102f35760ff60015b1691600183036102df576102c6826005546109ab565b6005555b6003549281519384526020840152820152a180f35b6102eb826006546109ab565b6006556102ca565b60ff60026102b0565b606490602086519162461bcd60e51b8352820152600660248201526509cde408aa8960d31b6044820152fd5b855162461bcd60e51b815260208186015260096024820152684e6f7420726561647960b81b6044820152606490fd5b5061036b60028401546003850154906109ab565b8484015461012c9081810291818304149015171561038f576127109004111561025d565b634e487b7160e01b875260118652602487fd5b50903461014057602090816003193601126102195780359060ff82168092036105d15760035480855260078452858520918254421015806105c3575b15610593576103f460ff60058501541615610a07565b81865260088552868620338752855260ff878720541661056057855487516370a0823160e01b8152338184015294939291908690869060249082906001600160a01b03165afa948515610556578795610523575b5084156104f457509186608094927f27eb20ecadc80d52f641a540b295d208f7c3735545d321b08e505116c601319996948852600885528188203389528552818820600160ff1982541617905560035488526009855281882033895285528382892055600183146000146104df576002016104c48482546109ab565b90555b6003548151943386528501528301526060820152a180f35b6003016104ed8482546109ab565b90556104c7565b875162461bcd60e51b815290810186905260096024820152684e6f20746f6b656e7360b81b6044820152606490fd5b9094508581813d831161054f575b61053b81836109ce565b8101031261054b57519338610448565b8680fd5b503d610531565b88513d89823e3d90fd5b865162461bcd60e51b8152908101859052600d60248201526c105b1c9958591e481d9bdd1959609a1b6044820152606490fd5b865162461bcd60e51b8152908101859052600a6024820152694e6f742061637469766560b01b6044820152606490fd5b5060018301544211156103de565b8380fd5b509134610219576020366003190112610219578060c0938335815260076020522080549260018201549260028301549060ff600560038601549486015495015416948151968752602087015285015260608401526080830152151560a0820152f35b508234610140578160031936011261014057815481516370a0823160e01b81523385820152602092916001600160a01b0316908381602481855afa90811561087957859161084c575b50156105d157908285928251938480926318160ddd60e01b82525afa918215610842578492610813575b50600354801580156107fc575b156107cb5760001981146107b8576001018060035562093a804201928342116107a55782519060c082016001600160401b038111838210176107925784928960609795936005937ffa3d9e1f133c83e31b1d2553ed476209274f948c046b62ee90beb01b220e46779a98524283528a88840188815287850190828252888c8701938085526080880195865260a0880199818b52815260078d5220955186555160018601555160028501555160038401555190820155019051151560ff801983541691161790556003549281519384524290840152820152a180f35b634e487b7160e01b885260418952602488fd5b634e487b7160e01b865260118752602486fd5b634e487b7160e01b855260118652602485fd5b815162461bcd60e51b8152808701859052600b60248201526a41637469766520766f746560a81b6044820152606490fd5b508085526007845260ff60058387200154166106b7565b9091508281813d831161083b575b61082b81836109ce565b810103126105d1575190856106aa565b503d610821565b81513d86823e3d90fd5b90508381813d8311610872575b61086381836109ce565b81010312610215575186610680565b503d610859565b83513d87823e3d90fd5b509190346102195781600319360112610219578160209360ff926108a5610990565b90358252600886528282206001600160a01b039091168252855220549151911615158152f35b5091903461021957826003193601126102195760209250549051908152f35b50919034610219578160031936011261021957602092829161090a610990565b90358252600985528282206001600160a01b039091168252845220549051908152f35b5082346101405781600319360112610140576020906005549051908152f35b5082346101405781600319360112610140576020906006549051908152f35b9050346101405781600319360112610140576001546001600160a01b03168152602090f35b602435906001600160a01b03821682036109a657565b600080fd5b919082018092116109b857565b634e487b7160e01b600052601160045260246000fd5b601f909101601f19168101906001600160401b038211908210176109f157604052565b634e487b7160e01b600052604160045260246000fd5b15610a0e57565b60405162461bcd60e51b8152602060048201526008602482015267115e1958dd5d195960c21b6044820152606490fdfea26469706673582212205220235a2abc45d6adc651fb0ac4109637a95e0472f6ca333046a9d737bea19964736f6c63430008140033",
  "linkReferences": {},
  "deployedLinkReferences": {}
}