{
  "_format": "hh-sol-artifact-1",
  "contractName": "BasedTrenchesFactory",
  "sourceName": "contracts/BasedTrenchesFactory.sol",
  "abi": [
    {
      "inputs": [
        {
          "internalType": "address",
          "name": "_platform",
          "type": "address"
        },
        {
          "internalType": "address",
          "name": "_chest",
          "type": "address"
        },
        {
          "internalType": "address",
          "name": "_vault",
          "type": "address"
        },
        {
          "internalType": "address",
          "name": "_tokenImpl",
          "type": "address"
        },
        {
          "internalType": "address",
          "name": "_armoryImpl",
          "type": "address"
        },
        {
          "internalType": "address",
          "name": "_fortifyImpl",
          "type": "address"
        },
        {
          "internalType": "address",
          "name": "_curveImpl",
          "type": "address"
        }
      ],
      "stateMutability": "nonpayable",
      "type": "constructor"
    },
    {
      "anonymous": false,
      "inputs": [
        {
          "indexed": true,
          "internalType": "address",
          "name": "token",
          "type": "address"
        },
        {
          "indexed": true,
          "internalType": "address",
          "name": "creator",
          "type": "address"
        },
        {
          "indexed": true,
          "internalType": "address",
          "name": "curve",
          "type": "address"
        },
        {
          "indexed": false,
          "internalType": "address",
          "name": "armory",
          "type": "address"
        },
        {
          "indexed": false,
          "internalType": "address",
          "name": "fortify",
          "type": "address"
        },
        {
          "indexed": false,
          "internalType": "string",
          "name": "name",
          "type": "string"
        },
        {
          "indexed": false,
          "internalType": "string",
          "name": "symbol",
          "type": "string"
        },
        {
          "indexed": false,
          "internalType": "uint256",
          "name": "timestamp",
          "type": "uint256"
        }
      ],
      "name": "TokenLaunched",
      "type": "event"
    },
    {
      "inputs": [],
      "name": "LAUNCH_FEE",
      "outputs": [
        {
          "internalType": "uint256",
          "name": "",
          "type": "uint256"
        }
      ],
      "stateMutability": "view",
      "type": "function"
    },
    {
      "inputs": [
        {
          "internalType": "uint256",
          "name": "",
          "type": "uint256"
        }
      ],
      "name": "allTokens",
      "outputs": [
        {
          "internalType": "address",
          "name": "",
          "type": "address"
        }
      ],
      "stateMutability": "view",
      "type": "function"
    },
    {
      "inputs": [],
      "name": "armoryImpl",
      "outputs": [
        {
          "internalType": "address",
          "name": "",
          "type": "address"
        }
      ],
      "stateMutability": "view",
      "type": "function"
    },
    {
      "inputs": [],
      "name": "curveImpl",
      "outputs": [
        {
          "internalType": "address",
          "name": "",
          "type": "address"
        }
      ],
      "stateMutability": "view",
      "type": "function"
    },
    {
      "inputs": [],
      "name": "fortifyImpl",
      "outputs": [
        {
          "internalType": "address",
          "name": "",
          "type": "address"
        }
      ],
      "stateMutability": "view",
      "type": "function"
    },
    {
      "inputs": [],
      "name": "getAllTokens",
      "outputs": [
        {
          "internalType": "address[]",
          "name": "",
          "type": "address[]"
        }
      ],
      "stateMutability": "view",
      "type": "function"
    },
    {
      "inputs": [
        {
          "internalType": "address",
          "name": "t",
          "type": "address"
        }
      ],
      "name": "getTokenData",
      "outputs": [
        {
          "internalType": "address",
          "name": "",
          "type": "address"
        },
        {
          "internalType": "address",
          "name": "",
          "type": "address"
        },
        {
          "internalType": "address",
          "name": "",
          "type": "address"
        },
        {
          "internalType": "bool",
          "name": "",
          "type": "bool"
        }
      ],
      "stateMutability": "view",
      "type": "function"
    },
    {
      "inputs": [
        {
          "internalType": "address",
          "name": "",
          "type": "address"
        }
      ],
      "name": "isValidToken",
      "outputs": [
        {
          "internalType": "bool",
          "name": "",
          "type": "bool"
        }
      ],
      "stateMutability": "view",
      "type": "function"
    },
    {
      "inputs": [
        {
          "components": [
            {
              "internalType": "string",
              "name": "name",
              "type": "string"
            },
            {
              "internalType": "string",
              "name": "symbol",
              "type": "string"
            },
            {
              "internalType": "string",
              "name": "imageUri",
              "type": "string"
            },
            {
              "internalType": "string",
              "name": "description",
              "type": "string"
            },
            {
              "internalType": "string",
              "name": "website",
              "type": "string"
            },
            {
              "internalType": "string",
              "name": "twitter",
              "type": "string"
            },
            {
              "internalType": "string",
              "name": "telegram",
              "type": "string"
            }
          ],
          "internalType": "struct BasedTrenchesFactory.Meta",
          "name": "m",
          "type": "tuple"
        }
      ],
      "name": "launchToken",
      "outputs": [
        {
          "internalType": "address",
          "name": "token",
          "type": "address"
        },
        {
          "internalType": "address",
          "name": "curve",
          "type": "address"
        },
        {
          "internalType": "address",
          "name": "armory",
          "type": "address"
        },
        {
          "internalType": "address",
          "name": "fortify",
          "type": "address"
        }
      ],
      "stateMutability": "payable",
      "type": "function"
    },
    {
      "inputs": [],
      "name": "locked",
      "outputs": [
        {
          "internalType": "bool",
          "name": "",
          "type": "bool"
        }
      ],
      "stateMutability": "view",
      "type": "function"
    },
    {
      "inputs": [],
      "name": "platformWallet",
      "outputs": [
        {
          "internalType": "address",
          "name": "",
          "type": "address"
        }
      ],
      "stateMutability": "view",
      "type": "function"
    },
    {
      "inputs": [],
      "name": "protocolVault",
      "outputs": [
        {
          "internalType": "address",
          "name": "",
          "type": "address"
        }
      ],
      "stateMutability": "view",
      "type": "function"
    },
    {
      "inputs": [],
      "name": "tokenCount",
      "outputs": [
        {
          "internalType": "uint256",
          "name": "",
          "type": "uint256"
        }
      ],
      "stateMutability": "view",
      "type": "function"
    },
    {
      "inputs": [],
      "name": "tokenImpl",
      "outputs": [
        {
          "internalType": "address",
          "name": "",
          "type": "address"
        }
      ],
      "stateMutability": "view",
      "type": "function"
    },
    {
      "inputs": [
        {
          "internalType": "address",
          "name": "",
          "type": "address"
        }
      ],
      "name": "tokenToArmory",
      "outputs": [
        {
          "internalType": "address",
          "name": "",
          "type": "address"
        }
      ],
      "stateMutability": "view",
      "type": "function"
    },
    {
      "inputs": [
        {
          "internalType": "address",
          "name": "",
          "type": "address"
        }
      ],
      "name": "tokenToCurve",
      "outputs": [
        {
          "internalType": "address",
          "name": "",
          "type": "address"
        }
      ],
      "stateMutability": "view",
      "type": "function"
    },
    {
      "inputs": [
        {
          "internalType": "address",
          "name": "",
          "type": "address"
        }
      ],
      "name": "tokenToFortify",
      "outputs": [
        {
          "internalType": "address",
          "name": "",
          "type": "address"
        }
      ],
      "stateMutability": "view",
      "type": "function"
    },
    {
      "inputs": [],
      "name": "warChest",
      "outputs": [
        {
          "internalType": "address",
          "name": "",
          "type": "address"
        }
      ],
      "stateMutability": "view",
      "type": "function"
    }
  ],
  "bytecode": "0x610160346200017057601f6200148338819003918201601f19168301916001600160401b03831184841017620001755780849260e09460405283398101031262000170576200004e816200018b565b906200005d602082016200018b565b916200006c604083016200018b565b6200007a606084016200018b565b9062000089608085016200018b565b94620000a660c06200009e60a088016200018b565b96016200018b565b936001600160a01b03808216156200017057808316156200017057831615620001705760805260a05260c05260e052610100928352610120918252610140908152604051916112e29384620001a1853960805184818161063f01528181610d5f0152611061015260a05184818161049501528181610db00152610f43015260c0518481816103740152610d87015260e0518481816106840152610add0152518381816104da0152610b070152518281816104020152610b310152518181816102530152610b5b0152f35b600080fd5b634e487b7160e01b600052604160045260246000fd5b51906001600160a01b0382168203620001705756fe6080604052600436101561001257600080fd5b60003560e01c806309197a81146101375780630c74fbac1461013257806313ff7e9f1461012d57806322b7093014610128578063231107bf146101235780632a5c792a1461011e5780635a9249e614610119578063634282af146101145780637aa472941461010f5780639f181b5e1461010a578063b69fc99414610105578063bb22e37114610100578063bc58036c146100fb578063c1876453146100f6578063cf309012146100f1578063fa1c492e146100ec578063fa2af9da146100e75763ffc4992f146100e257600080fd5b61066e565b610629565b610560565b61053d565b610509565b6104c4565b61047f565b61044f565b610431565b6103ec565b6103a3565b61035e565b6102b2565b610282565b61023d565b6101d3565b6101a3565b61014c565b600091031261014757565b600080fd5b3461014757600036600319011261014757602060405166071afd498d00008152f35b6020906003190112610147576004356001600160a01b03811681036101475790565b6001600160a01b03909116815260200190565b346101475760206001600160a01b03806101bc3661016e565b166000526003825260406000205416604051908152f35b346101475760806001600160a01b03806101ec3661016e565b166000526003602052604090808260002054169160046020528181600020541691600560205281600020541690600260205260ff816000205416928151948552602085015283015215156060820152f35b34610147576000366003190112610147576040517f00000000000000000000000000000000000000000000000000000000000000006001600160a01b03168152602090f35b346101475760206001600160a01b038061029b3661016e565b166000526004825260406000205416604051908152f35b346101475760008060031936011261035b57604051809160065490818352602080930180926006835284832090835b81811061033e57505050846102f79103856107ca565b60405193838594850191818652518092526040850193925b82811061031e57505050500390f35b83516001600160a01b03168552869550938101939281019260010161030f565b82546001600160a01b0316845292860192600192830192016102e1565b80fd5b34610147576000366003190112610147576040517f00000000000000000000000000000000000000000000000000000000000000006001600160a01b03168152602090f35b346101475760203660031901126101475760043560065481101561014757600660005260008051602061128d83398151915201546040516001600160a01b039091168152602090f35b34610147576000366003190112610147576040517f00000000000000000000000000000000000000000000000000000000000000006001600160a01b03168152602090f35b34610147576000366003190112610147576020600054604051908152f35b346101475760206001600160a01b03806104683661016e565b166000526005825260406000205416604051908152f35b34610147576000366003190112610147576040517f00000000000000000000000000000000000000000000000000000000000000006001600160a01b03168152602090f35b34610147576000366003190112610147576040517f00000000000000000000000000000000000000000000000000000000000000006001600160a01b03168152602090f35b34610147576001600160a01b0361051f3661016e565b166000526002602052602060ff604060002054166040519015158152f35b3461014757600036600319011261014757602060ff600154166040519015158152f35b60031960203682011261014757600435906001600160401b0382116101475760e09082360301126101475760015460ff81166105f8576105f49160016105b09260ff191617600155600401610a97565b906105c394929460ff1960015416600155565b604080516001600160a01b039586168152958516602087015290841690850152909116606083015281906080820190565b0390f35b60405162461bcd60e51b81526020600482015260096024820152681499595b9d1c985b9d60ba1b6044820152606490fd5b34610147576000366003190112610147576040517f00000000000000000000000000000000000000000000000000000000000000006001600160a01b03168152602090f35b34610147576000366003190112610147576040517f00000000000000000000000000000000000000000000000000000000000000006001600160a01b03168152602090f35b156106ba57565b60405162461bcd60e51b815260206004820152600e60248201526d0a6cadcc840605c606064408aa8960931b6044820152606490fd5b903590601e198136030182121561014757018035906001600160401b0382116101475760200191813603831361014757565b1561072957565b60405162461bcd60e51b815260206004820152600d60248201526c13985b59481c995c5d5a5c9959609a1b6044820152606490fd5b1561076557565b60405162461bcd60e51b815260206004820152600f60248201526e14de5b589bdb081c995c5d5a5c9959608a1b6044820152606490fd5b634e487b7160e01b600052604160045260246000fd5b6001600160401b0381116107c557604052565b61079c565b601f909101601f19168101906001600160401b038211908210176107c557604052565b908060209392818452848401376000828201840152601f01601f1916010190565b9492909361082d60609561083b949998996080895260808901916107ed565b9186830360208801526107ed565b6001600160a01b0391821660408501529416910152565b6040513d6000823e3d90fd5b989694916108a1936108bd9b99956108856108af99946108939460a08f81815201916107ed565b8c810360208e0152916107ed565b9189830360408b01526107ed565b9186830360608801526107ed565b9260808185039101526107ed565b90565b90816020910312610147575190565b90816020910312610147575180151581036101475790565b156108ee57565b60405162461bcd60e51b815260206004820152601660248201527514dd5c1c1b1e481d1c985b9cd9995c8819985a5b195960521b6044820152606490fd5b80546001600160a01b0319166001600160a01b03909216919091179055565b600654600160401b8110156107c557600181018060065581101561099d57600660005260008051602061128d8339815191520180546001600160a01b0319166001600160a01b03909216919091179055565b634e487b7160e01b600052603260045260246000fd5b60001981146109c25760010190565b634e487b7160e01b600052601160045260246000fd5b3d15610a12573d906001600160401b0382116107c55760405191610a06601f8201601f1916602001846107ca565b82523d6000602084013e565b606090565b15610a1e57565b60405162461bcd60e51b815260206004820152600a6024820152691199594819985a5b195960b21b6044820152606490fd5b9796959192610a9294610a84926080979560018060a01b038092168c521660208b015260a060408b015260a08a01916107ed565b9187830360608901526107ed565b930152565b610aa966071afd498d000034146106b3565b610abf610ab682806106f0565b90501515610722565b610ad8610acf60208301836106f0565b9050151561075e565b610b017f0000000000000000000000000000000000000000000000000000000000000000611200565b91610b2b7f0000000000000000000000000000000000000000000000000000000000000000611200565b90610b557f0000000000000000000000000000000000000000000000000000000000000000611200565b90610b7f7f0000000000000000000000000000000000000000000000000000000000000000611200565b93610b8a81806106f0565b90610b9860208401846106f0565b926001600160a01b038a163b1561014757610bcd6000938a60405196879586956323c56d0560e21b875230946004880161080e565b0381836001600160a01b038c165af1801561111a576111ed575b50610bf560408201826106f0565b610c0260608401846106f0565b919092610c1260808601866106f0565b8b610c2360a08997949701896106f0565b90610c3160c08b018b6106f0565b9490936001600160a01b03163b1561014757600098610c65966040519b8c9a8b9a63cc0d24e760e01b8c5260048c0161085e565b0381836001600160a01b038c165af1801561111a576111da575b506001600160a01b038416803b156101475760405163c0c53b8b60e01b81526001600160a01b0388166004820152336024820152306044820152906000908290606490829084905af1801561111a576111c7575b506001600160a01b038316803b156101475760405163485cc95560e01b81526001600160a01b0388166004820152306024820152906000908290604490829084905af1801561111a576111b4575b506001600160a01b0385163b1561014757604051631ac3b23b60e11b81526001600160a01b03878116600483015233602483015285811660448301527f0000000000000000000000000000000000000000000000000000000000000000811660648301527f000000000000000000000000000000000000000000000000000000000000000080821660848401527f000000000000000000000000000000000000000000000000000000000000000090911660a48301523060c483015291906000818060e481010381836001600160a01b038c165af1801561111a576111a1575b506040516318160ddd60e01b81526020816004816001600160a01b038c165afa90811561111a57610e6891602091600091611174575b5060405163a9059cbb60e01b81526001600160a01b038a166004820152602481019190915291829081906044820190565b038160006001600160a01b038d165af1801561111a57610e9091600091611145575b506108e7565b6001600160a01b0382163b156101475760405163055acfa560e41b81526001600160a01b0380891660048301528087166024830152851660448201526000606482018190528180608481010381836001600160a01b0388165af1801561111a57611132575b506001600160a01b0382163b1561014757604051600081632c3bf5c560e21b94858252818381610f288d60048301610190565b03926001600160a01b03165af1801561111a5761111f575b507f00000000000000000000000000000000000000000000000000000000000000006001600160a01b031691823b15610147576000906040519384918252818381610f8e8c60048301610190565b03925af190811561111a576110d1928892611101575b506001600160a01b0382166000908152600260205260409020610fce90805460ff19166001179055565b6001600160a01b0382166000908152600360205260409020610ff190889061092c565b6001600160a01b038216600090815260046020526040902061101490879061092c565b6001600160a01b038216600090815260056020526040902061103790869061092c565b6110408261094b565b61104b6000546109b3565b60009081556110999080808066071afd498d00007f00000000000000000000000000000000000000000000000000000000000000006001600160a01b03165af16110936109d8565b50610a17565b7fe3e5b3be6a13e1f9f202d939fdd647ee243040530e0c0b71ec5936ffe681c8056110c482806106f0565b94909260208101906106f0565b6040516001600160a01b03808c1697339790911695919384936110fc934293919291908d8f88610a50565b0390a4565b8061110e611114926107b2565b8061013c565b38610fa4565b610852565b8061110e61112c926107b2565b38610f40565b8061110e61113f926107b2565b38610ef5565b611167915060203d60201161116d575b61115f81836107ca565b8101906108cf565b38610e8a565b503d611155565b6111949150823d841161119a575b61118c81836107ca565b8101906108c0565b38610e37565b503d611182565b8061110e6111ae926107b2565b38610e01565b8061110e6111c1926107b2565b38610d21565b8061110e6111d4926107b2565b38610cd3565b8061110e6111e7926107b2565b38610c7f565b8061110e6111fa926107b2565b38610be7565b604051733d602d80600a3d3981f3363d3d373d3d3d363d7360601b815260609190911b60148201526e5af43d82803e903d91602b57fd5bf360881b60288201526037906000f0906001600160a01b0382161561125857565b60405162461bcd60e51b815260206004820152600c60248201526b10db1bdb994819985a5b195960a21b6044820152606490fdfef652222313e28459528d920b65115c16c04f3efc82aaedc97be59f3f377c0d3fa2646970667358221220405a61b4949062ff802afd462d00dcc2c39ee1808bc30ef984f70ab7a75c68b564736f6c63430008140033",
  "linkReferences": {},
  "deployedLinkReferences": {}
}