{
  "_format": "hh-sol-artifact-1",
  "contractName": "BondingCurve",
  "sourceName": "contracts/BondingCurve.sol",
  "abi": [
    {
      "anonymous": false,
      "inputs": [
        {
          "indexed": true,
          "internalType": "address",
          "name": "buyer",
          "type": "address"
        },
        {
          "indexed": false,
          "internalType": "uint256",
          "name": "ethIn",
          "type": "uint256"
        },
        {
          "indexed": false,
          "internalType": "uint256",
          "name": "tokensOut",
          "type": "uint256"
        },
        {
          "indexed": false,
          "internalType": "uint256",
          "name": "fee",
          "type": "uint256"
        },
        {
          "indexed": false,
          "internalType": "address",
          "name": "referrer",
          "type": "address"
        }
      ],
      "name": "Buy",
      "type": "event"
    },
    {
      "anonymous": false,
      "inputs": [
        {
          "indexed": false,
          "internalType": "uint256",
          "name": "lpETH",
          "type": "uint256"
        },
        {
          "indexed": false,
          "internalType": "uint256",
          "name": "lpTokens",
          "type": "uint256"
        }
      ],
      "name": "Graduated",
      "type": "event"
    },
    {
      "anonymous": false,
      "inputs": [
        {
          "indexed": false,
          "internalType": "string",
          "name": "reason",
          "type": "string"
        }
      ],
      "name": "RaidTriggered",
      "type": "event"
    },
    {
      "anonymous": false,
      "inputs": [
        {
          "indexed": true,
          "internalType": "address",
          "name": "seller",
          "type": "address"
        },
        {
          "indexed": false,
          "internalType": "uint256",
          "name": "tokensIn",
          "type": "uint256"
        },
        {
          "indexed": false,
          "internalType": "uint256",
          "name": "ethOut",
          "type": "uint256"
        },
        {
          "indexed": false,
          "internalType": "uint256",
          "name": "fee",
          "type": "uint256"
        }
      ],
      "name": "Sell",
      "type": "event"
    },
    {
      "inputs": [],
      "name": "BUY_FEE_BPS",
      "outputs": [
        {
          "internalType": "uint256",
          "name": "",
          "type": "uint256"
        }
      ],
      "stateMutability": "view",
      "type": "function"
    },
    {
      "inputs": [],
      "name": "CREATOR_BPS",
      "outputs": [
        {
          "internalType": "uint256",
          "name": "",
          "type": "uint256"
        }
      ],
      "stateMutability": "view",
      "type": "function"
    },
    {
      "inputs": [],
      "name": "CREATOR_SHARE",
      "outputs": [
        {
          "internalType": "uint256",
          "name": "",
          "type": "uint256"
        }
      ],
      "stateMutability": "view",
      "type": "function"
    },
    {
      "inputs": [],
      "name": "CURVE_SUPPLY",
      "outputs": [
        {
          "internalType": "uint256",
          "name": "",
          "type": "uint256"
        }
      ],
      "stateMutability": "view",
      "type": "function"
    },
    {
      "inputs": [],
      "name": "GRAD_TARGET",
      "outputs": [
        {
          "internalType": "uint256",
          "name": "",
          "type": "uint256"
        }
      ],
      "stateMutability": "view",
      "type": "function"
    },
    {
      "inputs": [],
      "name": "LP_ETH",
      "outputs": [
        {
          "internalType": "uint256",
          "name": "",
          "type": "uint256"
        }
      ],
      "stateMutability": "view",
      "type": "function"
    },
    {
      "inputs": [],
      "name": "LP_SUPPLY",
      "outputs": [
        {
          "internalType": "uint256",
          "name": "",
          "type": "uint256"
        }
      ],
      "stateMutability": "view",
      "type": "function"
    },
    {
      "inputs": [],
      "name": "PLATFORM_BPS",
      "outputs": [
        {
          "internalType": "uint256",
          "name": "",
          "type": "uint256"
        }
      ],
      "stateMutability": "view",
      "type": "function"
    },
    {
      "inputs": [],
      "name": "PLATFORM_SHARE",
      "outputs": [
        {
          "internalType": "uint256",
          "name": "",
          "type": "uint256"
        }
      ],
      "stateMutability": "view",
      "type": "function"
    },
    {
      "inputs": [],
      "name": "SELL_FEE_BPS",
      "outputs": [
        {
          "internalType": "uint256",
          "name": "",
          "type": "uint256"
        }
      ],
      "stateMutability": "view",
      "type": "function"
    },
    {
      "inputs": [],
      "name": "VIRT_ETH",
      "outputs": [
        {
          "internalType": "uint256",
          "name": "",
          "type": "uint256"
        }
      ],
      "stateMutability": "view",
      "type": "function"
    },
    {
      "inputs": [],
      "name": "VIRT_TOKENS",
      "outputs": [
        {
          "internalType": "uint256",
          "name": "",
          "type": "uint256"
        }
      ],
      "stateMutability": "view",
      "type": "function"
    },
    {
      "inputs": [],
      "name": "armory",
      "outputs": [
        {
          "internalType": "address",
          "name": "",
          "type": "address"
        }
      ],
      "stateMutability": "view",
      "type": "function"
    },
    {
      "inputs": [
        {
          "internalType": "uint256",
          "name": "minTokensOut",
          "type": "uint256"
        },
        {
          "internalType": "address",
          "name": "ref",
          "type": "address"
        }
      ],
      "name": "buy",
      "outputs": [],
      "stateMutability": "payable",
      "type": "function"
    },
    {
      "inputs": [],
      "name": "buyCount90s",
      "outputs": [
        {
          "internalType": "uint256",
          "name": "",
          "type": "uint256"
        }
      ],
      "stateMutability": "view",
      "type": "function"
    },
    {
      "inputs": [
        {
          "internalType": "uint256",
          "name": "ethIn",
          "type": "uint256"
        }
      ],
      "name": "buyQuote",
      "outputs": [
        {
          "internalType": "uint256",
          "name": "tokensOut",
          "type": "uint256"
        },
        {
          "internalType": "uint256",
          "name": "fee",
          "type": "uint256"
        }
      ],
      "stateMutability": "view",
      "type": "function"
    },
    {
      "inputs": [],
      "name": "creator",
      "outputs": [
        {
          "internalType": "address",
          "name": "",
          "type": "address"
        }
      ],
      "stateMutability": "view",
      "type": "function"
    },
    {
      "inputs": [],
      "name": "currentPrice",
      "outputs": [
        {
          "internalType": "uint256",
          "name": "",
          "type": "uint256"
        }
      ],
      "stateMutability": "view",
      "type": "function"
    },
    {
      "inputs": [],
      "name": "deployBlock",
      "outputs": [
        {
          "internalType": "uint256",
          "name": "",
          "type": "uint256"
        }
      ],
      "stateMutability": "view",
      "type": "function"
    },
    {
      "inputs": [],
      "name": "ethIn3min",
      "outputs": [
        {
          "internalType": "uint256",
          "name": "",
          "type": "uint256"
        }
      ],
      "stateMutability": "view",
      "type": "function"
    },
    {
      "inputs": [],
      "name": "factory",
      "outputs": [
        {
          "internalType": "address",
          "name": "",
          "type": "address"
        }
      ],
      "stateMutability": "view",
      "type": "function"
    },
    {
      "inputs": [],
      "name": "flushPlatformBuffer",
      "outputs": [],
      "stateMutability": "nonpayable",
      "type": "function"
    },
    {
      "inputs": [],
      "name": "graduated",
      "outputs": [
        {
          "internalType": "bool",
          "name": "",
          "type": "bool"
        }
      ],
      "stateMutability": "view",
      "type": "function"
    },
    {
      "inputs": [
        {
          "internalType": "address",
          "name": "_token",
          "type": "address"
        },
        {
          "internalType": "address",
          "name": "_creator",
          "type": "address"
        },
        {
          "internalType": "address",
          "name": "_armory",
          "type": "address"
        },
        {
          "internalType": "address",
          "name": "_platform",
          "type": "address"
        },
        {
          "internalType": "address",
          "name": "_vault",
          "type": "address"
        },
        {
          "internalType": "address",
          "name": "_chest",
          "type": "address"
        },
        {
          "internalType": "address",
          "name": "_factory",
          "type": "address"
        }
      ],
      "name": "initialize",
      "outputs": [],
      "stateMutability": "nonpayable",
      "type": "function"
    },
    {
      "inputs": [],
      "name": "platformBuffer",
      "outputs": [
        {
          "internalType": "uint256",
          "name": "",
          "type": "uint256"
        }
      ],
      "stateMutability": "view",
      "type": "function"
    },
    {
      "inputs": [],
      "name": "platformWallet",
      "outputs": [
        {
          "internalType": "address",
          "name": "",
          "type": "address"
        }
      ],
      "stateMutability": "view",
      "type": "function"
    },
    {
      "inputs": [],
      "name": "protocolVault",
      "outputs": [
        {
          "internalType": "address",
          "name": "",
          "type": "address"
        }
      ],
      "stateMutability": "view",
      "type": "function"
    },
    {
      "inputs": [],
      "name": "raidActive",
      "outputs": [
        {
          "internalType": "bool",
          "name": "",
          "type": "bool"
        }
      ],
      "stateMutability": "view",
      "type": "function"
    },
    {
      "inputs": [],
      "name": "realETH",
      "outputs": [
        {
          "internalType": "uint256",
          "name": "",
          "type": "uint256"
        }
      ],
      "stateMutability": "view",
      "type": "function"
    },
    {
      "inputs": [
        {
          "internalType": "address",
          "name": "",
          "type": "address"
        }
      ],
      "name": "referralEarned",
      "outputs": [
        {
          "internalType": "uint256",
          "name": "",
          "type": "uint256"
        }
      ],
      "stateMutability": "view",
      "type": "function"
    },
    {
      "inputs": [
        {
          "internalType": "address",
          "name": "",
          "type": "address"
        }
      ],
      "name": "referrer",
      "outputs": [
        {
          "internalType": "address",
          "name": "",
          "type": "address"
        }
      ],
      "stateMutability": "view",
      "type": "function"
    },
    {
      "inputs": [],
      "name": "resetRaid",
      "outputs": [],
      "stateMutability": "nonpayable",
      "type": "function"
    },
    {
      "inputs": [
        {
          "internalType": "uint256",
          "name": "tokensIn",
          "type": "uint256"
        },
        {
          "internalType": "uint256",
          "name": "minETHOut",
          "type": "uint256"
        }
      ],
      "name": "sell",
      "outputs": [],
      "stateMutability": "nonpayable",
      "type": "function"
    },
    {
      "inputs": [
        {
          "internalType": "uint256",
          "name": "tokensIn",
          "type": "uint256"
        }
      ],
      "name": "sellQuote",
      "outputs": [
        {
          "internalType": "uint256",
          "name": "ethOut",
          "type": "uint256"
        },
        {
          "internalType": "uint256",
          "name": "fee",
          "type": "uint256"
        }
      ],
      "stateMutability": "view",
      "type": "function"
    },
    {
      "inputs": [],
      "name": "token",
      "outputs": [
        {
          "internalType": "address",
          "name": "",
          "type": "address"
        }
      ],
      "stateMutability": "view",
      "type": "function"
    },
    {
      "inputs": [],
      "name": "virtualETH",
      "outputs": [
        {
          "internalType": "uint256",
          "name": "",
          "type": "uint256"
        }
      ],
      "stateMutability": "view",
      "type": "function"
    },
    {
      "inputs": [],
      "name": "virtualTokens",
      "outputs": [
        {
          "internalType": "uint256",
          "name": "",
          "type": "uint256"
        }
      ],
      "stateMutability": "view",
      "type": "function"
    },
    {
      "inputs": [],
      "name": "warChest",
      "outputs": [
        {
          "internalType": "address",
          "name": "",
          "type": "address"
        }
      ],
      "stateMutability": "view",
      "type": "function"
    },
    {
      "inputs": [],
      "name": "window3minStart",
      "outputs": [
        {
          "internalType": "uint256",
          "name": "",
          "type": "uint256"
        }
      ],
      "stateMutability": "view",
      "type": "function"
    },
    {
      "inputs": [],
      "name": "window90sStart",
      "outputs": [
        {
          "internalType": "uint256",
          "name": "",
          "type": "uint256"
        }
      ],
      "stateMutability": "view",
      "type": "function"
    },
    {
      "stateMutability": "payable",
      "type": "receive"
    }
  ],
  "bytecode": "0x608080604052346100315766354a6ba7a180006007556b037790a0e8714009b49c000060085561148990816100378239f35b600080fdfe6080604081815260049182361015610022575b505050361561002057600080fd5b005b600092833560e01c91826302d05d3f1461106f575081630f54f39a1461104c57816311d8c0ec1461102d578163168585e514610fd25781631ce6d4ce14610fab5781631d3dad0914610f8c5781631e4c729214610f665781632347e36d14610f475781632cf003c214610f0c5781632dd9e54d14610ee857816331cd617914610eb05781633587647614610dc457816345904567146105ba5781634fbcad6a14610da55781635a9249e614610d7d57816366fab57c146105bf578163670171fd14610d57578163751f2f0514610d2e57816376edb6f414610d0b5781637deb60251461073057816386133f2a146106f8578163878fa42f146106d95781639731aa2e1461025a5781639ba6631b146106a15781639d1b464a14610657578163a1908e1014610635578163a3ec191a14610616578163bb22e371146105ed578163c45a0155146105c4578163cc0c3039146105bf578163ce91e164146105ba578163d79875eb14610345578163d7a2e4c9146102be57508063dd5e6f42146102a0578063dec5f9aa14610282578063e7c2b7721461025f578063f43645151461025a578063f771e64c1461023c578063fa2af9da146102145763fc0c546a146101ea5780610012565b34610210578160031936011261021057905490516001600160a01b039091168152602090f35b5080fd5b503461021057816003193601126102105760035490516001600160a01b039091168152602090f35b5034610210578160031936011261021057602090600e549051908152f35b611104565b503461021057816003193601126102105760209060ff600c541690519015158152f35b5034610210578160031936011261021057602090600a549051908152f35b50346102105781600319360112610210576020906010549051908152f35b83915034610210576020366003190112610210576103006007546102fa6008546102f46102eb8285611120565b91863590611176565b90611149565b90611169565b9160c883029183830460c8148415171561033257505061271061032591048092611169565b9082519182526020820152f35b634e487b7160e01b825260119052602490fd5b919050346105b657806003193601126105b65782823591600c549360ff8560081c166105b65761ff001985811661010017600c559460ff166105b65783156105b657825482516323b872dd60e01b81523381840152306024820152604481018690526020946001600160a01b03939286918391606491839188165af19081156105ac57889161057f575b501561054a5760075491600854916104056103fe6103f7896103f18789611120565b96611176565b8095611149565b8095611169565b6064810281810460641482151715610537576127109004936104308561042b8185611169565b611169565b9561043f602435881015611183565b600a549361044d8547611169565b88116104fb57509261047361047b93879695936104a79894600755600855600954611169565b600955611176565b600a5561048c82826002541661140e565b600a54806104e3575b50506104a1833361140e565b80611176565b9282519485528401528201527f846c37eef631e0943682d87352ec117c20008eb7f425c9b85ac011a6d4774cc060603392a2600c5416600c5580f35b6104f4918a600a556003541661140e565b3880610495565b885162461bcd60e51b81529081018a90526016602482015275496e73756666696369656e74206c697175696469747960501b6044820152606490fd5b634e487b7160e01b8b526011835260248bfd5b825162461bcd60e51b8152908101849052600f60248201526e151c985b9cd9995c8819985a5b1959608a1b6044820152606490fd5b61059f9150853d87116105a5575b61059781836111ba565b8101906111f3565b386103cf565b503d61058d565b84513d8a823e3d90fd5b8280fd5b6110c5565b6110e1565b50503461021057816003193601126102105760065490516001600160a01b039091168152602090f35b50503461021057816003193601126102105760055490516001600160a01b039091168152602090f35b505034610210578160031936011261021057602090600b549051908152f35b5050346102105781600319360112610210576020905166354a6ba7a180008152f35b82843461069e578060031936011261069e5760075492670de0b6b3a764000093848102948186041490151715610332576020836106978660085490611149565b9051908152f35b80fd5b833461069e578060031936011261069e57600a54801561021057600a8290556003546106d691906001600160a01b031661140e565b80f35b5050346102105781600319360112610210576020906009549051908152f35b833461069e578060031936011261069e576006546001600160a01b0316330361069e5760ff196011541660115580600d5580600f5580f35b838380600319360112610210576107456110af565b600c9182549160ff8360081c16610d075761ff00198381166101001785559260ff16610d07573415610d0757600b54431115610cd7576001546001600160a01b03919082163314610ca15760c834029034820460c803610c8e576127108092049160643402348104606403610c435781859104921680151580610c84575b15610c6b57338952601260205285892090815486811615610c56575b5050503460011b348104600203610c4357610857929161084f91049161084561080c8461042b8489611169565b93338c52601260205287898d2054168c526013602052888c20610830828254611176565b9055338c52601260205287898d20541661140e565b856001541661140e565b600a54611176565b600a556108648134611169565b600754906008549161089461088d610886846108808786611120565b94611176565b8093611149565b8094611169565b926108a28b35851015611183565b600954916108b08484611176565b66354a6ba7a180008101809111610c30576729d76e869dcd800010610bfc576007556008556108df9190611176565b60095580838854169285518a8163a9059cbb60e01b96878252818d8161090c60209a8b973390840161120b565b03925af1908115610bf2578a91610bd5575b5015610b9a5761092d34611226565b3389526012835284868a20541690865192348452848401528683015260608201527f678bff21967f2f3a09540ac4650c6827fff735b884ee0cede358697f4fbfaf8460803392a26729a2241af62c00006009541015610993575b50505050815416905580f35b855460ff19166001178655600a5480610b82575b506109b58360015416611396565b6109c28360035416611396565b865484516370a0823160e01b8152308a820152929084168284602481845afa938415610b78578994610b43575b50839183918b8b8882541693610a108b51978896879586948552840161120b565b03925af1908115610adb578891610b26575b5015610ae9578288541692875416833b15610ae5578783918a610a55885194859384936256688760e81b8552840161120b565b03816722b1c8c1227a000080985af18015610adb57610aab575b507facfdce92da76539f5af2efc3aa76d42a7a92af4d723a23d144f58fdf1472921e94959697508351928352820152a190829184808080610987565b9096906001600160401b038111610ac85784529596508688610a6f565b634e487b7160e01b825260418952602482fd5b85513d8a823e3d90fd5b8780fd5b8760649185519162461bcd60e51b835282015260186024820152771314081d1bdad95b881d1c985b9cd9995c8819985a5b195960421b6044820152fd5b610b3d9150823d84116105a55761059781836111ba565b89610a22565b909193508281813d8311610b71575b610b5c81836111ba565b81010312610b6d57519290826109ef565b8880fd5b503d610b52565b86513d8b823e3d90fd5b610b949088600a55846003541661140e565b886109a7565b855162461bcd60e51b8152808b018490526015602482015274151bdad95b881d1c985b9cd9995c8819985a5b1959605a1b6044820152606490fd5b610bec9150843d86116105a55761059781836111ba565b8b61091e565b87513d8c823e3d90fd5b875162461bcd60e51b81526020818e0152600e60248201526d4578636565647320737570706c7960901b6044820152606490fd5b634e487b7160e01b8c5260118d5260248cfd5b634e487b7160e01b895260118a52602489fd5b6001600160a01b0319161790558980806107df565b50508061084f610c7e6108579385611169565b91610845565b50338114156107c3565b634e487b7160e01b875260118852602487fd5b825162461bcd60e51b8152602081890152601060248201526f43726561746f722063616e742062757960801b6044820152606490fd5b815162461bcd60e51b8152602081880152600a60248201526953616d6520626c6f636b60b01b6044820152606490fd5b8480fd5b505034610210578160031936011261021057602090516722b1c8c1227a00008152f35b50503461021057816003193601126102105760025490516001600160a01b039091168152602090f35b505034610210578160031936011261021057602090516aa56fa5b99019a5c80000008152f35b9050346105b657826003193601126105b6575490516001600160a01b03909116815260209150f35b505034610210578160031936011261021057602090600d549051908152f35b8390346102105760e036600319011261021057610ddf611094565b90610de86110af565b916001600160a01b0391604435838116929190839003610eac57606435848116809103610ea85760843590858216809203610ae55760a43594868616809603610b6d5760c43596808816809803610ea4576006549860ff8a60a01c16610ea0578160018060a01b03199716878c5416178b5516856001541617600155846002541617600255836003541617600355828254161790556005541617600555600160a01b9160018060a81b031916171760065543600b5580f35b8a80fd5b8980fd5b8680fd5b8580fd5b5050346102105760203660031901126102105760209181906001600160a01b03610ed8611094565b1681526013845220549051908152f35b50503461021057816003193601126102105760209060ff6011541690519015158152f35b505034610210576020366003190112610210576020916001600160a01b0390829082610f36611094565b168152601285522054169051908152f35b505034610210578160031936011261021057602090600f549051908152f35b505034610210578160031936011261021057516714adf4b7320334b9601d1b8152602090f35b5050346102105781600319360112610210576020906008549051908152f35b505034610210578160031936011261021057602090516b037790a0e8714009b49c00008152f35b839150346102105760203660031901126102105780359160c883029183830460c8148415171561033257505061101061271061032592048093611169565b6102fa6007546102f4600854936110278584611120565b92611176565b5050346102105781600319360112610210576020906007549051908152f35b505034610210578160031936011261021057602090516729a2241af62c00008152f35b8490346102105781600319360112610210576001546001600160a01b03168152602090f35b600435906001600160a01b03821682036110aa57565b600080fd5b602435906001600160a01b03821682036110aa57565b346110aa5760003660031901126110aa57602060405160648152f35b346110aa5760003660031901126110aa5760206040516703782dace9d900008152f35b346110aa5760003660031901126110aa57602060405160c88152f35b8181029291811591840414171561113357565b634e487b7160e01b600052601160045260246000fd5b8115611153570490565b634e487b7160e01b600052601260045260246000fd5b9190820391821161113357565b9190820180921161113357565b1561118a57565b60405162461bcd60e51b8152602060048201526008602482015267536c69707061676560c01b6044820152606490fd5b601f909101601f19168101906001600160401b038211908210176111dd57604052565b634e487b7160e01b600052604160045260246000fd5b908160209103126110aa575180151581036110aa5790565b6001600160a01b039091168152602081019190915260400190565b60119081549060ff821661139157600e54605a810180911161136e574211611383575b600d54600019811461136e576001019081600d5560105460b481018091116113595760059161128191421161134b575b600f54611176565b600f81905591106112e2575050600160ff198254161790557e6ee82c7de77522824cfbe8e8838de5fd938f53875077e886c8665d7f0a4d04606060405160208152600d60208201526c35206275797320696e2039307360981b6040820152a1565b6706f05b59d3b2000011156112f6575b5050565b60019060ff19161790557e6ee82c7de77522824cfbe8e8838de5fd938f53875077e886c8665d7f0a4d04606060405160208152600f60208201526e18171a9022aa241034b71019b6b4b760891b6040820152a1565b6000600f5542601055611279565b84634e487b7160e01b60005260045260246000fd5b83634e487b7160e01b60005260045260246000fd5b6000600d5542600e55611249565b505050565b60009081908190819081906703782dace9d90000906001600160a01b03165af13d15611409573d6001600160401b0381116113f557604051906113e3601f8201601f1916602001836111ba565b81528260203d92013e5b1561069e5750565b634e487b7160e01b83526041600452602483fd5b6113ed565b81156112f257600080808094819460018060a01b03165af13d15611409573d6001600160401b0381116113f557604051906113e3601f8201601f1916602001836111ba56fea26469706673582212208b52832b0803ef7ea998bad7ca7ae496c98800c4952822613c3af5fe3baff4a564736f6c63430008140033",
  "linkReferences": {},
  "deployedLinkReferences": {}
}