{
  "_format": "hh-sol-artifact-1",
  "contractName": "Fortify",
  "sourceName": "contracts/Fortify.sol",
  "abi": [
    {
      "anonymous": false,
      "inputs": [
        {
          "indexed": false,
          "internalType": "uint256",
          "name": "amount",
          "type": "uint256"
        }
      ],
      "name": "RewardAdded",
      "type": "event"
    },
    {
      "anonymous": false,
      "inputs": [
        {
          "indexed": true,
          "internalType": "address",
          "name": "user",
          "type": "address"
        },
        {
          "indexed": false,
          "internalType": "uint256",
          "name": "amount",
          "type": "uint256"
        },
        {
          "indexed": false,
          "internalType": "uint256",
          "name": "duration",
          "type": "uint256"
        },
        {
          "indexed": false,
          "internalType": "uint256",
          "name": "end",
          "type": "uint256"
        }
      ],
      "name": "Staked",
      "type": "event"
    },
    {
      "anonymous": false,
      "inputs": [
        {
          "indexed": true,
          "internalType": "address",
          "name": "user",
          "type": "address"
        },
        {
          "indexed": false,
          "internalType": "uint256",
          "name": "amount",
          "type": "uint256"
        },
        {
          "indexed": false,
          "internalType": "uint256",
          "name": "reward",
          "type": "uint256"
        },
        {
          "indexed": false,
          "internalType": "bool",
          "name": "early",
          "type": "bool"
        }
      ],
      "name": "Unstaked",
      "type": "event"
    },
    {
      "inputs": [],
      "name": "factory",
      "outputs": [
        {
          "internalType": "address",
          "name": "",
          "type": "address"
        }
      ],
      "stateMutability": "view",
      "type": "function"
    },
    {
      "inputs": [
        {
          "internalType": "address",
          "name": "_token",
          "type": "address"
        },
        {
          "internalType": "address",
          "name": "_factory",
          "type": "address"
        }
      ],
      "name": "initialize",
      "outputs": [],
      "stateMutability": "nonpayable",
      "type": "function"
    },
    {
      "inputs": [],
      "name": "lastUpdateTime",
      "outputs": [
        {
          "internalType": "uint256",
          "name": "",
          "type": "uint256"
        }
      ],
      "stateMutability": "view",
      "type": "function"
    },
    {
      "inputs": [
        {
          "internalType": "address",
          "name": "user",
          "type": "address"
        }
      ],
      "name": "pendingReward",
      "outputs": [
        {
          "internalType": "uint256",
          "name": "",
          "type": "uint256"
        }
      ],
      "stateMutability": "view",
      "type": "function"
    },
    {
      "inputs": [],
      "name": "rewardPerTokenStored",
      "outputs": [
        {
          "internalType": "uint256",
          "name": "",
          "type": "uint256"
        }
      ],
      "stateMutability": "view",
      "type": "function"
    },
    {
      "inputs": [
        {
          "internalType": "uint256",
          "name": "amount",
          "type": "uint256"
        },
        {
          "internalType": "uint256",
          "name": "duration",
          "type": "uint256"
        }
      ],
      "name": "stake",
      "outputs": [],
      "stateMutability": "nonpayable",
      "type": "function"
    },
    {
      "inputs": [
        {
          "internalType": "address",
          "name": "",
          "type": "address"
        }
      ],
      "name": "stakes",
      "outputs": [
        {
          "internalType": "uint256",
          "name": "amount",
          "type": "uint256"
        },
        {
          "internalType": "uint256",
          "name": "duration",
          "type": "uint256"
        },
        {
          "internalType": "uint256",
          "name": "start",
          "type": "uint256"
        },
        {
          "internalType": "uint256",
          "name": "end",
          "type": "uint256"
        },
        {
          "internalType": "uint256",
          "name": "rewardDebt",
          "type": "uint256"
        },
        {
          "internalType": "uint256",
          "name": "pendingReward",
          "type": "uint256"
        }
      ],
      "stateMutability": "view",
      "type": "function"
    },
    {
      "inputs": [],
      "name": "token",
      "outputs": [
        {
          "internalType": "address",
          "name": "",
          "type": "address"
        }
      ],
      "stateMutability": "view",
      "type": "function"
    },
    {
      "inputs": [],
      "name": "totalRewards",
      "outputs": [
        {
          "internalType": "uint256",
          "name": "",
          "type": "uint256"
        }
      ],
      "stateMutability": "view",
      "type": "function"
    },
    {
      "inputs": [],
      "name": "totalStaked",
      "outputs": [
        {
          "internalType": "uint256",
          "name": "",
          "type": "uint256"
        }
      ],
      "stateMutability": "view",
      "type": "function"
    },
    {
      "inputs": [],
      "name": "totalStakedWeighted",
      "outputs": [
        {
          "internalType": "uint256",
          "name": "",
          "type": "uint256"
        }
      ],
      "stateMutability": "view",
      "type": "function"
    },
    {
      "inputs": [],
      "name": "unstake",
      "outputs": [],
      "stateMutability": "nonpayable",
      "type": "function"
    },
    {
      "stateMutability": "payable",
      "type": "receive"
    }
  ],
  "bytecode": "0x6080806040523461001657610a02908161001c8239f35b600080fdfe608060408181526004918236101561002b575b505050361561002057600080fd5b61002934610815565b005b600092833560e01c9182630e15561a146107a85750816316934fc41461073a5781632def6620146104bc578163485cc955146104495781637b0472f0146101bd578163817b1cd21461019e578163c45a015514610175578163c8f33c9114610156578163dc31b89d14610137578163df136d651461011557508063f40f0f52146100e95763fc0c546a146100bf5780610012565b346100e557816003193601126100e557905490516001600160a01b039091168152602090f35b5080fd5b50346100e55760203660031901126100e55760209061010e6101096107c4565b610941565b9051908152f35b90503461013357826003193601126101335760209250549051908152f35b8280fd5b5050346100e557816003193601126100e5576020906003549051908152f35b5050346100e557816003193601126100e5576020906005549051908152f35b5050346100e557816003193601126100e55760015490516001600160a01b039091168152602090f35b5050346100e557816003193601126100e5576020906002549051908152f35b905034610133578160031936011261013357803591602480359033865260209360078552838720546104175762278d008314801561040b575b80156103ff575b80156103f3575b156103c057865484516323b872dd60e01b81523383820152308482015260448101889052908690829060649082908c906001600160a01b03165af19081156103b6578891610389575b50156103575761028361271061026b610265866108fd565b896107df565b0461027888600254610808565b600255600354610808565b6003556102908342610808565b815485519391929160c08501906001600160401b038211868310176103465750906005939291875288855287850192868452878601428152606087019182526080870192835260a08701948c8652338d5260078b52898d20975188555160018801555160028701555160038601555190840155519101556103118142610808565b9282519485528401528201527fb4caaf29adda3eefee3ad552a8e85058589bf834c7466cae4ee58787f70589ed60603392a280f35b634e487b7160e01b8b52604184528afd5b600f6064928686519362461bcd60e51b85528401528201526e151c985b9cd9995c8819985a5b1959608a1b6044820152fd5b6103a99150863d88116103af575b6103a181836108ac565b8101906108e5565b3861024d565b503d610397565b85513d8a823e3d90fd5b60106064928686519362461bcd60e51b85528401528201526f24b73b30b634b210323ab930ba34b7b760811b6044820152fd5b5062ed4e008314610204565b506276a70083146101fd565b50624f1a0083146101f6565b600f6064928686519362461bcd60e51b85528401528201526e416c7265616479207374616b696e6760881b6044820152fd5b5050346100e5573660031901126104b9576104626107c4565b6024356001600160a01b03818116918290036104b5576001549260ff8460a01c166104b15784546001600160a01b03191691161783556001600160a81b031990911617600160a01b1760015580f35b8480fd5b8380fd5b80fd5b839150346100e557816003193601126100e55733825260209260078452808320805494851561070d576105049394956127109485916104fe60018601546108fd565b906107df565b0491610536670de0b6b3a764000061052a856105258a548b87015490610934565b6107df565b04600583015490610808565b926003820154421095866106c7575b50610562906105578354600254610934565b600255600354610934565b60035554943387526007825286600585822082815582600182015582600282015582600382015582848201550155868260018060a01b03825416604487518094819363a9059cbb60e01b835233888401528c60248401525af19081156103b65788916106aa575b5015610671578261060a575b5082519485528401528201527f6c42d2bb36ad42ac675a97c8627d2cd9e34346d5057bbc3a6ed3c5d1f0a8219b60603392a280f35b8680808086335af1903d1561066b573d906001600160401b0382116106585750845190610640601f8201601f19168501836108ac565b815287833d92013e5b1561065457866105d5565b8580fd5b634e487b7160e01b895260419052602488fd5b50610649565b60649184519162461bcd60e51b83528201526015602482015274151bdad95b881d1c985b9cd9995c8819985a5b1959605a1b6044820152fd5b6106c19150833d85116103af576103a181836108ac565b886105c9565b6103e88086029086820414861517156106fa576106ee61056293926106f492048097610934565b95610815565b90610545565b634e487b7160e01b8a526011895260248afd5b8360649184519162461bcd60e51b835282015260086024820152674e6f207374616b6560c01b6044820152fd5b919050346101335760203660031901126101335760c09281906001600160a01b036107636107c4565b168152600760205220805492600182015492600283015490600560038501549385015494015494815196875260208701528501526060840152608083015260a0820152f35b8490346100e557816003193601126100e5576020906006548152f35b600435906001600160a01b03821682036107da57565b600080fd5b818102929181159184041417156107f257565b634e487b7160e01b600052601160045260246000fd5b919082018092116107f257565b600354801590811561084e575b50506020816108426000805160206109ad83398151915293600654610808565b600655604051908152a1565b9091670de0b6b3a7640000928382029382850414821517156107f2576108965761088d6020926000805160206109ad8339815191529404600454610808565b60045591610822565b634e487b7160e01b600052601260045260246000fd5b601f909101601f19168101906001600160401b038211908210176108cf57604052565b634e487b7160e01b600052604160045260246000fd5b908160209103126107da575180151581036107da5790565b62ed4e00811461092d576276a700811461092657624f1a00146109205761271090565b613a9890565b50614e2090565b5061753090565b919082039182116107f257565b6001600160a01b0316600090815260076020526040902080549081156109a5576005670de0b6b3a76400006109986127106109866109a2966104fe60018801546108fd565b04610525600454600487015490610934565b0491015490610808565b90565b505060009056fede88a922e0d3b88b24e9623efeb464919c6bf9f66857a65e2bfcf2ce87a9433da26469706673582212200853548208c915f1562e92270d70b92259054bbd61a923966951ae6b93d4af4764736f6c63430008140033",
  "linkReferences": {},
  "deployedLinkReferences": {}
}