{"contracts/ArmoryVault.sol":{"ArmoryVault":{"abi":[{"anonymous":false,"inputs":[{"indexed":false,"internalType":"uint256","name":"amount","type":"uint256"},{"indexed":false,"internalType":"string","name":"reason","type":"string"}],"name":"ETHReceived","type":"event"},{"anonymous":false,"inputs":[{"indexed":false,"internalType":"uint256","name":"id","type":"uint256"},{"indexed":false,"internalType":"uint8","name":"result","type":"uint8"},{"indexed":false,"internalType":"uint256","name":"amount","type":"uint256"}],"name":"VoteExecuted","type":"event"},{"anonymous":false,"inputs":[{"indexed":false,"internalType":"uint256","name":"id","type":"uint256"},{"indexed":false,"internalType":"uint256","name":"start","type":"uint256"},{"indexed":false,"internalType":"uint256","name":"end","type":"uint256"}],"name":"VoteStarted","type":"event"},{"anonymous":false,"inputs":[{"indexed":false,"internalType":"address","name":"voter","type":"address"},{"indexed":false,"internalType":"uint256","name":"voteId","type":"uint256"},{"indexed":false,"internalType":"uint8","name":"choice","type":"uint8"},{"indexed":false,"internalType":"uint256","name":"weight","type":"uint256"}],"name":"Voted","type":"event"},{"inputs":[],"name":"creator","outputs":[{"internalType":"address","name":"","type":"address"}],"stateMutability":"view","type":"function"},{"inputs":[],"name":"executeVote","outputs":[],"stateMutability":"nonpayable","type":"function"},{"inputs":[],"name":"factory","outputs":[{"internalType":"address","name":"","type":"address"}],"stateMutability":"view","type":"function"},{"inputs":[{"internalType":"uint256","name":"","type":"uint256"},{"internalType":"address","name":"","type":"address"}],"name":"hasVoted","outputs":[{"internalType":"bool","name":"","type":"bool"}],"stateMutability":"view","type":"function"},{"inputs":[{"internalType":"address","name":"_token","type":"address"},{"internalType":"address","name":"_creator","type":"address"},{"internalType":"address","name":"_factory","type":"address"}],"name":"initialize","outputs":[],"stateMutability":"nonpayable","type":"function"},{"inputs":[],"name":"startVote","outputs":[],"stateMutability":"nonpayable","type":"function"},{"inputs":[],"name":"token","outputs":[{"internalType":"address","name":"","type":"address"}],"stateMutability":"view","type":"function"},{"inputs":[],"name":"totalBuyback","outputs":[{"internalType":"uint256","name":"","type":"uint256"}],"stateMutability":"view","type":"function"},{"inputs":[],"name":"totalETH","outputs":[{"internalType":"uint256","name":"","type":"uint256"}],"stateMutability":"view","type":"function"},{"inputs":[],"name":"totalLiquidity","outputs":[{"internalType":"uint256","name":"","type":"uint256"}],"stateMutability":"view","type":"function"},{"inputs":[{"internalType":"uint8","name":"choice","type":"uint8"}],"name":"vote","outputs":[],"stateMutability":"nonpayable","type":"function"},{"inputs":[],"name":"voteId","outputs":[{"internalType":"uint256","name":"","type":"uint256"}],"stateMutability":"view","type":"function"},{"inputs":[{"internalType":"uint256","name":"","type":"uint256"},{"internalType":"address","name":"","type":"address"}],"name":"voteWeight","outputs":[{"internalType":"uint256","name":"","type":"uint256"}],"stateMutability":"view","type":"function"},{"inputs":[{"internalType":"uint256","name":"","type":"uint256"}],"name":"votes","outputs":[{"internalType":"uint256","name":"start","type":"uint256"},{"internalType":"uint256","name":"end","type":"uint256"},{"internalType":"uint256","name":"buyVotes","type":"uint256"},{"internalType":"uint256","name":"sellVotes","type":"uint256"},{"internalType":"uint256","name":"totalSnap","type":"uint256"},{"internalType":"bool","name":"executed","type":"bool"}],"stateMutability":"view","type":"function"},{"stateMutability":"payable","type":"receive"}],"evm":{"bytecode":{"linkReferences":{},"object":"6080806040523461001657610a74908161001c8239f35b600080fdfe608060409080825260049081361015610076575b50361561001f57600080fd5b7f2b227799c94810d40ee698c787147d7f157fb22c1ffc4784984fdddca3fa31669160809161004f3482546109ab565b90556008815191348352806020840152820152671c9958d95a5d995960c21b6060820152a1005b600090813560e01c90816302d05d3f1461096b5750806315770f921461094c57806327b911091461092d5780632b0a999d146108ea57806336bdee74146108cb57806343859632146108835780634c0a6af0146106375780635df81330146105d5578063b3f98adc146103a2578063bfa068301461021d578063c0c53b8b1461018c578063c45a015514610163578063fbb39651146101445763fc0c546a03610013578234610140578160031936011261014057905490516001600160a01b039091168152602090f35b5080fd5b5082346101405781600319360112610140576020906003549051908152f35b50823461014057816003193601126101405760025490516001600160a01b039091168152602090f35b50903461014057606036600319011261014057356001600160a01b0381811691829003610219576101bb610990565b9160443591808316809303610215576002549360ff8560a01c166102115785546001600160a01b031990811690931786556001805490931691161790556001600160a81b031990911617600160a01b1760025580f35b8580fd5b8480fd5b8280fd5b5090346101405781600319360112610140576003548252600760205282822060058101805461024f60ff821615610a07565b600183015442118015610357575b156103285760ff19166001179055479182156102fc575060028101546003909101547fe6253a32e35a2a0fbb8f74db851774bc839e1df1d0e6ac4fbab8583b9f79f293926060928692116102f35760ff60015b1691600183036102df576102c6826005546109ab565b6005555b6003549281519384526020840152820152a180f35b6102eb826006546109ab565b6006556102ca565b60ff60026102b0565b606490602086519162461bcd60e51b8352820152600660248201526509cde408aa8960d31b6044820152fd5b855162461bcd60e51b815260208186015260096024820152684e6f7420726561647960b81b6044820152606490fd5b5061036b60028401546003850154906109ab565b8484015461012c9081810291818304149015171561038f576127109004111561025d565b634e487b7160e01b875260118652602487fd5b50903461014057602090816003193601126102195780359060ff82168092036105d15760035480855260078452858520918254421015806105c3575b15610593576103f460ff60058501541615610a07565b81865260088552868620338752855260ff878720541661056057855487516370a0823160e01b8152338184015294939291908690869060249082906001600160a01b03165afa948515610556578795610523575b5084156104f457509186608094927f27eb20ecadc80d52f641a540b295d208f7c3735545d321b08e505116c601319996948852600885528188203389528552818820600160ff1982541617905560035488526009855281882033895285528382892055600183146000146104df576002016104c48482546109ab565b90555b6003548151943386528501528301526060820152a180f35b6003016104ed8482546109ab565b90556104c7565b875162461bcd60e51b815290810186905260096024820152684e6f20746f6b656e7360b81b6044820152606490fd5b9094508581813d831161054f575b61053b81836109ce565b8101031261054b57519338610448565b8680fd5b503d610531565b88513d89823e3d90fd5b865162461bcd60e51b8152908101859052600d60248201526c105b1c9958591e481d9bdd1959609a1b6044820152606490fd5b865162461bcd60e51b8152908101859052600a6024820152694e6f742061637469766560b01b6044820152606490fd5b5060018301544211156103de565b8380fd5b509134610219576020366003190112610219578060c0938335815260076020522080549260018201549260028301549060ff600560038601549486015495015416948151968752602087015285015260608401526080830152151560a0820152f35b508234610140578160031936011261014057815481516370a0823160e01b81523385820152602092916001600160a01b0316908381602481855afa90811561087957859161084c575b50156105d157908285928251938480926318160ddd60e01b82525afa918215610842578492610813575b50600354801580156107fc575b156107cb5760001981146107b8576001018060035562093a804201928342116107a55782519060c082016001600160401b038111838210176107925784928960609795936005937ffa3d9e1f133c83e31b1d2553ed476209274f948c046b62ee90beb01b220e46779a98524283528a88840188815287850190828252888c8701938085526080880195865260a0880199818b52815260078d5220955186555160018601555160028501555160038401555190820155019051151560ff801983541691161790556003549281519384524290840152820152a180f35b634e487b7160e01b885260418952602488fd5b634e487b7160e01b865260118752602486fd5b634e487b7160e01b855260118652602485fd5b815162461bcd60e51b8152808701859052600b60248201526a41637469766520766f746560a81b6044820152606490fd5b508085526007845260ff60058387200154166106b7565b9091508281813d831161083b575b61082b81836109ce565b810103126105d1575190856106aa565b503d610821565b81513d86823e3d90fd5b90508381813d8311610872575b61086381836109ce565b81010312610215575186610680565b503d610859565b83513d87823e3d90fd5b509190346102195781600319360112610219578160209360ff926108a5610990565b90358252600886528282206001600160a01b039091168252855220549151911615158152f35b5091903461021957826003193601126102195760209250549051908152f35b50919034610219578160031936011261021957602092829161090a610990565b90358252600985528282206001600160a01b039091168252845220549051908152f35b5082346101405781600319360112610140576020906005549051908152f35b5082346101405781600319360112610140576020906006549051908152f35b9050346101405781600319360112610140576001546001600160a01b03168152602090f35b602435906001600160a01b03821682036109a657565b600080fd5b919082018092116109b857565b634e487b7160e01b600052601160045260246000fd5b601f909101601f19168101906001600160401b038211908210176109f157604052565b634e487b7160e01b600052604160045260246000fd5b15610a0e57565b60405162461bcd60e51b8152602060048201526008602482015267115e1958dd5d195960c21b6044820152606490fdfea26469706673582212205220235a2abc45d6adc651fb0ac4109637a95e0472f6ca333046a9d737bea19964736f6c63430008140033","opcodes":"PUSH1 0x80 DUP1 PUSH1 0x40 MSTORE CALLVALUE PUSH2 0x16 JUMPI PUSH2 0xA74 SWAP1 DUP2 PUSH2 0x1C DUP3 CODECOPY RETURN JUMPDEST PUSH1 0x0 DUP1 REVERT INVALID PUSH1 0x80 PUSH1 0x40 SWAP1 DUP1 DUP3 MSTORE PUSH1 0x4 SWAP1 DUP2 CALLDATASIZE LT ISZERO PUSH2 0x76 JUMPI JUMPDEST POP CALLDATASIZE ISZERO PUSH2 0x1F JUMPI PUSH1 0x0 DUP1 REVERT JUMPDEST PUSH32 0x2B227799C94810D40EE698C787147D7F157FB22C1FFC4784984FDDDCA3FA3166 SWAP2 PUSH1 0x80 SWAP2 PUSH2 0x4F CALLVALUE DUP3 SLOAD PUSH2 0x9AB JUMP JUMPDEST SWAP1 SSTORE PUSH1 0x8 DUP2 MLOAD SWAP2 CALLVALUE DUP4 MSTORE DUP1 PUSH1 0x20 DUP5 ADD MSTORE DUP3 ADD MSTORE PUSH8 0x1C9958D95A5D9959 PUSH1 0xC2 SHL PUSH1 0x60 DUP3 ADD MSTORE LOG1 STOP JUMPDEST PUSH1 0x0 SWAP1 DUP2 CALLDATALOAD PUSH1 0xE0 SHR SWAP1 DUP2 PUSH4 0x2D05D3F EQ PUSH2 0x96B JUMPI POP DUP1 PUSH4 0x15770F92 EQ PUSH2 0x94C JUMPI DUP1 PUSH4 0x27B91109 EQ PUSH2 0x92D JUMPI DUP1 PUSH4 0x2B0A999D EQ PUSH2 0x8EA JUMPI DUP1 PUSH4 0x36BDEE74 EQ PUSH2 0x8CB JUMPI DUP1 PUSH4 0x43859632 EQ PUSH2 0x883 JUMPI DUP1 PUSH4 0x4C0A6AF0 EQ PUSH2 0x637 JUMPI DUP1 PUSH4 0x5DF81330 EQ PUSH2 0x5D5 JUMPI DUP1 PUSH4 0xB3F98ADC EQ PUSH2 0x3A2 JUMPI DUP1 PUSH4 0xBFA06830 EQ PUSH2 0x21D JUMPI DUP1 PUSH4 0xC0C53B8B EQ PUSH2 0x18C JUMPI DUP1 PUSH4 0xC45A0155 EQ PUSH2 0x163 JUMPI DUP1 PUSH4 0xFBB39651 EQ PUSH2 0x144 JUMPI PUSH4 0xFC0C546A SUB PUSH2 0x13 JUMPI DUP3 CALLVALUE PUSH2 0x140 JUMPI DUP2 PUSH1 0x3 NOT CALLDATASIZE ADD SLT PUSH2 0x140 JUMPI SWAP1 SLOAD SWAP1 MLOAD PUSH1 0x1 PUSH1 0x1 PUSH1 0xA0 SHL SUB SWAP1 SWAP2 AND DUP2 MSTORE PUSH1 0x20 SWAP1 RETURN JUMPDEST POP DUP1 REVERT JUMPDEST POP DUP3 CALLVALUE PUSH2 0x140 JUMPI DUP2 PUSH1 0x3 NOT CALLDATASIZE ADD SLT PUSH2 0x140 JUMPI PUSH1 0x20 SWAP1 PUSH1 0x3 SLOAD SWAP1 MLOAD SWAP1 DUP2 MSTORE RETURN JUMPDEST POP DUP3 CALLVALUE PUSH2 0x140 JUMPI DUP2 PUSH1 0x3 NOT CALLDATASIZE ADD SLT PUSH2 0x140 JUMPI PUSH1 0x2 SLOAD SWAP1 MLOAD PUSH1 0x1 PUSH1 0x1 PUSH1 0xA0 SHL SUB SWAP1 SWAP2 AND DUP2 MSTORE PUSH1 0x20 SWAP1 RETURN JUMPDEST POP SWAP1 CALLVALUE PUSH2 0x140 JUMPI PUSH1 0x60 CALLDATASIZE PUSH1 0x3 NOT ADD SLT PUSH2 0x140 JUMPI CALLDATALOAD PUSH1 0x1 PUSH1 0x1 PUSH1 0xA0 SHL SUB DUP2 DUP2 AND SWAP2 DUP3 SWAP1 SUB PUSH2 0x219 JUMPI PUSH2 0x1BB PUSH2 0x990 JUMP JUMPDEST SWAP2 PUSH1 0x44 CALLDATALOAD SWAP2 DUP1 DUP4 AND DUP1 SWAP4 SUB PUSH2 0x215 JUMPI PUSH1 0x2 SLOAD SWAP4 PUSH1 0xFF DUP6 PUSH1 0xA0 SHR AND PUSH2 0x211 JUMPI DUP6 SLOAD PUSH1 0x1 PUSH1 0x1 PUSH1 0xA0 SHL SUB NOT SWAP1 DUP2 AND SWAP1 SWAP4 OR DUP7 SSTORE PUSH1 0x1 DUP1 SLOAD SWAP1 SWAP4 AND SWAP2 AND OR SWAP1 SSTORE PUSH1 0x1 PUSH1 0x1 PUSH1 0xA8 SHL SUB NOT SWAP1 SWAP2 AND OR PUSH1 0x1 PUSH1 0xA0 SHL OR PUSH1 0x2 SSTORE DUP1 RETURN JUMPDEST DUP6 DUP1 REVERT JUMPDEST DUP5 DUP1 REVERT JUMPDEST DUP3 DUP1 REVERT JUMPDEST POP SWAP1 CALLVALUE PUSH2 0x140 JUMPI DUP2 PUSH1 0x3 NOT CALLDATASIZE ADD SLT PUSH2 0x140 JUMPI PUSH1 0x3 SLOAD DUP3 MSTORE PUSH1 0x7 PUSH1 0x20 MSTORE DUP3 DUP3 KECCAK256 PUSH1 0x5 DUP2 ADD DUP1 SLOAD PUSH2 0x24F PUSH1 0xFF DUP3 AND ISZERO PUSH2 0xA07 JUMP JUMPDEST PUSH1 0x1 DUP4 ADD SLOAD TIMESTAMP GT DUP1 ISZERO PUSH2 0x357 JUMPI JUMPDEST ISZERO PUSH2 0x328 JUMPI PUSH1 0xFF NOT AND PUSH1 0x1 OR SWAP1 SSTORE SELFBALANCE SWAP2 DUP3 ISZERO PUSH2 0x2FC JUMPI POP PUSH1 0x2 DUP2 ADD SLOAD PUSH1 0x3 SWAP1 SWAP2 ADD SLOAD PUSH32 0xE6253A32E35A2A0FBB8F74DB851774BC839E1DF1D0E6AC4FBAB8583B9F79F293 SWAP3 PUSH1 0x60 SWAP3 DUP7 SWAP3 GT PUSH2 0x2F3 JUMPI PUSH1 0xFF PUSH1 0x1 JUMPDEST AND SWAP2 PUSH1 0x1 DUP4 SUB PUSH2 0x2DF JUMPI PUSH2 0x2C6 DUP3 PUSH1 0x5 SLOAD PUSH2 0x9AB JUMP JUMPDEST PUSH1 0x5 SSTORE JUMPDEST PUSH1 0x3 SLOAD SWAP3 DUP2 MLOAD SWAP4 DUP5 MSTORE PUSH1 0x20 DUP5 ADD MSTORE DUP3 ADD MSTORE LOG1 DUP1 RETURN JUMPDEST PUSH2 0x2EB DUP3 PUSH1 0x6 SLOAD PUSH2 0x9AB JUMP JUMPDEST PUSH1 0x6 SSTORE PUSH2 0x2CA JUMP JUMPDEST PUSH1 0xFF PUSH1 0x2 PUSH2 0x2B0 JUMP JUMPDEST PUSH1 0x64 SWAP1 PUSH1 0x20 DUP7 MLOAD SWAP2 PUSH3 0x461BCD PUSH1 0xE5 SHL DUP4 MSTORE DUP3 ADD MSTORE PUSH1 0x6 PUSH1 0x24 DUP3 ADD MSTORE PUSH6 0x9CDE408AA89 PUSH1 0xD3 SHL PUSH1 0x44 DUP3 ADD MSTORE REVERT JUMPDEST DUP6 MLOAD PUSH3 0x461BCD PUSH1 0xE5 SHL DUP2 MSTORE PUSH1 0x20 DUP2 DUP7 ADD MSTORE PUSH1 0x9 PUSH1 0x24 DUP3 ADD MSTORE PUSH9 0x4E6F74207265616479 PUSH1 0xB8 SHL PUSH1 0x44 DUP3 ADD MSTORE PUSH1 0x64 SWAP1 REVERT JUMPDEST POP PUSH2 0x36B PUSH1 0x2 DUP5 ADD SLOAD PUSH1 0x3 DUP6 ADD SLOAD SWAP1 PUSH2 0x9AB JUMP JUMPDEST DUP5 DUP5 ADD SLOAD PUSH2 0x12C SWAP1 DUP2 DUP2 MUL SWAP2 DUP2 DUP4 DIV EQ SWAP1 ISZERO OR ISZERO PUSH2 0x38F JUMPI PUSH2 0x2710 SWAP1 DIV GT ISZERO PUSH2 0x25D JUMP JUMPDEST PUSH4 0x4E487B71 PUSH1 0xE0 SHL DUP8 MSTORE PUSH1 0x11 DUP7 MSTORE PUSH1 0x24 DUP8 REVERT JUMPDEST POP SWAP1 CALLVALUE PUSH2 0x140 JUMPI PUSH1 0x20 SWAP1 DUP2 PUSH1 0x3 NOT CALLDATASIZE ADD SLT PUSH2 0x219 JUMPI DUP1 CALLDATALOAD SWAP1 PUSH1 0xFF DUP3 AND DUP1 SWAP3 SUB PUSH2 0x5D1 JUMPI PUSH1 0x3 SLOAD DUP1 DUP6 MSTORE PUSH1 0x7 DUP5 MSTORE DUP6 DUP6 KECCAK256 SWAP2 DUP3 SLOAD TIMESTAMP LT ISZERO DUP1 PUSH2 0x5C3 JUMPI JUMPDEST ISZERO PUSH2 0x593 JUMPI PUSH2 0x3F4 PUSH1 0xFF PUSH1 0x5 DUP6 ADD SLOAD AND ISZERO PUSH2 0xA07 JUMP JUMPDEST DUP2 DUP7 MSTORE PUSH1 0x8 DUP6 MSTORE DUP7 DUP7 KECCAK256 CALLER DUP8 MSTORE DUP6 MSTORE PUSH1 0xFF DUP8 DUP8 KECCAK256 SLOAD AND PUSH2 0x560 JUMPI DUP6 SLOAD DUP8 MLOAD PUSH4 0x70A08231 PUSH1 0xE0 SHL DUP2 MSTORE CALLER DUP2 DUP5 ADD MSTORE SWAP5 SWAP4 SWAP3 SWAP2 SWAP1 DUP7 SWAP1 DUP7 SWAP1 PUSH1 0x24 SWAP1 DUP3 SWAP1 PUSH1 0x1 PUSH1 0x1 PUSH1 0xA0 SHL SUB AND GAS STATICCALL SWAP5 DUP6 ISZERO PUSH2 0x556 JUMPI DUP8 SWAP6 PUSH2 0x523 JUMPI JUMPDEST POP DUP5 ISZERO PUSH2 0x4F4 JUMPI POP SWAP2 DUP7 PUSH1 0x80 SWAP5 SWAP3 PUSH32 0x27EB20ECADC80D52F641A540B295D208F7C3735545D321B08E505116C6013199 SWAP7 SWAP5 DUP9 MSTORE PUSH1 0x8 DUP6 MSTORE DUP2 DUP9 KECCAK256 CALLER DUP10 MSTORE DUP6 MSTORE DUP2 DUP9 KECCAK256 PUSH1 0x1 PUSH1 0xFF NOT DUP3 SLOAD AND OR SWAP1 SSTORE PUSH1 0x3 SLOAD DUP9 MSTORE PUSH1 0x9 DUP6 MSTORE DUP2 DUP9 KECCAK256 CALLER DUP10 MSTORE DUP6 MSTORE DUP4 DUP3 DUP10 KECCAK256 SSTORE PUSH1 0x1 DUP4 EQ PUSH1 0x0 EQ PUSH2 0x4DF JUMPI PUSH1 0x2 ADD PUSH2 0x4C4 DUP5 DUP3 SLOAD PUSH2 0x9AB JUMP JUMPDEST SWAP1 SSTORE JUMPDEST PUSH1 0x3 SLOAD DUP2 MLOAD SWAP5 CALLER DUP7 MSTORE DUP6 ADD MSTORE DUP4 ADD MSTORE PUSH1 0x60 DUP3 ADD MSTORE LOG1 DUP1 RETURN JUMPDEST PUSH1 0x3 ADD PUSH2 0x4ED DUP5 DUP3 SLOAD PUSH2 0x9AB JUMP JUMPDEST SWAP1 SSTORE PUSH2 0x4C7 JUMP JUMPDEST DUP8 MLOAD PUSH3 0x461BCD PUSH1 0xE5 SHL DUP2 MSTORE SWAP1 DUP2 ADD DUP7 SWAP1 MSTORE PUSH1 0x9 PUSH1 0x24 DUP3 ADD MSTORE PUSH9 0x4E6F20746F6B656E73 PUSH1 0xB8 SHL PUSH1 0x44 DUP3 ADD MSTORE PUSH1 0x64 SWAP1 REVERT JUMPDEST SWAP1 SWAP5 POP DUP6 DUP2 DUP2 RETURNDATASIZE DUP4 GT PUSH2 0x54F JUMPI JUMPDEST PUSH2 0x53B DUP2 DUP4 PUSH2 0x9CE JUMP JUMPDEST DUP2 ADD SUB SLT PUSH2 0x54B JUMPI MLOAD SWAP4 CODESIZE PUSH2 0x448 JUMP JUMPDEST DUP7 DUP1 REVERT JUMPDEST POP RETURNDATASIZE PUSH2 0x531 JUMP JUMPDEST DUP9 MLOAD RETURNDATASIZE DUP10 DUP3 RETURNDATACOPY RETURNDATASIZE SWAP1 REVERT JUMPDEST DUP7 MLOAD PUSH3 0x461BCD PUSH1 0xE5 SHL DUP2 MSTORE SWAP1 DUP2 ADD DUP6 SWAP1 MSTORE PUSH1 0xD PUSH1 0x24 DUP3 ADD MSTORE PUSH13 0x105B1C9958591E481D9BDD1959 PUSH1 0x9A SHL PUSH1 0x44 DUP3 ADD MSTORE PUSH1 0x64 SWAP1 REVERT JUMPDEST DUP7 MLOAD PUSH3 0x461BCD PUSH1 0xE5 SHL DUP2 MSTORE SWAP1 DUP2 ADD DUP6 SWAP1 MSTORE PUSH1 0xA PUSH1 0x24 DUP3 ADD MSTORE PUSH10 0x4E6F7420616374697665 PUSH1 0xB0 SHL PUSH1 0x44 DUP3 ADD MSTORE PUSH1 0x64 SWAP1 REVERT JUMPDEST POP PUSH1 0x1 DUP4 ADD SLOAD TIMESTAMP GT ISZERO PUSH2 0x3DE JUMP JUMPDEST DUP4 DUP1 REVERT JUMPDEST POP SWAP2 CALLVALUE PUSH2 0x219 JUMPI PUSH1 0x20 CALLDATASIZE PUSH1 0x3 NOT ADD SLT PUSH2 0x219 JUMPI DUP1 PUSH1 0xC0 SWAP4 DUP4 CALLDATALOAD DUP2 MSTORE PUSH1 0x7 PUSH1 0x20 MSTORE KECCAK256 DUP1 SLOAD SWAP3 PUSH1 0x1 DUP3 ADD SLOAD SWAP3 PUSH1 0x2 DUP4 ADD SLOAD SWAP1 PUSH1 0xFF PUSH1 0x5 PUSH1 0x3 DUP7 ADD SLOAD SWAP5 DUP7 ADD SLOAD SWAP6 ADD SLOAD AND SWAP5 DUP2 MLOAD SWAP7 DUP8 MSTORE PUSH1 0x20 DUP8 ADD MSTORE DUP6 ADD MSTORE PUSH1 0x60 DUP5 ADD MSTORE PUSH1 0x80 DUP4 ADD MSTORE ISZERO ISZERO PUSH1 0xA0 DUP3 ADD MSTORE RETURN JUMPDEST POP DUP3 CALLVALUE PUSH2 0x140 JUMPI DUP2 PUSH1 0x3 NOT CALLDATASIZE ADD SLT PUSH2 0x140 JUMPI DUP2 SLOAD DUP2 MLOAD PUSH4 0x70A08231 PUSH1 0xE0 SHL DUP2 MSTORE CALLER DUP6 DUP3 ADD MSTORE PUSH1 0x20 SWAP3 SWAP2 PUSH1 0x1 PUSH1 0x1 PUSH1 0xA0 SHL SUB AND SWAP1 DUP4 DUP2 PUSH1 0x24 DUP2 DUP6 GAS STATICCALL SWAP1 DUP2 ISZERO PUSH2 0x879 JUMPI DUP6 SWAP2 PUSH2 0x84C JUMPI JUMPDEST POP ISZERO PUSH2 0x5D1 JUMPI SWAP1 DUP3 DUP6 SWAP3 DUP3 MLOAD SWAP4 DUP5 DUP1 SWAP3 PUSH4 0x18160DDD PUSH1 0xE0 SHL DUP3 MSTORE GAS STATICCALL SWAP2 DUP3 ISZERO PUSH2 0x842 JUMPI DUP5 SWAP3 PUSH2 0x813 JUMPI JUMPDEST POP PUSH1 0x3 SLOAD DUP1 ISZERO DUP1 ISZERO PUSH2 0x7FC JUMPI JUMPDEST ISZERO PUSH2 0x7CB JUMPI PUSH1 0x0 NOT DUP2 EQ PUSH2 0x7B8 JUMPI PUSH1 0x1 ADD DUP1 PUSH1 0x3 SSTORE PUSH3 0x93A80 TIMESTAMP ADD SWAP3 DUP4 TIMESTAMP GT PUSH2 0x7A5 JUMPI DUP3 MLOAD SWAP1 PUSH1 0xC0 DUP3 ADD PUSH1 0x1 PUSH1 0x1 PUSH1 0x40 SHL SUB DUP2 GT DUP4 DUP3 LT OR PUSH2 0x792 JUMPI DUP5 SWAP3 DUP10 PUSH1 0x60 SWAP8 SWAP6 SWAP4 PUSH1 0x5 SWAP4 PUSH32 0xFA3D9E1F133C83E31B1D2553ED476209274F948C046B62EE90BEB01B220E4677 SWAP11 SWAP9 MSTORE TIMESTAMP DUP4 MSTORE DUP11 DUP9 DUP5 ADD DUP9 DUP2 MSTORE DUP8 DUP6 ADD SWAP1 DUP3 DUP3 MSTORE DUP9 DUP13 DUP8 ADD SWAP4 DUP1 DUP6 MSTORE PUSH1 0x80 DUP9 ADD SWAP6 DUP7 MSTORE PUSH1 0xA0 DUP9 ADD SWAP10 DUP2 DUP12 MSTORE DUP2 MSTORE PUSH1 0x7 DUP14 MSTORE KECCAK256 SWAP6 MLOAD DUP7 SSTORE MLOAD PUSH1 0x1 DUP7 ADD SSTORE MLOAD PUSH1 0x2 DUP6 ADD SSTORE MLOAD PUSH1 0x3 DUP5 ADD SSTORE MLOAD SWAP1 DUP3 ADD SSTORE ADD SWAP1 MLOAD ISZERO ISZERO PUSH1 0xFF DUP1 NOT DUP4 SLOAD AND SWAP2 AND OR SWAP1 SSTORE PUSH1 0x3 SLOAD SWAP3 DUP2 MLOAD SWAP4 DUP5 MSTORE TIMESTAMP SWAP1 DUP5 ADD MSTORE DUP3 ADD MSTORE LOG1 DUP1 RETURN JUMPDEST PUSH4 0x4E487B71 PUSH1 0xE0 SHL DUP9 MSTORE PUSH1 0x41 DUP10 MSTORE PUSH1 0x24 DUP9 REVERT JUMPDEST PUSH4 0x4E487B71 PUSH1 0xE0 SHL DUP7 MSTORE PUSH1 0x11 DUP8 MSTORE PUSH1 0x24 DUP7 REVERT JUMPDEST PUSH4 0x4E487B71 PUSH1 0xE0 SHL DUP6 MSTORE PUSH1 0x11 DUP7 MSTORE PUSH1 0x24 DUP6 REVERT JUMPDEST DUP2 MLOAD PUSH3 0x461BCD PUSH1 0xE5 SHL DUP2 MSTORE DUP1 DUP8 ADD DUP6 SWAP1 MSTORE PUSH1 0xB PUSH1 0x24 DUP3 ADD MSTORE PUSH11 0x41637469766520766F7465 PUSH1 0xA8 SHL PUSH1 0x44 DUP3 ADD MSTORE PUSH1 0x64 SWAP1 REVERT JUMPDEST POP DUP1 DUP6 MSTORE PUSH1 0x7 DUP5 MSTORE PUSH1 0xFF PUSH1 0x5 DUP4 DUP8 KECCAK256 ADD SLOAD AND PUSH2 0x6B7 JUMP JUMPDEST SWAP1 SWAP2 POP DUP3 DUP2 DUP2 RETURNDATASIZE DUP4 GT PUSH2 0x83B JUMPI JUMPDEST PUSH2 0x82B DUP2 DUP4 PUSH2 0x9CE JUMP JUMPDEST DUP2 ADD SUB SLT PUSH2 0x5D1 JUMPI MLOAD SWAP1 DUP6 PUSH2 0x6AA JUMP JUMPDEST POP RETURNDATASIZE PUSH2 0x821 JUMP JUMPDEST DUP2 MLOAD RETURNDATASIZE DUP7 DUP3 RETURNDATACOPY RETURNDATASIZE SWAP1 REVERT JUMPDEST SWAP1 POP DUP4 DUP2 DUP2 RETURNDATASIZE DUP4 GT PUSH2 0x872 JUMPI JUMPDEST PUSH2 0x863 DUP2 DUP4 PUSH2 0x9CE JUMP JUMPDEST DUP2 ADD SUB SLT PUSH2 0x215 JUMPI MLOAD DUP7 PUSH2 0x680 JUMP JUMPDEST POP RETURNDATASIZE PUSH2 0x859 JUMP JUMPDEST DUP4 MLOAD RETURNDATASIZE DUP8 DUP3 RETURNDATACOPY RETURNDATASIZE SWAP1 REVERT JUMPDEST POP SWAP2 SWAP1 CALLVALUE PUSH2 0x219 JUMPI DUP2 PUSH1 0x3 NOT CALLDATASIZE ADD SLT PUSH2 0x219 JUMPI DUP2 PUSH1 0x20 SWAP4 PUSH1 0xFF SWAP3 PUSH2 0x8A5 PUSH2 0x990 JUMP JUMPDEST SWAP1 CALLDATALOAD DUP3 MSTORE PUSH1 0x8 DUP7 MSTORE DUP3 DUP3 KECCAK256 PUSH1 0x1 PUSH1 0x1 PUSH1 0xA0 SHL SUB SWAP1 SWAP2 AND DUP3 MSTORE DUP6 MSTORE KECCAK256 SLOAD SWAP2 MLOAD SWAP2 AND ISZERO ISZERO DUP2 MSTORE RETURN JUMPDEST POP SWAP2 SWAP1 CALLVALUE PUSH2 0x219 JUMPI DUP3 PUSH1 0x3 NOT CALLDATASIZE ADD SLT PUSH2 0x219 JUMPI PUSH1 0x20 SWAP3 POP SLOAD SWAP1 MLOAD SWAP1 DUP2 MSTORE RETURN JUMPDEST POP SWAP2 SWAP1 CALLVALUE PUSH2 0x219 JUMPI DUP2 PUSH1 0x3 NOT CALLDATASIZE ADD SLT PUSH2 0x219 JUMPI PUSH1 0x20 SWAP3 DUP3 SWAP2 PUSH2 0x90A PUSH2 0x990 JUMP JUMPDEST SWAP1 CALLDATALOAD DUP3 MSTORE PUSH1 0x9 DUP6 MSTORE DUP3 DUP3 KECCAK256 PUSH1 0x1 PUSH1 0x1 PUSH1 0xA0 SHL SUB SWAP1 SWAP2 AND DUP3 MSTORE DUP5 MSTORE KECCAK256 SLOAD SWAP1 MLOAD SWAP1 DUP2 MSTORE RETURN JUMPDEST POP DUP3 CALLVALUE PUSH2 0x140 JUMPI DUP2 PUSH1 0x3 NOT CALLDATASIZE ADD SLT PUSH2 0x140 JUMPI PUSH1 0x20 SWAP1 PUSH1 0x5 SLOAD SWAP1 MLOAD SWAP1 DUP2 MSTORE RETURN JUMPDEST POP DUP3 CALLVALUE PUSH2 0x140 JUMPI DUP2 PUSH1 0x3 NOT CALLDATASIZE ADD SLT PUSH2 0x140 JUMPI PUSH1 0x20 SWAP1 PUSH1 0x6 SLOAD SWAP1 MLOAD SWAP1 DUP2 MSTORE RETURN JUMPDEST SWAP1 POP CALLVALUE PUSH2 0x140 JUMPI DUP2 PUSH1 0x3 NOT CALLDATASIZE ADD SLT PUSH2 0x140 JUMPI PUSH1 0x1 SLOAD PUSH1 0x1 PUSH1 0x1 PUSH1 0xA0 SHL SUB AND DUP2 MSTORE PUSH1 0x20 SWAP1 RETURN JUMPDEST PUSH1 0x24 CALLDATALOAD SWAP1 PUSH1 0x1 PUSH1 0x1 PUSH1 0xA0 SHL SUB DUP3 AND DUP3 SUB PUSH2 0x9A6 JUMPI JUMP JUMPDEST PUSH1 0x0 DUP1 REVERT JUMPDEST SWAP2 SWAP1 DUP3 ADD DUP1 SWAP3 GT PUSH2 0x9B8 JUMPI JUMP JUMPDEST PUSH4 0x4E487B71 PUSH1 0xE0 SHL PUSH1 0x0 MSTORE PUSH1 0x11 PUSH1 0x4 MSTORE PUSH1 0x24 PUSH1 0x0 REVERT JUMPDEST PUSH1 0x1F SWAP1 SWAP2 ADD PUSH1 0x1F NOT AND DUP2 ADD SWAP1 PUSH1 0x1 PUSH1 0x1 PUSH1 0x40 SHL SUB DUP3 GT SWAP1 DUP3 LT OR PUSH2 0x9F1 JUMPI PUSH1 0x40 MSTORE JUMP JUMPDEST PUSH4 0x4E487B71 PUSH1 0xE0 SHL PUSH1 0x0 MSTORE PUSH1 0x41 PUSH1 0x4 MSTORE PUSH1 0x24 PUSH1 0x0 REVERT JUMPDEST ISZERO PUSH2 0xA0E JUMPI JUMP JUMPDEST PUSH1 0x40 MLOAD PUSH3 0x461BCD PUSH1 0xE5 SHL DUP2 MSTORE PUSH1 0x20 PUSH1 0x4 DUP3 ADD MSTORE PUSH1 0x8 PUSH1 0x24 DUP3 ADD MSTORE PUSH8 0x115E1958DD5D1959 PUSH1 0xC2 SHL PUSH1 0x44 DUP3 ADD MSTORE PUSH1 0x64 SWAP1 REVERT INVALID LOG2 PUSH5 0x6970667358 0x22 SLT KECCAK256 MSTORE KECCAK256 0x23 GAS 0x2A 0xBC GASLIMIT 0xD6 0xAD 0xC6 MLOAD 0xFB EXP 0xC4 LT SWAP7 CALLDATACOPY 0xA9 0x5E DIV PUSH19 0xF6CA333046A9D737BEA19964736F6C63430008 EQ STOP CALLER "},"methodIdentifiers":{"creator()":"02d05d3f","executeVote()":"bfa06830","factory()":"c45a0155","hasVoted(uint256,address)":"43859632","initialize(address,address,address)":"c0c53b8b","startVote()":"4c0a6af0","token()":"fc0c546a","totalBuyback()":"27b91109","totalETH()":"36bdee74","totalLiquidity()":"15770f92","vote(uint8)":"b3f98adc","voteId()":"fbb39651","voteWeight(uint256,address)":"2b0a999d","votes(uint256)":"5df81330"}}}}}