{"contracts/Fortify.sol":{"Fortify":{"abi":[{"anonymous":false,"inputs":[{"indexed":false,"internalType":"uint256","name":"amount","type":"uint256"}],"name":"RewardAdded","type":"event"},{"anonymous":false,"inputs":[{"indexed":true,"internalType":"address","name":"user","type":"address"},{"indexed":false,"internalType":"uint256","name":"amount","type":"uint256"},{"indexed":false,"internalType":"uint256","name":"duration","type":"uint256"},{"indexed":false,"internalType":"uint256","name":"end","type":"uint256"}],"name":"Staked","type":"event"},{"anonymous":false,"inputs":[{"indexed":true,"internalType":"address","name":"user","type":"address"},{"indexed":false,"internalType":"uint256","name":"amount","type":"uint256"},{"indexed":false,"internalType":"uint256","name":"reward","type":"uint256"},{"indexed":false,"internalType":"bool","name":"early","type":"bool"}],"name":"Unstaked","type":"event"},{"inputs":[],"name":"factory","outputs":[{"internalType":"address","name":"","type":"address"}],"stateMutability":"view","type":"function"},{"inputs":[{"internalType":"address","name":"_token","type":"address"},{"internalType":"address","name":"_factory","type":"address"}],"name":"initialize","outputs":[],"stateMutability":"nonpayable","type":"function"},{"inputs":[],"name":"lastUpdateTime","outputs":[{"internalType":"uint256","name":"","type":"uint256"}],"stateMutability":"view","type":"function"},{"inputs":[{"internalType":"address","name":"user","type":"address"}],"name":"pendingReward","outputs":[{"internalType":"uint256","name":"","type":"uint256"}],"stateMutability":"view","type":"function"},{"inputs":[],"name":"rewardPerTokenStored","outputs":[{"internalType":"uint256","name":"","type":"uint256"}],"stateMutability":"view","type":"function"},{"inputs":[{"internalType":"uint256","name":"amount","type":"uint256"},{"internalType":"uint256","name":"duration","type":"uint256"}],"name":"stake","outputs":[],"stateMutability":"nonpayable","type":"function"},{"inputs":[{"internalType":"address","name":"","type":"address"}],"name":"stakes","outputs":[{"internalType":"uint256","name":"amount","type":"uint256"},{"internalType":"uint256","name":"duration","type":"uint256"},{"internalType":"uint256","name":"start","type":"uint256"},{"internalType":"uint256","name":"end","type":"uint256"},{"internalType":"uint256","name":"rewardDebt","type":"uint256"},{"internalType":"uint256","name":"pendingReward","type":"uint256"}],"stateMutability":"view","type":"function"},{"inputs":[],"name":"token","outputs":[{"internalType":"address","name":"","type":"address"}],"stateMutability":"view","type":"function"},{"inputs":[],"name":"totalRewards","outputs":[{"internalType":"uint256","name":"","type":"uint256"}],"stateMutability":"view","type":"function"},{"inputs":[],"name":"totalStaked","outputs":[{"internalType":"uint256","name":"","type":"uint256"}],"stateMutability":"view","type":"function"},{"inputs":[],"name":"totalStakedWeighted","outputs":[{"internalType":"uint256","name":"","type":"uint256"}],"stateMutability":"view","type":"function"},{"inputs":[],"name":"unstake","outputs":[],"stateMutability":"nonpayable","type":"function"},{"stateMutability":"payable","type":"receive"}],"evm":{"bytecode":{"linkReferences":{},"object":"6080806040523461001657610a02908161001c8239f35b600080fdfe608060408181526004918236101561002b575b505050361561002057600080fd5b61002934610815565b005b600092833560e01c9182630e15561a146107a85750816316934fc41461073a5781632def6620146104bc578163485cc955146104495781637b0472f0146101bd578163817b1cd21461019e578163c45a015514610175578163c8f33c9114610156578163dc31b89d14610137578163df136d651461011557508063f40f0f52146100e95763fc0c546a146100bf5780610012565b346100e557816003193601126100e557905490516001600160a01b039091168152602090f35b5080fd5b50346100e55760203660031901126100e55760209061010e6101096107c4565b610941565b9051908152f35b90503461013357826003193601126101335760209250549051908152f35b8280fd5b5050346100e557816003193601126100e5576020906003549051908152f35b5050346100e557816003193601126100e5576020906005549051908152f35b5050346100e557816003193601126100e55760015490516001600160a01b039091168152602090f35b5050346100e557816003193601126100e5576020906002549051908152f35b905034610133578160031936011261013357803591602480359033865260209360078552838720546104175762278d008314801561040b575b80156103ff575b80156103f3575b156103c057865484516323b872dd60e01b81523383820152308482015260448101889052908690829060649082908c906001600160a01b03165af19081156103b6578891610389575b50156103575761028361271061026b610265866108fd565b896107df565b0461027888600254610808565b600255600354610808565b6003556102908342610808565b815485519391929160c08501906001600160401b038211868310176103465750906005939291875288855287850192868452878601428152606087019182526080870192835260a08701948c8652338d5260078b52898d20975188555160018801555160028701555160038601555190840155519101556103118142610808565b9282519485528401528201527fb4caaf29adda3eefee3ad552a8e85058589bf834c7466cae4ee58787f70589ed60603392a280f35b634e487b7160e01b8b52604184528afd5b600f6064928686519362461bcd60e51b85528401528201526e151c985b9cd9995c8819985a5b1959608a1b6044820152fd5b6103a99150863d88116103af575b6103a181836108ac565b8101906108e5565b3861024d565b503d610397565b85513d8a823e3d90fd5b60106064928686519362461bcd60e51b85528401528201526f24b73b30b634b210323ab930ba34b7b760811b6044820152fd5b5062ed4e008314610204565b506276a70083146101fd565b50624f1a0083146101f6565b600f6064928686519362461bcd60e51b85528401528201526e416c7265616479207374616b696e6760881b6044820152fd5b5050346100e5573660031901126104b9576104626107c4565b6024356001600160a01b03818116918290036104b5576001549260ff8460a01c166104b15784546001600160a01b03191691161783556001600160a81b031990911617600160a01b1760015580f35b8480fd5b8380fd5b80fd5b839150346100e557816003193601126100e55733825260209260078452808320805494851561070d576105049394956127109485916104fe60018601546108fd565b906107df565b0491610536670de0b6b3a764000061052a856105258a548b87015490610934565b6107df565b04600583015490610808565b926003820154421095866106c7575b50610562906105578354600254610934565b600255600354610934565b60035554943387526007825286600585822082815582600182015582600282015582600382015582848201550155868260018060a01b03825416604487518094819363a9059cbb60e01b835233888401528c60248401525af19081156103b65788916106aa575b5015610671578261060a575b5082519485528401528201527f6c42d2bb36ad42ac675a97c8627d2cd9e34346d5057bbc3a6ed3c5d1f0a8219b60603392a280f35b8680808086335af1903d1561066b573d906001600160401b0382116106585750845190610640601f8201601f19168501836108ac565b815287833d92013e5b1561065457866105d5565b8580fd5b634e487b7160e01b895260419052602488fd5b50610649565b60649184519162461bcd60e51b83528201526015602482015274151bdad95b881d1c985b9cd9995c8819985a5b1959605a1b6044820152fd5b6106c19150833d85116103af576103a181836108ac565b886105c9565b6103e88086029086820414861517156106fa576106ee61056293926106f492048097610934565b95610815565b90610545565b634e487b7160e01b8a526011895260248afd5b8360649184519162461bcd60e51b835282015260086024820152674e6f207374616b6560c01b6044820152fd5b919050346101335760203660031901126101335760c09281906001600160a01b036107636107c4565b168152600760205220805492600182015492600283015490600560038501549385015494015494815196875260208701528501526060840152608083015260a0820152f35b8490346100e557816003193601126100e5576020906006548152f35b600435906001600160a01b03821682036107da57565b600080fd5b818102929181159184041417156107f257565b634e487b7160e01b600052601160045260246000fd5b919082018092116107f257565b600354801590811561084e575b50506020816108426000805160206109ad83398151915293600654610808565b600655604051908152a1565b9091670de0b6b3a7640000928382029382850414821517156107f2576108965761088d6020926000805160206109ad8339815191529404600454610808565b60045591610822565b634e487b7160e01b600052601260045260246000fd5b601f909101601f19168101906001600160401b038211908210176108cf57604052565b634e487b7160e01b600052604160045260246000fd5b908160209103126107da575180151581036107da5790565b62ed4e00811461092d576276a700811461092657624f1a00146109205761271090565b613a9890565b50614e2090565b5061753090565b919082039182116107f257565b6001600160a01b0316600090815260076020526040902080549081156109a5576005670de0b6b3a76400006109986127106109866109a2966104fe60018801546108fd565b04610525600454600487015490610934565b0491015490610808565b90565b505060009056fede88a922e0d3b88b24e9623efeb464919c6bf9f66857a65e2bfcf2ce87a9433da26469706673582212200853548208c915f1562e92270d70b92259054bbd61a923966951ae6b93d4af4764736f6c63430008140033","opcodes":"PUSH1 0x80 DUP1 PUSH1 0x40 MSTORE CALLVALUE PUSH2 0x16 JUMPI PUSH2 0xA02 SWAP1 DUP2 PUSH2 0x1C DUP3 CODECOPY RETURN JUMPDEST PUSH1 0x0 DUP1 REVERT INVALID PUSH1 0x80 PUSH1 0x40 DUP2 DUP2 MSTORE PUSH1 0x4 SWAP2 DUP3 CALLDATASIZE LT ISZERO PUSH2 0x2B JUMPI JUMPDEST POP POP POP CALLDATASIZE ISZERO PUSH2 0x20 JUMPI PUSH1 0x0 DUP1 REVERT JUMPDEST PUSH2 0x29 CALLVALUE PUSH2 0x815 JUMP JUMPDEST STOP JUMPDEST PUSH1 0x0 SWAP3 DUP4 CALLDATALOAD PUSH1 0xE0 SHR SWAP2 DUP3 PUSH4 0xE15561A EQ PUSH2 0x7A8 JUMPI POP DUP2 PUSH4 0x16934FC4 EQ PUSH2 0x73A JUMPI DUP2 PUSH4 0x2DEF6620 EQ PUSH2 0x4BC JUMPI DUP2 PUSH4 0x485CC955 EQ PUSH2 0x449 JUMPI DUP2 PUSH4 0x7B0472F0 EQ PUSH2 0x1BD JUMPI DUP2 PUSH4 0x817B1CD2 EQ PUSH2 0x19E JUMPI DUP2 PUSH4 0xC45A0155 EQ PUSH2 0x175 JUMPI DUP2 PUSH4 0xC8F33C91 EQ PUSH2 0x156 JUMPI DUP2 PUSH4 0xDC31B89D EQ PUSH2 0x137 JUMPI DUP2 PUSH4 0xDF136D65 EQ PUSH2 0x115 JUMPI POP DUP1 PUSH4 0xF40F0F52 EQ PUSH2 0xE9 JUMPI PUSH4 0xFC0C546A EQ PUSH2 0xBF JUMPI DUP1 PUSH2 0x12 JUMP JUMPDEST CALLVALUE PUSH2 0xE5 JUMPI DUP2 PUSH1 0x3 NOT CALLDATASIZE ADD SLT PUSH2 0xE5 JUMPI SWAP1 SLOAD SWAP1 MLOAD PUSH1 0x1 PUSH1 0x1 PUSH1 0xA0 SHL SUB SWAP1 SWAP2 AND DUP2 MSTORE PUSH1 0x20 SWAP1 RETURN JUMPDEST POP DUP1 REVERT JUMPDEST POP CALLVALUE PUSH2 0xE5 JUMPI PUSH1 0x20 CALLDATASIZE PUSH1 0x3 NOT ADD SLT PUSH2 0xE5 JUMPI PUSH1 0x20 SWAP1 PUSH2 0x10E PUSH2 0x109 PUSH2 0x7C4 JUMP JUMPDEST PUSH2 0x941 JUMP JUMPDEST SWAP1 MLOAD SWAP1 DUP2 MSTORE RETURN JUMPDEST SWAP1 POP CALLVALUE PUSH2 0x133 JUMPI DUP3 PUSH1 0x3 NOT CALLDATASIZE ADD SLT PUSH2 0x133 JUMPI PUSH1 0x20 SWAP3 POP SLOAD SWAP1 MLOAD SWAP1 DUP2 MSTORE RETURN JUMPDEST DUP3 DUP1 REVERT JUMPDEST POP POP CALLVALUE PUSH2 0xE5 JUMPI DUP2 PUSH1 0x3 NOT CALLDATASIZE ADD SLT PUSH2 0xE5 JUMPI PUSH1 0x20 SWAP1 PUSH1 0x3 SLOAD SWAP1 MLOAD SWAP1 DUP2 MSTORE RETURN JUMPDEST POP POP CALLVALUE PUSH2 0xE5 JUMPI DUP2 PUSH1 0x3 NOT CALLDATASIZE ADD SLT PUSH2 0xE5 JUMPI PUSH1 0x20 SWAP1 PUSH1 0x5 SLOAD SWAP1 MLOAD SWAP1 DUP2 MSTORE RETURN JUMPDEST POP POP CALLVALUE PUSH2 0xE5 JUMPI DUP2 PUSH1 0x3 NOT CALLDATASIZE ADD SLT PUSH2 0xE5 JUMPI PUSH1 0x1 SLOAD SWAP1 MLOAD PUSH1 0x1 PUSH1 0x1 PUSH1 0xA0 SHL SUB SWAP1 SWAP2 AND DUP2 MSTORE PUSH1 0x20 SWAP1 RETURN JUMPDEST POP POP CALLVALUE PUSH2 0xE5 JUMPI DUP2 PUSH1 0x3 NOT CALLDATASIZE ADD SLT PUSH2 0xE5 JUMPI PUSH1 0x20 SWAP1 PUSH1 0x2 SLOAD SWAP1 MLOAD SWAP1 DUP2 MSTORE RETURN JUMPDEST SWAP1 POP CALLVALUE PUSH2 0x133 JUMPI DUP2 PUSH1 0x3 NOT CALLDATASIZE ADD SLT PUSH2 0x133 JUMPI DUP1 CALLDATALOAD SWAP2 PUSH1 0x24 DUP1 CALLDATALOAD SWAP1 CALLER DUP7 MSTORE PUSH1 0x20 SWAP4 PUSH1 0x7 DUP6 MSTORE DUP4 DUP8 KECCAK256 SLOAD PUSH2 0x417 JUMPI PUSH3 0x278D00 DUP4 EQ DUP1 ISZERO PUSH2 0x40B JUMPI JUMPDEST DUP1 ISZERO PUSH2 0x3FF JUMPI JUMPDEST DUP1 ISZERO PUSH2 0x3F3 JUMPI JUMPDEST ISZERO PUSH2 0x3C0 JUMPI DUP7 SLOAD DUP5 MLOAD PUSH4 0x23B872DD PUSH1 0xE0 SHL DUP2 MSTORE CALLER DUP4 DUP3 ADD MSTORE ADDRESS DUP5 DUP3 ADD MSTORE PUSH1 0x44 DUP2 ADD DUP9 SWAP1 MSTORE SWAP1 DUP7 SWAP1 DUP3 SWAP1 PUSH1 0x64 SWAP1 DUP3 SWAP1 DUP13 SWAP1 PUSH1 0x1 PUSH1 0x1 PUSH1 0xA0 SHL SUB AND GAS CALL SWAP1 DUP2 ISZERO PUSH2 0x3B6 JUMPI DUP9 SWAP2 PUSH2 0x389 JUMPI JUMPDEST POP ISZERO PUSH2 0x357 JUMPI PUSH2 0x283 PUSH2 0x2710 PUSH2 0x26B PUSH2 0x265 DUP7 PUSH2 0x8FD JUMP JUMPDEST DUP10 PUSH2 0x7DF JUMP JUMPDEST DIV PUSH2 0x278 DUP9 PUSH1 0x2 SLOAD PUSH2 0x808 JUMP JUMPDEST PUSH1 0x2 SSTORE PUSH1 0x3 SLOAD PUSH2 0x808 JUMP JUMPDEST PUSH1 0x3 SSTORE PUSH2 0x290 DUP4 TIMESTAMP PUSH2 0x808 JUMP JUMPDEST DUP2 SLOAD DUP6 MLOAD SWAP4 SWAP2 SWAP3 SWAP2 PUSH1 0xC0 DUP6 ADD SWAP1 PUSH1 0x1 PUSH1 0x1 PUSH1 0x40 SHL SUB DUP3 GT DUP7 DUP4 LT OR PUSH2 0x346 JUMPI POP SWAP1 PUSH1 0x5 SWAP4 SWAP3 SWAP2 DUP8 MSTORE DUP9 DUP6 MSTORE DUP8 DUP6 ADD SWAP3 DUP7 DUP5 MSTORE DUP8 DUP7 ADD TIMESTAMP DUP2 MSTORE PUSH1 0x60 DUP8 ADD SWAP2 DUP3 MSTORE PUSH1 0x80 DUP8 ADD SWAP3 DUP4 MSTORE PUSH1 0xA0 DUP8 ADD SWAP5 DUP13 DUP7 MSTORE CALLER DUP14 MSTORE PUSH1 0x7 DUP12 MSTORE DUP10 DUP14 KECCAK256 SWAP8 MLOAD DUP9 SSTORE MLOAD PUSH1 0x1 DUP9 ADD SSTORE MLOAD PUSH1 0x2 DUP8 ADD SSTORE MLOAD PUSH1 0x3 DUP7 ADD SSTORE MLOAD SWAP1 DUP5 ADD SSTORE MLOAD SWAP2 ADD SSTORE PUSH2 0x311 DUP2 TIMESTAMP PUSH2 0x808 JUMP JUMPDEST SWAP3 DUP3 MLOAD SWAP5 DUP6 MSTORE DUP5 ADD MSTORE DUP3 ADD MSTORE PUSH32 0xB4CAAF29ADDA3EEFEE3AD552A8E85058589BF834C7466CAE4EE58787F70589ED PUSH1 0x60 CALLER SWAP3 LOG2 DUP1 RETURN JUMPDEST PUSH4 0x4E487B71 PUSH1 0xE0 SHL DUP12 MSTORE PUSH1 0x41 DUP5 MSTORE DUP11 REVERT JUMPDEST PUSH1 0xF PUSH1 0x64 SWAP3 DUP7 DUP7 MLOAD SWAP4 PUSH3 0x461BCD PUSH1 0xE5 SHL DUP6 MSTORE DUP5 ADD MSTORE DUP3 ADD MSTORE PUSH15 0x151C985B9CD9995C8819985A5B1959 PUSH1 0x8A SHL PUSH1 0x44 DUP3 ADD MSTORE REVERT JUMPDEST PUSH2 0x3A9 SWAP2 POP DUP7 RETURNDATASIZE DUP9 GT PUSH2 0x3AF JUMPI JUMPDEST PUSH2 0x3A1 DUP2 DUP4 PUSH2 0x8AC JUMP JUMPDEST DUP2 ADD SWAP1 PUSH2 0x8E5 JUMP JUMPDEST CODESIZE PUSH2 0x24D JUMP JUMPDEST POP RETURNDATASIZE PUSH2 0x397 JUMP JUMPDEST DUP6 MLOAD RETURNDATASIZE DUP11 DUP3 RETURNDATACOPY RETURNDATASIZE SWAP1 REVERT JUMPDEST PUSH1 0x10 PUSH1 0x64 SWAP3 DUP7 DUP7 MLOAD SWAP4 PUSH3 0x461BCD PUSH1 0xE5 SHL DUP6 MSTORE DUP5 ADD MSTORE DUP3 ADD MSTORE PUSH16 0x24B73B30B634B210323AB930BA34B7B7 PUSH1 0x81 SHL PUSH1 0x44 DUP3 ADD MSTORE REVERT JUMPDEST POP PUSH3 0xED4E00 DUP4 EQ PUSH2 0x204 JUMP JUMPDEST POP PUSH3 0x76A700 DUP4 EQ PUSH2 0x1FD JUMP JUMPDEST POP PUSH3 0x4F1A00 DUP4 EQ PUSH2 0x1F6 JUMP JUMPDEST PUSH1 0xF PUSH1 0x64 SWAP3 DUP7 DUP7 MLOAD SWAP4 PUSH3 0x461BCD PUSH1 0xE5 SHL DUP6 MSTORE DUP5 ADD MSTORE DUP3 ADD MSTORE PUSH15 0x416C7265616479207374616B696E67 PUSH1 0x88 SHL PUSH1 0x44 DUP3 ADD MSTORE REVERT JUMPDEST POP POP CALLVALUE PUSH2 0xE5 JUMPI CALLDATASIZE PUSH1 0x3 NOT ADD SLT PUSH2 0x4B9 JUMPI PUSH2 0x462 PUSH2 0x7C4 JUMP JUMPDEST PUSH1 0x24 CALLDATALOAD PUSH1 0x1 PUSH1 0x1 PUSH1 0xA0 SHL SUB DUP2 DUP2 AND SWAP2 DUP3 SWAP1 SUB PUSH2 0x4B5 JUMPI PUSH1 0x1 SLOAD SWAP3 PUSH1 0xFF DUP5 PUSH1 0xA0 SHR AND PUSH2 0x4B1 JUMPI DUP5 SLOAD PUSH1 0x1 PUSH1 0x1 PUSH1 0xA0 SHL SUB NOT AND SWAP2 AND OR DUP4 SSTORE PUSH1 0x1 PUSH1 0x1 PUSH1 0xA8 SHL SUB NOT SWAP1 SWAP2 AND OR PUSH1 0x1 PUSH1 0xA0 SHL OR PUSH1 0x1 SSTORE DUP1 RETURN JUMPDEST DUP5 DUP1 REVERT JUMPDEST DUP4 DUP1 REVERT JUMPDEST DUP1 REVERT JUMPDEST DUP4 SWAP2 POP CALLVALUE PUSH2 0xE5 JUMPI DUP2 PUSH1 0x3 NOT CALLDATASIZE ADD SLT PUSH2 0xE5 JUMPI CALLER DUP3 MSTORE PUSH1 0x20 SWAP3 PUSH1 0x7 DUP5 MSTORE DUP1 DUP4 KECCAK256 DUP1 SLOAD SWAP5 DUP6 ISZERO PUSH2 0x70D JUMPI PUSH2 0x504 SWAP4 SWAP5 SWAP6 PUSH2 0x2710 SWAP5 DUP6 SWAP2 PUSH2 0x4FE PUSH1 0x1 DUP7 ADD SLOAD PUSH2 0x8FD JUMP JUMPDEST SWAP1 PUSH2 0x7DF JUMP JUMPDEST DIV SWAP2 PUSH2 0x536 PUSH8 0xDE0B6B3A7640000 PUSH2 0x52A DUP6 PUSH2 0x525 DUP11 SLOAD DUP12 DUP8 ADD SLOAD SWAP1 PUSH2 0x934 JUMP JUMPDEST PUSH2 0x7DF JUMP JUMPDEST DIV PUSH1 0x5 DUP4 ADD SLOAD SWAP1 PUSH2 0x808 JUMP JUMPDEST SWAP3 PUSH1 0x3 DUP3 ADD SLOAD TIMESTAMP LT SWAP6 DUP7 PUSH2 0x6C7 JUMPI JUMPDEST POP PUSH2 0x562 SWAP1 PUSH2 0x557 DUP4 SLOAD PUSH1 0x2 SLOAD PUSH2 0x934 JUMP JUMPDEST PUSH1 0x2 SSTORE PUSH1 0x3 SLOAD PUSH2 0x934 JUMP JUMPDEST PUSH1 0x3 SSTORE SLOAD SWAP5 CALLER DUP8 MSTORE PUSH1 0x7 DUP3 MSTORE DUP7 PUSH1 0x5 DUP6 DUP3 KECCAK256 DUP3 DUP2 SSTORE DUP3 PUSH1 0x1 DUP3 ADD SSTORE DUP3 PUSH1 0x2 DUP3 ADD SSTORE DUP3 PUSH1 0x3 DUP3 ADD SSTORE DUP3 DUP5 DUP3 ADD SSTORE ADD SSTORE DUP7 DUP3 PUSH1 0x1 DUP1 PUSH1 0xA0 SHL SUB DUP3 SLOAD AND PUSH1 0x44 DUP8 MLOAD DUP1 SWAP5 DUP2 SWAP4 PUSH4 0xA9059CBB PUSH1 0xE0 SHL DUP4 MSTORE CALLER DUP9 DUP5 ADD MSTORE DUP13 PUSH1 0x24 DUP5 ADD MSTORE GAS CALL SWAP1 DUP2 ISZERO PUSH2 0x3B6 JUMPI DUP9 SWAP2 PUSH2 0x6AA JUMPI JUMPDEST POP ISZERO PUSH2 0x671 JUMPI DUP3 PUSH2 0x60A JUMPI JUMPDEST POP DUP3 MLOAD SWAP5 DUP6 MSTORE DUP5 ADD MSTORE DUP3 ADD MSTORE PUSH32 0x6C42D2BB36AD42AC675A97C8627D2CD9E34346D5057BBC3A6ED3C5D1F0A8219B PUSH1 0x60 CALLER SWAP3 LOG2 DUP1 RETURN JUMPDEST DUP7 DUP1 DUP1 DUP1 DUP7 CALLER GAS CALL SWAP1 RETURNDATASIZE ISZERO PUSH2 0x66B JUMPI RETURNDATASIZE SWAP1 PUSH1 0x1 PUSH1 0x1 PUSH1 0x40 SHL SUB DUP3 GT PUSH2 0x658 JUMPI POP DUP5 MLOAD SWAP1 PUSH2 0x640 PUSH1 0x1F DUP3 ADD PUSH1 0x1F NOT AND DUP6 ADD DUP4 PUSH2 0x8AC JUMP JUMPDEST DUP2 MSTORE DUP8 DUP4 RETURNDATASIZE SWAP3 ADD RETURNDATACOPY JUMPDEST ISZERO PUSH2 0x654 JUMPI DUP7 PUSH2 0x5D5 JUMP JUMPDEST DUP6 DUP1 REVERT JUMPDEST PUSH4 0x4E487B71 PUSH1 0xE0 SHL DUP10 MSTORE PUSH1 0x41 SWAP1 MSTORE PUSH1 0x24 DUP9 REVERT JUMPDEST POP PUSH2 0x649 JUMP JUMPDEST PUSH1 0x64 SWAP2 DUP5 MLOAD SWAP2 PUSH3 0x461BCD PUSH1 0xE5 SHL DUP4 MSTORE DUP3 ADD MSTORE PUSH1 0x15 PUSH1 0x24 DUP3 ADD MSTORE PUSH21 0x151BDAD95B881D1C985B9CD9995C8819985A5B1959 PUSH1 0x5A SHL PUSH1 0x44 DUP3 ADD MSTORE REVERT JUMPDEST PUSH2 0x6C1 SWAP2 POP DUP4 RETURNDATASIZE DUP6 GT PUSH2 0x3AF JUMPI PUSH2 0x3A1 DUP2 DUP4 PUSH2 0x8AC JUMP JUMPDEST DUP9 PUSH2 0x5C9 JUMP JUMPDEST PUSH2 0x3E8 DUP1 DUP7 MUL SWAP1 DUP7 DUP3 DIV EQ DUP7 ISZERO OR ISZERO PUSH2 0x6FA JUMPI PUSH2 0x6EE PUSH2 0x562 SWAP4 SWAP3 PUSH2 0x6F4 SWAP3 DIV DUP1 SWAP8 PUSH2 0x934 JUMP JUMPDEST SWAP6 PUSH2 0x815 JUMP JUMPDEST SWAP1 PUSH2 0x545 JUMP JUMPDEST PUSH4 0x4E487B71 PUSH1 0xE0 SHL DUP11 MSTORE PUSH1 0x11 DUP10 MSTORE PUSH1 0x24 DUP11 REVERT JUMPDEST DUP4 PUSH1 0x64 SWAP2 DUP5 MLOAD SWAP2 PUSH3 0x461BCD PUSH1 0xE5 SHL DUP4 MSTORE DUP3 ADD MSTORE PUSH1 0x8 PUSH1 0x24 DUP3 ADD MSTORE PUSH8 0x4E6F207374616B65 PUSH1 0xC0 SHL PUSH1 0x44 DUP3 ADD MSTORE REVERT JUMPDEST SWAP2 SWAP1 POP CALLVALUE PUSH2 0x133 JUMPI PUSH1 0x20 CALLDATASIZE PUSH1 0x3 NOT ADD SLT PUSH2 0x133 JUMPI PUSH1 0xC0 SWAP3 DUP2 SWAP1 PUSH1 0x1 PUSH1 0x1 PUSH1 0xA0 SHL SUB PUSH2 0x763 PUSH2 0x7C4 JUMP JUMPDEST AND DUP2 MSTORE PUSH1 0x7 PUSH1 0x20 MSTORE KECCAK256 DUP1 SLOAD SWAP3 PUSH1 0x1 DUP3 ADD SLOAD SWAP3 PUSH1 0x2 DUP4 ADD SLOAD SWAP1 PUSH1 0x5 PUSH1 0x3 DUP6 ADD SLOAD SWAP4 DUP6 ADD SLOAD SWAP5 ADD SLOAD SWAP5 DUP2 MLOAD SWAP7 DUP8 MSTORE PUSH1 0x20 DUP8 ADD MSTORE DUP6 ADD MSTORE PUSH1 0x60 DUP5 ADD MSTORE PUSH1 0x80 DUP4 ADD MSTORE PUSH1 0xA0 DUP3 ADD MSTORE RETURN JUMPDEST DUP5 SWAP1 CALLVALUE PUSH2 0xE5 JUMPI DUP2 PUSH1 0x3 NOT CALLDATASIZE ADD SLT PUSH2 0xE5 JUMPI PUSH1 0x20 SWAP1 PUSH1 0x6 SLOAD DUP2 MSTORE RETURN JUMPDEST PUSH1 0x4 CALLDATALOAD SWAP1 PUSH1 0x1 PUSH1 0x1 PUSH1 0xA0 SHL SUB DUP3 AND DUP3 SUB PUSH2 0x7DA JUMPI JUMP JUMPDEST PUSH1 0x0 DUP1 REVERT JUMPDEST DUP2 DUP2 MUL SWAP3 SWAP2 DUP2 ISZERO SWAP2 DUP5 DIV EQ OR ISZERO PUSH2 0x7F2 JUMPI JUMP JUMPDEST PUSH4 0x4E487B71 PUSH1 0xE0 SHL PUSH1 0x0 MSTORE PUSH1 0x11 PUSH1 0x4 MSTORE PUSH1 0x24 PUSH1 0x0 REVERT JUMPDEST SWAP2 SWAP1 DUP3 ADD DUP1 SWAP3 GT PUSH2 0x7F2 JUMPI JUMP JUMPDEST PUSH1 0x3 SLOAD DUP1 ISZERO SWAP1 DUP2 ISZERO PUSH2 0x84E JUMPI JUMPDEST POP POP PUSH1 0x20 DUP2 PUSH2 0x842 PUSH1 0x0 DUP1 MLOAD PUSH1 0x20 PUSH2 0x9AD DUP4 CODECOPY DUP2 MLOAD SWAP2 MSTORE SWAP4 PUSH1 0x6 SLOAD PUSH2 0x808 JUMP JUMPDEST PUSH1 0x6 SSTORE PUSH1 0x40 MLOAD SWAP1 DUP2 MSTORE LOG1 JUMP JUMPDEST SWAP1 SWAP2 PUSH8 0xDE0B6B3A7640000 SWAP3 DUP4 DUP3 MUL SWAP4 DUP3 DUP6 DIV EQ DUP3 ISZERO OR ISZERO PUSH2 0x7F2 JUMPI PUSH2 0x896 JUMPI PUSH2 0x88D PUSH1 0x20 SWAP3 PUSH1 0x0 DUP1 MLOAD PUSH1 0x20 PUSH2 0x9AD DUP4 CODECOPY DUP2 MLOAD SWAP2 MSTORE SWAP5 DIV PUSH1 0x4 SLOAD PUSH2 0x808 JUMP JUMPDEST PUSH1 0x4 SSTORE SWAP2 PUSH2 0x822 JUMP JUMPDEST PUSH4 0x4E487B71 PUSH1 0xE0 SHL PUSH1 0x0 MSTORE PUSH1 0x12 PUSH1 0x4 MSTORE PUSH1 0x24 PUSH1 0x0 REVERT JUMPDEST PUSH1 0x1F SWAP1 SWAP2 ADD PUSH1 0x1F NOT AND DUP2 ADD SWAP1 PUSH1 0x1 PUSH1 0x1 PUSH1 0x40 SHL SUB DUP3 GT SWAP1 DUP3 LT OR PUSH2 0x8CF JUMPI PUSH1 0x40 MSTORE JUMP JUMPDEST PUSH4 0x4E487B71 PUSH1 0xE0 SHL PUSH1 0x0 MSTORE PUSH1 0x41 PUSH1 0x4 MSTORE PUSH1 0x24 PUSH1 0x0 REVERT JUMPDEST SWAP1 DUP2 PUSH1 0x20 SWAP2 SUB SLT PUSH2 0x7DA JUMPI MLOAD DUP1 ISZERO ISZERO DUP2 SUB PUSH2 0x7DA JUMPI SWAP1 JUMP JUMPDEST PUSH3 0xED4E00 DUP2 EQ PUSH2 0x92D JUMPI PUSH3 0x76A700 DUP2 EQ PUSH2 0x926 JUMPI PUSH3 0x4F1A00 EQ PUSH2 0x920 JUMPI PUSH2 0x2710 SWAP1 JUMP JUMPDEST PUSH2 0x3A98 SWAP1 JUMP JUMPDEST POP PUSH2 0x4E20 SWAP1 JUMP JUMPDEST POP PUSH2 0x7530 SWAP1 JUMP JUMPDEST SWAP2 SWAP1 DUP3 SUB SWAP2 DUP3 GT PUSH2 0x7F2 JUMPI JUMP JUMPDEST PUSH1 0x1 PUSH1 0x1 PUSH1 0xA0 SHL SUB AND PUSH1 0x0 SWAP1 DUP2 MSTORE PUSH1 0x7 PUSH1 0x20 MSTORE PUSH1 0x40 SWAP1 KECCAK256 DUP1 SLOAD SWAP1 DUP2 ISZERO PUSH2 0x9A5 JUMPI PUSH1 0x5 PUSH8 0xDE0B6B3A7640000 PUSH2 0x998 PUSH2 0x2710 PUSH2 0x986 PUSH2 0x9A2 SWAP7 PUSH2 0x4FE PUSH1 0x1 DUP9 ADD SLOAD PUSH2 0x8FD JUMP JUMPDEST DIV PUSH2 0x525 PUSH1 0x4 SLOAD PUSH1 0x4 DUP8 ADD SLOAD SWAP1 PUSH2 0x934 JUMP JUMPDEST DIV SWAP2 ADD SLOAD SWAP1 PUSH2 0x808 JUMP JUMPDEST SWAP1 JUMP JUMPDEST POP POP PUSH1 0x0 SWAP1 JUMP INVALID 0xDE DUP9 0xA9 0x22 0xE0 0xD3 0xB8 DUP12 0x24 0xE9 PUSH3 0x3EFEB4 PUSH5 0x919C6BF9F6 PUSH9 0x57A65E2BFCF2CE87A9 NUMBER RETURNDATASIZE LOG2 PUSH5 0x6970667358 0x22 SLT KECCAK256 ADDMOD MSTORE8 SLOAD DUP3 ADDMOD 0xC9 ISZERO CALL JUMP 0x2E SWAP3 0x27 0xD PUSH17 0xB92259054BBD61A923966951AE6B93D4AF SELFBALANCE PUSH5 0x736F6C6343 STOP ADDMOD EQ STOP CALLER "},"methodIdentifiers":{"factory()":"c45a0155","initialize(address,address)":"485cc955","lastUpdateTime()":"c8f33c91","pendingReward(address)":"f40f0f52","rewardPerTokenStored()":"df136d65","stake(uint256,uint256)":"7b0472f0","stakes(address)":"16934fc4","token()":"fc0c546a","totalRewards()":"0e15561a","totalStaked()":"817b1cd2","totalStakedWeighted()":"dc31b89d","unstake()":"2def6620"}}}}}