{"contracts/BasedToken.sol":{"BasedToken":{"abi":[{"anonymous":false,"inputs":[{"indexed":true,"internalType":"address","name":"owner","type":"address"},{"indexed":true,"internalType":"address","name":"spender","type":"address"},{"indexed":false,"internalType":"uint256","name":"value","type":"uint256"}],"name":"Approval","type":"event"},{"anonymous":false,"inputs":[{"indexed":true,"internalType":"address","name":"from","type":"address"},{"indexed":true,"internalType":"address","name":"to","type":"address"},{"indexed":false,"internalType":"uint256","name":"value","type":"uint256"}],"name":"Transfer","type":"event"},{"inputs":[],"name":"TOTAL_SUPPLY","outputs":[{"internalType":"uint256","name":"","type":"uint256"}],"stateMutability":"view","type":"function"},{"inputs":[{"internalType":"address","name":"","type":"address"},{"internalType":"address","name":"","type":"address"}],"name":"allowance","outputs":[{"internalType":"uint256","name":"","type":"uint256"}],"stateMutability":"view","type":"function"},{"inputs":[{"internalType":"address","name":"sp","type":"address"},{"internalType":"uint256","name":"amt","type":"uint256"}],"name":"approve","outputs":[{"internalType":"bool","name":"","type":"bool"}],"stateMutability":"nonpayable","type":"function"},{"inputs":[{"internalType":"address","name":"","type":"address"}],"name":"balanceOf","outputs":[{"internalType":"uint256","name":"","type":"uint256"}],"stateMutability":"view","type":"function"},{"inputs":[{"internalType":"uint256","name":"amt","type":"uint256"}],"name":"burn","outputs":[],"stateMutability":"nonpayable","type":"function"},{"inputs":[],"name":"curve","outputs":[{"internalType":"address","name":"","type":"address"}],"stateMutability":"view","type":"function"},{"inputs":[],"name":"decimals","outputs":[{"internalType":"uint8","name":"","type":"uint8"}],"stateMutability":"view","type":"function"},{"inputs":[],"name":"description","outputs":[{"internalType":"string","name":"","type":"string"}],"stateMutability":"view","type":"function"},{"inputs":[],"name":"factory","outputs":[{"internalType":"address","name":"","type":"address"}],"stateMutability":"view","type":"function"},{"inputs":[],"name":"imageUri","outputs":[{"internalType":"string","name":"","type":"string"}],"stateMutability":"view","type":"function"},{"inputs":[{"internalType":"string","name":"_name","type":"string"},{"internalType":"string","name":"_symbol","type":"string"},{"internalType":"address","name":"_curve","type":"address"},{"internalType":"address","name":"_factory","type":"address"}],"name":"initialize","outputs":[],"stateMutability":"nonpayable","type":"function"},{"inputs":[],"name":"isGraduated","outputs":[{"internalType":"bool","name":"","type":"bool"}],"stateMutability":"view","type":"function"},{"inputs":[],"name":"metaSet","outputs":[{"internalType":"bool","name":"","type":"bool"}],"stateMutability":"view","type":"function"},{"inputs":[],"name":"name","outputs":[{"internalType":"string","name":"","type":"string"}],"stateMutability":"view","type":"function"},{"inputs":[{"internalType":"string","name":"_img","type":"string"},{"internalType":"string","name":"_desc","type":"string"},{"internalType":"string","name":"_web","type":"string"},{"internalType":"string","name":"_tw","type":"string"},{"internalType":"string","name":"_tg","type":"string"}],"name":"setMeta","outputs":[],"stateMutability":"nonpayable","type":"function"},{"inputs":[],"name":"symbol","outputs":[{"internalType":"string","name":"","type":"string"}],"stateMutability":"view","type":"function"},{"inputs":[],"name":"telegram","outputs":[{"internalType":"string","name":"","type":"string"}],"stateMutability":"view","type":"function"},{"inputs":[],"name":"totalSupply","outputs":[{"internalType":"uint256","name":"","type":"uint256"}],"stateMutability":"pure","type":"function"},{"inputs":[{"internalType":"address","name":"to","type":"address"},{"internalType":"uint256","name":"amt","type":"uint256"}],"name":"transfer","outputs":[{"internalType":"bool","name":"","type":"bool"}],"stateMutability":"nonpayable","type":"function"},{"inputs":[{"internalType":"address","name":"from","type":"address"},{"internalType":"address","name":"to","type":"address"},{"internalType":"uint256","name":"amt","type":"uint256"}],"name":"transferFrom","outputs":[{"internalType":"bool","name":"","type":"bool"}],"stateMutability":"nonpayable","type":"function"},{"inputs":[],"name":"twitter","outputs":[{"internalType":"string","name":"","type":"string"}],"stateMutability":"view","type":"function"},{"inputs":[],"name":"website","outputs":[{"internalType":"string","name":"","type":"string"}],"stateMutability":"view","type":"function"}],"evm":{"bytecode":{"linkReferences":{},"object":"6080806040523461001657611595908161001c8239f35b600080fdfe6080604090808252600436101561001557600080fd5b60003560e01c90816306fdde031461123c57508063095ea7b3146111ca5780630bf82da41461113657806318160ddd14610b1157806323b872dd146110b3578063313ce5671461109757806342966c681461104c57806347ecb66514610fb857806370a0823114610f7f5780637165485d14610f565780637284e41614610ec25780638480fd7c14610e9e5780638f15b41414610b37578063902d55a514610b1157806395d89b4114610a885780639e5f2602146109e4578063a9059cbb146109b4578063abfaeee014610920578063beb0a41614610855578063c45a01551461082c578063cc0d24e7146101645763dd62ed3e1461011357600080fd5b3461015f578060031936011261015f5760209061012e611373565b610136611389565b9060018060a01b03809116600052600b8452826000209116600052825280600020549051908152f35b600080fd5b3461015f5760a036600319011261015f576004356001600160401b03811161015f5761019490369060040161139f565b906024356001600160401b03811161015f576101b490369060040161139f565b9092906044356001600160401b03811161015f576101d690369060040161139f565b906064356001600160401b03811161015f576101f690369060040161139f565b90969093906084356001600160401b03811161015f5761021a90369060040161139f565b96909760018060a01b036003541633148061081f575b1561015f576009805460ff191660011790556001600160401b0382116104aa57819061025d6004546112cd565b601f81116107c4575b50600090601f831160011461074f57600092610744575b50508160011b916000199060031b1c1916176004555b6001600160401b0382116104aa5781906102ae6005546112cd565b601f81116106f3575b50600090601f831160011461067e57600092610673575b50508160011b916000199060031b1c1916176005555b6001600160401b0382116104aa5781906102ff6006546112cd565b601f8111610615575b50600090601f83116001146105a057600092610595575b50508160011b916000199060031b1c1916176006555b6001600160401b0381116104aa5761034e6007546112cd565b601f8111610542575b506000601f82116001146104cb57819293946000926104c0575b50508160011b916000199060031b1c1916176007555b6001600160401b0381116104aa576103a06008546112cd565b601f8111610457575b506000601f82116001146103e55781926000926103da575b5050600019600383901b1c191660019190911b17600855005b0135905082806103c1565b60086000908152601f198316936000805160206114e083398151915292909160205b86821061043f5750508360019510610425575b505050811b01600855005b0135600019600384901b60f8161c1916905582808061041a565b80600184968294958701358155019501920190610407565b60086000526000805160206114e0833981519152601f830160051c810191602084106104a0575b601f0160051c01905b81811061049457506103a9565b60008155600101610487565b909150819061047e565b634e487b7160e01b600052604160045260246000fd5b013590508480610371565b60076000908152601f198316956000805160206114c083398151915292909160205b88821061052a57505083600195969710610510575b505050811b01600755610387565b0135600019600384901b60f8161c19169055848080610502565b806001849682949587013581550195019201906104ed565b60076000526000805160206114c0833981519152601f830160051c8101916020841061058b575b601f0160051c01905b81811061057f5750610357565b60008155600101610572565b9091508190610569565b01359050868061031f565b600660009081529350600080516020611520833981519152915b601f19841685106105fd576001945083601f198116106105e3575b505050811b01600655610335565b0135600019600384901b60f8161c191690558680806105d5565b818101358355602094850194600190930192016105ba565b6006600052909150600080516020611520833981519152601f840160051c81019160208510610669575b90601f859493920160051c01905b81811061065a5750610308565b6000815584935060010161064d565b909150819061063f565b0135905088806102ce565b600560009081529350600080516020611480833981519152915b601f19841685106106db576001945083601f198116106106c1575b505050811b016005556102e4565b0135600019600384901b60f8161c191690558880806106b3565b81810135835560209485019460019093019201610698565b90915060056000526020600020601f840160051c81016020851061073d575b90849392915b601f830160051c8201811061072e5750506102b7565b60008155859450600101610718565b5080610712565b013590508a8061027d565b600460009081529350600080516020611540833981519152915b601f19841685106107ac576001945083601f19811610610792575b505050811b01600455610293565b0135600019600384901b60f8161c191690558a8080610784565b81810135835560209485019460019093019201610769565b6004600052909150600080516020611540833981519152601f840160051c810160208510610818575b90849392915b601f830160051c82018110610809575050610266565b600081558594506001016107f3565b50806107ed565b5060ff6009541615610230565b503461015f57600036600319011261015f5760035490516001600160a01b039091168152602090f35b503461015f57600036600319011261015f578051600091600654610878816112cd565b8084526001918083169081156108f857506001146108b0575b50506108a2826108ac940383611307565b519182918261132a565b0390f35b6006600090815260209550916000805160206115208339815191525b8284106108e5575050508201909201916108a282610891565b80548685018801529286019281016108cc565b6108ac96506108a293506020915091859260ff191682840152151560051b8201019450610891565b503461015f57600036600319011261015f578051600091600754610943816112cd565b8084526001918083169081156108f8575060011461096c5750506108a2826108ac940383611307565b6007600090815260209550916000805160206114c08339815191525b8284106109a1575050508201909201916108a282610891565b8054868501880152928601928101610988565b503461015f578060031936011261015f576020906109dd6109d3611373565b60243590336113ef565b5160018152f35b503461015f57600036600319011261015f576002546001600160a01b0316908115159081610a19575b60209250519015158152f35b905060206004928251938480926318160ddd60e01b82525afa8015610a7d57600090610a4b575b602092501590610a0d565b506020823d8211610a75575b81610a6460209383611307565b8101031261015f5760209151610a40565b3d9150610a57565b50513d6000823e3d90fd5b503461015f57600036600319011261015f57805160009160018054610aac816112cd565b808552908281169081156108f85750600114610ad35750506108a2826108ac940383611307565b93508060005260209384600020916000925b828410610afe575050508201909201916108a282610891565b8054868501880152928601928101610ae5565b503461015f57600036600319011261015f5751676765c793fa10079d601b1b8152602090f35b503461015f57608036600319011261015f576001600160401b039060043582811161015f57610b6a90369060040161139f565b9060243584811161015f57610b8390369060040161139f565b6001600160a01b03956044358781169392919084900361015f5760643597881680980361015f57600395865460ff8160a01c16610e645760ff60a01b1916600160a01b1787558181116104aa5780610bdc6000546112cd565b96601f97888111610e13575b50600090888311600114610d9c57600092610d91575b50508160011b9160001990891b1c1916176000555b81116104aa578693600192610c2884546112cd565b828111610d38575b506000918311600114610cb957928260209693600099969360008051602061150083398151915299968b92610cae575b5050891982871b1c191690821b1790555b600280546001600160a01b03199081169092179055825416179055848452600a8252808420676765c793fa10079d601b1b908190559051908152a3005b013590503880610c60565b600084815260208082209391601f198616915b828210610d1e57505093600099969386936000805160206115008339815191529a97938360209b9810610d07575b505050811b019055610c71565b01358b1983891b60f8161c19169055388080610cfa565b8484013586558c9950948701949283019290810190610ccc565b909192938095965060005260206000208380860160051c82019260208710610d88575b948b9897969594939291940160051c01905b818110610d7a5750610c30565b600081558a97508501610d6d565b92508192610d5b565b013590503880610bfe565b60008080526000805160206114a08339815191529350909190601f1985169060205b828210610dfb575050908460019594939210610de3575b505050811b01600055610c13565b0135600019838b1b60f8161c19169055388080610dd5565b80600185978294968801358155019601930190610dbe565b9091506000805260206000208880850160051c82019260208610610e5b575b9085949392910160051c01905b818110610e4c5750610be8565b60008155849350600101610e3f565b92508192610e32565b885162461bcd60e51b8152602060048201526013602482015272105b1c9958591e481a5b9a5d1a585b1a5e9959606a1b6044820152606490fd5b503461015f57600036600319011261015f5760209060ff6009541690519015158152f35b503461015f57600036600319011261015f578051600091600554610ee5816112cd565b8084526001918083169081156108f85750600114610f0e5750506108a2826108ac940383611307565b6005600090815260209550916000805160206114808339815191525b828410610f43575050508201909201916108a282610891565b8054868501880152928601928101610f2a565b503461015f57600036600319011261015f5760025490516001600160a01b039091168152602090f35b503461015f57602036600319011261015f576020906001600160a01b03610fa4611373565b16600052600a825280600020549051908152f35b503461015f57600036600319011261015f578051600091600854610fdb816112cd565b8084526001918083169081156108f857506001146110045750506108a2826108ac940383611307565b6008600090815260209550916000805160206114e08339815191525b828410611039575050508201909201916108a282610891565b8054868501880152928601928101611020565b503461015f57602036600319011261015f5760009060043590338352600a60205280832061107b8382546113cc565b90555190815260008051602061150083398151915260203392a3005b503461015f57600036600319011261015f576020905160128152f35b503461015f57606036600319011261015f576020906109dd6110d3611373565b6110db611389565b6001600160a01b0382166000818152600b875285812033825287528590205460443593919060010161110e575b506113ef565b600052600b8652846000203360005286528460002061112e8482546113cc565b905538611108565b503461015f57600036600319011261015f578051600091600454611159816112cd565b8084526001918083169081156108f857506001146111825750506108a2826108ac940383611307565b6004600090815260209550916000805160206115408339815191525b8284106111b7575050508201909201916108a282610891565b805486850188015292860192810161119e565b503461015f578060031936011261015f576020906111e6611373565b60243533600052600b8452826000209160018060a01b03169182600052845280836000205582519081527f8c5be1e5ebec7d5bd14f71427d1e84f3dd0314c0f7b2291e5b200ac8c7c3b925843392a35160018152f35b90503461015f57600036600319011261015f5760009160005461125e816112cd565b8084526001918083169081156108f857506001146112875750506108a2826108ac940383611307565b600080805260209550916000805160206114a08339815191525b8284106112ba575050508201909201916108a282610891565b80548685018801529286019281016112a1565b90600182811c921680156112fd575b60208310146112e757565b634e487b7160e01b600052602260045260246000fd5b91607f16916112dc565b601f909101601f19168101906001600160401b038211908210176104aa57604052565b6020808252825181830181905290939260005b82811061135f57505060409293506000838284010152601f8019910116010190565b81810186015184820160400152850161133d565b600435906001600160a01b038216820361015f57565b602435906001600160a01b038216820361015f57565b9181601f8401121561015f578235916001600160401b03831161015f576020838186019501011161015f57565b919082039182116113d957565b634e487b7160e01b600052601160045260246000fd5b90916001600160a01b039182169182151580611474575b1561015f57600093838552600a602052604085206114258482546113cc565b90551692838152600a6020526040812080549183830180931161146057505560405190815260008051602061150083398151915290602090a3565b634e487b7160e01b81526011600452602490fd5b50808416151561140656fe036b6384b5eca791c62761152d0c79bb0604c104a5fb6f4eb0703f3154bb3db0290decd9548b62a8d60345a988386fc84ba6bc95484008f6362f93160ef3e563a66cc928b5edb82af9bd49922954155ab7b0942694bea4ce44661d9a8736c688f3f7a9fe364faab93b216da50a3214154f22a0a2b415b23a84c8169e8b636ee3ddf252ad1be2c89b69c2b068fc378daa952ba7f163c4a11628f55a4df523b3eff652222313e28459528d920b65115c16c04f3efc82aaedc97be59f3f377c0d3f8a35acfbc15ff81a39ae7d344fd709f28e8600b4aa8c65c6b64bfe7fe36bd19ba2646970667358221220ab2692ae1f067e9341026b0935997d1511195fc0fb1424629d2e2c7a20a8b8d964736f6c63430008140033","opcodes":"PUSH1 0x80 DUP1 PUSH1 0x40 MSTORE CALLVALUE PUSH2 0x16 JUMPI PUSH2 0x1595 SWAP1 DUP2 PUSH2 0x1C DUP3 CODECOPY RETURN JUMPDEST PUSH1 0x0 DUP1 REVERT INVALID PUSH1 0x80 PUSH1 0x40 SWAP1 DUP1 DUP3 MSTORE PUSH1 0x4 CALLDATASIZE LT ISZERO PUSH2 0x15 JUMPI PUSH1 0x0 DUP1 REVERT JUMPDEST PUSH1 0x0 CALLDATALOAD PUSH1 0xE0 SHR SWAP1 DUP2 PUSH4 0x6FDDE03 EQ PUSH2 0x123C JUMPI POP DUP1 PUSH4 0x95EA7B3 EQ PUSH2 0x11CA JUMPI DUP1 PUSH4 0xBF82DA4 EQ PUSH2 0x1136 JUMPI DUP1 PUSH4 0x18160DDD EQ PUSH2 0xB11 JUMPI DUP1 PUSH4 0x23B872DD EQ PUSH2 0x10B3 JUMPI DUP1 PUSH4 0x313CE567 EQ PUSH2 0x1097 JUMPI DUP1 PUSH4 0x42966C68 EQ PUSH2 0x104C JUMPI DUP1 PUSH4 0x47ECB665 EQ PUSH2 0xFB8 JUMPI DUP1 PUSH4 0x70A08231 EQ PUSH2 0xF7F JUMPI DUP1 PUSH4 0x7165485D EQ PUSH2 0xF56 JUMPI DUP1 PUSH4 0x7284E416 EQ PUSH2 0xEC2 JUMPI DUP1 PUSH4 0x8480FD7C EQ PUSH2 0xE9E JUMPI DUP1 PUSH4 0x8F15B414 EQ PUSH2 0xB37 JUMPI DUP1 PUSH4 0x902D55A5 EQ PUSH2 0xB11 JUMPI DUP1 PUSH4 0x95D89B41 EQ PUSH2 0xA88 JUMPI DUP1 PUSH4 0x9E5F2602 EQ PUSH2 0x9E4 JUMPI DUP1 PUSH4 0xA9059CBB EQ PUSH2 0x9B4 JUMPI DUP1 PUSH4 0xABFAEEE0 EQ PUSH2 0x920 JUMPI DUP1 PUSH4 0xBEB0A416 EQ PUSH2 0x855 JUMPI DUP1 PUSH4 0xC45A0155 EQ PUSH2 0x82C JUMPI DUP1 PUSH4 0xCC0D24E7 EQ PUSH2 0x164 JUMPI PUSH4 0xDD62ED3E EQ PUSH2 0x113 JUMPI PUSH1 0x0 DUP1 REVERT JUMPDEST CALLVALUE PUSH2 0x15F JUMPI DUP1 PUSH1 0x3 NOT CALLDATASIZE ADD SLT PUSH2 0x15F JUMPI PUSH1 0x20 SWAP1 PUSH2 0x12E PUSH2 0x1373 JUMP JUMPDEST PUSH2 0x136 PUSH2 0x1389 JUMP JUMPDEST SWAP1 PUSH1 0x1 DUP1 PUSH1 0xA0 SHL SUB DUP1 SWAP2 AND PUSH1 0x0 MSTORE PUSH1 0xB DUP5 MSTORE DUP3 PUSH1 0x0 KECCAK256 SWAP2 AND PUSH1 0x0 MSTORE DUP3 MSTORE DUP1 PUSH1 0x0 KECCAK256 SLOAD SWAP1 MLOAD SWAP1 DUP2 MSTORE RETURN JUMPDEST PUSH1 0x0 DUP1 REVERT JUMPDEST CALLVALUE PUSH2 0x15F JUMPI PUSH1 0xA0 CALLDATASIZE PUSH1 0x3 NOT ADD SLT PUSH2 0x15F JUMPI PUSH1 0x4 CALLDATALOAD PUSH1 0x1 PUSH1 0x1 PUSH1 0x40 SHL SUB DUP2 GT PUSH2 0x15F JUMPI PUSH2 0x194 SWAP1 CALLDATASIZE SWAP1 PUSH1 0x4 ADD PUSH2 0x139F JUMP JUMPDEST SWAP1 PUSH1 0x24 CALLDATALOAD PUSH1 0x1 PUSH1 0x1 PUSH1 0x40 SHL SUB DUP2 GT PUSH2 0x15F JUMPI PUSH2 0x1B4 SWAP1 CALLDATASIZE SWAP1 PUSH1 0x4 ADD PUSH2 0x139F JUMP JUMPDEST SWAP1 SWAP3 SWAP1 PUSH1 0x44 CALLDATALOAD PUSH1 0x1 PUSH1 0x1 PUSH1 0x40 SHL SUB DUP2 GT PUSH2 0x15F JUMPI PUSH2 0x1D6 SWAP1 CALLDATASIZE SWAP1 PUSH1 0x4 ADD PUSH2 0x139F JUMP JUMPDEST SWAP1 PUSH1 0x64 CALLDATALOAD PUSH1 0x1 PUSH1 0x1 PUSH1 0x40 SHL SUB DUP2 GT PUSH2 0x15F JUMPI PUSH2 0x1F6 SWAP1 CALLDATASIZE SWAP1 PUSH1 0x4 ADD PUSH2 0x139F JUMP JUMPDEST SWAP1 SWAP7 SWAP1 SWAP4 SWAP1 PUSH1 0x84 CALLDATALOAD PUSH1 0x1 PUSH1 0x1 PUSH1 0x40 SHL SUB DUP2 GT PUSH2 0x15F JUMPI PUSH2 0x21A SWAP1 CALLDATASIZE SWAP1 PUSH1 0x4 ADD PUSH2 0x139F JUMP JUMPDEST SWAP7 SWAP1 SWAP8 PUSH1 0x1 DUP1 PUSH1 0xA0 SHL SUB PUSH1 0x3 SLOAD AND CALLER EQ DUP1 PUSH2 0x81F JUMPI JUMPDEST ISZERO PUSH2 0x15F JUMPI PUSH1 0x9 DUP1 SLOAD PUSH1 0xFF NOT AND PUSH1 0x1 OR SWAP1 SSTORE PUSH1 0x1 PUSH1 0x1 PUSH1 0x40 SHL SUB DUP3 GT PUSH2 0x4AA JUMPI DUP2 SWAP1 PUSH2 0x25D PUSH1 0x4 SLOAD PUSH2 0x12CD JUMP JUMPDEST PUSH1 0x1F DUP2 GT PUSH2 0x7C4 JUMPI JUMPDEST POP PUSH1 0x0 SWAP1 PUSH1 0x1F DUP4 GT PUSH1 0x1 EQ PUSH2 0x74F JUMPI PUSH1 0x0 SWAP3 PUSH2 0x744 JUMPI JUMPDEST POP POP DUP2 PUSH1 0x1 SHL SWAP2 PUSH1 0x0 NOT SWAP1 PUSH1 0x3 SHL SHR NOT AND OR PUSH1 0x4 SSTORE JUMPDEST PUSH1 0x1 PUSH1 0x1 PUSH1 0x40 SHL SUB DUP3 GT PUSH2 0x4AA JUMPI DUP2 SWAP1 PUSH2 0x2AE PUSH1 0x5 SLOAD PUSH2 0x12CD JUMP JUMPDEST PUSH1 0x1F DUP2 GT PUSH2 0x6F3 JUMPI JUMPDEST POP PUSH1 0x0 SWAP1 PUSH1 0x1F DUP4 GT PUSH1 0x1 EQ PUSH2 0x67E JUMPI PUSH1 0x0 SWAP3 PUSH2 0x673 JUMPI JUMPDEST POP POP DUP2 PUSH1 0x1 SHL SWAP2 PUSH1 0x0 NOT SWAP1 PUSH1 0x3 SHL SHR NOT AND OR PUSH1 0x5 SSTORE JUMPDEST PUSH1 0x1 PUSH1 0x1 PUSH1 0x40 SHL SUB DUP3 GT PUSH2 0x4AA JUMPI DUP2 SWAP1 PUSH2 0x2FF PUSH1 0x6 SLOAD PUSH2 0x12CD JUMP JUMPDEST PUSH1 0x1F DUP2 GT PUSH2 0x615 JUMPI JUMPDEST POP PUSH1 0x0 SWAP1 PUSH1 0x1F DUP4 GT PUSH1 0x1 EQ PUSH2 0x5A0 JUMPI PUSH1 0x0 SWAP3 PUSH2 0x595 JUMPI JUMPDEST POP POP DUP2 PUSH1 0x1 SHL SWAP2 PUSH1 0x0 NOT SWAP1 PUSH1 0x3 SHL SHR NOT AND OR PUSH1 0x6 SSTORE JUMPDEST PUSH1 0x1 PUSH1 0x1 PUSH1 0x40 SHL SUB DUP2 GT PUSH2 0x4AA JUMPI PUSH2 0x34E PUSH1 0x7 SLOAD PUSH2 0x12CD JUMP JUMPDEST PUSH1 0x1F DUP2 GT PUSH2 0x542 JUMPI JUMPDEST POP PUSH1 0x0 PUSH1 0x1F DUP3 GT PUSH1 0x1 EQ PUSH2 0x4CB JUMPI DUP2 SWAP3 SWAP4 SWAP5 PUSH1 0x0 SWAP3 PUSH2 0x4C0 JUMPI JUMPDEST POP POP DUP2 PUSH1 0x1 SHL SWAP2 PUSH1 0x0 NOT SWAP1 PUSH1 0x3 SHL SHR NOT AND OR PUSH1 0x7 SSTORE JUMPDEST PUSH1 0x1 PUSH1 0x1 PUSH1 0x40 SHL SUB DUP2 GT PUSH2 0x4AA JUMPI PUSH2 0x3A0 PUSH1 0x8 SLOAD PUSH2 0x12CD JUMP JUMPDEST PUSH1 0x1F DUP2 GT PUSH2 0x457 JUMPI JUMPDEST POP PUSH1 0x0 PUSH1 0x1F DUP3 GT PUSH1 0x1 EQ PUSH2 0x3E5 JUMPI DUP2 SWAP3 PUSH1 0x0 SWAP3 PUSH2 0x3DA JUMPI JUMPDEST POP POP PUSH1 0x0 NOT PUSH1 0x3 DUP4 SWAP1 SHL SHR NOT AND PUSH1 0x1 SWAP2 SWAP1 SWAP2 SHL OR PUSH1 0x8 SSTORE STOP JUMPDEST ADD CALLDATALOAD SWAP1 POP DUP3 DUP1 PUSH2 0x3C1 JUMP JUMPDEST PUSH1 0x8 PUSH1 0x0 SWAP1 DUP2 MSTORE PUSH1 0x1F NOT DUP4 AND SWAP4 PUSH1 0x0 DUP1 MLOAD PUSH1 0x20 PUSH2 0x14E0 DUP4 CODECOPY DUP2 MLOAD SWAP2 MSTORE SWAP3 SWAP1 SWAP2 PUSH1 0x20 JUMPDEST DUP7 DUP3 LT PUSH2 0x43F JUMPI POP POP DUP4 PUSH1 0x1 SWAP6 LT PUSH2 0x425 JUMPI JUMPDEST POP POP POP DUP2 SHL ADD PUSH1 0x8 SSTORE STOP JUMPDEST ADD CALLDATALOAD PUSH1 0x0 NOT PUSH1 0x3 DUP5 SWAP1 SHL PUSH1 0xF8 AND SHR NOT AND SWAP1 SSTORE DUP3 DUP1 DUP1 PUSH2 0x41A JUMP JUMPDEST DUP1 PUSH1 0x1 DUP5 SWAP7 DUP3 SWAP5 SWAP6 DUP8 ADD CALLDATALOAD DUP2 SSTORE ADD SWAP6 ADD SWAP3 ADD SWAP1 PUSH2 0x407 JUMP JUMPDEST PUSH1 0x8 PUSH1 0x0 MSTORE PUSH1 0x0 DUP1 MLOAD PUSH1 0x20 PUSH2 0x14E0 DUP4 CODECOPY DUP2 MLOAD SWAP2 MSTORE PUSH1 0x1F DUP4 ADD PUSH1 0x5 SHR DUP2 ADD SWAP2 PUSH1 0x20 DUP5 LT PUSH2 0x4A0 JUMPI JUMPDEST PUSH1 0x1F ADD PUSH1 0x5 SHR ADD SWAP1 JUMPDEST DUP2 DUP2 LT PUSH2 0x494 JUMPI POP PUSH2 0x3A9 JUMP JUMPDEST PUSH1 0x0 DUP2 SSTORE PUSH1 0x1 ADD PUSH2 0x487 JUMP JUMPDEST SWAP1 SWAP2 POP DUP2 SWAP1 PUSH2 0x47E JUMP JUMPDEST PUSH4 0x4E487B71 PUSH1 0xE0 SHL PUSH1 0x0 MSTORE PUSH1 0x41 PUSH1 0x4 MSTORE PUSH1 0x24 PUSH1 0x0 REVERT JUMPDEST ADD CALLDATALOAD SWAP1 POP DUP5 DUP1 PUSH2 0x371 JUMP JUMPDEST PUSH1 0x7 PUSH1 0x0 SWAP1 DUP2 MSTORE PUSH1 0x1F NOT DUP4 AND SWAP6 PUSH1 0x0 DUP1 MLOAD PUSH1 0x20 PUSH2 0x14C0 DUP4 CODECOPY DUP2 MLOAD SWAP2 MSTORE SWAP3 SWAP1 SWAP2 PUSH1 0x20 JUMPDEST DUP9 DUP3 LT PUSH2 0x52A JUMPI POP POP DUP4 PUSH1 0x1 SWAP6 SWAP7 SWAP8 LT PUSH2 0x510 JUMPI JUMPDEST POP POP POP DUP2 SHL ADD PUSH1 0x7 SSTORE PUSH2 0x387 JUMP JUMPDEST ADD CALLDATALOAD PUSH1 0x0 NOT PUSH1 0x3 DUP5 SWAP1 SHL PUSH1 0xF8 AND SHR NOT AND SWAP1 SSTORE DUP5 DUP1 DUP1 PUSH2 0x502 JUMP JUMPDEST DUP1 PUSH1 0x1 DUP5 SWAP7 DUP3 SWAP5 SWAP6 DUP8 ADD CALLDATALOAD DUP2 SSTORE ADD SWAP6 ADD SWAP3 ADD SWAP1 PUSH2 0x4ED JUMP JUMPDEST PUSH1 0x7 PUSH1 0x0 MSTORE PUSH1 0x0 DUP1 MLOAD PUSH1 0x20 PUSH2 0x14C0 DUP4 CODECOPY DUP2 MLOAD SWAP2 MSTORE PUSH1 0x1F DUP4 ADD PUSH1 0x5 SHR DUP2 ADD SWAP2 PUSH1 0x20 DUP5 LT PUSH2 0x58B JUMPI JUMPDEST PUSH1 0x1F ADD PUSH1 0x5 SHR ADD SWAP1 JUMPDEST DUP2 DUP2 LT PUSH2 0x57F JUMPI POP PUSH2 0x357 JUMP JUMPDEST PUSH1 0x0 DUP2 SSTORE PUSH1 0x1 ADD PUSH2 0x572 JUMP JUMPDEST SWAP1 SWAP2 POP DUP2 SWAP1 PUSH2 0x569 JUMP JUMPDEST ADD CALLDATALOAD SWAP1 POP DUP7 DUP1 PUSH2 0x31F JUMP JUMPDEST PUSH1 0x6 PUSH1 0x0 SWAP1 DUP2 MSTORE SWAP4 POP PUSH1 0x0 DUP1 MLOAD PUSH1 0x20 PUSH2 0x1520 DUP4 CODECOPY DUP2 MLOAD SWAP2 MSTORE SWAP2 JUMPDEST PUSH1 0x1F NOT DUP5 AND DUP6 LT PUSH2 0x5FD JUMPI PUSH1 0x1 SWAP5 POP DUP4 PUSH1 0x1F NOT DUP2 AND LT PUSH2 0x5E3 JUMPI JUMPDEST POP POP POP DUP2 SHL ADD PUSH1 0x6 SSTORE PUSH2 0x335 JUMP JUMPDEST ADD CALLDATALOAD PUSH1 0x0 NOT PUSH1 0x3 DUP5 SWAP1 SHL PUSH1 0xF8 AND SHR NOT AND SWAP1 SSTORE DUP7 DUP1 DUP1 PUSH2 0x5D5 JUMP JUMPDEST DUP2 DUP2 ADD CALLDATALOAD DUP4 SSTORE PUSH1 0x20 SWAP5 DUP6 ADD SWAP5 PUSH1 0x1 SWAP1 SWAP4 ADD SWAP3 ADD PUSH2 0x5BA JUMP JUMPDEST PUSH1 0x6 PUSH1 0x0 MSTORE SWAP1 SWAP2 POP PUSH1 0x0 DUP1 MLOAD PUSH1 0x20 PUSH2 0x1520 DUP4 CODECOPY DUP2 MLOAD SWAP2 MSTORE PUSH1 0x1F DUP5 ADD PUSH1 0x5 SHR DUP2 ADD SWAP2 PUSH1 0x20 DUP6 LT PUSH2 0x669 JUMPI JUMPDEST SWAP1 PUSH1 0x1F DUP6 SWAP5 SWAP4 SWAP3 ADD PUSH1 0x5 SHR ADD SWAP1 JUMPDEST DUP2 DUP2 LT PUSH2 0x65A JUMPI POP PUSH2 0x308 JUMP JUMPDEST PUSH1 0x0 DUP2 SSTORE DUP5 SWAP4 POP PUSH1 0x1 ADD PUSH2 0x64D JUMP JUMPDEST SWAP1 SWAP2 POP DUP2 SWAP1 PUSH2 0x63F JUMP JUMPDEST ADD CALLDATALOAD SWAP1 POP DUP9 DUP1 PUSH2 0x2CE JUMP JUMPDEST PUSH1 0x5 PUSH1 0x0 SWAP1 DUP2 MSTORE SWAP4 POP PUSH1 0x0 DUP1 MLOAD PUSH1 0x20 PUSH2 0x1480 DUP4 CODECOPY DUP2 MLOAD SWAP2 MSTORE SWAP2 JUMPDEST PUSH1 0x1F NOT DUP5 AND DUP6 LT PUSH2 0x6DB JUMPI PUSH1 0x1 SWAP5 POP DUP4 PUSH1 0x1F NOT DUP2 AND LT PUSH2 0x6C1 JUMPI JUMPDEST POP POP POP DUP2 SHL ADD PUSH1 0x5 SSTORE PUSH2 0x2E4 JUMP JUMPDEST ADD CALLDATALOAD PUSH1 0x0 NOT PUSH1 0x3 DUP5 SWAP1 SHL PUSH1 0xF8 AND SHR NOT AND SWAP1 SSTORE DUP9 DUP1 DUP1 PUSH2 0x6B3 JUMP JUMPDEST DUP2 DUP2 ADD CALLDATALOAD DUP4 SSTORE PUSH1 0x20 SWAP5 DUP6 ADD SWAP5 PUSH1 0x1 SWAP1 SWAP4 ADD SWAP3 ADD PUSH2 0x698 JUMP JUMPDEST SWAP1 SWAP2 POP PUSH1 0x5 PUSH1 0x0 MSTORE PUSH1 0x20 PUSH1 0x0 KECCAK256 PUSH1 0x1F DUP5 ADD PUSH1 0x5 SHR DUP2 ADD PUSH1 0x20 DUP6 LT PUSH2 0x73D JUMPI JUMPDEST SWAP1 DUP5 SWAP4 SWAP3 SWAP2 JUMPDEST PUSH1 0x1F DUP4 ADD PUSH1 0x5 SHR DUP3 ADD DUP2 LT PUSH2 0x72E JUMPI POP POP PUSH2 0x2B7 JUMP JUMPDEST PUSH1 0x0 DUP2 SSTORE DUP6 SWAP5 POP PUSH1 0x1 ADD PUSH2 0x718 JUMP JUMPDEST POP DUP1 PUSH2 0x712 JUMP JUMPDEST ADD CALLDATALOAD SWAP1 POP DUP11 DUP1 PUSH2 0x27D JUMP JUMPDEST PUSH1 0x4 PUSH1 0x0 SWAP1 DUP2 MSTORE SWAP4 POP PUSH1 0x0 DUP1 MLOAD PUSH1 0x20 PUSH2 0x1540 DUP4 CODECOPY DUP2 MLOAD SWAP2 MSTORE SWAP2 JUMPDEST PUSH1 0x1F NOT DUP5 AND DUP6 LT PUSH2 0x7AC JUMPI PUSH1 0x1 SWAP5 POP DUP4 PUSH1 0x1F NOT DUP2 AND LT PUSH2 0x792 JUMPI JUMPDEST POP POP POP DUP2 SHL ADD PUSH1 0x4 SSTORE PUSH2 0x293 JUMP JUMPDEST ADD CALLDATALOAD PUSH1 0x0 NOT PUSH1 0x3 DUP5 SWAP1 SHL PUSH1 0xF8 AND SHR NOT AND SWAP1 SSTORE DUP11 DUP1 DUP1 PUSH2 0x784 JUMP JUMPDEST DUP2 DUP2 ADD CALLDATALOAD DUP4 SSTORE PUSH1 0x20 SWAP5 DUP6 ADD SWAP5 PUSH1 0x1 SWAP1 SWAP4 ADD SWAP3 ADD PUSH2 0x769 JUMP JUMPDEST PUSH1 0x4 PUSH1 0x0 MSTORE SWAP1 SWAP2 POP PUSH1 0x0 DUP1 MLOAD PUSH1 0x20 PUSH2 0x1540 DUP4 CODECOPY DUP2 MLOAD SWAP2 MSTORE PUSH1 0x1F DUP5 ADD PUSH1 0x5 SHR DUP2 ADD PUSH1 0x20 DUP6 LT PUSH2 0x818 JUMPI JUMPDEST SWAP1 DUP5 SWAP4 SWAP3 SWAP2 JUMPDEST PUSH1 0x1F DUP4 ADD PUSH1 0x5 SHR DUP3 ADD DUP2 LT PUSH2 0x809 JUMPI POP POP PUSH2 0x266 JUMP JUMPDEST PUSH1 0x0 DUP2 SSTORE DUP6 SWAP5 POP PUSH1 0x1 ADD PUSH2 0x7F3 JUMP JUMPDEST POP DUP1 PUSH2 0x7ED JUMP JUMPDEST POP PUSH1 0xFF PUSH1 0x9 SLOAD AND ISZERO PUSH2 0x230 JUMP JUMPDEST POP CALLVALUE PUSH2 0x15F JUMPI PUSH1 0x0 CALLDATASIZE PUSH1 0x3 NOT ADD SLT PUSH2 0x15F JUMPI PUSH1 0x3 SLOAD SWAP1 MLOAD PUSH1 0x1 PUSH1 0x1 PUSH1 0xA0 SHL SUB SWAP1 SWAP2 AND DUP2 MSTORE PUSH1 0x20 SWAP1 RETURN JUMPDEST POP CALLVALUE PUSH2 0x15F JUMPI PUSH1 0x0 CALLDATASIZE PUSH1 0x3 NOT ADD SLT PUSH2 0x15F JUMPI DUP1 MLOAD PUSH1 0x0 SWAP2 PUSH1 0x6 SLOAD PUSH2 0x878 DUP2 PUSH2 0x12CD JUMP JUMPDEST DUP1 DUP5 MSTORE PUSH1 0x1 SWAP2 DUP1 DUP4 AND SWAP1 DUP2 ISZERO PUSH2 0x8F8 JUMPI POP PUSH1 0x1 EQ PUSH2 0x8B0 JUMPI JUMPDEST POP POP PUSH2 0x8A2 DUP3 PUSH2 0x8AC SWAP5 SUB DUP4 PUSH2 0x1307 JUMP JUMPDEST MLOAD SWAP2 DUP3 SWAP2 DUP3 PUSH2 0x132A JUMP JUMPDEST SUB SWAP1 RETURN JUMPDEST PUSH1 0x6 PUSH1 0x0 SWAP1 DUP2 MSTORE PUSH1 0x20 SWAP6 POP SWAP2 PUSH1 0x0 DUP1 MLOAD PUSH1 0x20 PUSH2 0x1520 DUP4 CODECOPY DUP2 MLOAD SWAP2 MSTORE JUMPDEST DUP3 DUP5 LT PUSH2 0x8E5 JUMPI POP POP POP DUP3 ADD SWAP1 SWAP3 ADD SWAP2 PUSH2 0x8A2 DUP3 PUSH2 0x891 JUMP JUMPDEST DUP1 SLOAD DUP7 DUP6 ADD DUP9 ADD MSTORE SWAP3 DUP7 ADD SWAP3 DUP2 ADD PUSH2 0x8CC JUMP JUMPDEST PUSH2 0x8AC SWAP7 POP PUSH2 0x8A2 SWAP4 POP PUSH1 0x20 SWAP2 POP SWAP2 DUP6 SWAP3 PUSH1 0xFF NOT AND DUP3 DUP5 ADD MSTORE ISZERO ISZERO PUSH1 0x5 SHL DUP3 ADD ADD SWAP5 POP PUSH2 0x891 JUMP JUMPDEST POP CALLVALUE PUSH2 0x15F JUMPI PUSH1 0x0 CALLDATASIZE PUSH1 0x3 NOT ADD SLT PUSH2 0x15F JUMPI DUP1 MLOAD PUSH1 0x0 SWAP2 PUSH1 0x7 SLOAD PUSH2 0x943 DUP2 PUSH2 0x12CD JUMP JUMPDEST DUP1 DUP5 MSTORE PUSH1 0x1 SWAP2 DUP1 DUP4 AND SWAP1 DUP2 ISZERO PUSH2 0x8F8 JUMPI POP PUSH1 0x1 EQ PUSH2 0x96C JUMPI POP POP PUSH2 0x8A2 DUP3 PUSH2 0x8AC SWAP5 SUB DUP4 PUSH2 0x1307 JUMP JUMPDEST PUSH1 0x7 PUSH1 0x0 SWAP1 DUP2 MSTORE PUSH1 0x20 SWAP6 POP SWAP2 PUSH1 0x0 DUP1 MLOAD PUSH1 0x20 PUSH2 0x14C0 DUP4 CODECOPY DUP2 MLOAD SWAP2 MSTORE JUMPDEST DUP3 DUP5 LT PUSH2 0x9A1 JUMPI POP POP POP DUP3 ADD SWAP1 SWAP3 ADD SWAP2 PUSH2 0x8A2 DUP3 PUSH2 0x891 JUMP JUMPDEST DUP1 SLOAD DUP7 DUP6 ADD DUP9 ADD MSTORE SWAP3 DUP7 ADD SWAP3 DUP2 ADD PUSH2 0x988 JUMP JUMPDEST POP CALLVALUE PUSH2 0x15F JUMPI DUP1 PUSH1 0x3 NOT CALLDATASIZE ADD SLT PUSH2 0x15F JUMPI PUSH1 0x20 SWAP1 PUSH2 0x9DD PUSH2 0x9D3 PUSH2 0x1373 JUMP JUMPDEST PUSH1 0x24 CALLDATALOAD SWAP1 CALLER PUSH2 0x13EF JUMP JUMPDEST MLOAD PUSH1 0x1 DUP2 MSTORE RETURN JUMPDEST POP CALLVALUE PUSH2 0x15F JUMPI PUSH1 0x0 CALLDATASIZE PUSH1 0x3 NOT ADD SLT PUSH2 0x15F JUMPI PUSH1 0x2 SLOAD PUSH1 0x1 PUSH1 0x1 PUSH1 0xA0 SHL SUB AND SWAP1 DUP2 ISZERO ISZERO SWAP1 DUP2 PUSH2 0xA19 JUMPI JUMPDEST PUSH1 0x20 SWAP3 POP MLOAD SWAP1 ISZERO ISZERO DUP2 MSTORE RETURN JUMPDEST SWAP1 POP PUSH1 0x20 PUSH1 0x4 SWAP3 DUP3 MLOAD SWAP4 DUP5 DUP1 SWAP3 PUSH4 0x18160DDD PUSH1 0xE0 SHL DUP3 MSTORE GAS STATICCALL DUP1 ISZERO PUSH2 0xA7D JUMPI PUSH1 0x0 SWAP1 PUSH2 0xA4B JUMPI JUMPDEST PUSH1 0x20 SWAP3 POP ISZERO SWAP1 PUSH2 0xA0D JUMP JUMPDEST POP PUSH1 0x20 DUP3 RETURNDATASIZE DUP3 GT PUSH2 0xA75 JUMPI JUMPDEST DUP2 PUSH2 0xA64 PUSH1 0x20 SWAP4 DUP4 PUSH2 0x1307 JUMP JUMPDEST DUP2 ADD SUB SLT PUSH2 0x15F JUMPI PUSH1 0x20 SWAP2 MLOAD PUSH2 0xA40 JUMP JUMPDEST RETURNDATASIZE SWAP2 POP PUSH2 0xA57 JUMP JUMPDEST POP MLOAD RETURNDATASIZE PUSH1 0x0 DUP3 RETURNDATACOPY RETURNDATASIZE SWAP1 REVERT JUMPDEST POP CALLVALUE PUSH2 0x15F JUMPI PUSH1 0x0 CALLDATASIZE PUSH1 0x3 NOT ADD SLT PUSH2 0x15F JUMPI DUP1 MLOAD PUSH1 0x0 SWAP2 PUSH1 0x1 DUP1 SLOAD PUSH2 0xAAC DUP2 PUSH2 0x12CD JUMP JUMPDEST DUP1 DUP6 MSTORE SWAP1 DUP3 DUP2 AND SWAP1 DUP2 ISZERO PUSH2 0x8F8 JUMPI POP PUSH1 0x1 EQ PUSH2 0xAD3 JUMPI POP POP PUSH2 0x8A2 DUP3 PUSH2 0x8AC SWAP5 SUB DUP4 PUSH2 0x1307 JUMP JUMPDEST SWAP4 POP DUP1 PUSH1 0x0 MSTORE PUSH1 0x20 SWAP4 DUP5 PUSH1 0x0 KECCAK256 SWAP2 PUSH1 0x0 SWAP3 JUMPDEST DUP3 DUP5 LT PUSH2 0xAFE JUMPI POP POP POP DUP3 ADD SWAP1 SWAP3 ADD SWAP2 PUSH2 0x8A2 DUP3 PUSH2 0x891 JUMP JUMPDEST DUP1 SLOAD DUP7 DUP6 ADD DUP9 ADD MSTORE SWAP3 DUP7 ADD SWAP3 DUP2 ADD PUSH2 0xAE5 JUMP JUMPDEST POP CALLVALUE PUSH2 0x15F JUMPI PUSH1 0x0 CALLDATASIZE PUSH1 0x3 NOT ADD SLT PUSH2 0x15F JUMPI MLOAD PUSH8 0x6765C793FA10079D PUSH1 0x1B SHL DUP2 MSTORE PUSH1 0x20 SWAP1 RETURN JUMPDEST POP CALLVALUE PUSH2 0x15F JUMPI PUSH1 0x80 CALLDATASIZE PUSH1 0x3 NOT ADD SLT PUSH2 0x15F JUMPI PUSH1 0x1 PUSH1 0x1 PUSH1 0x40 SHL SUB SWAP1 PUSH1 0x4 CALLDATALOAD DUP3 DUP2 GT PUSH2 0x15F JUMPI PUSH2 0xB6A SWAP1 CALLDATASIZE SWAP1 PUSH1 0x4 ADD PUSH2 0x139F JUMP JUMPDEST SWAP1 PUSH1 0x24 CALLDATALOAD DUP5 DUP2 GT PUSH2 0x15F JUMPI PUSH2 0xB83 SWAP1 CALLDATASIZE SWAP1 PUSH1 0x4 ADD PUSH2 0x139F JUMP JUMPDEST PUSH1 0x1 PUSH1 0x1 PUSH1 0xA0 SHL SUB SWAP6 PUSH1 0x44 CALLDATALOAD DUP8 DUP2 AND SWAP4 SWAP3 SWAP2 SWAP1 DUP5 SWAP1 SUB PUSH2 0x15F JUMPI PUSH1 0x64 CALLDATALOAD SWAP8 DUP9 AND DUP1 SWAP9 SUB PUSH2 0x15F JUMPI PUSH1 0x3 SWAP6 DUP7 SLOAD PUSH1 0xFF DUP2 PUSH1 0xA0 SHR AND PUSH2 0xE64 JUMPI PUSH1 0xFF PUSH1 0xA0 SHL NOT AND PUSH1 0x1 PUSH1 0xA0 SHL OR DUP8 SSTORE DUP2 DUP2 GT PUSH2 0x4AA JUMPI DUP1 PUSH2 0xBDC PUSH1 0x0 SLOAD PUSH2 0x12CD JUMP JUMPDEST SWAP7 PUSH1 0x1F SWAP8 DUP9 DUP2 GT PUSH2 0xE13 JUMPI JUMPDEST POP PUSH1 0x0 SWAP1 DUP9 DUP4 GT PUSH1 0x1 EQ PUSH2 0xD9C JUMPI PUSH1 0x0 SWAP3 PUSH2 0xD91 JUMPI JUMPDEST POP POP DUP2 PUSH1 0x1 SHL SWAP2 PUSH1 0x0 NOT SWAP1 DUP10 SHL SHR NOT AND OR PUSH1 0x0 SSTORE JUMPDEST DUP2 GT PUSH2 0x4AA JUMPI DUP7 SWAP4 PUSH1 0x1 SWAP3 PUSH2 0xC28 DUP5 SLOAD PUSH2 0x12CD JUMP JUMPDEST DUP3 DUP2 GT PUSH2 0xD38 JUMPI JUMPDEST POP PUSH1 0x0 SWAP2 DUP4 GT PUSH1 0x1 EQ PUSH2 0xCB9 JUMPI SWAP3 DUP3 PUSH1 0x20 SWAP7 SWAP4 PUSH1 0x0 SWAP10 SWAP7 SWAP4 PUSH1 0x0 DUP1 MLOAD PUSH1 0x20 PUSH2 0x1500 DUP4 CODECOPY DUP2 MLOAD SWAP2 MSTORE SWAP10 SWAP7 DUP12 SWAP3 PUSH2 0xCAE JUMPI JUMPDEST POP POP DUP10 NOT DUP3 DUP8 SHL SHR NOT AND SWAP1 DUP3 SHL OR SWAP1 SSTORE JUMPDEST PUSH1 0x2 DUP1 SLOAD PUSH1 0x1 PUSH1 0x1 PUSH1 0xA0 SHL SUB NOT SWAP1 DUP2 AND SWAP1 SWAP3 OR SWAP1 SSTORE DUP3 SLOAD AND OR SWAP1 SSTORE DUP5 DUP5 MSTORE PUSH1 0xA DUP3 MSTORE DUP1 DUP5 KECCAK256 PUSH8 0x6765C793FA10079D PUSH1 0x1B SHL SWAP1 DUP2 SWAP1 SSTORE SWAP1 MLOAD SWAP1 DUP2 MSTORE LOG3 STOP JUMPDEST ADD CALLDATALOAD SWAP1 POP CODESIZE DUP1 PUSH2 0xC60 JUMP JUMPDEST PUSH1 0x0 DUP5 DUP2 MSTORE PUSH1 0x20 DUP1 DUP3 KECCAK256 SWAP4 SWAP2 PUSH1 0x1F NOT DUP7 AND SWAP2 JUMPDEST DUP3 DUP3 LT PUSH2 0xD1E JUMPI POP POP SWAP4 PUSH1 0x0 SWAP10 SWAP7 SWAP4 DUP7 SWAP4 PUSH1 0x0 DUP1 MLOAD PUSH1 0x20 PUSH2 0x1500 DUP4 CODECOPY DUP2 MLOAD SWAP2 MSTORE SWAP11 SWAP8 SWAP4 DUP4 PUSH1 0x20 SWAP12 SWAP9 LT PUSH2 0xD07 JUMPI JUMPDEST POP POP POP DUP2 SHL ADD SWAP1 SSTORE PUSH2 0xC71 JUMP JUMPDEST ADD CALLDATALOAD DUP12 NOT DUP4 DUP10 SHL PUSH1 0xF8 AND SHR NOT AND SWAP1 SSTORE CODESIZE DUP1 DUP1 PUSH2 0xCFA JUMP JUMPDEST DUP5 DUP5 ADD CALLDATALOAD DUP7 SSTORE DUP13 SWAP10 POP SWAP5 DUP8 ADD SWAP5 SWAP3 DUP4 ADD SWAP3 SWAP1 DUP2 ADD SWAP1 PUSH2 0xCCC JUMP JUMPDEST SWAP1 SWAP2 SWAP3 SWAP4 DUP1 SWAP6 SWAP7 POP PUSH1 0x0 MSTORE PUSH1 0x20 PUSH1 0x0 KECCAK256 DUP4 DUP1 DUP7 ADD PUSH1 0x5 SHR DUP3 ADD SWAP3 PUSH1 0x20 DUP8 LT PUSH2 0xD88 JUMPI JUMPDEST SWAP5 DUP12 SWAP9 SWAP8 SWAP7 SWAP6 SWAP5 SWAP4 SWAP3 SWAP2 SWAP5 ADD PUSH1 0x5 SHR ADD SWAP1 JUMPDEST DUP2 DUP2 LT PUSH2 0xD7A JUMPI POP PUSH2 0xC30 JUMP JUMPDEST PUSH1 0x0 DUP2 SSTORE DUP11 SWAP8 POP DUP6 ADD PUSH2 0xD6D JUMP JUMPDEST SWAP3 POP DUP2 SWAP3 PUSH2 0xD5B JUMP JUMPDEST ADD CALLDATALOAD SWAP1 POP CODESIZE DUP1 PUSH2 0xBFE JUMP JUMPDEST PUSH1 0x0 DUP1 DUP1 MSTORE PUSH1 0x0 DUP1 MLOAD PUSH1 0x20 PUSH2 0x14A0 DUP4 CODECOPY DUP2 MLOAD SWAP2 MSTORE SWAP4 POP SWAP1 SWAP2 SWAP1 PUSH1 0x1F NOT DUP6 AND SWAP1 PUSH1 0x20 JUMPDEST DUP3 DUP3 LT PUSH2 0xDFB JUMPI POP POP SWAP1 DUP5 PUSH1 0x1 SWAP6 SWAP5 SWAP4 SWAP3 LT PUSH2 0xDE3 JUMPI JUMPDEST POP POP POP DUP2 SHL ADD PUSH1 0x0 SSTORE PUSH2 0xC13 JUMP JUMPDEST ADD CALLDATALOAD PUSH1 0x0 NOT DUP4 DUP12 SHL PUSH1 0xF8 AND SHR NOT AND SWAP1 SSTORE CODESIZE DUP1 DUP1 PUSH2 0xDD5 JUMP JUMPDEST DUP1 PUSH1 0x1 DUP6 SWAP8 DUP3 SWAP5 SWAP7 DUP9 ADD CALLDATALOAD DUP2 SSTORE ADD SWAP7 ADD SWAP4 ADD SWAP1 PUSH2 0xDBE JUMP JUMPDEST SWAP1 SWAP2 POP PUSH1 0x0 DUP1 MSTORE PUSH1 0x20 PUSH1 0x0 KECCAK256 DUP9 DUP1 DUP6 ADD PUSH1 0x5 SHR DUP3 ADD SWAP3 PUSH1 0x20 DUP7 LT PUSH2 0xE5B JUMPI JUMPDEST SWAP1 DUP6 SWAP5 SWAP4 SWAP3 SWAP2 ADD PUSH1 0x5 SHR ADD SWAP1 JUMPDEST DUP2 DUP2 LT PUSH2 0xE4C JUMPI POP PUSH2 0xBE8 JUMP JUMPDEST PUSH1 0x0 DUP2 SSTORE DUP5 SWAP4 POP PUSH1 0x1 ADD PUSH2 0xE3F JUMP JUMPDEST SWAP3 POP DUP2 SWAP3 PUSH2 0xE32 JUMP JUMPDEST DUP9 MLOAD PUSH3 0x461BCD PUSH1 0xE5 SHL DUP2 MSTORE PUSH1 0x20 PUSH1 0x4 DUP3 ADD MSTORE PUSH1 0x13 PUSH1 0x24 DUP3 ADD MSTORE PUSH19 0x105B1C9958591E481A5B9A5D1A585B1A5E9959 PUSH1 0x6A SHL PUSH1 0x44 DUP3 ADD MSTORE PUSH1 0x64 SWAP1 REVERT JUMPDEST POP CALLVALUE PUSH2 0x15F JUMPI PUSH1 0x0 CALLDATASIZE PUSH1 0x3 NOT ADD SLT PUSH2 0x15F JUMPI PUSH1 0x20 SWAP1 PUSH1 0xFF PUSH1 0x9 SLOAD AND SWAP1 MLOAD SWAP1 ISZERO ISZERO DUP2 MSTORE RETURN JUMPDEST POP CALLVALUE PUSH2 0x15F JUMPI PUSH1 0x0 CALLDATASIZE PUSH1 0x3 NOT ADD SLT PUSH2 0x15F JUMPI DUP1 MLOAD PUSH1 0x0 SWAP2 PUSH1 0x5 SLOAD PUSH2 0xEE5 DUP2 PUSH2 0x12CD JUMP JUMPDEST DUP1 DUP5 MSTORE PUSH1 0x1 SWAP2 DUP1 DUP4 AND SWAP1 DUP2 ISZERO PUSH2 0x8F8 JUMPI POP PUSH1 0x1 EQ PUSH2 0xF0E JUMPI POP POP PUSH2 0x8A2 DUP3 PUSH2 0x8AC SWAP5 SUB DUP4 PUSH2 0x1307 JUMP JUMPDEST PUSH1 0x5 PUSH1 0x0 SWAP1 DUP2 MSTORE PUSH1 0x20 SWAP6 POP SWAP2 PUSH1 0x0 DUP1 MLOAD PUSH1 0x20 PUSH2 0x1480 DUP4 CODECOPY DUP2 MLOAD SWAP2 MSTORE JUMPDEST DUP3 DUP5 LT PUSH2 0xF43 JUMPI POP POP POP DUP3 ADD SWAP1 SWAP3 ADD SWAP2 PUSH2 0x8A2 DUP3 PUSH2 0x891 JUMP JUMPDEST DUP1 SLOAD DUP7 DUP6 ADD DUP9 ADD MSTORE SWAP3 DUP7 ADD SWAP3 DUP2 ADD PUSH2 0xF2A JUMP JUMPDEST POP CALLVALUE PUSH2 0x15F JUMPI PUSH1 0x0 CALLDATASIZE PUSH1 0x3 NOT ADD SLT PUSH2 0x15F JUMPI PUSH1 0x2 SLOAD SWAP1 MLOAD PUSH1 0x1 PUSH1 0x1 PUSH1 0xA0 SHL SUB SWAP1 SWAP2 AND DUP2 MSTORE PUSH1 0x20 SWAP1 RETURN JUMPDEST POP CALLVALUE PUSH2 0x15F JUMPI PUSH1 0x20 CALLDATASIZE PUSH1 0x3 NOT ADD SLT PUSH2 0x15F JUMPI PUSH1 0x20 SWAP1 PUSH1 0x1 PUSH1 0x1 PUSH1 0xA0 SHL SUB PUSH2 0xFA4 PUSH2 0x1373 JUMP JUMPDEST AND PUSH1 0x0 MSTORE PUSH1 0xA DUP3 MSTORE DUP1 PUSH1 0x0 KECCAK256 SLOAD SWAP1 MLOAD SWAP1 DUP2 MSTORE RETURN JUMPDEST POP CALLVALUE PUSH2 0x15F JUMPI PUSH1 0x0 CALLDATASIZE PUSH1 0x3 NOT ADD SLT PUSH2 0x15F JUMPI DUP1 MLOAD PUSH1 0x0 SWAP2 PUSH1 0x8 SLOAD PUSH2 0xFDB DUP2 PUSH2 0x12CD JUMP JUMPDEST DUP1 DUP5 MSTORE PUSH1 0x1 SWAP2 DUP1 DUP4 AND SWAP1 DUP2 ISZERO PUSH2 0x8F8 JUMPI POP PUSH1 0x1 EQ PUSH2 0x1004 JUMPI POP POP PUSH2 0x8A2 DUP3 PUSH2 0x8AC SWAP5 SUB DUP4 PUSH2 0x1307 JUMP JUMPDEST PUSH1 0x8 PUSH1 0x0 SWAP1 DUP2 MSTORE PUSH1 0x20 SWAP6 POP SWAP2 PUSH1 0x0 DUP1 MLOAD PUSH1 0x20 PUSH2 0x14E0 DUP4 CODECOPY DUP2 MLOAD SWAP2 MSTORE JUMPDEST DUP3 DUP5 LT PUSH2 0x1039 JUMPI POP POP POP DUP3 ADD SWAP1 SWAP3 ADD SWAP2 PUSH2 0x8A2 DUP3 PUSH2 0x891 JUMP JUMPDEST DUP1 SLOAD DUP7 DUP6 ADD DUP9 ADD MSTORE SWAP3 DUP7 ADD SWAP3 DUP2 ADD PUSH2 0x1020 JUMP JUMPDEST POP CALLVALUE PUSH2 0x15F JUMPI PUSH1 0x20 CALLDATASIZE PUSH1 0x3 NOT ADD SLT PUSH2 0x15F JUMPI PUSH1 0x0 SWAP1 PUSH1 0x4 CALLDATALOAD SWAP1 CALLER DUP4 MSTORE PUSH1 0xA PUSH1 0x20 MSTORE DUP1 DUP4 KECCAK256 PUSH2 0x107B DUP4 DUP3 SLOAD PUSH2 0x13CC JUMP JUMPDEST SWAP1 SSTORE MLOAD SWAP1 DUP2 MSTORE PUSH1 0x0 DUP1 MLOAD PUSH1 0x20 PUSH2 0x1500 DUP4 CODECOPY DUP2 MLOAD SWAP2 MSTORE PUSH1 0x20 CALLER SWAP3 LOG3 STOP JUMPDEST POP CALLVALUE PUSH2 0x15F JUMPI PUSH1 0x0 CALLDATASIZE PUSH1 0x3 NOT ADD SLT PUSH2 0x15F JUMPI PUSH1 0x20 SWAP1 MLOAD PUSH1 0x12 DUP2 MSTORE RETURN JUMPDEST POP CALLVALUE PUSH2 0x15F JUMPI PUSH1 0x60 CALLDATASIZE PUSH1 0x3 NOT ADD SLT PUSH2 0x15F JUMPI PUSH1 0x20 SWAP1 PUSH2 0x9DD PUSH2 0x10D3 PUSH2 0x1373 JUMP JUMPDEST PUSH2 0x10DB PUSH2 0x1389 JUMP JUMPDEST PUSH1 0x1 PUSH1 0x1 PUSH1 0xA0 SHL SUB DUP3 AND PUSH1 0x0 DUP2 DUP2 MSTORE PUSH1 0xB DUP8 MSTORE DUP6 DUP2 KECCAK256 CALLER DUP3 MSTORE DUP8 MSTORE DUP6 SWAP1 KECCAK256 SLOAD PUSH1 0x44 CALLDATALOAD SWAP4 SWAP2 SWAP1 PUSH1 0x1 ADD PUSH2 0x110E JUMPI JUMPDEST POP PUSH2 0x13EF JUMP JUMPDEST PUSH1 0x0 MSTORE PUSH1 0xB DUP7 MSTORE DUP5 PUSH1 0x0 KECCAK256 CALLER PUSH1 0x0 MSTORE DUP7 MSTORE DUP5 PUSH1 0x0 KECCAK256 PUSH2 0x112E DUP5 DUP3 SLOAD PUSH2 0x13CC JUMP JUMPDEST SWAP1 SSTORE CODESIZE PUSH2 0x1108 JUMP JUMPDEST POP CALLVALUE PUSH2 0x15F JUMPI PUSH1 0x0 CALLDATASIZE PUSH1 0x3 NOT ADD SLT PUSH2 0x15F JUMPI DUP1 MLOAD PUSH1 0x0 SWAP2 PUSH1 0x4 SLOAD PUSH2 0x1159 DUP2 PUSH2 0x12CD JUMP JUMPDEST DUP1 DUP5 MSTORE PUSH1 0x1 SWAP2 DUP1 DUP4 AND SWAP1 DUP2 ISZERO PUSH2 0x8F8 JUMPI POP PUSH1 0x1 EQ PUSH2 0x1182 JUMPI POP POP PUSH2 0x8A2 DUP3 PUSH2 0x8AC SWAP5 SUB DUP4 PUSH2 0x1307 JUMP JUMPDEST PUSH1 0x4 PUSH1 0x0 SWAP1 DUP2 MSTORE PUSH1 0x20 SWAP6 POP SWAP2 PUSH1 0x0 DUP1 MLOAD PUSH1 0x20 PUSH2 0x1540 DUP4 CODECOPY DUP2 MLOAD SWAP2 MSTORE JUMPDEST DUP3 DUP5 LT PUSH2 0x11B7 JUMPI POP POP POP DUP3 ADD SWAP1 SWAP3 ADD SWAP2 PUSH2 0x8A2 DUP3 PUSH2 0x891 JUMP JUMPDEST DUP1 SLOAD DUP7 DUP6 ADD DUP9 ADD MSTORE SWAP3 DUP7 ADD SWAP3 DUP2 ADD PUSH2 0x119E JUMP JUMPDEST POP CALLVALUE PUSH2 0x15F JUMPI DUP1 PUSH1 0x3 NOT CALLDATASIZE ADD SLT PUSH2 0x15F JUMPI PUSH1 0x20 SWAP1 PUSH2 0x11E6 PUSH2 0x1373 JUMP JUMPDEST PUSH1 0x24 CALLDATALOAD CALLER PUSH1 0x0 MSTORE PUSH1 0xB DUP5 MSTORE DUP3 PUSH1 0x0 KECCAK256 SWAP2 PUSH1 0x1 DUP1 PUSH1 0xA0 SHL SUB AND SWAP2 DUP3 PUSH1 0x0 MSTORE DUP5 MSTORE DUP1 DUP4 PUSH1 0x0 KECCAK256 SSTORE DUP3 MLOAD SWAP1 DUP2 MSTORE PUSH32 0x8C5BE1E5EBEC7D5BD14F71427D1E84F3DD0314C0F7B2291E5B200AC8C7C3B925 DUP5 CALLER SWAP3 LOG3 MLOAD PUSH1 0x1 DUP2 MSTORE RETURN JUMPDEST SWAP1 POP CALLVALUE PUSH2 0x15F JUMPI PUSH1 0x0 CALLDATASIZE PUSH1 0x3 NOT ADD SLT PUSH2 0x15F JUMPI PUSH1 0x0 SWAP2 PUSH1 0x0 SLOAD PUSH2 0x125E DUP2 PUSH2 0x12CD JUMP JUMPDEST DUP1 DUP5 MSTORE PUSH1 0x1 SWAP2 DUP1 DUP4 AND SWAP1 DUP2 ISZERO PUSH2 0x8F8 JUMPI POP PUSH1 0x1 EQ PUSH2 0x1287 JUMPI POP POP PUSH2 0x8A2 DUP3 PUSH2 0x8AC SWAP5 SUB DUP4 PUSH2 0x1307 JUMP JUMPDEST PUSH1 0x0 DUP1 DUP1 MSTORE PUSH1 0x20 SWAP6 POP SWAP2 PUSH1 0x0 DUP1 MLOAD PUSH1 0x20 PUSH2 0x14A0 DUP4 CODECOPY DUP2 MLOAD SWAP2 MSTORE JUMPDEST DUP3 DUP5 LT PUSH2 0x12BA JUMPI POP POP POP DUP3 ADD SWAP1 SWAP3 ADD SWAP2 PUSH2 0x8A2 DUP3 PUSH2 0x891 JUMP JUMPDEST DUP1 SLOAD DUP7 DUP6 ADD DUP9 ADD MSTORE SWAP3 DUP7 ADD SWAP3 DUP2 ADD PUSH2 0x12A1 JUMP JUMPDEST SWAP1 PUSH1 0x1 DUP3 DUP2 SHR SWAP3 AND DUP1 ISZERO PUSH2 0x12FD JUMPI JUMPDEST PUSH1 0x20 DUP4 LT EQ PUSH2 0x12E7 JUMPI JUMP JUMPDEST PUSH4 0x4E487B71 PUSH1 0xE0 SHL PUSH1 0x0 MSTORE PUSH1 0x22 PUSH1 0x4 MSTORE PUSH1 0x24 PUSH1 0x0 REVERT JUMPDEST SWAP2 PUSH1 0x7F AND SWAP2 PUSH2 0x12DC JUMP JUMPDEST PUSH1 0x1F SWAP1 SWAP2 ADD PUSH1 0x1F NOT AND DUP2 ADD SWAP1 PUSH1 0x1 PUSH1 0x1 PUSH1 0x40 SHL SUB DUP3 GT SWAP1 DUP3 LT OR PUSH2 0x4AA JUMPI PUSH1 0x40 MSTORE JUMP JUMPDEST PUSH1 0x20 DUP1 DUP3 MSTORE DUP3 MLOAD DUP2 DUP4 ADD DUP2 SWAP1 MSTORE SWAP1 SWAP4 SWAP3 PUSH1 0x0 JUMPDEST DUP3 DUP2 LT PUSH2 0x135F JUMPI POP POP PUSH1 0x40 SWAP3 SWAP4 POP PUSH1 0x0 DUP4 DUP3 DUP5 ADD ADD MSTORE PUSH1 0x1F DUP1 NOT SWAP2 ADD AND ADD ADD SWAP1 JUMP JUMPDEST DUP2 DUP2 ADD DUP7 ADD MLOAD DUP5 DUP3 ADD PUSH1 0x40 ADD MSTORE DUP6 ADD PUSH2 0x133D JUMP JUMPDEST PUSH1 0x4 CALLDATALOAD SWAP1 PUSH1 0x1 PUSH1 0x1 PUSH1 0xA0 SHL SUB DUP3 AND DUP3 SUB PUSH2 0x15F JUMPI JUMP JUMPDEST PUSH1 0x24 CALLDATALOAD SWAP1 PUSH1 0x1 PUSH1 0x1 PUSH1 0xA0 SHL SUB DUP3 AND DUP3 SUB PUSH2 0x15F JUMPI JUMP JUMPDEST SWAP2 DUP2 PUSH1 0x1F DUP5 ADD SLT ISZERO PUSH2 0x15F JUMPI DUP3 CALLDATALOAD SWAP2 PUSH1 0x1 PUSH1 0x1 PUSH1 0x40 SHL SUB DUP4 GT PUSH2 0x15F JUMPI PUSH1 0x20 DUP4 DUP2 DUP7 ADD SWAP6 ADD ADD GT PUSH2 0x15F JUMPI JUMP JUMPDEST SWAP2 SWAP1 DUP3 SUB SWAP2 DUP3 GT PUSH2 0x13D9 JUMPI JUMP JUMPDEST PUSH4 0x4E487B71 PUSH1 0xE0 SHL PUSH1 0x0 MSTORE PUSH1 0x11 PUSH1 0x4 MSTORE PUSH1 0x24 PUSH1 0x0 REVERT JUMPDEST SWAP1 SWAP2 PUSH1 0x1 PUSH1 0x1 PUSH1 0xA0 SHL SUB SWAP2 DUP3 AND SWAP2 DUP3 ISZERO ISZERO DUP1 PUSH2 0x1474 JUMPI JUMPDEST ISZERO PUSH2 0x15F JUMPI PUSH1 0x0 SWAP4 DUP4 DUP6 MSTORE PUSH1 0xA PUSH1 0x20 MSTORE PUSH1 0x40 DUP6 KECCAK256 PUSH2 0x1425 DUP5 DUP3 SLOAD PUSH2 0x13CC JUMP JUMPDEST SWAP1 SSTORE AND SWAP3 DUP4 DUP2 MSTORE PUSH1 0xA PUSH1 0x20 MSTORE PUSH1 0x40 DUP2 KECCAK256 DUP1 SLOAD SWAP2 DUP4 DUP4 ADD DUP1 SWAP4 GT PUSH2 0x1460 JUMPI POP SSTORE PUSH1 0x40 MLOAD SWAP1 DUP2 MSTORE PUSH1 0x0 DUP1 MLOAD PUSH1 0x20 PUSH2 0x1500 DUP4 CODECOPY DUP2 MLOAD SWAP2 MSTORE SWAP1 PUSH1 0x20 SWAP1 LOG3 JUMP JUMPDEST PUSH4 0x4E487B71 PUSH1 0xE0 SHL DUP2 MSTORE PUSH1 0x11 PUSH1 0x4 MSTORE PUSH1 0x24 SWAP1 REVERT JUMPDEST POP DUP1 DUP5 AND ISZERO ISZERO PUSH2 0x1406 JUMP INVALID SUB PUSH12 0x6384B5ECA791C62761152D0C PUSH26 0xBB0604C104A5FB6F4EB0703F3154BB3DB0290DECD9548B62A8D6 SUB GASLIMIT 0xA9 DUP9 CODESIZE PUSH16 0xC84BA6BC95484008F6362F93160EF3E5 PUSH4 0xA66CC928 0xB5 0xED 0xB8 0x2A 0xF9 0xBD 0x49 SWAP3 0x29 SLOAD ISZERO GAS 0xB7 0xB0 SWAP5 0x26 SWAP5 0xBE LOG4 0xCE PREVRANDAO PUSH7 0x1D9A8736C688F3 0xF7 0xA9 INVALID CALLDATASIZE 0x4F 0xAA 0xB9 EXTCODESIZE 0x21 PUSH14 0xA50A3214154F22A0A2B415B23A84 0xC8 AND SWAP15 DUP12 PUSH4 0x6EE3DDF2 MSTORE 0xAD SHL 0xE2 0xC8 SWAP12 PUSH10 0xC2B068FC378DAA952BA7 CALL PUSH4 0xC4A11628 CREATE2 GAS 0x4D CREATE2 0x23 0xB3 0xEF 0xF6 MSTORE 0x22 0x23 SGT 0xE2 DUP5 MSIZE MSTORE DUP14 SWAP3 SIGNEXTEND PUSH6 0x115C16C04F3E 0xFC DUP3 0xAA 0xED 0xC9 PUSH28 0xE59F3F377C0D3F8A35ACFBC15FF81A39AE7D344FD709F28E8600B4AA DUP13 PUSH6 0xC6B64BFE7FE3 PUSH12 0xD19BA2646970667358221220 0xAB 0x26 SWAP3 0xAE 0x1F MOD PUSH31 0x9341026B0935997D1511195FC0FB1424629D2E2C7A20A8B8D964736F6C6343 STOP ADDMOD EQ STOP CALLER "},"methodIdentifiers":{"TOTAL_SUPPLY()":"902d55a5","allowance(address,address)":"dd62ed3e","approve(address,uint256)":"095ea7b3","balanceOf(address)":"70a08231","burn(uint256)":"42966c68","curve()":"7165485d","decimals()":"313ce567","description()":"7284e416","factory()":"c45a0155","imageUri()":"0bf82da4","initialize(string,string,address,address)":"8f15b414","isGraduated()":"9e5f2602","metaSet()":"8480fd7c","name()":"06fdde03","setMeta(string,string,string,string,string)":"cc0d24e7","symbol()":"95d89b41","telegram()":"47ecb665","totalSupply()":"18160ddd","transfer(address,uint256)":"a9059cbb","transferFrom(address,address,uint256)":"23b872dd","twitter()":"abfaeee0","website()":"beb0a416"}}}}}