{"contracts/BasedTrenchesFactory.sol":{"BasedTrenchesFactory":{"abi":[{"inputs":[{"internalType":"address","name":"_platform","type":"address"},{"internalType":"address","name":"_chest","type":"address"},{"internalType":"address","name":"_vault","type":"address"},{"internalType":"address","name":"_tokenImpl","type":"address"},{"internalType":"address","name":"_armoryImpl","type":"address"},{"internalType":"address","name":"_fortifyImpl","type":"address"},{"internalType":"address","name":"_curveImpl","type":"address"}],"stateMutability":"nonpayable","type":"constructor"},{"anonymous":false,"inputs":[{"indexed":true,"internalType":"address","name":"token","type":"address"},{"indexed":true,"internalType":"address","name":"creator","type":"address"},{"indexed":true,"internalType":"address","name":"curve","type":"address"},{"indexed":false,"internalType":"address","name":"armory","type":"address"},{"indexed":false,"internalType":"address","name":"fortify","type":"address"},{"indexed":false,"internalType":"string","name":"name","type":"string"},{"indexed":false,"internalType":"string","name":"symbol","type":"string"},{"indexed":false,"internalType":"uint256","name":"timestamp","type":"uint256"}],"name":"TokenLaunched","type":"event"},{"inputs":[],"name":"LAUNCH_FEE","outputs":[{"internalType":"uint256","name":"","type":"uint256"}],"stateMutability":"view","type":"function"},{"inputs":[{"internalType":"uint256","name":"","type":"uint256"}],"name":"allTokens","outputs":[{"internalType":"address","name":"","type":"address"}],"stateMutability":"view","type":"function"},{"inputs":[],"name":"armoryImpl","outputs":[{"internalType":"address","name":"","type":"address"}],"stateMutability":"view","type":"function"},{"inputs":[],"name":"curveImpl","outputs":[{"internalType":"address","name":"","type":"address"}],"stateMutability":"view","type":"function"},{"inputs":[],"name":"fortifyImpl","outputs":[{"internalType":"address","name":"","type":"address"}],"stateMutability":"view","type":"function"},{"inputs":[],"name":"getAllTokens","outputs":[{"internalType":"address[]","name":"","type":"address[]"}],"stateMutability":"view","type":"function"},{"inputs":[{"internalType":"address","name":"t","type":"address"}],"name":"getTokenData","outputs":[{"internalType":"address","name":"","type":"address"},{"internalType":"address","name":"","type":"address"},{"internalType":"address","name":"","type":"address"},{"internalType":"bool","name":"","type":"bool"}],"stateMutability":"view","type":"function"},{"inputs":[{"internalType":"address","name":"","type":"address"}],"name":"isValidToken","outputs":[{"internalType":"bool","name":"","type":"bool"}],"stateMutability":"view","type":"function"},{"inputs":[{"components":[{"internalType":"string","name":"name","type":"string"},{"internalType":"string","name":"symbol","type":"string"},{"internalType":"string","name":"imageUri","type":"string"},{"internalType":"string","name":"description","type":"string"},{"internalType":"string","name":"website","type":"string"},{"internalType":"string","name":"twitter","type":"string"},{"internalType":"string","name":"telegram","type":"string"}],"internalType":"struct BasedTrenchesFactory.Meta","name":"m","type":"tuple"}],"name":"launchToken","outputs":[{"internalType":"address","name":"token","type":"address"},{"internalType":"address","name":"curve","type":"address"},{"internalType":"address","name":"armory","type":"address"},{"internalType":"address","name":"fortify","type":"address"}],"stateMutability":"payable","type":"function"},{"inputs":[],"name":"locked","outputs":[{"internalType":"bool","name":"","type":"bool"}],"stateMutability":"view","type":"function"},{"inputs":[],"name":"platformWallet","outputs":[{"internalType":"address","name":"","type":"address"}],"stateMutability":"view","type":"function"},{"inputs":[],"name":"protocolVault","outputs":[{"internalType":"address","name":"","type":"address"}],"stateMutability":"view","type":"function"},{"inputs":[],"name":"tokenCount","outputs":[{"internalType":"uint256","name":"","type":"uint256"}],"stateMutability":"view","type":"function"},{"inputs":[],"name":"tokenImpl","outputs":[{"internalType":"address","name":"","type":"address"}],"stateMutability":"view","type":"function"},{"inputs":[{"internalType":"address","name":"","type":"address"}],"name":"tokenToArmory","outputs":[{"internalType":"address","name":"","type":"address"}],"stateMutability":"view","type":"function"},{"inputs":[{"internalType":"address","name":"","type":"address"}],"name":"tokenToCurve","outputs":[{"internalType":"address","name":"","type":"address"}],"stateMutability":"view","type":"function"},{"inputs":[{"internalType":"address","name":"","type":"address"}],"name":"tokenToFortify","outputs":[{"internalType":"address","name":"","type":"address"}],"stateMutability":"view","type":"function"},{"inputs":[],"name":"warChest","outputs":[{"internalType":"address","name":"","type":"address"}],"stateMutability":"view","type":"function"}],"evm":{"bytecode":{"linkReferences":{},"object":"610160346200017057601f6200148338819003918201601f19168301916001600160401b03831184841017620001755780849260e09460405283398101031262000170576200004e816200018b565b906200005d602082016200018b565b916200006c604083016200018b565b6200007a606084016200018b565b9062000089608085016200018b565b94620000a660c06200009e60a088016200018b565b96016200018b565b936001600160a01b03808216156200017057808316156200017057831615620001705760805260a05260c05260e052610100928352610120918252610140908152604051916112e29384620001a1853960805184818161063f01528181610d5f0152611061015260a05184818161049501528181610db00152610f43015260c0518481816103740152610d87015260e0518481816106840152610add0152518381816104da0152610b070152518281816104020152610b310152518181816102530152610b5b0152f35b600080fd5b634e487b7160e01b600052604160045260246000fd5b51906001600160a01b0382168203620001705756fe6080604052600436101561001257600080fd5b60003560e01c806309197a81146101375780630c74fbac1461013257806313ff7e9f1461012d57806322b7093014610128578063231107bf146101235780632a5c792a1461011e5780635a9249e614610119578063634282af146101145780637aa472941461010f5780639f181b5e1461010a578063b69fc99414610105578063bb22e37114610100578063bc58036c146100fb578063c1876453146100f6578063cf309012146100f1578063fa1c492e146100ec578063fa2af9da146100e75763ffc4992f146100e257600080fd5b61066e565b610629565b610560565b61053d565b610509565b6104c4565b61047f565b61044f565b610431565b6103ec565b6103a3565b61035e565b6102b2565b610282565b61023d565b6101d3565b6101a3565b61014c565b600091031261014757565b600080fd5b3461014757600036600319011261014757602060405166071afd498d00008152f35b6020906003190112610147576004356001600160a01b03811681036101475790565b6001600160a01b03909116815260200190565b346101475760206001600160a01b03806101bc3661016e565b166000526003825260406000205416604051908152f35b346101475760806001600160a01b03806101ec3661016e565b166000526003602052604090808260002054169160046020528181600020541691600560205281600020541690600260205260ff816000205416928151948552602085015283015215156060820152f35b34610147576000366003190112610147576040517f00000000000000000000000000000000000000000000000000000000000000006001600160a01b03168152602090f35b346101475760206001600160a01b038061029b3661016e565b166000526004825260406000205416604051908152f35b346101475760008060031936011261035b57604051809160065490818352602080930180926006835284832090835b81811061033e57505050846102f79103856107ca565b60405193838594850191818652518092526040850193925b82811061031e57505050500390f35b83516001600160a01b03168552869550938101939281019260010161030f565b82546001600160a01b0316845292860192600192830192016102e1565b80fd5b34610147576000366003190112610147576040517f00000000000000000000000000000000000000000000000000000000000000006001600160a01b03168152602090f35b346101475760203660031901126101475760043560065481101561014757600660005260008051602061128d83398151915201546040516001600160a01b039091168152602090f35b34610147576000366003190112610147576040517f00000000000000000000000000000000000000000000000000000000000000006001600160a01b03168152602090f35b34610147576000366003190112610147576020600054604051908152f35b346101475760206001600160a01b03806104683661016e565b166000526005825260406000205416604051908152f35b34610147576000366003190112610147576040517f00000000000000000000000000000000000000000000000000000000000000006001600160a01b03168152602090f35b34610147576000366003190112610147576040517f00000000000000000000000000000000000000000000000000000000000000006001600160a01b03168152602090f35b34610147576001600160a01b0361051f3661016e565b166000526002602052602060ff604060002054166040519015158152f35b3461014757600036600319011261014757602060ff600154166040519015158152f35b60031960203682011261014757600435906001600160401b0382116101475760e09082360301126101475760015460ff81166105f8576105f49160016105b09260ff191617600155600401610a97565b906105c394929460ff1960015416600155565b604080516001600160a01b039586168152958516602087015290841690850152909116606083015281906080820190565b0390f35b60405162461bcd60e51b81526020600482015260096024820152681499595b9d1c985b9d60ba1b6044820152606490fd5b34610147576000366003190112610147576040517f00000000000000000000000000000000000000000000000000000000000000006001600160a01b03168152602090f35b34610147576000366003190112610147576040517f00000000000000000000000000000000000000000000000000000000000000006001600160a01b03168152602090f35b156106ba57565b60405162461bcd60e51b815260206004820152600e60248201526d0a6cadcc840605c606064408aa8960931b6044820152606490fd5b903590601e198136030182121561014757018035906001600160401b0382116101475760200191813603831361014757565b1561072957565b60405162461bcd60e51b815260206004820152600d60248201526c13985b59481c995c5d5a5c9959609a1b6044820152606490fd5b1561076557565b60405162461bcd60e51b815260206004820152600f60248201526e14de5b589bdb081c995c5d5a5c9959608a1b6044820152606490fd5b634e487b7160e01b600052604160045260246000fd5b6001600160401b0381116107c557604052565b61079c565b601f909101601f19168101906001600160401b038211908210176107c557604052565b908060209392818452848401376000828201840152601f01601f1916010190565b9492909361082d60609561083b949998996080895260808901916107ed565b9186830360208801526107ed565b6001600160a01b0391821660408501529416910152565b6040513d6000823e3d90fd5b989694916108a1936108bd9b99956108856108af99946108939460a08f81815201916107ed565b8c810360208e0152916107ed565b9189830360408b01526107ed565b9186830360608801526107ed565b9260808185039101526107ed565b90565b90816020910312610147575190565b90816020910312610147575180151581036101475790565b156108ee57565b60405162461bcd60e51b815260206004820152601660248201527514dd5c1c1b1e481d1c985b9cd9995c8819985a5b195960521b6044820152606490fd5b80546001600160a01b0319166001600160a01b03909216919091179055565b600654600160401b8110156107c557600181018060065581101561099d57600660005260008051602061128d8339815191520180546001600160a01b0319166001600160a01b03909216919091179055565b634e487b7160e01b600052603260045260246000fd5b60001981146109c25760010190565b634e487b7160e01b600052601160045260246000fd5b3d15610a12573d906001600160401b0382116107c55760405191610a06601f8201601f1916602001846107ca565b82523d6000602084013e565b606090565b15610a1e57565b60405162461bcd60e51b815260206004820152600a6024820152691199594819985a5b195960b21b6044820152606490fd5b9796959192610a9294610a84926080979560018060a01b038092168c521660208b015260a060408b015260a08a01916107ed565b9187830360608901526107ed565b930152565b610aa966071afd498d000034146106b3565b610abf610ab682806106f0565b90501515610722565b610ad8610acf60208301836106f0565b9050151561075e565b610b017f0000000000000000000000000000000000000000000000000000000000000000611200565b91610b2b7f0000000000000000000000000000000000000000000000000000000000000000611200565b90610b557f0000000000000000000000000000000000000000000000000000000000000000611200565b90610b7f7f0000000000000000000000000000000000000000000000000000000000000000611200565b93610b8a81806106f0565b90610b9860208401846106f0565b926001600160a01b038a163b1561014757610bcd6000938a60405196879586956323c56d0560e21b875230946004880161080e565b0381836001600160a01b038c165af1801561111a576111ed575b50610bf560408201826106f0565b610c0260608401846106f0565b919092610c1260808601866106f0565b8b610c2360a08997949701896106f0565b90610c3160c08b018b6106f0565b9490936001600160a01b03163b1561014757600098610c65966040519b8c9a8b9a63cc0d24e760e01b8c5260048c0161085e565b0381836001600160a01b038c165af1801561111a576111da575b506001600160a01b038416803b156101475760405163c0c53b8b60e01b81526001600160a01b0388166004820152336024820152306044820152906000908290606490829084905af1801561111a576111c7575b506001600160a01b038316803b156101475760405163485cc95560e01b81526001600160a01b0388166004820152306024820152906000908290604490829084905af1801561111a576111b4575b506001600160a01b0385163b1561014757604051631ac3b23b60e11b81526001600160a01b03878116600483015233602483015285811660448301527f0000000000000000000000000000000000000000000000000000000000000000811660648301527f000000000000000000000000000000000000000000000000000000000000000080821660848401527f000000000000000000000000000000000000000000000000000000000000000090911660a48301523060c483015291906000818060e481010381836001600160a01b038c165af1801561111a576111a1575b506040516318160ddd60e01b81526020816004816001600160a01b038c165afa90811561111a57610e6891602091600091611174575b5060405163a9059cbb60e01b81526001600160a01b038a166004820152602481019190915291829081906044820190565b038160006001600160a01b038d165af1801561111a57610e9091600091611145575b506108e7565b6001600160a01b0382163b156101475760405163055acfa560e41b81526001600160a01b0380891660048301528087166024830152851660448201526000606482018190528180608481010381836001600160a01b0388165af1801561111a57611132575b506001600160a01b0382163b1561014757604051600081632c3bf5c560e21b94858252818381610f288d60048301610190565b03926001600160a01b03165af1801561111a5761111f575b507f00000000000000000000000000000000000000000000000000000000000000006001600160a01b031691823b15610147576000906040519384918252818381610f8e8c60048301610190565b03925af190811561111a576110d1928892611101575b506001600160a01b0382166000908152600260205260409020610fce90805460ff19166001179055565b6001600160a01b0382166000908152600360205260409020610ff190889061092c565b6001600160a01b038216600090815260046020526040902061101490879061092c565b6001600160a01b038216600090815260056020526040902061103790869061092c565b6110408261094b565b61104b6000546109b3565b60009081556110999080808066071afd498d00007f00000000000000000000000000000000000000000000000000000000000000006001600160a01b03165af16110936109d8565b50610a17565b7fe3e5b3be6a13e1f9f202d939fdd647ee243040530e0c0b71ec5936ffe681c8056110c482806106f0565b94909260208101906106f0565b6040516001600160a01b03808c1697339790911695919384936110fc934293919291908d8f88610a50565b0390a4565b8061110e611114926107b2565b8061013c565b38610fa4565b610852565b8061110e61112c926107b2565b38610f40565b8061110e61113f926107b2565b38610ef5565b611167915060203d60201161116d575b61115f81836107ca565b8101906108cf565b38610e8a565b503d611155565b6111949150823d841161119a575b61118c81836107ca565b8101906108c0565b38610e37565b503d611182565b8061110e6111ae926107b2565b38610e01565b8061110e6111c1926107b2565b38610d21565b8061110e6111d4926107b2565b38610cd3565b8061110e6111e7926107b2565b38610c7f565b8061110e6111fa926107b2565b38610be7565b604051733d602d80600a3d3981f3363d3d373d3d3d363d7360601b815260609190911b60148201526e5af43d82803e903d91602b57fd5bf360881b60288201526037906000f0906001600160a01b0382161561125857565b60405162461bcd60e51b815260206004820152600c60248201526b10db1bdb994819985a5b195960a21b6044820152606490fdfef652222313e28459528d920b65115c16c04f3efc82aaedc97be59f3f377c0d3fa2646970667358221220405a61b4949062ff802afd462d00dcc2c39ee1808bc30ef984f70ab7a75c68b564736f6c63430008140033","opcodes":"PUSH2 0x160 CALLVALUE PUSH3 0x170 JUMPI PUSH1 0x1F PUSH3 0x1483 CODESIZE DUP2 SWAP1 SUB SWAP2 DUP3 ADD PUSH1 0x1F NOT AND DUP4 ADD SWAP2 PUSH1 0x1 PUSH1 0x1 PUSH1 0x40 SHL SUB DUP4 GT DUP5 DUP5 LT OR PUSH3 0x175 JUMPI DUP1 DUP5 SWAP3 PUSH1 0xE0 SWAP5 PUSH1 0x40 MSTORE DUP4 CODECOPY DUP2 ADD SUB SLT PUSH3 0x170 JUMPI PUSH3 0x4E DUP2 PUSH3 0x18B JUMP JUMPDEST SWAP1 PUSH3 0x5D PUSH1 0x20 DUP3 ADD PUSH3 0x18B JUMP JUMPDEST SWAP2 PUSH3 0x6C PUSH1 0x40 DUP4 ADD PUSH3 0x18B JUMP JUMPDEST PUSH3 0x7A PUSH1 0x60 DUP5 ADD PUSH3 0x18B JUMP JUMPDEST SWAP1 PUSH3 0x89 PUSH1 0x80 DUP6 ADD PUSH3 0x18B JUMP JUMPDEST SWAP5 PUSH3 0xA6 PUSH1 0xC0 PUSH3 0x9E PUSH1 0xA0 DUP9 ADD PUSH3 0x18B JUMP JUMPDEST SWAP7 ADD PUSH3 0x18B JUMP JUMPDEST SWAP4 PUSH1 0x1 PUSH1 0x1 PUSH1 0xA0 SHL SUB DUP1 DUP3 AND ISZERO PUSH3 0x170 JUMPI DUP1 DUP4 AND ISZERO PUSH3 0x170 JUMPI DUP4 AND ISZERO PUSH3 0x170 JUMPI PUSH1 0x80 MSTORE PUSH1 0xA0 MSTORE PUSH1 0xC0 MSTORE PUSH1 0xE0 MSTORE PUSH2 0x100 SWAP3 DUP4 MSTORE PUSH2 0x120 SWAP2 DUP3 MSTORE PUSH2 0x140 SWAP1 DUP2 MSTORE PUSH1 0x40 MLOAD SWAP2 PUSH2 0x12E2 SWAP4 DUP5 PUSH3 0x1A1 DUP6 CODECOPY PUSH1 0x80 MLOAD DUP5 DUP2 DUP2 PUSH2 0x63F ADD MSTORE DUP2 DUP2 PUSH2 0xD5F ADD MSTORE PUSH2 0x1061 ADD MSTORE PUSH1 0xA0 MLOAD DUP5 DUP2 DUP2 PUSH2 0x495 ADD MSTORE DUP2 DUP2 PUSH2 0xDB0 ADD MSTORE PUSH2 0xF43 ADD MSTORE PUSH1 0xC0 MLOAD DUP5 DUP2 DUP2 PUSH2 0x374 ADD MSTORE PUSH2 0xD87 ADD MSTORE PUSH1 0xE0 MLOAD DUP5 DUP2 DUP2 PUSH2 0x684 ADD MSTORE PUSH2 0xADD ADD MSTORE MLOAD DUP4 DUP2 DUP2 PUSH2 0x4DA ADD MSTORE PUSH2 0xB07 ADD MSTORE MLOAD DUP3 DUP2 DUP2 PUSH2 0x402 ADD MSTORE PUSH2 0xB31 ADD MSTORE MLOAD DUP2 DUP2 DUP2 PUSH2 0x253 ADD MSTORE PUSH2 0xB5B ADD MSTORE RETURN JUMPDEST PUSH1 0x0 DUP1 REVERT JUMPDEST PUSH4 0x4E487B71 PUSH1 0xE0 SHL PUSH1 0x0 MSTORE PUSH1 0x41 PUSH1 0x4 MSTORE PUSH1 0x24 PUSH1 0x0 REVERT JUMPDEST MLOAD SWAP1 PUSH1 0x1 PUSH1 0x1 PUSH1 0xA0 SHL SUB DUP3 AND DUP3 SUB PUSH3 0x170 JUMPI JUMP INVALID PUSH1 0x80 PUSH1 0x40 MSTORE PUSH1 0x4 CALLDATASIZE LT ISZERO PUSH2 0x12 JUMPI PUSH1 0x0 DUP1 REVERT JUMPDEST PUSH1 0x0 CALLDATALOAD PUSH1 0xE0 SHR DUP1 PUSH4 0x9197A81 EQ PUSH2 0x137 JUMPI DUP1 PUSH4 0xC74FBAC EQ PUSH2 0x132 JUMPI DUP1 PUSH4 0x13FF7E9F EQ PUSH2 0x12D JUMPI DUP1 PUSH4 0x22B70930 EQ PUSH2 0x128 JUMPI DUP1 PUSH4 0x231107BF EQ PUSH2 0x123 JUMPI DUP1 PUSH4 0x2A5C792A EQ PUSH2 0x11E JUMPI DUP1 PUSH4 0x5A9249E6 EQ PUSH2 0x119 JUMPI DUP1 PUSH4 0x634282AF EQ PUSH2 0x114 JUMPI DUP1 PUSH4 0x7AA47294 EQ PUSH2 0x10F JUMPI DUP1 PUSH4 0x9F181B5E EQ PUSH2 0x10A JUMPI DUP1 PUSH4 0xB69FC994 EQ PUSH2 0x105 JUMPI DUP1 PUSH4 0xBB22E371 EQ PUSH2 0x100 JUMPI DUP1 PUSH4 0xBC58036C EQ PUSH2 0xFB JUMPI DUP1 PUSH4 0xC1876453 EQ PUSH2 0xF6 JUMPI DUP1 PUSH4 0xCF309012 EQ PUSH2 0xF1 JUMPI DUP1 PUSH4 0xFA1C492E EQ PUSH2 0xEC JUMPI DUP1 PUSH4 0xFA2AF9DA EQ PUSH2 0xE7 JUMPI PUSH4 0xFFC4992F EQ PUSH2 0xE2 JUMPI PUSH1 0x0 DUP1 REVERT JUMPDEST PUSH2 0x66E JUMP JUMPDEST PUSH2 0x629 JUMP JUMPDEST PUSH2 0x560 JUMP JUMPDEST PUSH2 0x53D JUMP JUMPDEST PUSH2 0x509 JUMP JUMPDEST PUSH2 0x4C4 JUMP JUMPDEST PUSH2 0x47F JUMP JUMPDEST PUSH2 0x44F JUMP JUMPDEST PUSH2 0x431 JUMP JUMPDEST PUSH2 0x3EC JUMP JUMPDEST PUSH2 0x3A3 JUMP JUMPDEST PUSH2 0x35E JUMP JUMPDEST PUSH2 0x2B2 JUMP JUMPDEST PUSH2 0x282 JUMP JUMPDEST PUSH2 0x23D JUMP JUMPDEST PUSH2 0x1D3 JUMP JUMPDEST PUSH2 0x1A3 JUMP JUMPDEST PUSH2 0x14C JUMP JUMPDEST PUSH1 0x0 SWAP2 SUB SLT PUSH2 0x147 JUMPI JUMP JUMPDEST PUSH1 0x0 DUP1 REVERT JUMPDEST CALLVALUE PUSH2 0x147 JUMPI PUSH1 0x0 CALLDATASIZE PUSH1 0x3 NOT ADD SLT PUSH2 0x147 JUMPI PUSH1 0x20 PUSH1 0x40 MLOAD PUSH7 0x71AFD498D0000 DUP2 MSTORE RETURN JUMPDEST PUSH1 0x20 SWAP1 PUSH1 0x3 NOT ADD SLT PUSH2 0x147 JUMPI PUSH1 0x4 CALLDATALOAD PUSH1 0x1 PUSH1 0x1 PUSH1 0xA0 SHL SUB DUP2 AND DUP2 SUB PUSH2 0x147 JUMPI SWAP1 JUMP JUMPDEST PUSH1 0x1 PUSH1 0x1 PUSH1 0xA0 SHL SUB SWAP1 SWAP2 AND DUP2 MSTORE PUSH1 0x20 ADD SWAP1 JUMP JUMPDEST CALLVALUE PUSH2 0x147 JUMPI PUSH1 0x20 PUSH1 0x1 PUSH1 0x1 PUSH1 0xA0 SHL SUB DUP1 PUSH2 0x1BC CALLDATASIZE PUSH2 0x16E JUMP JUMPDEST AND PUSH1 0x0 MSTORE PUSH1 0x3 DUP3 MSTORE PUSH1 0x40 PUSH1 0x0 KECCAK256 SLOAD AND PUSH1 0x40 MLOAD SWAP1 DUP2 MSTORE RETURN JUMPDEST CALLVALUE PUSH2 0x147 JUMPI PUSH1 0x80 PUSH1 0x1 PUSH1 0x1 PUSH1 0xA0 SHL SUB DUP1 PUSH2 0x1EC CALLDATASIZE PUSH2 0x16E JUMP JUMPDEST AND PUSH1 0x0 MSTORE PUSH1 0x3 PUSH1 0x20 MSTORE PUSH1 0x40 SWAP1 DUP1 DUP3 PUSH1 0x0 KECCAK256 SLOAD AND SWAP2 PUSH1 0x4 PUSH1 0x20 MSTORE DUP2 DUP2 PUSH1 0x0 KECCAK256 SLOAD AND SWAP2 PUSH1 0x5 PUSH1 0x20 MSTORE DUP2 PUSH1 0x0 KECCAK256 SLOAD AND SWAP1 PUSH1 0x2 PUSH1 0x20 MSTORE PUSH1 0xFF DUP2 PUSH1 0x0 KECCAK256 SLOAD AND SWAP3 DUP2 MLOAD SWAP5 DUP6 MSTORE PUSH1 0x20 DUP6 ADD MSTORE DUP4 ADD MSTORE ISZERO ISZERO PUSH1 0x60 DUP3 ADD MSTORE RETURN JUMPDEST CALLVALUE PUSH2 0x147 JUMPI PUSH1 0x0 CALLDATASIZE PUSH1 0x3 NOT ADD SLT PUSH2 0x147 JUMPI PUSH1 0x40 MLOAD PUSH32 0x0 PUSH1 0x1 PUSH1 0x1 PUSH1 0xA0 SHL SUB AND DUP2 MSTORE PUSH1 0x20 SWAP1 RETURN JUMPDEST CALLVALUE PUSH2 0x147 JUMPI PUSH1 0x20 PUSH1 0x1 PUSH1 0x1 PUSH1 0xA0 SHL SUB DUP1 PUSH2 0x29B CALLDATASIZE PUSH2 0x16E JUMP JUMPDEST AND PUSH1 0x0 MSTORE PUSH1 0x4 DUP3 MSTORE PUSH1 0x40 PUSH1 0x0 KECCAK256 SLOAD AND PUSH1 0x40 MLOAD SWAP1 DUP2 MSTORE RETURN JUMPDEST CALLVALUE PUSH2 0x147 JUMPI PUSH1 0x0 DUP1 PUSH1 0x3 NOT CALLDATASIZE ADD SLT PUSH2 0x35B JUMPI PUSH1 0x40 MLOAD DUP1 SWAP2 PUSH1 0x6 SLOAD SWAP1 DUP2 DUP4 MSTORE PUSH1 0x20 DUP1 SWAP4 ADD DUP1 SWAP3 PUSH1 0x6 DUP4 MSTORE DUP5 DUP4 KECCAK256 SWAP1 DUP4 JUMPDEST DUP2 DUP2 LT PUSH2 0x33E JUMPI POP POP POP DUP5 PUSH2 0x2F7 SWAP2 SUB DUP6 PUSH2 0x7CA JUMP JUMPDEST PUSH1 0x40 MLOAD SWAP4 DUP4 DUP6 SWAP5 DUP6 ADD SWAP2 DUP2 DUP7 MSTORE MLOAD DUP1 SWAP3 MSTORE PUSH1 0x40 DUP6 ADD SWAP4 SWAP3 JUMPDEST DUP3 DUP2 LT PUSH2 0x31E JUMPI POP POP POP POP SUB SWAP1 RETURN JUMPDEST DUP4 MLOAD PUSH1 0x1 PUSH1 0x1 PUSH1 0xA0 SHL SUB AND DUP6 MSTORE DUP7 SWAP6 POP SWAP4 DUP2 ADD SWAP4 SWAP3 DUP2 ADD SWAP3 PUSH1 0x1 ADD PUSH2 0x30F JUMP JUMPDEST DUP3 SLOAD PUSH1 0x1 PUSH1 0x1 PUSH1 0xA0 SHL SUB AND DUP5 MSTORE SWAP3 DUP7 ADD SWAP3 PUSH1 0x1 SWAP3 DUP4 ADD SWAP3 ADD PUSH2 0x2E1 JUMP JUMPDEST DUP1 REVERT JUMPDEST CALLVALUE PUSH2 0x147 JUMPI PUSH1 0x0 CALLDATASIZE PUSH1 0x3 NOT ADD SLT PUSH2 0x147 JUMPI PUSH1 0x40 MLOAD PUSH32 0x0 PUSH1 0x1 PUSH1 0x1 PUSH1 0xA0 SHL SUB AND DUP2 MSTORE PUSH1 0x20 SWAP1 RETURN JUMPDEST CALLVALUE PUSH2 0x147 JUMPI PUSH1 0x20 CALLDATASIZE PUSH1 0x3 NOT ADD SLT PUSH2 0x147 JUMPI PUSH1 0x4 CALLDATALOAD PUSH1 0x6 SLOAD DUP2 LT ISZERO PUSH2 0x147 JUMPI PUSH1 0x6 PUSH1 0x0 MSTORE PUSH1 0x0 DUP1 MLOAD PUSH1 0x20 PUSH2 0x128D DUP4 CODECOPY DUP2 MLOAD SWAP2 MSTORE ADD SLOAD PUSH1 0x40 MLOAD PUSH1 0x1 PUSH1 0x1 PUSH1 0xA0 SHL SUB SWAP1 SWAP2 AND DUP2 MSTORE PUSH1 0x20 SWAP1 RETURN JUMPDEST CALLVALUE PUSH2 0x147 JUMPI PUSH1 0x0 CALLDATASIZE PUSH1 0x3 NOT ADD SLT PUSH2 0x147 JUMPI PUSH1 0x40 MLOAD PUSH32 0x0 PUSH1 0x1 PUSH1 0x1 PUSH1 0xA0 SHL SUB AND DUP2 MSTORE PUSH1 0x20 SWAP1 RETURN JUMPDEST CALLVALUE PUSH2 0x147 JUMPI PUSH1 0x0 CALLDATASIZE PUSH1 0x3 NOT ADD SLT PUSH2 0x147 JUMPI PUSH1 0x20 PUSH1 0x0 SLOAD PUSH1 0x40 MLOAD SWAP1 DUP2 MSTORE RETURN JUMPDEST CALLVALUE PUSH2 0x147 JUMPI PUSH1 0x20 PUSH1 0x1 PUSH1 0x1 PUSH1 0xA0 SHL SUB DUP1 PUSH2 0x468 CALLDATASIZE PUSH2 0x16E JUMP JUMPDEST AND PUSH1 0x0 MSTORE PUSH1 0x5 DUP3 MSTORE PUSH1 0x40 PUSH1 0x0 KECCAK256 SLOAD AND PUSH1 0x40 MLOAD SWAP1 DUP2 MSTORE RETURN JUMPDEST CALLVALUE PUSH2 0x147 JUMPI PUSH1 0x0 CALLDATASIZE PUSH1 0x3 NOT ADD SLT PUSH2 0x147 JUMPI PUSH1 0x40 MLOAD PUSH32 0x0 PUSH1 0x1 PUSH1 0x1 PUSH1 0xA0 SHL SUB AND DUP2 MSTORE PUSH1 0x20 SWAP1 RETURN JUMPDEST CALLVALUE PUSH2 0x147 JUMPI PUSH1 0x0 CALLDATASIZE PUSH1 0x3 NOT ADD SLT PUSH2 0x147 JUMPI PUSH1 0x40 MLOAD PUSH32 0x0 PUSH1 0x1 PUSH1 0x1 PUSH1 0xA0 SHL SUB AND DUP2 MSTORE PUSH1 0x20 SWAP1 RETURN JUMPDEST CALLVALUE PUSH2 0x147 JUMPI PUSH1 0x1 PUSH1 0x1 PUSH1 0xA0 SHL SUB PUSH2 0x51F CALLDATASIZE PUSH2 0x16E JUMP JUMPDEST AND PUSH1 0x0 MSTORE PUSH1 0x2 PUSH1 0x20 MSTORE PUSH1 0x20 PUSH1 0xFF PUSH1 0x40 PUSH1 0x0 KECCAK256 SLOAD AND PUSH1 0x40 MLOAD SWAP1 ISZERO ISZERO DUP2 MSTORE RETURN JUMPDEST CALLVALUE PUSH2 0x147 JUMPI PUSH1 0x0 CALLDATASIZE PUSH1 0x3 NOT ADD SLT PUSH2 0x147 JUMPI PUSH1 0x20 PUSH1 0xFF PUSH1 0x1 SLOAD AND PUSH1 0x40 MLOAD SWAP1 ISZERO ISZERO DUP2 MSTORE RETURN JUMPDEST PUSH1 0x3 NOT PUSH1 0x20 CALLDATASIZE DUP3 ADD SLT PUSH2 0x147 JUMPI PUSH1 0x4 CALLDATALOAD SWAP1 PUSH1 0x1 PUSH1 0x1 PUSH1 0x40 SHL SUB DUP3 GT PUSH2 0x147 JUMPI PUSH1 0xE0 SWAP1 DUP3 CALLDATASIZE SUB ADD SLT PUSH2 0x147 JUMPI PUSH1 0x1 SLOAD PUSH1 0xFF DUP2 AND PUSH2 0x5F8 JUMPI PUSH2 0x5F4 SWAP2 PUSH1 0x1 PUSH2 0x5B0 SWAP3 PUSH1 0xFF NOT AND OR PUSH1 0x1 SSTORE PUSH1 0x4 ADD PUSH2 0xA97 JUMP JUMPDEST SWAP1 PUSH2 0x5C3 SWAP5 SWAP3 SWAP5 PUSH1 0xFF NOT PUSH1 0x1 SLOAD AND PUSH1 0x1 SSTORE JUMP JUMPDEST PUSH1 0x40 DUP1 MLOAD PUSH1 0x1 PUSH1 0x1 PUSH1 0xA0 SHL SUB SWAP6 DUP7 AND DUP2 MSTORE SWAP6 DUP6 AND PUSH1 0x20 DUP8 ADD MSTORE SWAP1 DUP5 AND SWAP1 DUP6 ADD MSTORE SWAP1 SWAP2 AND PUSH1 0x60 DUP4 ADD MSTORE DUP2 SWAP1 PUSH1 0x80 DUP3 ADD SWAP1 JUMP JUMPDEST SUB SWAP1 RETURN JUMPDEST PUSH1 0x40 MLOAD PUSH3 0x461BCD PUSH1 0xE5 SHL DUP2 MSTORE PUSH1 0x20 PUSH1 0x4 DUP3 ADD MSTORE PUSH1 0x9 PUSH1 0x24 DUP3 ADD MSTORE PUSH9 0x1499595B9D1C985B9D PUSH1 0xBA SHL PUSH1 0x44 DUP3 ADD MSTORE PUSH1 0x64 SWAP1 REVERT JUMPDEST CALLVALUE PUSH2 0x147 JUMPI PUSH1 0x0 CALLDATASIZE PUSH1 0x3 NOT ADD SLT PUSH2 0x147 JUMPI PUSH1 0x40 MLOAD PUSH32 0x0 PUSH1 0x1 PUSH1 0x1 PUSH1 0xA0 SHL SUB AND DUP2 MSTORE PUSH1 0x20 SWAP1 RETURN JUMPDEST CALLVALUE PUSH2 0x147 JUMPI PUSH1 0x0 CALLDATASIZE PUSH1 0x3 NOT ADD SLT PUSH2 0x147 JUMPI PUSH1 0x40 MLOAD PUSH32 0x0 PUSH1 0x1 PUSH1 0x1 PUSH1 0xA0 SHL SUB AND DUP2 MSTORE PUSH1 0x20 SWAP1 RETURN JUMPDEST ISZERO PUSH2 0x6BA JUMPI JUMP JUMPDEST PUSH1 0x40 MLOAD PUSH3 0x461BCD PUSH1 0xE5 SHL DUP2 MSTORE PUSH1 0x20 PUSH1 0x4 DUP3 ADD MSTORE PUSH1 0xE PUSH1 0x24 DUP3 ADD MSTORE PUSH14 0xA6CADCC840605C606064408AA89 PUSH1 0x93 SHL PUSH1 0x44 DUP3 ADD MSTORE PUSH1 0x64 SWAP1 REVERT JUMPDEST SWAP1 CALLDATALOAD SWAP1 PUSH1 0x1E NOT DUP2 CALLDATASIZE SUB ADD DUP3 SLT ISZERO PUSH2 0x147 JUMPI ADD DUP1 CALLDATALOAD SWAP1 PUSH1 0x1 PUSH1 0x1 PUSH1 0x40 SHL SUB DUP3 GT PUSH2 0x147 JUMPI PUSH1 0x20 ADD SWAP2 DUP2 CALLDATASIZE SUB DUP4 SGT PUSH2 0x147 JUMPI JUMP JUMPDEST ISZERO PUSH2 0x729 JUMPI JUMP JUMPDEST PUSH1 0x40 MLOAD PUSH3 0x461BCD PUSH1 0xE5 SHL DUP2 MSTORE PUSH1 0x20 PUSH1 0x4 DUP3 ADD MSTORE PUSH1 0xD PUSH1 0x24 DUP3 ADD MSTORE PUSH13 0x13985B59481C995C5D5A5C9959 PUSH1 0x9A SHL PUSH1 0x44 DUP3 ADD MSTORE PUSH1 0x64 SWAP1 REVERT JUMPDEST ISZERO PUSH2 0x765 JUMPI JUMP JUMPDEST PUSH1 0x40 MLOAD PUSH3 0x461BCD PUSH1 0xE5 SHL DUP2 MSTORE PUSH1 0x20 PUSH1 0x4 DUP3 ADD MSTORE PUSH1 0xF PUSH1 0x24 DUP3 ADD MSTORE PUSH15 0x14DE5B589BDB081C995C5D5A5C9959 PUSH1 0x8A SHL PUSH1 0x44 DUP3 ADD MSTORE PUSH1 0x64 SWAP1 REVERT JUMPDEST PUSH4 0x4E487B71 PUSH1 0xE0 SHL PUSH1 0x0 MSTORE PUSH1 0x41 PUSH1 0x4 MSTORE PUSH1 0x24 PUSH1 0x0 REVERT JUMPDEST PUSH1 0x1 PUSH1 0x1 PUSH1 0x40 SHL SUB DUP2 GT PUSH2 0x7C5 JUMPI PUSH1 0x40 MSTORE JUMP JUMPDEST PUSH2 0x79C JUMP JUMPDEST PUSH1 0x1F SWAP1 SWAP2 ADD PUSH1 0x1F NOT AND DUP2 ADD SWAP1 PUSH1 0x1 PUSH1 0x1 PUSH1 0x40 SHL SUB DUP3 GT SWAP1 DUP3 LT OR PUSH2 0x7C5 JUMPI PUSH1 0x40 MSTORE JUMP JUMPDEST SWAP1 DUP1 PUSH1 0x20 SWAP4 SWAP3 DUP2 DUP5 MSTORE DUP5 DUP5 ADD CALLDATACOPY PUSH1 0x0 DUP3 DUP3 ADD DUP5 ADD MSTORE PUSH1 0x1F ADD PUSH1 0x1F NOT AND ADD ADD SWAP1 JUMP JUMPDEST SWAP5 SWAP3 SWAP1 SWAP4 PUSH2 0x82D PUSH1 0x60 SWAP6 PUSH2 0x83B SWAP5 SWAP10 SWAP9 SWAP10 PUSH1 0x80 DUP10 MSTORE PUSH1 0x80 DUP10 ADD SWAP2 PUSH2 0x7ED JUMP JUMPDEST SWAP2 DUP7 DUP4 SUB PUSH1 0x20 DUP9 ADD MSTORE PUSH2 0x7ED JUMP JUMPDEST PUSH1 0x1 PUSH1 0x1 PUSH1 0xA0 SHL SUB SWAP2 DUP3 AND PUSH1 0x40 DUP6 ADD MSTORE SWAP5 AND SWAP2 ADD MSTORE JUMP JUMPDEST PUSH1 0x40 MLOAD RETURNDATASIZE PUSH1 0x0 DUP3 RETURNDATACOPY RETURNDATASIZE SWAP1 REVERT JUMPDEST SWAP9 SWAP7 SWAP5 SWAP2 PUSH2 0x8A1 SWAP4 PUSH2 0x8BD SWAP12 SWAP10 SWAP6 PUSH2 0x885 PUSH2 0x8AF SWAP10 SWAP5 PUSH2 0x893 SWAP5 PUSH1 0xA0 DUP16 DUP2 DUP2 MSTORE ADD SWAP2 PUSH2 0x7ED JUMP JUMPDEST DUP13 DUP2 SUB PUSH1 0x20 DUP15 ADD MSTORE SWAP2 PUSH2 0x7ED JUMP JUMPDEST SWAP2 DUP10 DUP4 SUB PUSH1 0x40 DUP12 ADD MSTORE PUSH2 0x7ED JUMP JUMPDEST SWAP2 DUP7 DUP4 SUB PUSH1 0x60 DUP9 ADD MSTORE PUSH2 0x7ED JUMP JUMPDEST SWAP3 PUSH1 0x80 DUP2 DUP6 SUB SWAP2 ADD MSTORE PUSH2 0x7ED JUMP JUMPDEST SWAP1 JUMP JUMPDEST SWAP1 DUP2 PUSH1 0x20 SWAP2 SUB SLT PUSH2 0x147 JUMPI MLOAD SWAP1 JUMP JUMPDEST SWAP1 DUP2 PUSH1 0x20 SWAP2 SUB SLT PUSH2 0x147 JUMPI MLOAD DUP1 ISZERO ISZERO DUP2 SUB PUSH2 0x147 JUMPI SWAP1 JUMP JUMPDEST ISZERO PUSH2 0x8EE JUMPI JUMP JUMPDEST PUSH1 0x40 MLOAD PUSH3 0x461BCD PUSH1 0xE5 SHL DUP2 MSTORE PUSH1 0x20 PUSH1 0x4 DUP3 ADD MSTORE PUSH1 0x16 PUSH1 0x24 DUP3 ADD MSTORE PUSH22 0x14DD5C1C1B1E481D1C985B9CD9995C8819985A5B1959 PUSH1 0x52 SHL PUSH1 0x44 DUP3 ADD MSTORE PUSH1 0x64 SWAP1 REVERT JUMPDEST DUP1 SLOAD PUSH1 0x1 PUSH1 0x1 PUSH1 0xA0 SHL SUB NOT AND PUSH1 0x1 PUSH1 0x1 PUSH1 0xA0 SHL SUB SWAP1 SWAP3 AND SWAP2 SWAP1 SWAP2 OR SWAP1 SSTORE JUMP JUMPDEST PUSH1 0x6 SLOAD PUSH1 0x1 PUSH1 0x40 SHL DUP2 LT ISZERO PUSH2 0x7C5 JUMPI PUSH1 0x1 DUP2 ADD DUP1 PUSH1 0x6 SSTORE DUP2 LT ISZERO PUSH2 0x99D JUMPI PUSH1 0x6 PUSH1 0x0 MSTORE PUSH1 0x0 DUP1 MLOAD PUSH1 0x20 PUSH2 0x128D DUP4 CODECOPY DUP2 MLOAD SWAP2 MSTORE ADD DUP1 SLOAD PUSH1 0x1 PUSH1 0x1 PUSH1 0xA0 SHL SUB NOT AND PUSH1 0x1 PUSH1 0x1 PUSH1 0xA0 SHL SUB SWAP1 SWAP3 AND SWAP2 SWAP1 SWAP2 OR SWAP1 SSTORE JUMP JUMPDEST PUSH4 0x4E487B71 PUSH1 0xE0 SHL PUSH1 0x0 MSTORE PUSH1 0x32 PUSH1 0x4 MSTORE PUSH1 0x24 PUSH1 0x0 REVERT JUMPDEST PUSH1 0x0 NOT DUP2 EQ PUSH2 0x9C2 JUMPI PUSH1 0x1 ADD SWAP1 JUMP JUMPDEST PUSH4 0x4E487B71 PUSH1 0xE0 SHL PUSH1 0x0 MSTORE PUSH1 0x11 PUSH1 0x4 MSTORE PUSH1 0x24 PUSH1 0x0 REVERT JUMPDEST RETURNDATASIZE ISZERO PUSH2 0xA12 JUMPI RETURNDATASIZE SWAP1 PUSH1 0x1 PUSH1 0x1 PUSH1 0x40 SHL SUB DUP3 GT PUSH2 0x7C5 JUMPI PUSH1 0x40 MLOAD SWAP2 PUSH2 0xA06 PUSH1 0x1F DUP3 ADD PUSH1 0x1F NOT AND PUSH1 0x20 ADD DUP5 PUSH2 0x7CA JUMP JUMPDEST DUP3 MSTORE RETURNDATASIZE PUSH1 0x0 PUSH1 0x20 DUP5 ADD RETURNDATACOPY JUMP JUMPDEST PUSH1 0x60 SWAP1 JUMP JUMPDEST ISZERO PUSH2 0xA1E JUMPI JUMP JUMPDEST PUSH1 0x40 MLOAD PUSH3 0x461BCD PUSH1 0xE5 SHL DUP2 MSTORE PUSH1 0x20 PUSH1 0x4 DUP3 ADD MSTORE PUSH1 0xA PUSH1 0x24 DUP3 ADD MSTORE PUSH10 0x1199594819985A5B1959 PUSH1 0xB2 SHL PUSH1 0x44 DUP3 ADD MSTORE PUSH1 0x64 SWAP1 REVERT JUMPDEST SWAP8 SWAP7 SWAP6 SWAP2 SWAP3 PUSH2 0xA92 SWAP5 PUSH2 0xA84 SWAP3 PUSH1 0x80 SWAP8 SWAP6 PUSH1 0x1 DUP1 PUSH1 0xA0 SHL SUB DUP1 SWAP3 AND DUP13 MSTORE AND PUSH1 0x20 DUP12 ADD MSTORE PUSH1 0xA0 PUSH1 0x40 DUP12 ADD MSTORE PUSH1 0xA0 DUP11 ADD SWAP2 PUSH2 0x7ED JUMP JUMPDEST SWAP2 DUP8 DUP4 SUB PUSH1 0x60 DUP10 ADD MSTORE PUSH2 0x7ED JUMP JUMPDEST SWAP4 ADD MSTORE JUMP JUMPDEST PUSH2 0xAA9 PUSH7 0x71AFD498D0000 CALLVALUE EQ PUSH2 0x6B3 JUMP JUMPDEST PUSH2 0xABF PUSH2 0xAB6 DUP3 DUP1 PUSH2 0x6F0 JUMP JUMPDEST SWAP1 POP ISZERO ISZERO PUSH2 0x722 JUMP JUMPDEST PUSH2 0xAD8 PUSH2 0xACF PUSH1 0x20 DUP4 ADD DUP4 PUSH2 0x6F0 JUMP JUMPDEST SWAP1 POP ISZERO ISZERO PUSH2 0x75E JUMP JUMPDEST PUSH2 0xB01 PUSH32 0x0 PUSH2 0x1200 JUMP JUMPDEST SWAP2 PUSH2 0xB2B PUSH32 0x0 PUSH2 0x1200 JUMP JUMPDEST SWAP1 PUSH2 0xB55 PUSH32 0x0 PUSH2 0x1200 JUMP JUMPDEST SWAP1 PUSH2 0xB7F PUSH32 0x0 PUSH2 0x1200 JUMP JUMPDEST SWAP4 PUSH2 0xB8A DUP2 DUP1 PUSH2 0x6F0 JUMP JUMPDEST SWAP1 PUSH2 0xB98 PUSH1 0x20 DUP5 ADD DUP5 PUSH2 0x6F0 JUMP JUMPDEST SWAP3 PUSH1 0x1 PUSH1 0x1 PUSH1 0xA0 SHL SUB DUP11 AND EXTCODESIZE ISZERO PUSH2 0x147 JUMPI PUSH2 0xBCD PUSH1 0x0 SWAP4 DUP11 PUSH1 0x40 MLOAD SWAP7 DUP8 SWAP6 DUP7 SWAP6 PUSH4 0x23C56D05 PUSH1 0xE2 SHL DUP8 MSTORE ADDRESS SWAP5 PUSH1 0x4 DUP9 ADD PUSH2 0x80E JUMP JUMPDEST SUB DUP2 DUP4 PUSH1 0x1 PUSH1 0x1 PUSH1 0xA0 SHL SUB DUP13 AND GAS CALL DUP1 ISZERO PUSH2 0x111A JUMPI PUSH2 0x11ED JUMPI JUMPDEST POP PUSH2 0xBF5 PUSH1 0x40 DUP3 ADD DUP3 PUSH2 0x6F0 JUMP JUMPDEST PUSH2 0xC02 PUSH1 0x60 DUP5 ADD DUP5 PUSH2 0x6F0 JUMP JUMPDEST SWAP2 SWAP1 SWAP3 PUSH2 0xC12 PUSH1 0x80 DUP7 ADD DUP7 PUSH2 0x6F0 JUMP JUMPDEST DUP12 PUSH2 0xC23 PUSH1 0xA0 DUP10 SWAP8 SWAP5 SWAP8 ADD DUP10 PUSH2 0x6F0 JUMP JUMPDEST SWAP1 PUSH2 0xC31 PUSH1 0xC0 DUP12 ADD DUP12 PUSH2 0x6F0 JUMP JUMPDEST SWAP5 SWAP1 SWAP4 PUSH1 0x1 PUSH1 0x1 PUSH1 0xA0 SHL SUB AND EXTCODESIZE ISZERO PUSH2 0x147 JUMPI PUSH1 0x0 SWAP9 PUSH2 0xC65 SWAP7 PUSH1 0x40 MLOAD SWAP12 DUP13 SWAP11 DUP12 SWAP11 PUSH4 0xCC0D24E7 PUSH1 0xE0 SHL DUP13 MSTORE PUSH1 0x4 DUP13 ADD PUSH2 0x85E JUMP JUMPDEST SUB DUP2 DUP4 PUSH1 0x1 PUSH1 0x1 PUSH1 0xA0 SHL SUB DUP13 AND GAS CALL DUP1 ISZERO PUSH2 0x111A JUMPI PUSH2 0x11DA JUMPI JUMPDEST POP PUSH1 0x1 PUSH1 0x1 PUSH1 0xA0 SHL SUB DUP5 AND DUP1 EXTCODESIZE ISZERO PUSH2 0x147 JUMPI PUSH1 0x40 MLOAD PUSH4 0xC0C53B8B PUSH1 0xE0 SHL DUP2 MSTORE PUSH1 0x1 PUSH1 0x1 PUSH1 0xA0 SHL SUB DUP9 AND PUSH1 0x4 DUP3 ADD MSTORE CALLER PUSH1 0x24 DUP3 ADD MSTORE ADDRESS PUSH1 0x44 DUP3 ADD MSTORE SWAP1 PUSH1 0x0 SWAP1 DUP3 SWAP1 PUSH1 0x64 SWAP1 DUP3 SWAP1 DUP5 SWAP1 GAS CALL DUP1 ISZERO PUSH2 0x111A JUMPI PUSH2 0x11C7 JUMPI JUMPDEST POP PUSH1 0x1 PUSH1 0x1 PUSH1 0xA0 SHL SUB DUP4 AND DUP1 EXTCODESIZE ISZERO PUSH2 0x147 JUMPI PUSH1 0x40 MLOAD PUSH4 0x485CC955 PUSH1 0xE0 SHL DUP2 MSTORE PUSH1 0x1 PUSH1 0x1 PUSH1 0xA0 SHL SUB DUP9 AND PUSH1 0x4 DUP3 ADD MSTORE ADDRESS PUSH1 0x24 DUP3 ADD MSTORE SWAP1 PUSH1 0x0 SWAP1 DUP3 SWAP1 PUSH1 0x44 SWAP1 DUP3 SWAP1 DUP5 SWAP1 GAS CALL DUP1 ISZERO PUSH2 0x111A JUMPI PUSH2 0x11B4 JUMPI JUMPDEST POP PUSH1 0x1 PUSH1 0x1 PUSH1 0xA0 SHL SUB DUP6 AND EXTCODESIZE ISZERO PUSH2 0x147 JUMPI PUSH1 0x40 MLOAD PUSH4 0x1AC3B23B PUSH1 0xE1 SHL DUP2 MSTORE PUSH1 0x1 PUSH1 0x1 PUSH1 0xA0 SHL SUB DUP8 DUP2 AND PUSH1 0x4 DUP4 ADD MSTORE CALLER PUSH1 0x24 DUP4 ADD MSTORE DUP6 DUP2 AND PUSH1 0x44 DUP4 ADD MSTORE PUSH32 0x0 DUP2 AND PUSH1 0x64 DUP4 ADD MSTORE PUSH32 0x0 DUP1 DUP3 AND PUSH1 0x84 DUP5 ADD MSTORE PUSH32 0x0 SWAP1 SWAP2 AND PUSH1 0xA4 DUP4 ADD MSTORE ADDRESS PUSH1 0xC4 DUP4 ADD MSTORE SWAP2 SWAP1 PUSH1 0x0 DUP2 DUP1 PUSH1 0xE4 DUP2 ADD SUB DUP2 DUP4 PUSH1 0x1 PUSH1 0x1 PUSH1 0xA0 SHL SUB DUP13 AND GAS CALL DUP1 ISZERO PUSH2 0x111A JUMPI PUSH2 0x11A1 JUMPI JUMPDEST POP PUSH1 0x40 MLOAD PUSH4 0x18160DDD PUSH1 0xE0 SHL DUP2 MSTORE PUSH1 0x20 DUP2 PUSH1 0x4 DUP2 PUSH1 0x1 PUSH1 0x1 PUSH1 0xA0 SHL SUB DUP13 AND GAS STATICCALL SWAP1 DUP2 ISZERO PUSH2 0x111A JUMPI PUSH2 0xE68 SWAP2 PUSH1 0x20 SWAP2 PUSH1 0x0 SWAP2 PUSH2 0x1174 JUMPI JUMPDEST POP PUSH1 0x40 MLOAD PUSH4 0xA9059CBB PUSH1 0xE0 SHL DUP2 MSTORE PUSH1 0x1 PUSH1 0x1 PUSH1 0xA0 SHL SUB DUP11 AND PUSH1 0x4 DUP3 ADD MSTORE PUSH1 0x24 DUP2 ADD SWAP2 SWAP1 SWAP2 MSTORE SWAP2 DUP3 SWAP1 DUP2 SWAP1 PUSH1 0x44 DUP3 ADD SWAP1 JUMP JUMPDEST SUB DUP2 PUSH1 0x0 PUSH1 0x1 PUSH1 0x1 PUSH1 0xA0 SHL SUB DUP14 AND GAS CALL DUP1 ISZERO PUSH2 0x111A JUMPI PUSH2 0xE90 SWAP2 PUSH1 0x0 SWAP2 PUSH2 0x1145 JUMPI JUMPDEST POP PUSH2 0x8E7 JUMP JUMPDEST PUSH1 0x1 PUSH1 0x1 PUSH1 0xA0 SHL SUB DUP3 AND EXTCODESIZE ISZERO PUSH2 0x147 JUMPI PUSH1 0x40 MLOAD PUSH4 0x55ACFA5 PUSH1 0xE4 SHL DUP2 MSTORE PUSH1 0x1 PUSH1 0x1 PUSH1 0xA0 SHL SUB DUP1 DUP10 AND PUSH1 0x4 DUP4 ADD MSTORE DUP1 DUP8 AND PUSH1 0x24 DUP4 ADD MSTORE DUP6 AND PUSH1 0x44 DUP3 ADD MSTORE PUSH1 0x0 PUSH1 0x64 DUP3 ADD DUP2 SWAP1 MSTORE DUP2 DUP1 PUSH1 0x84 DUP2 ADD SUB DUP2 DUP4 PUSH1 0x1 PUSH1 0x1 PUSH1 0xA0 SHL SUB DUP9 AND GAS CALL DUP1 ISZERO PUSH2 0x111A JUMPI PUSH2 0x1132 JUMPI JUMPDEST POP PUSH1 0x1 PUSH1 0x1 PUSH1 0xA0 SHL SUB DUP3 AND EXTCODESIZE ISZERO PUSH2 0x147 JUMPI PUSH1 0x40 MLOAD PUSH1 0x0 DUP2 PUSH4 0x2C3BF5C5 PUSH1 0xE2 SHL SWAP5 DUP6 DUP3 MSTORE DUP2 DUP4 DUP2 PUSH2 0xF28 DUP14 PUSH1 0x4 DUP4 ADD PUSH2 0x190 JUMP JUMPDEST SUB SWAP3 PUSH1 0x1 PUSH1 0x1 PUSH1 0xA0 SHL SUB AND GAS CALL DUP1 ISZERO PUSH2 0x111A JUMPI PUSH2 0x111F JUMPI JUMPDEST POP PUSH32 0x0 PUSH1 0x1 PUSH1 0x1 PUSH1 0xA0 SHL SUB AND SWAP2 DUP3 EXTCODESIZE ISZERO PUSH2 0x147 JUMPI PUSH1 0x0 SWAP1 PUSH1 0x40 MLOAD SWAP4 DUP5 SWAP2 DUP3 MSTORE DUP2 DUP4 DUP2 PUSH2 0xF8E DUP13 PUSH1 0x4 DUP4 ADD PUSH2 0x190 JUMP JUMPDEST SUB SWAP3 GAS CALL SWAP1 DUP2 ISZERO PUSH2 0x111A JUMPI PUSH2 0x10D1 SWAP3 DUP9 SWAP3 PUSH2 0x1101 JUMPI JUMPDEST POP PUSH1 0x1 PUSH1 0x1 PUSH1 0xA0 SHL SUB DUP3 AND PUSH1 0x0 SWAP1 DUP2 MSTORE PUSH1 0x2 PUSH1 0x20 MSTORE PUSH1 0x40 SWAP1 KECCAK256 PUSH2 0xFCE SWAP1 DUP1 SLOAD PUSH1 0xFF NOT AND PUSH1 0x1 OR SWAP1 SSTORE JUMP JUMPDEST PUSH1 0x1 PUSH1 0x1 PUSH1 0xA0 SHL SUB DUP3 AND PUSH1 0x0 SWAP1 DUP2 MSTORE PUSH1 0x3 PUSH1 0x20 MSTORE PUSH1 0x40 SWAP1 KECCAK256 PUSH2 0xFF1 SWAP1 DUP9 SWAP1 PUSH2 0x92C JUMP JUMPDEST PUSH1 0x1 PUSH1 0x1 PUSH1 0xA0 SHL SUB DUP3 AND PUSH1 0x0 SWAP1 DUP2 MSTORE PUSH1 0x4 PUSH1 0x20 MSTORE PUSH1 0x40 SWAP1 KECCAK256 PUSH2 0x1014 SWAP1 DUP8 SWAP1 PUSH2 0x92C JUMP JUMPDEST PUSH1 0x1 PUSH1 0x1 PUSH1 0xA0 SHL SUB DUP3 AND PUSH1 0x0 SWAP1 DUP2 MSTORE PUSH1 0x5 PUSH1 0x20 MSTORE PUSH1 0x40 SWAP1 KECCAK256 PUSH2 0x1037 SWAP1 DUP7 SWAP1 PUSH2 0x92C JUMP JUMPDEST PUSH2 0x1040 DUP3 PUSH2 0x94B JUMP JUMPDEST PUSH2 0x104B PUSH1 0x0 SLOAD PUSH2 0x9B3 JUMP JUMPDEST PUSH1 0x0 SWAP1 DUP2 SSTORE PUSH2 0x1099 SWAP1 DUP1 DUP1 DUP1 PUSH7 0x71AFD498D0000 PUSH32 0x0 PUSH1 0x1 PUSH1 0x1 PUSH1 0xA0 SHL SUB AND GAS CALL PUSH2 0x1093 PUSH2 0x9D8 JUMP JUMPDEST POP PUSH2 0xA17 JUMP JUMPDEST PUSH32 0xE3E5B3BE6A13E1F9F202D939FDD647EE243040530E0C0B71EC5936FFE681C805 PUSH2 0x10C4 DUP3 DUP1 PUSH2 0x6F0 JUMP JUMPDEST SWAP5 SWAP1 SWAP3 PUSH1 0x20 DUP2 ADD SWAP1 PUSH2 0x6F0 JUMP JUMPDEST PUSH1 0x40 MLOAD PUSH1 0x1 PUSH1 0x1 PUSH1 0xA0 SHL SUB DUP1 DUP13 AND SWAP8 CALLER SWAP8 SWAP1 SWAP2 AND SWAP6 SWAP2 SWAP4 DUP5 SWAP4 PUSH2 0x10FC SWAP4 TIMESTAMP SWAP4 SWAP2 SWAP3 SWAP2 SWAP1 DUP14 DUP16 DUP9 PUSH2 0xA50 JUMP JUMPDEST SUB SWAP1 LOG4 JUMP JUMPDEST DUP1 PUSH2 0x110E PUSH2 0x1114 SWAP3 PUSH2 0x7B2 JUMP JUMPDEST DUP1 PUSH2 0x13C JUMP JUMPDEST CODESIZE PUSH2 0xFA4 JUMP JUMPDEST PUSH2 0x852 JUMP JUMPDEST DUP1 PUSH2 0x110E PUSH2 0x112C SWAP3 PUSH2 0x7B2 JUMP JUMPDEST CODESIZE PUSH2 0xF40 JUMP JUMPDEST DUP1 PUSH2 0x110E PUSH2 0x113F SWAP3 PUSH2 0x7B2 JUMP JUMPDEST CODESIZE PUSH2 0xEF5 JUMP JUMPDEST PUSH2 0x1167 SWAP2 POP PUSH1 0x20 RETURNDATASIZE PUSH1 0x20 GT PUSH2 0x116D JUMPI JUMPDEST PUSH2 0x115F DUP2 DUP4 PUSH2 0x7CA JUMP JUMPDEST DUP2 ADD SWAP1 PUSH2 0x8CF JUMP JUMPDEST CODESIZE PUSH2 0xE8A JUMP JUMPDEST POP RETURNDATASIZE PUSH2 0x1155 JUMP JUMPDEST PUSH2 0x1194 SWAP2 POP DUP3 RETURNDATASIZE DUP5 GT PUSH2 0x119A JUMPI JUMPDEST PUSH2 0x118C DUP2 DUP4 PUSH2 0x7CA JUMP JUMPDEST DUP2 ADD SWAP1 PUSH2 0x8C0 JUMP JUMPDEST CODESIZE PUSH2 0xE37 JUMP JUMPDEST POP RETURNDATASIZE PUSH2 0x1182 JUMP JUMPDEST DUP1 PUSH2 0x110E PUSH2 0x11AE SWAP3 PUSH2 0x7B2 JUMP JUMPDEST CODESIZE PUSH2 0xE01 JUMP JUMPDEST DUP1 PUSH2 0x110E PUSH2 0x11C1 SWAP3 PUSH2 0x7B2 JUMP JUMPDEST CODESIZE PUSH2 0xD21 JUMP JUMPDEST DUP1 PUSH2 0x110E PUSH2 0x11D4 SWAP3 PUSH2 0x7B2 JUMP JUMPDEST CODESIZE PUSH2 0xCD3 JUMP JUMPDEST DUP1 PUSH2 0x110E PUSH2 0x11E7 SWAP3 PUSH2 0x7B2 JUMP JUMPDEST CODESIZE PUSH2 0xC7F JUMP JUMPDEST DUP1 PUSH2 0x110E PUSH2 0x11FA SWAP3 PUSH2 0x7B2 JUMP JUMPDEST CODESIZE PUSH2 0xBE7 JUMP JUMPDEST PUSH1 0x40 MLOAD PUSH20 0x3D602D80600A3D3981F3363D3D373D3D3D363D73 PUSH1 0x60 SHL DUP2 MSTORE PUSH1 0x60 SWAP2 SWAP1 SWAP2 SHL PUSH1 0x14 DUP3 ADD MSTORE PUSH15 0x5AF43D82803E903D91602B57FD5BF3 PUSH1 0x88 SHL PUSH1 0x28 DUP3 ADD MSTORE PUSH1 0x37 SWAP1 PUSH1 0x0 CREATE SWAP1 PUSH1 0x1 PUSH1 0x1 PUSH1 0xA0 SHL SUB DUP3 AND ISZERO PUSH2 0x1258 JUMPI JUMP JUMPDEST PUSH1 0x40 MLOAD PUSH3 0x461BCD PUSH1 0xE5 SHL DUP2 MSTORE PUSH1 0x20 PUSH1 0x4 DUP3 ADD MSTORE PUSH1 0xC PUSH1 0x24 DUP3 ADD MSTORE PUSH12 0x10DB1BDB994819985A5B1959 PUSH1 0xA2 SHL PUSH1 0x44 DUP3 ADD MSTORE PUSH1 0x64 SWAP1 REVERT INVALID 0xF6 MSTORE 0x22 0x23 SGT 0xE2 DUP5 MSIZE MSTORE DUP14 SWAP3 SIGNEXTEND PUSH6 0x115C16C04F3E 0xFC DUP3 0xAA 0xED 0xC9 PUSH28 0xE59F3F377C0D3FA2646970667358221220405A61B4949062FF802AFD CHAINID 0x2D STOP 0xDC 0xC2 0xC3 SWAP15 0xE1 DUP1 DUP12 0xC3 0xE 0xF9 DUP5 0xF7 EXP 0xB7 0xA7 0x5C PUSH9 0xB564736F6C63430008 EQ STOP CALLER "},"methodIdentifiers":{"LAUNCH_FEE()":"09197a81","allTokens(uint256)":"634282af","armoryImpl()":"bc58036c","curveImpl()":"22b70930","fortifyImpl()":"7aa47294","getAllTokens()":"2a5c792a","getTokenData(address)":"13ff7e9f","isValidToken(address)":"c1876453","launchToken((string,string,string,string,string,string,string))":"fa1c492e","locked()":"cf309012","platformWallet()":"fa2af9da","protocolVault()":"5a9249e6","tokenCount()":"9f181b5e","tokenImpl()":"ffc4992f","tokenToArmory(address)":"231107bf","tokenToCurve(address)":"0c74fbac","tokenToFortify(address)":"b69fc994","warChest()":"bb22e371"}}}}}