{"contracts/BondingCurve.sol":{"BondingCurve":{"abi":[{"anonymous":false,"inputs":[{"indexed":true,"internalType":"address","name":"buyer","type":"address"},{"indexed":false,"internalType":"uint256","name":"ethIn","type":"uint256"},{"indexed":false,"internalType":"uint256","name":"tokensOut","type":"uint256"},{"indexed":false,"internalType":"uint256","name":"fee","type":"uint256"},{"indexed":false,"internalType":"address","name":"referrer","type":"address"}],"name":"Buy","type":"event"},{"anonymous":false,"inputs":[{"indexed":false,"internalType":"uint256","name":"lpETH","type":"uint256"},{"indexed":false,"internalType":"uint256","name":"lpTokens","type":"uint256"}],"name":"Graduated","type":"event"},{"anonymous":false,"inputs":[{"indexed":false,"internalType":"string","name":"reason","type":"string"}],"name":"RaidTriggered","type":"event"},{"anonymous":false,"inputs":[{"indexed":true,"internalType":"address","name":"seller","type":"address"},{"indexed":false,"internalType":"uint256","name":"tokensIn","type":"uint256"},{"indexed":false,"internalType":"uint256","name":"ethOut","type":"uint256"},{"indexed":false,"internalType":"uint256","name":"fee","type":"uint256"}],"name":"Sell","type":"event"},{"inputs":[],"name":"BUY_FEE_BPS","outputs":[{"internalType":"uint256","name":"","type":"uint256"}],"stateMutability":"view","type":"function"},{"inputs":[],"name":"CREATOR_BPS","outputs":[{"internalType":"uint256","name":"","type":"uint256"}],"stateMutability":"view","type":"function"},{"inputs":[],"name":"CREATOR_SHARE","outputs":[{"internalType":"uint256","name":"","type":"uint256"}],"stateMutability":"view","type":"function"},{"inputs":[],"name":"CURVE_SUPPLY","outputs":[{"internalType":"uint256","name":"","type":"uint256"}],"stateMutability":"view","type":"function"},{"inputs":[],"name":"GRAD_TARGET","outputs":[{"internalType":"uint256","name":"","type":"uint256"}],"stateMutability":"view","type":"function"},{"inputs":[],"name":"LP_ETH","outputs":[{"internalType":"uint256","name":"","type":"uint256"}],"stateMutability":"view","type":"function"},{"inputs":[],"name":"LP_SUPPLY","outputs":[{"internalType":"uint256","name":"","type":"uint256"}],"stateMutability":"view","type":"function"},{"inputs":[],"name":"PLATFORM_BPS","outputs":[{"internalType":"uint256","name":"","type":"uint256"}],"stateMutability":"view","type":"function"},{"inputs":[],"name":"PLATFORM_SHARE","outputs":[{"internalType":"uint256","name":"","type":"uint256"}],"stateMutability":"view","type":"function"},{"inputs":[],"name":"SELL_FEE_BPS","outputs":[{"internalType":"uint256","name":"","type":"uint256"}],"stateMutability":"view","type":"function"},{"inputs":[],"name":"VIRT_ETH","outputs":[{"internalType":"uint256","name":"","type":"uint256"}],"stateMutability":"view","type":"function"},{"inputs":[],"name":"VIRT_TOKENS","outputs":[{"internalType":"uint256","name":"","type":"uint256"}],"stateMutability":"view","type":"function"},{"inputs":[],"name":"armory","outputs":[{"internalType":"address","name":"","type":"address"}],"stateMutability":"view","type":"function"},{"inputs":[{"internalType":"uint256","name":"minTokensOut","type":"uint256"},{"internalType":"address","name":"ref","type":"address"}],"name":"buy","outputs":[],"stateMutability":"payable","type":"function"},{"inputs":[],"name":"buyCount90s","outputs":[{"internalType":"uint256","name":"","type":"uint256"}],"stateMutability":"view","type":"function"},{"inputs":[{"internalType":"uint256","name":"ethIn","type":"uint256"}],"name":"buyQuote","outputs":[{"internalType":"uint256","name":"tokensOut","type":"uint256"},{"internalType":"uint256","name":"fee","type":"uint256"}],"stateMutability":"view","type":"function"},{"inputs":[],"name":"creator","outputs":[{"internalType":"address","name":"","type":"address"}],"stateMutability":"view","type":"function"},{"inputs":[],"name":"currentPrice","outputs":[{"internalType":"uint256","name":"","type":"uint256"}],"stateMutability":"view","type":"function"},{"inputs":[],"name":"deployBlock","outputs":[{"internalType":"uint256","name":"","type":"uint256"}],"stateMutability":"view","type":"function"},{"inputs":[],"name":"ethIn3min","outputs":[{"internalType":"uint256","name":"","type":"uint256"}],"stateMutability":"view","type":"function"},{"inputs":[],"name":"factory","outputs":[{"internalType":"address","name":"","type":"address"}],"stateMutability":"view","type":"function"},{"inputs":[],"name":"flushPlatformBuffer","outputs":[],"stateMutability":"nonpayable","type":"function"},{"inputs":[],"name":"graduated","outputs":[{"internalType":"bool","name":"","type":"bool"}],"stateMutability":"view","type":"function"},{"inputs":[{"internalType":"address","name":"_token","type":"address"},{"internalType":"address","name":"_creator","type":"address"},{"internalType":"address","name":"_armory","type":"address"},{"internalType":"address","name":"_platform","type":"address"},{"internalType":"address","name":"_vault","type":"address"},{"internalType":"address","name":"_chest","type":"address"},{"internalType":"address","name":"_factory","type":"address"}],"name":"initialize","outputs":[],"stateMutability":"nonpayable","type":"function"},{"inputs":[],"name":"platformBuffer","outputs":[{"internalType":"uint256","name":"","type":"uint256"}],"stateMutability":"view","type":"function"},{"inputs":[],"name":"platformWallet","outputs":[{"internalType":"address","name":"","type":"address"}],"stateMutability":"view","type":"function"},{"inputs":[],"name":"protocolVault","outputs":[{"internalType":"address","name":"","type":"address"}],"stateMutability":"view","type":"function"},{"inputs":[],"name":"raidActive","outputs":[{"internalType":"bool","name":"","type":"bool"}],"stateMutability":"view","type":"function"},{"inputs":[],"name":"realETH","outputs":[{"internalType":"uint256","name":"","type":"uint256"}],"stateMutability":"view","type":"function"},{"inputs":[{"internalType":"address","name":"","type":"address"}],"name":"referralEarned","outputs":[{"internalType":"uint256","name":"","type":"uint256"}],"stateMutability":"view","type":"function"},{"inputs":[{"internalType":"address","name":"","type":"address"}],"name":"referrer","outputs":[{"internalType":"address","name":"","type":"address"}],"stateMutability":"view","type":"function"},{"inputs":[],"name":"resetRaid","outputs":[],"stateMutability":"nonpayable","type":"function"},{"inputs":[{"internalType":"uint256","name":"tokensIn","type":"uint256"},{"internalType":"uint256","name":"minETHOut","type":"uint256"}],"name":"sell","outputs":[],"stateMutability":"nonpayable","type":"function"},{"inputs":[{"internalType":"uint256","name":"tokensIn","type":"uint256"}],"name":"sellQuote","outputs":[{"internalType":"uint256","name":"ethOut","type":"uint256"},{"internalType":"uint256","name":"fee","type":"uint256"}],"stateMutability":"view","type":"function"},{"inputs":[],"name":"token","outputs":[{"internalType":"address","name":"","type":"address"}],"stateMutability":"view","type":"function"},{"inputs":[],"name":"virtualETH","outputs":[{"internalType":"uint256","name":"","type":"uint256"}],"stateMutability":"view","type":"function"},{"inputs":[],"name":"virtualTokens","outputs":[{"internalType":"uint256","name":"","type":"uint256"}],"stateMutability":"view","type":"function"},{"inputs":[],"name":"warChest","outputs":[{"internalType":"address","name":"","type":"address"}],"stateMutability":"view","type":"function"},{"inputs":[],"name":"window3minStart","outputs":[{"internalType":"uint256","name":"","type":"uint256"}],"stateMutability":"view","type":"function"},{"inputs":[],"name":"window90sStart","outputs":[{"internalType":"uint256","name":"","type":"uint256"}],"stateMutability":"view","type":"function"},{"stateMutability":"payable","type":"receive"}],"evm":{"bytecode":{"linkReferences":{},"object":"608080604052346100315766354a6ba7a180006007556b037790a0e8714009b49c000060085561148990816100378239f35b600080fdfe6080604081815260049182361015610022575b505050361561002057600080fd5b005b600092833560e01c91826302d05d3f1461106f575081630f54f39a1461104c57816311d8c0ec1461102d578163168585e514610fd25781631ce6d4ce14610fab5781631d3dad0914610f8c5781631e4c729214610f665781632347e36d14610f475781632cf003c214610f0c5781632dd9e54d14610ee857816331cd617914610eb05781633587647614610dc457816345904567146105ba5781634fbcad6a14610da55781635a9249e614610d7d57816366fab57c146105bf578163670171fd14610d57578163751f2f0514610d2e57816376edb6f414610d0b5781637deb60251461073057816386133f2a146106f8578163878fa42f146106d95781639731aa2e1461025a5781639ba6631b146106a15781639d1b464a14610657578163a1908e1014610635578163a3ec191a14610616578163bb22e371146105ed578163c45a0155146105c4578163cc0c3039146105bf578163ce91e164146105ba578163d79875eb14610345578163d7a2e4c9146102be57508063dd5e6f42146102a0578063dec5f9aa14610282578063e7c2b7721461025f578063f43645151461025a578063f771e64c1461023c578063fa2af9da146102145763fc0c546a146101ea5780610012565b34610210578160031936011261021057905490516001600160a01b039091168152602090f35b5080fd5b503461021057816003193601126102105760035490516001600160a01b039091168152602090f35b5034610210578160031936011261021057602090600e549051908152f35b611104565b503461021057816003193601126102105760209060ff600c541690519015158152f35b5034610210578160031936011261021057602090600a549051908152f35b50346102105781600319360112610210576020906010549051908152f35b83915034610210576020366003190112610210576103006007546102fa6008546102f46102eb8285611120565b91863590611176565b90611149565b90611169565b9160c883029183830460c8148415171561033257505061271061032591048092611169565b9082519182526020820152f35b634e487b7160e01b825260119052602490fd5b919050346105b657806003193601126105b65782823591600c549360ff8560081c166105b65761ff001985811661010017600c559460ff166105b65783156105b657825482516323b872dd60e01b81523381840152306024820152604481018690526020946001600160a01b03939286918391606491839188165af19081156105ac57889161057f575b501561054a5760075491600854916104056103fe6103f7896103f18789611120565b96611176565b8095611149565b8095611169565b6064810281810460641482151715610537576127109004936104308561042b8185611169565b611169565b9561043f602435881015611183565b600a549361044d8547611169565b88116104fb57509261047361047b93879695936104a79894600755600855600954611169565b600955611176565b600a5561048c82826002541661140e565b600a54806104e3575b50506104a1833361140e565b80611176565b9282519485528401528201527f846c37eef631e0943682d87352ec117c20008eb7f425c9b85ac011a6d4774cc060603392a2600c5416600c5580f35b6104f4918a600a556003541661140e565b3880610495565b885162461bcd60e51b81529081018a90526016602482015275496e73756666696369656e74206c697175696469747960501b6044820152606490fd5b634e487b7160e01b8b526011835260248bfd5b825162461bcd60e51b8152908101849052600f60248201526e151c985b9cd9995c8819985a5b1959608a1b6044820152606490fd5b61059f9150853d87116105a5575b61059781836111ba565b8101906111f3565b386103cf565b503d61058d565b84513d8a823e3d90fd5b8280fd5b6110c5565b6110e1565b50503461021057816003193601126102105760065490516001600160a01b039091168152602090f35b50503461021057816003193601126102105760055490516001600160a01b039091168152602090f35b505034610210578160031936011261021057602090600b549051908152f35b5050346102105781600319360112610210576020905166354a6ba7a180008152f35b82843461069e578060031936011261069e5760075492670de0b6b3a764000093848102948186041490151715610332576020836106978660085490611149565b9051908152f35b80fd5b833461069e578060031936011261069e57600a54801561021057600a8290556003546106d691906001600160a01b031661140e565b80f35b5050346102105781600319360112610210576020906009549051908152f35b833461069e578060031936011261069e576006546001600160a01b0316330361069e5760ff196011541660115580600d5580600f5580f35b838380600319360112610210576107456110af565b600c9182549160ff8360081c16610d075761ff00198381166101001785559260ff16610d07573415610d0757600b54431115610cd7576001546001600160a01b03919082163314610ca15760c834029034820460c803610c8e576127108092049160643402348104606403610c435781859104921680151580610c84575b15610c6b57338952601260205285892090815486811615610c56575b5050503460011b348104600203610c4357610857929161084f91049161084561080c8461042b8489611169565b93338c52601260205287898d2054168c526013602052888c20610830828254611176565b9055338c52601260205287898d20541661140e565b856001541661140e565b600a54611176565b600a556108648134611169565b600754906008549161089461088d610886846108808786611120565b94611176565b8093611149565b8094611169565b926108a28b35851015611183565b600954916108b08484611176565b66354a6ba7a180008101809111610c30576729d76e869dcd800010610bfc576007556008556108df9190611176565b60095580838854169285518a8163a9059cbb60e01b96878252818d8161090c60209a8b973390840161120b565b03925af1908115610bf2578a91610bd5575b5015610b9a5761092d34611226565b3389526012835284868a20541690865192348452848401528683015260608201527f678bff21967f2f3a09540ac4650c6827fff735b884ee0cede358697f4fbfaf8460803392a26729a2241af62c00006009541015610993575b50505050815416905580f35b855460ff19166001178655600a5480610b82575b506109b58360015416611396565b6109c28360035416611396565b865484516370a0823160e01b8152308a820152929084168284602481845afa938415610b78578994610b43575b50839183918b8b8882541693610a108b51978896879586948552840161120b565b03925af1908115610adb578891610b26575b5015610ae9578288541692875416833b15610ae5578783918a610a55885194859384936256688760e81b8552840161120b565b03816722b1c8c1227a000080985af18015610adb57610aab575b507facfdce92da76539f5af2efc3aa76d42a7a92af4d723a23d144f58fdf1472921e94959697508351928352820152a190829184808080610987565b9096906001600160401b038111610ac85784529596508688610a6f565b634e487b7160e01b825260418952602482fd5b85513d8a823e3d90fd5b8780fd5b8760649185519162461bcd60e51b835282015260186024820152771314081d1bdad95b881d1c985b9cd9995c8819985a5b195960421b6044820152fd5b610b3d9150823d84116105a55761059781836111ba565b89610a22565b909193508281813d8311610b71575b610b5c81836111ba565b81010312610b6d57519290826109ef565b8880fd5b503d610b52565b86513d8b823e3d90fd5b610b949088600a55846003541661140e565b886109a7565b855162461bcd60e51b8152808b018490526015602482015274151bdad95b881d1c985b9cd9995c8819985a5b1959605a1b6044820152606490fd5b610bec9150843d86116105a55761059781836111ba565b8b61091e565b87513d8c823e3d90fd5b875162461bcd60e51b81526020818e0152600e60248201526d4578636565647320737570706c7960901b6044820152606490fd5b634e487b7160e01b8c5260118d5260248cfd5b634e487b7160e01b895260118a52602489fd5b6001600160a01b0319161790558980806107df565b50508061084f610c7e6108579385611169565b91610845565b50338114156107c3565b634e487b7160e01b875260118852602487fd5b825162461bcd60e51b8152602081890152601060248201526f43726561746f722063616e742062757960801b6044820152606490fd5b815162461bcd60e51b8152602081880152600a60248201526953616d6520626c6f636b60b01b6044820152606490fd5b8480fd5b505034610210578160031936011261021057602090516722b1c8c1227a00008152f35b50503461021057816003193601126102105760025490516001600160a01b039091168152602090f35b505034610210578160031936011261021057602090516aa56fa5b99019a5c80000008152f35b9050346105b657826003193601126105b6575490516001600160a01b03909116815260209150f35b505034610210578160031936011261021057602090600d549051908152f35b8390346102105760e036600319011261021057610ddf611094565b90610de86110af565b916001600160a01b0391604435838116929190839003610eac57606435848116809103610ea85760843590858216809203610ae55760a43594868616809603610b6d5760c43596808816809803610ea4576006549860ff8a60a01c16610ea0578160018060a01b03199716878c5416178b5516856001541617600155846002541617600255836003541617600355828254161790556005541617600555600160a01b9160018060a81b031916171760065543600b5580f35b8a80fd5b8980fd5b8680fd5b8580fd5b5050346102105760203660031901126102105760209181906001600160a01b03610ed8611094565b1681526013845220549051908152f35b50503461021057816003193601126102105760209060ff6011541690519015158152f35b505034610210576020366003190112610210576020916001600160a01b0390829082610f36611094565b168152601285522054169051908152f35b505034610210578160031936011261021057602090600f549051908152f35b505034610210578160031936011261021057516714adf4b7320334b9601d1b8152602090f35b5050346102105781600319360112610210576020906008549051908152f35b505034610210578160031936011261021057602090516b037790a0e8714009b49c00008152f35b839150346102105760203660031901126102105780359160c883029183830460c8148415171561033257505061101061271061032592048093611169565b6102fa6007546102f4600854936110278584611120565b92611176565b5050346102105781600319360112610210576020906007549051908152f35b505034610210578160031936011261021057602090516729a2241af62c00008152f35b8490346102105781600319360112610210576001546001600160a01b03168152602090f35b600435906001600160a01b03821682036110aa57565b600080fd5b602435906001600160a01b03821682036110aa57565b346110aa5760003660031901126110aa57602060405160648152f35b346110aa5760003660031901126110aa5760206040516703782dace9d900008152f35b346110aa5760003660031901126110aa57602060405160c88152f35b8181029291811591840414171561113357565b634e487b7160e01b600052601160045260246000fd5b8115611153570490565b634e487b7160e01b600052601260045260246000fd5b9190820391821161113357565b9190820180921161113357565b1561118a57565b60405162461bcd60e51b8152602060048201526008602482015267536c69707061676560c01b6044820152606490fd5b601f909101601f19168101906001600160401b038211908210176111dd57604052565b634e487b7160e01b600052604160045260246000fd5b908160209103126110aa575180151581036110aa5790565b6001600160a01b039091168152602081019190915260400190565b60119081549060ff821661139157600e54605a810180911161136e574211611383575b600d54600019811461136e576001019081600d5560105460b481018091116113595760059161128191421161134b575b600f54611176565b600f81905591106112e2575050600160ff198254161790557e6ee82c7de77522824cfbe8e8838de5fd938f53875077e886c8665d7f0a4d04606060405160208152600d60208201526c35206275797320696e2039307360981b6040820152a1565b6706f05b59d3b2000011156112f6575b5050565b60019060ff19161790557e6ee82c7de77522824cfbe8e8838de5fd938f53875077e886c8665d7f0a4d04606060405160208152600f60208201526e18171a9022aa241034b71019b6b4b760891b6040820152a1565b6000600f5542601055611279565b84634e487b7160e01b60005260045260246000fd5b83634e487b7160e01b60005260045260246000fd5b6000600d5542600e55611249565b505050565b60009081908190819081906703782dace9d90000906001600160a01b03165af13d15611409573d6001600160401b0381116113f557604051906113e3601f8201601f1916602001836111ba565b81528260203d92013e5b1561069e5750565b634e487b7160e01b83526041600452602483fd5b6113ed565b81156112f257600080808094819460018060a01b03165af13d15611409573d6001600160401b0381116113f557604051906113e3601f8201601f1916602001836111ba56fea26469706673582212208b52832b0803ef7ea998bad7ca7ae496c98800c4952822613c3af5fe3baff4a564736f6c63430008140033","opcodes":"PUSH1 0x80 DUP1 PUSH1 0x40 MSTORE CALLVALUE PUSH2 0x31 JUMPI PUSH7 0x354A6BA7A18000 PUSH1 0x7 SSTORE PUSH12 0x37790A0E8714009B49C0000 PUSH1 0x8 SSTORE PUSH2 0x1489 SWAP1 DUP2 PUSH2 0x37 DUP3 CODECOPY RETURN JUMPDEST PUSH1 0x0 DUP1 REVERT INVALID PUSH1 0x80 PUSH1 0x40 DUP2 DUP2 MSTORE PUSH1 0x4 SWAP2 DUP3 CALLDATASIZE LT ISZERO PUSH2 0x22 JUMPI JUMPDEST POP POP POP CALLDATASIZE ISZERO PUSH2 0x20 JUMPI PUSH1 0x0 DUP1 REVERT JUMPDEST STOP JUMPDEST PUSH1 0x0 SWAP3 DUP4 CALLDATALOAD PUSH1 0xE0 SHR SWAP2 DUP3 PUSH4 0x2D05D3F EQ PUSH2 0x106F JUMPI POP DUP2 PUSH4 0xF54F39A EQ PUSH2 0x104C JUMPI DUP2 PUSH4 0x11D8C0EC EQ PUSH2 0x102D JUMPI DUP2 PUSH4 0x168585E5 EQ PUSH2 0xFD2 JUMPI DUP2 PUSH4 0x1CE6D4CE EQ PUSH2 0xFAB JUMPI DUP2 PUSH4 0x1D3DAD09 EQ PUSH2 0xF8C JUMPI DUP2 PUSH4 0x1E4C7292 EQ PUSH2 0xF66 JUMPI DUP2 PUSH4 0x2347E36D EQ PUSH2 0xF47 JUMPI DUP2 PUSH4 0x2CF003C2 EQ PUSH2 0xF0C JUMPI DUP2 PUSH4 0x2DD9E54D EQ PUSH2 0xEE8 JUMPI DUP2 PUSH4 0x31CD6179 EQ PUSH2 0xEB0 JUMPI DUP2 PUSH4 0x35876476 EQ PUSH2 0xDC4 JUMPI DUP2 PUSH4 0x45904567 EQ PUSH2 0x5BA JUMPI DUP2 PUSH4 0x4FBCAD6A EQ PUSH2 0xDA5 JUMPI DUP2 PUSH4 0x5A9249E6 EQ PUSH2 0xD7D JUMPI DUP2 PUSH4 0x66FAB57C EQ PUSH2 0x5BF JUMPI DUP2 PUSH4 0x670171FD EQ PUSH2 0xD57 JUMPI DUP2 PUSH4 0x751F2F05 EQ PUSH2 0xD2E JUMPI DUP2 PUSH4 0x76EDB6F4 EQ PUSH2 0xD0B JUMPI DUP2 PUSH4 0x7DEB6025 EQ PUSH2 0x730 JUMPI DUP2 PUSH4 0x86133F2A EQ PUSH2 0x6F8 JUMPI DUP2 PUSH4 0x878FA42F EQ PUSH2 0x6D9 JUMPI DUP2 PUSH4 0x9731AA2E EQ PUSH2 0x25A JUMPI DUP2 PUSH4 0x9BA6631B EQ PUSH2 0x6A1 JUMPI DUP2 PUSH4 0x9D1B464A EQ PUSH2 0x657 JUMPI DUP2 PUSH4 0xA1908E10 EQ PUSH2 0x635 JUMPI DUP2 PUSH4 0xA3EC191A EQ PUSH2 0x616 JUMPI DUP2 PUSH4 0xBB22E371 EQ PUSH2 0x5ED JUMPI DUP2 PUSH4 0xC45A0155 EQ PUSH2 0x5C4 JUMPI DUP2 PUSH4 0xCC0C3039 EQ PUSH2 0x5BF JUMPI DUP2 PUSH4 0xCE91E164 EQ PUSH2 0x5BA JUMPI DUP2 PUSH4 0xD79875EB EQ PUSH2 0x345 JUMPI DUP2 PUSH4 0xD7A2E4C9 EQ PUSH2 0x2BE JUMPI POP DUP1 PUSH4 0xDD5E6F42 EQ PUSH2 0x2A0 JUMPI DUP1 PUSH4 0xDEC5F9AA EQ PUSH2 0x282 JUMPI DUP1 PUSH4 0xE7C2B772 EQ PUSH2 0x25F JUMPI DUP1 PUSH4 0xF4364515 EQ PUSH2 0x25A JUMPI DUP1 PUSH4 0xF771E64C EQ PUSH2 0x23C JUMPI DUP1 PUSH4 0xFA2AF9DA EQ PUSH2 0x214 JUMPI PUSH4 0xFC0C546A EQ PUSH2 0x1EA JUMPI DUP1 PUSH2 0x12 JUMP JUMPDEST CALLVALUE PUSH2 0x210 JUMPI DUP2 PUSH1 0x3 NOT CALLDATASIZE ADD SLT PUSH2 0x210 JUMPI SWAP1 SLOAD SWAP1 MLOAD PUSH1 0x1 PUSH1 0x1 PUSH1 0xA0 SHL SUB SWAP1 SWAP2 AND DUP2 MSTORE PUSH1 0x20 SWAP1 RETURN JUMPDEST POP DUP1 REVERT JUMPDEST POP CALLVALUE PUSH2 0x210 JUMPI DUP2 PUSH1 0x3 NOT CALLDATASIZE ADD SLT PUSH2 0x210 JUMPI PUSH1 0x3 SLOAD SWAP1 MLOAD PUSH1 0x1 PUSH1 0x1 PUSH1 0xA0 SHL SUB SWAP1 SWAP2 AND DUP2 MSTORE PUSH1 0x20 SWAP1 RETURN JUMPDEST POP CALLVALUE PUSH2 0x210 JUMPI DUP2 PUSH1 0x3 NOT CALLDATASIZE ADD SLT PUSH2 0x210 JUMPI PUSH1 0x20 SWAP1 PUSH1 0xE SLOAD SWAP1 MLOAD SWAP1 DUP2 MSTORE RETURN JUMPDEST PUSH2 0x1104 JUMP JUMPDEST POP CALLVALUE PUSH2 0x210 JUMPI DUP2 PUSH1 0x3 NOT CALLDATASIZE ADD SLT PUSH2 0x210 JUMPI PUSH1 0x20 SWAP1 PUSH1 0xFF PUSH1 0xC SLOAD AND SWAP1 MLOAD SWAP1 ISZERO ISZERO DUP2 MSTORE RETURN JUMPDEST POP CALLVALUE PUSH2 0x210 JUMPI DUP2 PUSH1 0x3 NOT CALLDATASIZE ADD SLT PUSH2 0x210 JUMPI PUSH1 0x20 SWAP1 PUSH1 0xA SLOAD SWAP1 MLOAD SWAP1 DUP2 MSTORE RETURN JUMPDEST POP CALLVALUE PUSH2 0x210 JUMPI DUP2 PUSH1 0x3 NOT CALLDATASIZE ADD SLT PUSH2 0x210 JUMPI PUSH1 0x20 SWAP1 PUSH1 0x10 SLOAD SWAP1 MLOAD SWAP1 DUP2 MSTORE RETURN JUMPDEST DUP4 SWAP2 POP CALLVALUE PUSH2 0x210 JUMPI PUSH1 0x20 CALLDATASIZE PUSH1 0x3 NOT ADD SLT PUSH2 0x210 JUMPI PUSH2 0x300 PUSH1 0x7 SLOAD PUSH2 0x2FA PUSH1 0x8 SLOAD PUSH2 0x2F4 PUSH2 0x2EB DUP3 DUP6 PUSH2 0x1120 JUMP JUMPDEST SWAP2 DUP7 CALLDATALOAD SWAP1 PUSH2 0x1176 JUMP JUMPDEST SWAP1 PUSH2 0x1149 JUMP JUMPDEST SWAP1 PUSH2 0x1169 JUMP JUMPDEST SWAP2 PUSH1 0xC8 DUP4 MUL SWAP2 DUP4 DUP4 DIV PUSH1 0xC8 EQ DUP5 ISZERO OR ISZERO PUSH2 0x332 JUMPI POP POP PUSH2 0x2710 PUSH2 0x325 SWAP2 DIV DUP1 SWAP3 PUSH2 0x1169 JUMP JUMPDEST SWAP1 DUP3 MLOAD SWAP2 DUP3 MSTORE PUSH1 0x20 DUP3 ADD MSTORE RETURN JUMPDEST PUSH4 0x4E487B71 PUSH1 0xE0 SHL DUP3 MSTORE PUSH1 0x11 SWAP1 MSTORE PUSH1 0x24 SWAP1 REVERT JUMPDEST SWAP2 SWAP1 POP CALLVALUE PUSH2 0x5B6 JUMPI DUP1 PUSH1 0x3 NOT CALLDATASIZE ADD SLT PUSH2 0x5B6 JUMPI DUP3 DUP3 CALLDATALOAD SWAP2 PUSH1 0xC SLOAD SWAP4 PUSH1 0xFF DUP6 PUSH1 0x8 SHR AND PUSH2 0x5B6 JUMPI PUSH2 0xFF00 NOT DUP6 DUP2 AND PUSH2 0x100 OR PUSH1 0xC SSTORE SWAP5 PUSH1 0xFF AND PUSH2 0x5B6 JUMPI DUP4 ISZERO PUSH2 0x5B6 JUMPI DUP3 SLOAD DUP3 MLOAD PUSH4 0x23B872DD PUSH1 0xE0 SHL DUP2 MSTORE CALLER DUP2 DUP5 ADD MSTORE ADDRESS PUSH1 0x24 DUP3 ADD MSTORE PUSH1 0x44 DUP2 ADD DUP7 SWAP1 MSTORE PUSH1 0x20 SWAP5 PUSH1 0x1 PUSH1 0x1 PUSH1 0xA0 SHL SUB SWAP4 SWAP3 DUP7 SWAP2 DUP4 SWAP2 PUSH1 0x64 SWAP2 DUP4 SWAP2 DUP9 AND GAS CALL SWAP1 DUP2 ISZERO PUSH2 0x5AC JUMPI DUP9 SWAP2 PUSH2 0x57F JUMPI JUMPDEST POP ISZERO PUSH2 0x54A JUMPI PUSH1 0x7 SLOAD SWAP2 PUSH1 0x8 SLOAD SWAP2 PUSH2 0x405 PUSH2 0x3FE PUSH2 0x3F7 DUP10 PUSH2 0x3F1 DUP8 DUP10 PUSH2 0x1120 JUMP JUMPDEST SWAP7 PUSH2 0x1176 JUMP JUMPDEST DUP1 SWAP6 PUSH2 0x1149 JUMP JUMPDEST DUP1 SWAP6 PUSH2 0x1169 JUMP JUMPDEST PUSH1 0x64 DUP2 MUL DUP2 DUP2 DIV PUSH1 0x64 EQ DUP3 ISZERO OR ISZERO PUSH2 0x537 JUMPI PUSH2 0x2710 SWAP1 DIV SWAP4 PUSH2 0x430 DUP6 PUSH2 0x42B DUP2 DUP6 PUSH2 0x1169 JUMP JUMPDEST PUSH2 0x1169 JUMP JUMPDEST SWAP6 PUSH2 0x43F PUSH1 0x24 CALLDATALOAD DUP9 LT ISZERO PUSH2 0x1183 JUMP JUMPDEST PUSH1 0xA SLOAD SWAP4 PUSH2 0x44D DUP6 SELFBALANCE PUSH2 0x1169 JUMP JUMPDEST DUP9 GT PUSH2 0x4FB JUMPI POP SWAP3 PUSH2 0x473 PUSH2 0x47B SWAP4 DUP8 SWAP7 SWAP6 SWAP4 PUSH2 0x4A7 SWAP9 SWAP5 PUSH1 0x7 SSTORE PUSH1 0x8 SSTORE PUSH1 0x9 SLOAD PUSH2 0x1169 JUMP JUMPDEST PUSH1 0x9 SSTORE PUSH2 0x1176 JUMP JUMPDEST PUSH1 0xA SSTORE PUSH2 0x48C DUP3 DUP3 PUSH1 0x2 SLOAD AND PUSH2 0x140E JUMP JUMPDEST PUSH1 0xA SLOAD DUP1 PUSH2 0x4E3 JUMPI JUMPDEST POP POP PUSH2 0x4A1 DUP4 CALLER PUSH2 0x140E JUMP JUMPDEST DUP1 PUSH2 0x1176 JUMP JUMPDEST SWAP3 DUP3 MLOAD SWAP5 DUP6 MSTORE DUP5 ADD MSTORE DUP3 ADD MSTORE PUSH32 0x846C37EEF631E0943682D87352EC117C20008EB7F425C9B85AC011A6D4774CC0 PUSH1 0x60 CALLER SWAP3 LOG2 PUSH1 0xC SLOAD AND PUSH1 0xC SSTORE DUP1 RETURN JUMPDEST PUSH2 0x4F4 SWAP2 DUP11 PUSH1 0xA SSTORE PUSH1 0x3 SLOAD AND PUSH2 0x140E JUMP JUMPDEST CODESIZE DUP1 PUSH2 0x495 JUMP JUMPDEST DUP9 MLOAD PUSH3 0x461BCD PUSH1 0xE5 SHL DUP2 MSTORE SWAP1 DUP2 ADD DUP11 SWAP1 MSTORE PUSH1 0x16 PUSH1 0x24 DUP3 ADD MSTORE PUSH22 0x496E73756666696369656E74206C6971756964697479 PUSH1 0x50 SHL PUSH1 0x44 DUP3 ADD MSTORE PUSH1 0x64 SWAP1 REVERT JUMPDEST PUSH4 0x4E487B71 PUSH1 0xE0 SHL DUP12 MSTORE PUSH1 0x11 DUP4 MSTORE PUSH1 0x24 DUP12 REVERT JUMPDEST DUP3 MLOAD PUSH3 0x461BCD PUSH1 0xE5 SHL DUP2 MSTORE SWAP1 DUP2 ADD DUP5 SWAP1 MSTORE PUSH1 0xF PUSH1 0x24 DUP3 ADD MSTORE PUSH15 0x151C985B9CD9995C8819985A5B1959 PUSH1 0x8A SHL PUSH1 0x44 DUP3 ADD MSTORE PUSH1 0x64 SWAP1 REVERT JUMPDEST PUSH2 0x59F SWAP2 POP DUP6 RETURNDATASIZE DUP8 GT PUSH2 0x5A5 JUMPI JUMPDEST PUSH2 0x597 DUP2 DUP4 PUSH2 0x11BA JUMP JUMPDEST DUP2 ADD SWAP1 PUSH2 0x11F3 JUMP JUMPDEST CODESIZE PUSH2 0x3CF JUMP JUMPDEST POP RETURNDATASIZE PUSH2 0x58D JUMP JUMPDEST DUP5 MLOAD RETURNDATASIZE DUP11 DUP3 RETURNDATACOPY RETURNDATASIZE SWAP1 REVERT JUMPDEST DUP3 DUP1 REVERT JUMPDEST PUSH2 0x10C5 JUMP JUMPDEST PUSH2 0x10E1 JUMP JUMPDEST POP POP CALLVALUE PUSH2 0x210 JUMPI DUP2 PUSH1 0x3 NOT CALLDATASIZE ADD SLT PUSH2 0x210 JUMPI PUSH1 0x6 SLOAD SWAP1 MLOAD PUSH1 0x1 PUSH1 0x1 PUSH1 0xA0 SHL SUB SWAP1 SWAP2 AND DUP2 MSTORE PUSH1 0x20 SWAP1 RETURN JUMPDEST POP POP CALLVALUE PUSH2 0x210 JUMPI DUP2 PUSH1 0x3 NOT CALLDATASIZE ADD SLT PUSH2 0x210 JUMPI PUSH1 0x5 SLOAD SWAP1 MLOAD PUSH1 0x1 PUSH1 0x1 PUSH1 0xA0 SHL SUB SWAP1 SWAP2 AND DUP2 MSTORE PUSH1 0x20 SWAP1 RETURN JUMPDEST POP POP CALLVALUE PUSH2 0x210 JUMPI DUP2 PUSH1 0x3 NOT CALLDATASIZE ADD SLT PUSH2 0x210 JUMPI PUSH1 0x20 SWAP1 PUSH1 0xB SLOAD SWAP1 MLOAD SWAP1 DUP2 MSTORE RETURN JUMPDEST POP POP CALLVALUE PUSH2 0x210 JUMPI DUP2 PUSH1 0x3 NOT CALLDATASIZE ADD SLT PUSH2 0x210 JUMPI PUSH1 0x20 SWAP1 MLOAD PUSH7 0x354A6BA7A18000 DUP2 MSTORE RETURN JUMPDEST DUP3 DUP5 CALLVALUE PUSH2 0x69E JUMPI DUP1 PUSH1 0x3 NOT CALLDATASIZE ADD SLT PUSH2 0x69E JUMPI PUSH1 0x7 SLOAD SWAP3 PUSH8 0xDE0B6B3A7640000 SWAP4 DUP5 DUP2 MUL SWAP5 DUP2 DUP7 DIV EQ SWAP1 ISZERO OR ISZERO PUSH2 0x332 JUMPI PUSH1 0x20 DUP4 PUSH2 0x697 DUP7 PUSH1 0x8 SLOAD SWAP1 PUSH2 0x1149 JUMP JUMPDEST SWAP1 MLOAD SWAP1 DUP2 MSTORE RETURN JUMPDEST DUP1 REVERT JUMPDEST DUP4 CALLVALUE PUSH2 0x69E JUMPI DUP1 PUSH1 0x3 NOT CALLDATASIZE ADD SLT PUSH2 0x69E JUMPI PUSH1 0xA SLOAD DUP1 ISZERO PUSH2 0x210 JUMPI PUSH1 0xA DUP3 SWAP1 SSTORE PUSH1 0x3 SLOAD PUSH2 0x6D6 SWAP2 SWAP1 PUSH1 0x1 PUSH1 0x1 PUSH1 0xA0 SHL SUB AND PUSH2 0x140E JUMP JUMPDEST DUP1 RETURN JUMPDEST POP POP CALLVALUE PUSH2 0x210 JUMPI DUP2 PUSH1 0x3 NOT CALLDATASIZE ADD SLT PUSH2 0x210 JUMPI PUSH1 0x20 SWAP1 PUSH1 0x9 SLOAD SWAP1 MLOAD SWAP1 DUP2 MSTORE RETURN JUMPDEST DUP4 CALLVALUE PUSH2 0x69E JUMPI DUP1 PUSH1 0x3 NOT CALLDATASIZE ADD SLT PUSH2 0x69E JUMPI PUSH1 0x6 SLOAD PUSH1 0x1 PUSH1 0x1 PUSH1 0xA0 SHL SUB AND CALLER SUB PUSH2 0x69E JUMPI PUSH1 0xFF NOT PUSH1 0x11 SLOAD AND PUSH1 0x11 SSTORE DUP1 PUSH1 0xD SSTORE DUP1 PUSH1 0xF SSTORE DUP1 RETURN JUMPDEST DUP4 DUP4 DUP1 PUSH1 0x3 NOT CALLDATASIZE ADD SLT PUSH2 0x210 JUMPI PUSH2 0x745 PUSH2 0x10AF JUMP JUMPDEST PUSH1 0xC SWAP2 DUP3 SLOAD SWAP2 PUSH1 0xFF DUP4 PUSH1 0x8 SHR AND PUSH2 0xD07 JUMPI PUSH2 0xFF00 NOT DUP4 DUP2 AND PUSH2 0x100 OR DUP6 SSTORE SWAP3 PUSH1 0xFF AND PUSH2 0xD07 JUMPI CALLVALUE ISZERO PUSH2 0xD07 JUMPI PUSH1 0xB SLOAD NUMBER GT ISZERO PUSH2 0xCD7 JUMPI PUSH1 0x1 SLOAD PUSH1 0x1 PUSH1 0x1 PUSH1 0xA0 SHL SUB SWAP2 SWAP1 DUP3 AND CALLER EQ PUSH2 0xCA1 JUMPI PUSH1 0xC8 CALLVALUE MUL SWAP1 CALLVALUE DUP3 DIV PUSH1 0xC8 SUB PUSH2 0xC8E JUMPI PUSH2 0x2710 DUP1 SWAP3 DIV SWAP2 PUSH1 0x64 CALLVALUE MUL CALLVALUE DUP2 DIV PUSH1 0x64 SUB PUSH2 0xC43 JUMPI DUP2 DUP6 SWAP2 DIV SWAP3 AND DUP1 ISZERO ISZERO DUP1 PUSH2 0xC84 JUMPI JUMPDEST ISZERO PUSH2 0xC6B JUMPI CALLER DUP10 MSTORE PUSH1 0x12 PUSH1 0x20 MSTORE DUP6 DUP10 KECCAK256 SWAP1 DUP2 SLOAD DUP7 DUP2 AND ISZERO PUSH2 0xC56 JUMPI JUMPDEST POP POP POP CALLVALUE PUSH1 0x1 SHL CALLVALUE DUP2 DIV PUSH1 0x2 SUB PUSH2 0xC43 JUMPI PUSH2 0x857 SWAP3 SWAP2 PUSH2 0x84F SWAP2 DIV SWAP2 PUSH2 0x845 PUSH2 0x80C DUP5 PUSH2 0x42B DUP5 DUP10 PUSH2 0x1169 JUMP JUMPDEST SWAP4 CALLER DUP13 MSTORE PUSH1 0x12 PUSH1 0x20 MSTORE DUP8 DUP10 DUP14 KECCAK256 SLOAD AND DUP13 MSTORE PUSH1 0x13 PUSH1 0x20 MSTORE DUP9 DUP13 KECCAK256 PUSH2 0x830 DUP3 DUP3 SLOAD PUSH2 0x1176 JUMP JUMPDEST SWAP1 SSTORE CALLER DUP13 MSTORE PUSH1 0x12 PUSH1 0x20 MSTORE DUP8 DUP10 DUP14 KECCAK256 SLOAD AND PUSH2 0x140E JUMP JUMPDEST DUP6 PUSH1 0x1 SLOAD AND PUSH2 0x140E JUMP JUMPDEST PUSH1 0xA SLOAD PUSH2 0x1176 JUMP JUMPDEST PUSH1 0xA SSTORE PUSH2 0x864 DUP2 CALLVALUE PUSH2 0x1169 JUMP JUMPDEST PUSH1 0x7 SLOAD SWAP1 PUSH1 0x8 SLOAD SWAP2 PUSH2 0x894 PUSH2 0x88D PUSH2 0x886 DUP5 PUSH2 0x880 DUP8 DUP7 PUSH2 0x1120 JUMP JUMPDEST SWAP5 PUSH2 0x1176 JUMP JUMPDEST DUP1 SWAP4 PUSH2 0x1149 JUMP JUMPDEST DUP1 SWAP5 PUSH2 0x1169 JUMP JUMPDEST SWAP3 PUSH2 0x8A2 DUP12 CALLDATALOAD DUP6 LT ISZERO PUSH2 0x1183 JUMP JUMPDEST PUSH1 0x9 SLOAD SWAP2 PUSH2 0x8B0 DUP5 DUP5 PUSH2 0x1176 JUMP JUMPDEST PUSH7 0x354A6BA7A18000 DUP2 ADD DUP1 SWAP2 GT PUSH2 0xC30 JUMPI PUSH8 0x29D76E869DCD8000 LT PUSH2 0xBFC JUMPI PUSH1 0x7 SSTORE PUSH1 0x8 SSTORE PUSH2 0x8DF SWAP2 SWAP1 PUSH2 0x1176 JUMP JUMPDEST PUSH1 0x9 SSTORE DUP1 DUP4 DUP9 SLOAD AND SWAP3 DUP6 MLOAD DUP11 DUP2 PUSH4 0xA9059CBB PUSH1 0xE0 SHL SWAP7 DUP8 DUP3 MSTORE DUP2 DUP14 DUP2 PUSH2 0x90C PUSH1 0x20 SWAP11 DUP12 SWAP8 CALLER SWAP1 DUP5 ADD PUSH2 0x120B JUMP JUMPDEST SUB SWAP3 GAS CALL SWAP1 DUP2 ISZERO PUSH2 0xBF2 JUMPI DUP11 SWAP2 PUSH2 0xBD5 JUMPI JUMPDEST POP ISZERO PUSH2 0xB9A JUMPI PUSH2 0x92D CALLVALUE PUSH2 0x1226 JUMP JUMPDEST CALLER DUP10 MSTORE PUSH1 0x12 DUP4 MSTORE DUP5 DUP7 DUP11 KECCAK256 SLOAD AND SWAP1 DUP7 MLOAD SWAP3 CALLVALUE DUP5 MSTORE DUP5 DUP5 ADD MSTORE DUP7 DUP4 ADD MSTORE PUSH1 0x60 DUP3 ADD MSTORE PUSH32 0x678BFF21967F2F3A09540AC4650C6827FFF735B884EE0CEDE358697F4FBFAF84 PUSH1 0x80 CALLER SWAP3 LOG2 PUSH8 0x29A2241AF62C0000 PUSH1 0x9 SLOAD LT ISZERO PUSH2 0x993 JUMPI JUMPDEST POP POP POP POP DUP2 SLOAD AND SWAP1 SSTORE DUP1 RETURN JUMPDEST DUP6 SLOAD PUSH1 0xFF NOT AND PUSH1 0x1 OR DUP7 SSTORE PUSH1 0xA SLOAD DUP1 PUSH2 0xB82 JUMPI JUMPDEST POP PUSH2 0x9B5 DUP4 PUSH1 0x1 SLOAD AND PUSH2 0x1396 JUMP JUMPDEST PUSH2 0x9C2 DUP4 PUSH1 0x3 SLOAD AND PUSH2 0x1396 JUMP JUMPDEST DUP7 SLOAD DUP5 MLOAD PUSH4 0x70A08231 PUSH1 0xE0 SHL DUP2 MSTORE ADDRESS DUP11 DUP3 ADD MSTORE SWAP3 SWAP1 DUP5 AND DUP3 DUP5 PUSH1 0x24 DUP2 DUP5 GAS STATICCALL SWAP4 DUP5 ISZERO PUSH2 0xB78 JUMPI DUP10 SWAP5 PUSH2 0xB43 JUMPI JUMPDEST POP DUP4 SWAP2 DUP4 SWAP2 DUP12 DUP12 DUP9 DUP3 SLOAD AND SWAP4 PUSH2 0xA10 DUP12 MLOAD SWAP8 DUP9 SWAP7 DUP8 SWAP6 DUP7 SWAP5 DUP6 MSTORE DUP5 ADD PUSH2 0x120B JUMP JUMPDEST SUB SWAP3 GAS CALL SWAP1 DUP2 ISZERO PUSH2 0xADB JUMPI DUP9 SWAP2 PUSH2 0xB26 JUMPI JUMPDEST POP ISZERO PUSH2 0xAE9 JUMPI DUP3 DUP9 SLOAD AND SWAP3 DUP8 SLOAD AND DUP4 EXTCODESIZE ISZERO PUSH2 0xAE5 JUMPI DUP8 DUP4 SWAP2 DUP11 PUSH2 0xA55 DUP9 MLOAD SWAP5 DUP6 SWAP4 DUP5 SWAP4 PUSH3 0x566887 PUSH1 0xE8 SHL DUP6 MSTORE DUP5 ADD PUSH2 0x120B JUMP JUMPDEST SUB DUP2 PUSH8 0x22B1C8C1227A0000 DUP1 SWAP9 GAS CALL DUP1 ISZERO PUSH2 0xADB JUMPI PUSH2 0xAAB JUMPI JUMPDEST POP PUSH32 0xACFDCE92DA76539F5AF2EFC3AA76D42A7A92AF4D723A23D144F58FDF1472921E SWAP5 SWAP6 SWAP7 SWAP8 POP DUP4 MLOAD SWAP3 DUP4 MSTORE DUP3 ADD MSTORE LOG1 SWAP1 DUP3 SWAP2 DUP5 DUP1 DUP1 DUP1 PUSH2 0x987 JUMP JUMPDEST SWAP1 SWAP7 SWAP1 PUSH1 0x1 PUSH1 0x1 PUSH1 0x40 SHL SUB DUP2 GT PUSH2 0xAC8 JUMPI DUP5 MSTORE SWAP6 SWAP7 POP DUP7 DUP9 PUSH2 0xA6F JUMP JUMPDEST PUSH4 0x4E487B71 PUSH1 0xE0 SHL DUP3 MSTORE PUSH1 0x41 DUP10 MSTORE PUSH1 0x24 DUP3 REVERT JUMPDEST DUP6 MLOAD RETURNDATASIZE DUP11 DUP3 RETURNDATACOPY RETURNDATASIZE SWAP1 REVERT JUMPDEST DUP8 DUP1 REVERT JUMPDEST DUP8 PUSH1 0x64 SWAP2 DUP6 MLOAD SWAP2 PUSH3 0x461BCD PUSH1 0xE5 SHL DUP4 MSTORE DUP3 ADD MSTORE PUSH1 0x18 PUSH1 0x24 DUP3 ADD MSTORE PUSH24 0x1314081D1BDAD95B881D1C985B9CD9995C8819985A5B1959 PUSH1 0x42 SHL PUSH1 0x44 DUP3 ADD MSTORE REVERT JUMPDEST PUSH2 0xB3D SWAP2 POP DUP3 RETURNDATASIZE DUP5 GT PUSH2 0x5A5 JUMPI PUSH2 0x597 DUP2 DUP4 PUSH2 0x11BA JUMP JUMPDEST DUP10 PUSH2 0xA22 JUMP JUMPDEST SWAP1 SWAP2 SWAP4 POP DUP3 DUP2 DUP2 RETURNDATASIZE DUP4 GT PUSH2 0xB71 JUMPI JUMPDEST PUSH2 0xB5C DUP2 DUP4 PUSH2 0x11BA JUMP JUMPDEST DUP2 ADD SUB SLT PUSH2 0xB6D JUMPI MLOAD SWAP3 SWAP1 DUP3 PUSH2 0x9EF JUMP JUMPDEST DUP9 DUP1 REVERT JUMPDEST POP RETURNDATASIZE PUSH2 0xB52 JUMP JUMPDEST DUP7 MLOAD RETURNDATASIZE DUP12 DUP3 RETURNDATACOPY RETURNDATASIZE SWAP1 REVERT JUMPDEST PUSH2 0xB94 SWAP1 DUP9 PUSH1 0xA SSTORE DUP5 PUSH1 0x3 SLOAD AND PUSH2 0x140E JUMP JUMPDEST DUP9 PUSH2 0x9A7 JUMP JUMPDEST DUP6 MLOAD PUSH3 0x461BCD PUSH1 0xE5 SHL DUP2 MSTORE DUP1 DUP12 ADD DUP5 SWAP1 MSTORE PUSH1 0x15 PUSH1 0x24 DUP3 ADD MSTORE PUSH21 0x151BDAD95B881D1C985B9CD9995C8819985A5B1959 PUSH1 0x5A SHL PUSH1 0x44 DUP3 ADD MSTORE PUSH1 0x64 SWAP1 REVERT JUMPDEST PUSH2 0xBEC SWAP2 POP DUP5 RETURNDATASIZE DUP7 GT PUSH2 0x5A5 JUMPI PUSH2 0x597 DUP2 DUP4 PUSH2 0x11BA JUMP JUMPDEST DUP12 PUSH2 0x91E JUMP JUMPDEST DUP8 MLOAD RETURNDATASIZE DUP13 DUP3 RETURNDATACOPY RETURNDATASIZE SWAP1 REVERT JUMPDEST DUP8 MLOAD PUSH3 0x461BCD PUSH1 0xE5 SHL DUP2 MSTORE PUSH1 0x20 DUP2 DUP15 ADD MSTORE PUSH1 0xE PUSH1 0x24 DUP3 ADD MSTORE PUSH14 0x4578636565647320737570706C79 PUSH1 0x90 SHL PUSH1 0x44 DUP3 ADD MSTORE PUSH1 0x64 SWAP1 REVERT JUMPDEST PUSH4 0x4E487B71 PUSH1 0xE0 SHL DUP13 MSTORE PUSH1 0x11 DUP14 MSTORE PUSH1 0x24 DUP13 REVERT JUMPDEST PUSH4 0x4E487B71 PUSH1 0xE0 SHL DUP10 MSTORE PUSH1 0x11 DUP11 MSTORE PUSH1 0x24 DUP10 REVERT JUMPDEST PUSH1 0x1 PUSH1 0x1 PUSH1 0xA0 SHL SUB NOT AND OR SWAP1 SSTORE DUP10 DUP1 DUP1 PUSH2 0x7DF JUMP JUMPDEST POP POP DUP1 PUSH2 0x84F PUSH2 0xC7E PUSH2 0x857 SWAP4 DUP6 PUSH2 0x1169 JUMP JUMPDEST SWAP2 PUSH2 0x845 JUMP JUMPDEST POP CALLER DUP2 EQ ISZERO PUSH2 0x7C3 JUMP JUMPDEST PUSH4 0x4E487B71 PUSH1 0xE0 SHL DUP8 MSTORE PUSH1 0x11 DUP9 MSTORE PUSH1 0x24 DUP8 REVERT JUMPDEST DUP3 MLOAD PUSH3 0x461BCD PUSH1 0xE5 SHL DUP2 MSTORE PUSH1 0x20 DUP2 DUP10 ADD MSTORE PUSH1 0x10 PUSH1 0x24 DUP3 ADD MSTORE PUSH16 0x43726561746F722063616E7420627579 PUSH1 0x80 SHL PUSH1 0x44 DUP3 ADD MSTORE PUSH1 0x64 SWAP1 REVERT JUMPDEST DUP2 MLOAD PUSH3 0x461BCD PUSH1 0xE5 SHL DUP2 MSTORE PUSH1 0x20 DUP2 DUP9 ADD MSTORE PUSH1 0xA PUSH1 0x24 DUP3 ADD MSTORE PUSH10 0x53616D6520626C6F636B PUSH1 0xB0 SHL PUSH1 0x44 DUP3 ADD MSTORE PUSH1 0x64 SWAP1 REVERT JUMPDEST DUP5 DUP1 REVERT JUMPDEST POP POP CALLVALUE PUSH2 0x210 JUMPI DUP2 PUSH1 0x3 NOT CALLDATASIZE ADD SLT PUSH2 0x210 JUMPI PUSH1 0x20 SWAP1 MLOAD PUSH8 0x22B1C8C1227A0000 DUP2 MSTORE RETURN JUMPDEST POP POP CALLVALUE PUSH2 0x210 JUMPI DUP2 PUSH1 0x3 NOT CALLDATASIZE ADD SLT PUSH2 0x210 JUMPI PUSH1 0x2 SLOAD SWAP1 MLOAD PUSH1 0x1 PUSH1 0x1 PUSH1 0xA0 SHL SUB SWAP1 SWAP2 AND DUP2 MSTORE PUSH1 0x20 SWAP1 RETURN JUMPDEST POP POP CALLVALUE PUSH2 0x210 JUMPI DUP2 PUSH1 0x3 NOT CALLDATASIZE ADD SLT PUSH2 0x210 JUMPI PUSH1 0x20 SWAP1 MLOAD PUSH11 0xA56FA5B99019A5C8000000 DUP2 MSTORE RETURN JUMPDEST SWAP1 POP CALLVALUE PUSH2 0x5B6 JUMPI DUP3 PUSH1 0x3 NOT CALLDATASIZE ADD SLT PUSH2 0x5B6 JUMPI SLOAD SWAP1 MLOAD PUSH1 0x1 PUSH1 0x1 PUSH1 0xA0 SHL SUB SWAP1 SWAP2 AND DUP2 MSTORE PUSH1 0x20 SWAP2 POP RETURN JUMPDEST POP POP CALLVALUE PUSH2 0x210 JUMPI DUP2 PUSH1 0x3 NOT CALLDATASIZE ADD SLT PUSH2 0x210 JUMPI PUSH1 0x20 SWAP1 PUSH1 0xD SLOAD SWAP1 MLOAD SWAP1 DUP2 MSTORE RETURN JUMPDEST DUP4 SWAP1 CALLVALUE PUSH2 0x210 JUMPI PUSH1 0xE0 CALLDATASIZE PUSH1 0x3 NOT ADD SLT PUSH2 0x210 JUMPI PUSH2 0xDDF PUSH2 0x1094 JUMP JUMPDEST SWAP1 PUSH2 0xDE8 PUSH2 0x10AF JUMP JUMPDEST SWAP2 PUSH1 0x1 PUSH1 0x1 PUSH1 0xA0 SHL SUB SWAP2 PUSH1 0x44 CALLDATALOAD DUP4 DUP2 AND SWAP3 SWAP2 SWAP1 DUP4 SWAP1 SUB PUSH2 0xEAC JUMPI PUSH1 0x64 CALLDATALOAD DUP5 DUP2 AND DUP1 SWAP2 SUB PUSH2 0xEA8 JUMPI PUSH1 0x84 CALLDATALOAD SWAP1 DUP6 DUP3 AND DUP1 SWAP3 SUB PUSH2 0xAE5 JUMPI PUSH1 0xA4 CALLDATALOAD SWAP5 DUP7 DUP7 AND DUP1 SWAP7 SUB PUSH2 0xB6D JUMPI PUSH1 0xC4 CALLDATALOAD SWAP7 DUP1 DUP9 AND DUP1 SWAP9 SUB PUSH2 0xEA4 JUMPI PUSH1 0x6 SLOAD SWAP9 PUSH1 0xFF DUP11 PUSH1 0xA0 SHR AND PUSH2 0xEA0 JUMPI DUP2 PUSH1 0x1 DUP1 PUSH1 0xA0 SHL SUB NOT SWAP8 AND DUP8 DUP13 SLOAD AND OR DUP12 SSTORE AND DUP6 PUSH1 0x1 SLOAD AND OR PUSH1 0x1 SSTORE DUP5 PUSH1 0x2 SLOAD AND OR PUSH1 0x2 SSTORE DUP4 PUSH1 0x3 SLOAD AND OR PUSH1 0x3 SSTORE DUP3 DUP3 SLOAD AND OR SWAP1 SSTORE PUSH1 0x5 SLOAD AND OR PUSH1 0x5 SSTORE PUSH1 0x1 PUSH1 0xA0 SHL SWAP2 PUSH1 0x1 DUP1 PUSH1 0xA8 SHL SUB NOT AND OR OR PUSH1 0x6 SSTORE NUMBER PUSH1 0xB SSTORE DUP1 RETURN JUMPDEST DUP11 DUP1 REVERT JUMPDEST DUP10 DUP1 REVERT JUMPDEST DUP7 DUP1 REVERT JUMPDEST DUP6 DUP1 REVERT JUMPDEST POP POP CALLVALUE PUSH2 0x210 JUMPI PUSH1 0x20 CALLDATASIZE PUSH1 0x3 NOT ADD SLT PUSH2 0x210 JUMPI PUSH1 0x20 SWAP2 DUP2 SWAP1 PUSH1 0x1 PUSH1 0x1 PUSH1 0xA0 SHL SUB PUSH2 0xED8 PUSH2 0x1094 JUMP JUMPDEST AND DUP2 MSTORE PUSH1 0x13 DUP5 MSTORE KECCAK256 SLOAD SWAP1 MLOAD SWAP1 DUP2 MSTORE RETURN JUMPDEST POP POP CALLVALUE PUSH2 0x210 JUMPI DUP2 PUSH1 0x3 NOT CALLDATASIZE ADD SLT PUSH2 0x210 JUMPI PUSH1 0x20 SWAP1 PUSH1 0xFF PUSH1 0x11 SLOAD AND SWAP1 MLOAD SWAP1 ISZERO ISZERO DUP2 MSTORE RETURN JUMPDEST POP POP CALLVALUE PUSH2 0x210 JUMPI PUSH1 0x20 CALLDATASIZE PUSH1 0x3 NOT ADD SLT PUSH2 0x210 JUMPI PUSH1 0x20 SWAP2 PUSH1 0x1 PUSH1 0x1 PUSH1 0xA0 SHL SUB SWAP1 DUP3 SWAP1 DUP3 PUSH2 0xF36 PUSH2 0x1094 JUMP JUMPDEST AND DUP2 MSTORE PUSH1 0x12 DUP6 MSTORE KECCAK256 SLOAD AND SWAP1 MLOAD SWAP1 DUP2 MSTORE RETURN JUMPDEST POP POP CALLVALUE PUSH2 0x210 JUMPI DUP2 PUSH1 0x3 NOT CALLDATASIZE ADD SLT PUSH2 0x210 JUMPI PUSH1 0x20 SWAP1 PUSH1 0xF SLOAD SWAP1 MLOAD SWAP1 DUP2 MSTORE RETURN JUMPDEST POP POP CALLVALUE PUSH2 0x210 JUMPI DUP2 PUSH1 0x3 NOT CALLDATASIZE ADD SLT PUSH2 0x210 JUMPI MLOAD PUSH8 0x14ADF4B7320334B9 PUSH1 0x1D SHL DUP2 MSTORE PUSH1 0x20 SWAP1 RETURN JUMPDEST POP POP CALLVALUE PUSH2 0x210 JUMPI DUP2 PUSH1 0x3 NOT CALLDATASIZE ADD SLT PUSH2 0x210 JUMPI PUSH1 0x20 SWAP1 PUSH1 0x8 SLOAD SWAP1 MLOAD SWAP1 DUP2 MSTORE RETURN JUMPDEST POP POP CALLVALUE PUSH2 0x210 JUMPI DUP2 PUSH1 0x3 NOT CALLDATASIZE ADD SLT PUSH2 0x210 JUMPI PUSH1 0x20 SWAP1 MLOAD PUSH12 0x37790A0E8714009B49C0000 DUP2 MSTORE RETURN JUMPDEST DUP4 SWAP2 POP CALLVALUE PUSH2 0x210 JUMPI PUSH1 0x20 CALLDATASIZE PUSH1 0x3 NOT ADD SLT PUSH2 0x210 JUMPI DUP1 CALLDATALOAD SWAP2 PUSH1 0xC8 DUP4 MUL SWAP2 DUP4 DUP4 DIV PUSH1 0xC8 EQ DUP5 ISZERO OR ISZERO PUSH2 0x332 JUMPI POP POP PUSH2 0x1010 PUSH2 0x2710 PUSH2 0x325 SWAP3 DIV DUP1 SWAP4 PUSH2 0x1169 JUMP JUMPDEST PUSH2 0x2FA PUSH1 0x7 SLOAD PUSH2 0x2F4 PUSH1 0x8 SLOAD SWAP4 PUSH2 0x1027 DUP6 DUP5 PUSH2 0x1120 JUMP JUMPDEST SWAP3 PUSH2 0x1176 JUMP JUMPDEST POP POP CALLVALUE PUSH2 0x210 JUMPI DUP2 PUSH1 0x3 NOT CALLDATASIZE ADD SLT PUSH2 0x210 JUMPI PUSH1 0x20 SWAP1 PUSH1 0x7 SLOAD SWAP1 MLOAD SWAP1 DUP2 MSTORE RETURN JUMPDEST POP POP CALLVALUE PUSH2 0x210 JUMPI DUP2 PUSH1 0x3 NOT CALLDATASIZE ADD SLT PUSH2 0x210 JUMPI PUSH1 0x20 SWAP1 MLOAD PUSH8 0x29A2241AF62C0000 DUP2 MSTORE RETURN JUMPDEST DUP5 SWAP1 CALLVALUE PUSH2 0x210 JUMPI DUP2 PUSH1 0x3 NOT CALLDATASIZE ADD SLT PUSH2 0x210 JUMPI PUSH1 0x1 SLOAD PUSH1 0x1 PUSH1 0x1 PUSH1 0xA0 SHL SUB AND DUP2 MSTORE PUSH1 0x20 SWAP1 RETURN JUMPDEST PUSH1 0x4 CALLDATALOAD SWAP1 PUSH1 0x1 PUSH1 0x1 PUSH1 0xA0 SHL SUB DUP3 AND DUP3 SUB PUSH2 0x10AA JUMPI JUMP JUMPDEST PUSH1 0x0 DUP1 REVERT JUMPDEST PUSH1 0x24 CALLDATALOAD SWAP1 PUSH1 0x1 PUSH1 0x1 PUSH1 0xA0 SHL SUB DUP3 AND DUP3 SUB PUSH2 0x10AA JUMPI JUMP JUMPDEST CALLVALUE PUSH2 0x10AA JUMPI PUSH1 0x0 CALLDATASIZE PUSH1 0x3 NOT ADD SLT PUSH2 0x10AA JUMPI PUSH1 0x20 PUSH1 0x40 MLOAD PUSH1 0x64 DUP2 MSTORE RETURN JUMPDEST CALLVALUE PUSH2 0x10AA JUMPI PUSH1 0x0 CALLDATASIZE PUSH1 0x3 NOT ADD SLT PUSH2 0x10AA JUMPI PUSH1 0x20 PUSH1 0x40 MLOAD PUSH8 0x3782DACE9D90000 DUP2 MSTORE RETURN JUMPDEST CALLVALUE PUSH2 0x10AA JUMPI PUSH1 0x0 CALLDATASIZE PUSH1 0x3 NOT ADD SLT PUSH2 0x10AA JUMPI PUSH1 0x20 PUSH1 0x40 MLOAD PUSH1 0xC8 DUP2 MSTORE RETURN JUMPDEST DUP2 DUP2 MUL SWAP3 SWAP2 DUP2 ISZERO SWAP2 DUP5 DIV EQ OR ISZERO PUSH2 0x1133 JUMPI JUMP JUMPDEST PUSH4 0x4E487B71 PUSH1 0xE0 SHL PUSH1 0x0 MSTORE PUSH1 0x11 PUSH1 0x4 MSTORE PUSH1 0x24 PUSH1 0x0 REVERT JUMPDEST DUP2 ISZERO PUSH2 0x1153 JUMPI DIV SWAP1 JUMP JUMPDEST PUSH4 0x4E487B71 PUSH1 0xE0 SHL PUSH1 0x0 MSTORE PUSH1 0x12 PUSH1 0x4 MSTORE PUSH1 0x24 PUSH1 0x0 REVERT JUMPDEST SWAP2 SWAP1 DUP3 SUB SWAP2 DUP3 GT PUSH2 0x1133 JUMPI JUMP JUMPDEST SWAP2 SWAP1 DUP3 ADD DUP1 SWAP3 GT PUSH2 0x1133 JUMPI JUMP JUMPDEST ISZERO PUSH2 0x118A JUMPI JUMP JUMPDEST PUSH1 0x40 MLOAD PUSH3 0x461BCD PUSH1 0xE5 SHL DUP2 MSTORE PUSH1 0x20 PUSH1 0x4 DUP3 ADD MSTORE PUSH1 0x8 PUSH1 0x24 DUP3 ADD MSTORE PUSH8 0x536C697070616765 PUSH1 0xC0 SHL PUSH1 0x44 DUP3 ADD MSTORE PUSH1 0x64 SWAP1 REVERT JUMPDEST PUSH1 0x1F SWAP1 SWAP2 ADD PUSH1 0x1F NOT AND DUP2 ADD SWAP1 PUSH1 0x1 PUSH1 0x1 PUSH1 0x40 SHL SUB DUP3 GT SWAP1 DUP3 LT OR PUSH2 0x11DD JUMPI PUSH1 0x40 MSTORE JUMP JUMPDEST PUSH4 0x4E487B71 PUSH1 0xE0 SHL PUSH1 0x0 MSTORE PUSH1 0x41 PUSH1 0x4 MSTORE PUSH1 0x24 PUSH1 0x0 REVERT JUMPDEST SWAP1 DUP2 PUSH1 0x20 SWAP2 SUB SLT PUSH2 0x10AA JUMPI MLOAD DUP1 ISZERO ISZERO DUP2 SUB PUSH2 0x10AA JUMPI SWAP1 JUMP JUMPDEST PUSH1 0x1 PUSH1 0x1 PUSH1 0xA0 SHL SUB SWAP1 SWAP2 AND DUP2 MSTORE PUSH1 0x20 DUP2 ADD SWAP2 SWAP1 SWAP2 MSTORE PUSH1 0x40 ADD SWAP1 JUMP JUMPDEST PUSH1 0x11 SWAP1 DUP2 SLOAD SWAP1 PUSH1 0xFF DUP3 AND PUSH2 0x1391 JUMPI PUSH1 0xE SLOAD PUSH1 0x5A DUP2 ADD DUP1 SWAP2 GT PUSH2 0x136E JUMPI TIMESTAMP GT PUSH2 0x1383 JUMPI JUMPDEST PUSH1 0xD SLOAD PUSH1 0x0 NOT DUP2 EQ PUSH2 0x136E JUMPI PUSH1 0x1 ADD SWAP1 DUP2 PUSH1 0xD SSTORE PUSH1 0x10 SLOAD PUSH1 0xB4 DUP2 ADD DUP1 SWAP2 GT PUSH2 0x1359 JUMPI PUSH1 0x5 SWAP2 PUSH2 0x1281 SWAP2 TIMESTAMP GT PUSH2 0x134B JUMPI JUMPDEST PUSH1 0xF SLOAD PUSH2 0x1176 JUMP JUMPDEST PUSH1 0xF DUP2 SWAP1 SSTORE SWAP2 LT PUSH2 0x12E2 JUMPI POP POP PUSH1 0x1 PUSH1 0xFF NOT DUP3 SLOAD AND OR SWAP1 SSTORE PUSH31 0x6EE82C7DE77522824CFBE8E8838DE5FD938F53875077E886C8665D7F0A4D04 PUSH1 0x60 PUSH1 0x40 MLOAD PUSH1 0x20 DUP2 MSTORE PUSH1 0xD PUSH1 0x20 DUP3 ADD MSTORE PUSH13 0x35206275797320696E20393073 PUSH1 0x98 SHL PUSH1 0x40 DUP3 ADD MSTORE LOG1 JUMP JUMPDEST PUSH8 0x6F05B59D3B20000 GT ISZERO PUSH2 0x12F6 JUMPI JUMPDEST POP POP JUMP JUMPDEST PUSH1 0x1 SWAP1 PUSH1 0xFF NOT AND OR SWAP1 SSTORE PUSH31 0x6EE82C7DE77522824CFBE8E8838DE5FD938F53875077E886C8665D7F0A4D04 PUSH1 0x60 PUSH1 0x40 MLOAD PUSH1 0x20 DUP2 MSTORE PUSH1 0xF PUSH1 0x20 DUP3 ADD MSTORE PUSH15 0x18171A9022AA241034B71019B6B4B7 PUSH1 0x89 SHL PUSH1 0x40 DUP3 ADD MSTORE LOG1 JUMP JUMPDEST PUSH1 0x0 PUSH1 0xF SSTORE TIMESTAMP PUSH1 0x10 SSTORE PUSH2 0x1279 JUMP JUMPDEST DUP5 PUSH4 0x4E487B71 PUSH1 0xE0 SHL PUSH1 0x0 MSTORE PUSH1 0x4 MSTORE PUSH1 0x24 PUSH1 0x0 REVERT JUMPDEST DUP4 PUSH4 0x4E487B71 PUSH1 0xE0 SHL PUSH1 0x0 MSTORE PUSH1 0x4 MSTORE PUSH1 0x24 PUSH1 0x0 REVERT JUMPDEST PUSH1 0x0 PUSH1 0xD SSTORE TIMESTAMP PUSH1 0xE SSTORE PUSH2 0x1249 JUMP JUMPDEST POP POP POP JUMP JUMPDEST PUSH1 0x0 SWAP1 DUP2 SWAP1 DUP2 SWAP1 DUP2 SWAP1 DUP2 SWAP1 PUSH8 0x3782DACE9D90000 SWAP1 PUSH1 0x1 PUSH1 0x1 PUSH1 0xA0 SHL SUB AND GAS CALL RETURNDATASIZE ISZERO PUSH2 0x1409 JUMPI RETURNDATASIZE PUSH1 0x1 PUSH1 0x1 PUSH1 0x40 SHL SUB DUP2 GT PUSH2 0x13F5 JUMPI PUSH1 0x40 MLOAD SWAP1 PUSH2 0x13E3 PUSH1 0x1F DUP3 ADD PUSH1 0x1F NOT AND PUSH1 0x20 ADD DUP4 PUSH2 0x11BA JUMP JUMPDEST DUP2 MSTORE DUP3 PUSH1 0x20 RETURNDATASIZE SWAP3 ADD RETURNDATACOPY JUMPDEST ISZERO PUSH2 0x69E JUMPI POP JUMP JUMPDEST PUSH4 0x4E487B71 PUSH1 0xE0 SHL DUP4 MSTORE PUSH1 0x41 PUSH1 0x4 MSTORE PUSH1 0x24 DUP4 REVERT JUMPDEST PUSH2 0x13ED JUMP JUMPDEST DUP2 ISZERO PUSH2 0x12F2 JUMPI PUSH1 0x0 DUP1 DUP1 DUP1 SWAP5 DUP2 SWAP5 PUSH1 0x1 DUP1 PUSH1 0xA0 SHL SUB AND GAS CALL RETURNDATASIZE ISZERO PUSH2 0x1409 JUMPI RETURNDATASIZE PUSH1 0x1 PUSH1 0x1 PUSH1 0x40 SHL SUB DUP2 GT PUSH2 0x13F5 JUMPI PUSH1 0x40 MLOAD SWAP1 PUSH2 0x13E3 PUSH1 0x1F DUP3 ADD PUSH1 0x1F NOT AND PUSH1 0x20 ADD DUP4 PUSH2 0x11BA JUMP INVALID LOG2 PUSH5 0x6970667358 0x22 SLT KECCAK256 DUP12 MSTORE DUP4 0x2B ADDMOD SUB 0xEF PUSH31 0xA998BAD7CA7AE496C98800C4952822613C3AF5FE3BAFF4A564736F6C634300 ADDMOD EQ STOP CALLER "},"methodIdentifiers":{"BUY_FEE_BPS()":"f4364515","CREATOR_BPS()":"45904567","CREATOR_SHARE()":"cc0c3039","CURVE_SUPPLY()":"1e4c7292","GRAD_TARGET()":"0f54f39a","LP_ETH()":"76edb6f4","LP_SUPPLY()":"670171fd","PLATFORM_BPS()":"ce91e164","PLATFORM_SHARE()":"66fab57c","SELL_FEE_BPS()":"9731aa2e","VIRT_ETH()":"a1908e10","VIRT_TOKENS()":"1ce6d4ce","armory()":"751f2f05","buy(uint256,address)":"7deb6025","buyCount90s()":"4fbcad6a","buyQuote(uint256)":"168585e5","creator()":"02d05d3f","currentPrice()":"9d1b464a","deployBlock()":"a3ec191a","ethIn3min()":"2347e36d","factory()":"c45a0155","flushPlatformBuffer()":"9ba6631b","graduated()":"e7c2b772","initialize(address,address,address,address,address,address,address)":"35876476","platformBuffer()":"dec5f9aa","platformWallet()":"fa2af9da","protocolVault()":"5a9249e6","raidActive()":"2dd9e54d","realETH()":"878fa42f","referralEarned(address)":"31cd6179","referrer(address)":"2cf003c2","resetRaid()":"86133f2a","sell(uint256,uint256)":"d79875eb","sellQuote(uint256)":"d7a2e4c9","token()":"fc0c546a","virtualETH()":"11d8c0ec","virtualTokens()":"1d3dad09","warChest()":"bb22e371","window3minStart()":"dd5e6f42","window90sStart()":"f771e64c"}}}}}