{"contracts/WarChest.sol":{"WarChest":{"abi":[{"inputs":[{"internalType":"address","name":"_platform","type":"address"},{"internalType":"address","name":"_vault","type":"address"}],"stateMutability":"nonpayable","type":"constructor"},{"anonymous":false,"inputs":[{"indexed":true,"internalType":"address","name":"curve","type":"address"}],"name":"CurveAuthorized","type":"event"},{"anonymous":false,"inputs":[{"indexed":true,"internalType":"address","name":"from","type":"address"},{"indexed":false,"internalType":"uint256","name":"amount","type":"uint256"}],"name":"EthReceived","type":"event"},{"anonymous":false,"inputs":[{"indexed":true,"internalType":"address","name":"token","type":"address"},{"indexed":false,"internalType":"uint256","name":"payout","type":"uint256"}],"name":"PayoutTriggered","type":"event"},{"inputs":[],"name":"ARMORY_BPS","outputs":[{"internalType":"uint256","name":"","type":"uint256"}],"stateMutability":"view","type":"function"},{"inputs":[],"name":"FORTIFY_BPS","outputs":[{"internalType":"uint256","name":"","type":"uint256"}],"stateMutability":"view","type":"function"},{"inputs":[],"name":"HOLDERS_BPS","outputs":[{"internalType":"uint256","name":"","type":"uint256"}],"stateMutability":"view","type":"function"},{"inputs":[],"name":"LASTBUY_BPS","outputs":[{"internalType":"uint256","name":"","type":"uint256"}],"stateMutability":"view","type":"function"},{"inputs":[],"name":"LIQ_BPS","outputs":[{"internalType":"uint256","name":"","type":"uint256"}],"stateMutability":"view","type":"function"},{"inputs":[],"name":"MAX_PAYOUT","outputs":[{"internalType":"uint256","name":"","type":"uint256"}],"stateMutability":"view","type":"function"},{"inputs":[],"name":"PLATFORM_BPS","outputs":[{"internalType":"uint256","name":"","type":"uint256"}],"stateMutability":"view","type":"function"},{"inputs":[],"name":"THRESHOLD","outputs":[{"internalType":"uint256","name":"","type":"uint256"}],"stateMutability":"view","type":"function"},{"inputs":[{"internalType":"address","name":"curve","type":"address"}],"name":"authorizeCurve","outputs":[],"stateMutability":"nonpayable","type":"function"},{"inputs":[{"internalType":"address","name":"","type":"address"}],"name":"authorizedCurves","outputs":[{"internalType":"bool","name":"","type":"bool"}],"stateMutability":"view","type":"function"},{"inputs":[{"internalType":"address","name":"","type":"address"}],"name":"authorizedVaults","outputs":[{"internalType":"bool","name":"","type":"bool"}],"stateMutability":"view","type":"function"},{"inputs":[],"name":"factory","outputs":[{"internalType":"address","name":"","type":"address"}],"stateMutability":"view","type":"function"},{"inputs":[],"name":"getBalance","outputs":[{"internalType":"uint256","name":"","type":"uint256"}],"stateMutability":"view","type":"function"},{"inputs":[],"name":"isActive","outputs":[{"internalType":"bool","name":"","type":"bool"}],"stateMutability":"view","type":"function"},{"inputs":[{"internalType":"address","name":"","type":"address"}],"name":"lastBuyBlock","outputs":[{"internalType":"uint256","name":"","type":"uint256"}],"stateMutability":"view","type":"function"},{"inputs":[{"internalType":"address","name":"","type":"address"}],"name":"lastBuyer","outputs":[{"internalType":"address","name":"","type":"address"}],"stateMutability":"view","type":"function"},{"inputs":[],"name":"locked","outputs":[{"internalType":"bool","name":"","type":"bool"}],"stateMutability":"view","type":"function"},{"inputs":[],"name":"payoutCount","outputs":[{"internalType":"uint256","name":"","type":"uint256"}],"stateMutability":"view","type":"function"},{"inputs":[],"name":"platformWallet","outputs":[{"internalType":"address","name":"","type":"address"}],"stateMutability":"view","type":"function"},{"inputs":[],"name":"protocolVault","outputs":[{"internalType":"address","name":"","type":"address"}],"stateMutability":"view","type":"function"},{"inputs":[],"name":"receiveEth","outputs":[],"stateMutability":"payable","type":"function"},{"inputs":[{"internalType":"address","name":"token","type":"address"},{"internalType":"address","name":"buyer","type":"address"},{"internalType":"uint256","name":"","type":"uint256"}],"name":"recordBuy","outputs":[],"stateMutability":"nonpayable","type":"function"},{"inputs":[{"internalType":"address","name":"","type":"address"}],"name":"recordGraduation","outputs":[],"stateMutability":"nonpayable","type":"function"},{"inputs":[{"internalType":"address","name":"_factory","type":"address"}],"name":"setFactory","outputs":[],"stateMutability":"nonpayable","type":"function"},{"inputs":[],"name":"totalPaidOut","outputs":[{"internalType":"uint256","name":"","type":"uint256"}],"stateMutability":"view","type":"function"},{"inputs":[],"name":"totalReceived","outputs":[{"internalType":"uint256","name":"","type":"uint256"}],"stateMutability":"view","type":"function"},{"inputs":[{"internalType":"address","name":"token","type":"address"}],"name":"triggerPayout","outputs":[],"stateMutability":"nonpayable","type":"function"},{"stateMutability":"payable","type":"receive"}],"evm":{"bytecode":{"linkReferences":{},"object":"60c034610146576111f790601f38839003908101601f19168201906001600160401b0382118383101761014b578083916040958694855283398101031261014657610055602061004e83610161565b9201610161565b6001600160a01b038281161561010f5781169182156100db5760805260a052600052600760205280600020600160ff19825416179055516110819081610176823960805181818161017601528181610a6b01528181610aec01528181610b9901528181610c100152610e43015260a0518181816104c4015281816109370152610cec0152f35b835162461bcd60e51b815260206004820152600d60248201526c125b9d985b1a59081d985d5b1d609a1b6044820152606490fd5b835162461bcd60e51b815260206004820152601060248201526f496e76616c696420706c6174666f726d60801b6044820152606490fd5b600080fd5b634e487b7160e01b600052604160045260246000fd5b51906001600160a01b03821682036101465756fe608060408181526004918236101561002a575b505050361561002057600080fd5b610028610780565b005b600092833560e01c91826312065fe0146106b8575081631357e1dc1461069957816314ea9b35146106225781631cb19421146101a957816322f3e2d4146105fc578163351afe83146105df57816337b28bfd146105a7578163393b8516146105695781634185f8eb146105525781634657592f146105355781634b9ddafe1461051257816357831809146104f35781635a9249e6146104af5781635bb47808146104305781635f8282181461020f5781637756cf7e146103fa578163785ffb37146103d7578163a3c2c462146103b8578163a5bb625e1461037e578163b0efd714146102d3578163ba65b81b1461023b57508063c45a015514610214578063ce91e1641461020f578063cf309012146101eb578063d304052f146101ae578063e4e4f374146101a95763fa2af9da146101635780610012565b346101a557816003193601126101a557517f00000000000000000000000000000000000000000000000000000000000000006001600160a01b03168152602090f35b5080fd5b6106ed565b50346101a55760203660031901126101a55760209160ff9082906001600160a01b036101d86106d2565b1681526006855220541690519015158152f35b50346101a557816003193601126101a55760ff6020925460a01c1690519015158152f35b61070a565b50346101a557816003193601126101a557905490516001600160a01b039091168152602090f35b919050346102cf5760203660031901126102cf576102576106d2565b9083549260ff8460a01c166102a1575060ff60a01b19928316600160a01b178455338452600760205283205461029991906102949060ff166107bd565b61086b565b815416815580f35b6020606492519162461bcd60e51b835282015260096024820152681499595b9d1c985b9d60ba1b6044820152fd5b8280fd5b9050346102cf5760203660031901126102cf576102ee6106d2565b83546001600160a01b0392908316330361034c57501690610310821515610727565b81835260066020528220805460ff191660011790557f540b949a90633cbabff7a7fc81ac68cf370da403ab1d04575688b08556a5a7b68280a280f35b606490602085519162461bcd60e51b8352820152600c60248201526b4f6e6c7920666163746f727960a01b6044820152fd5b9050346102cf5760203660031901126102cf576020926001600160a01b0391839190836103a96106d2565b16825285522054169051908152f35b5050346101a557816003193601126101a5576020906001549051908152f35b5050346101a557816003193601126101a55760209051670de0b6b3a76400008152f35b5050346101a55760203660031901126101a55760ff61042d9161041b6106d2565b503384526006602052832054166107bd565b80f35b919050346102cf5760203660031901126102cf5761044c6106d2565b8354926001600160a01b039283851661047e575050169061046e821515610727565b6001600160a01b03191617815580f35b906020606492519162461bcd60e51b8352820152600b60248201526a105b1c9958591e481cd95d60aa1b6044820152fd5b5050346101a557816003193601126101a557517f00000000000000000000000000000000000000000000000000000000000000006001600160a01b03168152602090f35b5050346101a557816003193601126101a5576020906003549051908152f35b5050346101a557816003193601126101a55760209051671bc16d674ec800008152f35b5050346101a557816003193601126101a557602090516103e88152f35b83806003193601126105665761042d610780565b80fd5b5050346101a55760203660031901126101a55760209160ff9082906001600160a01b036105946106d2565b1681526007855220541690519015158152f35b5050346101a55760203660031901126101a55760209181906001600160a01b036105cf6106d2565b1681526005845220549051908152f35b5050346101a557816003193601126101a55760209051610fa08152f35b5050346101a557816003193601126101a55751670de0b6b3a76400004710158152602090f35b9050346102cf5760603660031901126102cf5761063d6106d2565b6001600160a01b0360243581811693929084900361069557338652600660205261066c60ff86882054166107bd565b168452602090815282842080546001600160a01b03191690921790915560059052812043905580f35b8580fd5b5050346101a557816003193601126101a5576020906002549051908152f35b8490346101a557816003193601126101a557602090478152f35b600435906001600160a01b03821682036106e857565b600080fd5b346106e85760003660031901126106e85760206040516101f48152f35b346106e85760003660031901126106e85760206040516107d08152f35b1561072e57565b60405162461bcd60e51b8152602060048201526007602482015266125b9d985b1a5960ca1b6044820152606490fd5b9190820180921161076a57565b634e487b7160e01b600052601160045260246000fd5b61078c3460015461075d565b6001556040513481527f85177f287940f2f05425a4029951af0e047a7f9c4eaa9a6e6917bcd869f8669560203392a2565b156107c457565b60405162461bcd60e51b815260206004820152600e60248201526d139bdd08185d5d1a1bdc9a5e995960921b6044820152606490fd5b9190820391821161076a57565b600019811461076a5760010190565b61014081019081106001600160401b0382111761083257604052565b634e487b7160e01b600052604160045260246000fd5b601f909101601f19168101906001600160401b0382119082101761083257604052565b904791670de0b6b3a76400008310610c7d57600092671bc16d674ec800009081811115610c7657505b610fa090818102928115928285041483171561076a576127108094046107d0808402908482041485171561076a57859004946103e8808502908582041486171561076a57819004946101f4908186029186830414171561076a57049161090f8361090a8161090a8961090a8c61090a8a8d6107fa565b6107fa565b9761091c8560025461075d565b60025561092a600354610807565b6003556001600160a01b037f000000000000000000000000000000000000000000000000000000000000000081169490853b156106e8576040958651998a956304523fbf60e01b87528660008583169d8e9a60049b8c83015260249a8b91885af18015610c6b57610c39575b50906109a191610cbd565b8984526020868152878520549099908316908115610c09576109c291610fb3565b86516305210f5d60e51b81528681018b905289818781855afa908115610bff57859184918391610bc2575b5016848115610b90578280929181925af1610a06610f74565b5015610b58575b888a86895180948193639ed1057d60e01b83528b8301525afa908115610b4e578491610b15575b50168015610acb5782809281925af1610a4b610f74565b5015610a96575050610a8f60008051602061102c8339815191529495965b7f0000000000000000000000000000000000000000000000000000000000000000610fb3565b51908152a2565b60129085606494519362461bcd60e51b855284015282015271105c9b5bdc9e481cd95b990819985a5b195960721b6044820152fd5b50610a8f935060008051602061102c8339815191529798999250610b1091507f0000000000000000000000000000000000000000000000000000000000000000610fb3565b610a69565b90508881813d8311610b47575b610b2c8183610848565b81010312610b4357610b3d90610c82565b38610a34565b8380fd5b503d610b22565b87513d86823e3d90fd5b865162461bcd60e51b81528087018a905260138187015272119bdc9d1a599e481cd95b990819985a5b1959606a1b6044820152606490fd5b9050610bbd91507f0000000000000000000000000000000000000000000000000000000000000000610fb3565b610a0d565b925050508981813d8311610bf8575b610bdb8183610848565b81010312610bf45782610bee8692610c82565b386109ed565b8480fd5b503d610bd1565b88513d87823e3d90fd5b610c3491507f0000000000000000000000000000000000000000000000000000000000000000610fb3565b6109c2565b9095506001600160401b038111610c575788526000946109a1610996565b86604189634e487b7160e01b600052526000fd5b8a513d6000823e3d90fd5b9050610894565b509050565b51906001600160a01b03821682036106e857565b90600a811015610ca75760051b0190565b634e487b7160e01b600052603260045260246000fd5b604051630ab6c60960e41b81526001600160a01b039182166004808301919091529261028092906024848482817f000000000000000000000000000000000000000000000000000000000000000087165afa948515610f68576000948596610eaa575b5050600090815b600a8110610e69575081159586610e3557600097885b600a8a10610d515750505050505050505050565b86610d5c8b8a610c96565b5116158015610e23575b610e195789888888600060098503610db35750610da793928592610d9b610d93610dad98610da2956107fa565b958693610c96565b5116610fb3565b61075d565b99610807565b98610d3d565b93915050610dc2915085610c96565b5190818802918883041488151715610e07578a610df557508a610dad92610da28b8b610d9b8b610da79704958693610c96565b634e487b7160e01b8152601284528590fd5b634e487b7160e01b8152601184528590fd5b98610dad90610807565b50610e2e8a84610c96565b5115610d66565b50505092505050610e6791507f0000000000000000000000000000000000000000000000000000000000000000610fb3565b565b84610e748288610c96565b5116610e89575b610e8490610807565b610d27565b91610ea2610e8491610e9b858a610c96565b519061075d565b929050610e7b565b9080959296503d8611610f61575b610ec28183610848565b81019085818303126102cf5781601f820112156102cf5760405192610ee684610816565b610140820190848483116101a55783905b838210610f495750508361015f840112156105665760405197610f1989610816565b8893019384116105665750905b828210610f395750505092933880610d20565b8151815260209182019101610f26565b60208091610f5684610c82565b815201910190610ef7565b503d610eb8565b6040513d6000823e3d90fd5b3d15610fae573d906001600160401b0382116108325760405191610fa2601f8201601f191660200184610848565b82523d6000602084013e565b606090565b8115801561101a575b611016576000918291829182916001600160a01b03165af1610fdc610f74565b5015610fe457565b60405162461bcd60e51b815260206004820152600a6024820152691155120819985a5b195960b21b6044820152606490fd5b5050565b506001600160a01b03811615610fbc56feaa4198e15ce4666385864542abb6c33c50cc9415ee36bb7eb4e6f8188fff6347a264697066735822122048de7ec6de20b6de3b6225c62e163d81e078e0fabe09a2172762d376418eee8664736f6c63430008140033","opcodes":"PUSH1 0xC0 CALLVALUE PUSH2 0x146 JUMPI PUSH2 0x11F7 SWAP1 PUSH1 0x1F CODESIZE DUP4 SWAP1 SUB SWAP1 DUP2 ADD PUSH1 0x1F NOT AND DUP3 ADD SWAP1 PUSH1 0x1 PUSH1 0x1 PUSH1 0x40 SHL SUB DUP3 GT DUP4 DUP4 LT OR PUSH2 0x14B JUMPI DUP1 DUP4 SWAP2 PUSH1 0x40 SWAP6 DUP7 SWAP5 DUP6 MSTORE DUP4 CODECOPY DUP2 ADD SUB SLT PUSH2 0x146 JUMPI PUSH2 0x55 PUSH1 0x20 PUSH2 0x4E DUP4 PUSH2 0x161 JUMP JUMPDEST SWAP3 ADD PUSH2 0x161 JUMP JUMPDEST PUSH1 0x1 PUSH1 0x1 PUSH1 0xA0 SHL SUB DUP3 DUP2 AND ISZERO PUSH2 0x10F JUMPI DUP2 AND SWAP2 DUP3 ISZERO PUSH2 0xDB JUMPI PUSH1 0x80 MSTORE PUSH1 0xA0 MSTORE PUSH1 0x0 MSTORE PUSH1 0x7 PUSH1 0x20 MSTORE DUP1 PUSH1 0x0 KECCAK256 PUSH1 0x1 PUSH1 0xFF NOT DUP3 SLOAD AND OR SWAP1 SSTORE MLOAD PUSH2 0x1081 SWAP1 DUP2 PUSH2 0x176 DUP3 CODECOPY PUSH1 0x80 MLOAD DUP2 DUP2 DUP2 PUSH2 0x176 ADD MSTORE DUP2 DUP2 PUSH2 0xA6B ADD MSTORE DUP2 DUP2 PUSH2 0xAEC ADD MSTORE DUP2 DUP2 PUSH2 0xB99 ADD MSTORE DUP2 DUP2 PUSH2 0xC10 ADD MSTORE PUSH2 0xE43 ADD MSTORE PUSH1 0xA0 MLOAD DUP2 DUP2 DUP2 PUSH2 0x4C4 ADD MSTORE DUP2 DUP2 PUSH2 0x937 ADD MSTORE PUSH2 0xCEC ADD MSTORE RETURN JUMPDEST DUP4 MLOAD PUSH3 0x461BCD PUSH1 0xE5 SHL DUP2 MSTORE PUSH1 0x20 PUSH1 0x4 DUP3 ADD MSTORE PUSH1 0xD PUSH1 0x24 DUP3 ADD MSTORE PUSH13 0x125B9D985B1A59081D985D5B1D PUSH1 0x9A SHL PUSH1 0x44 DUP3 ADD MSTORE PUSH1 0x64 SWAP1 REVERT JUMPDEST DUP4 MLOAD PUSH3 0x461BCD PUSH1 0xE5 SHL DUP2 MSTORE PUSH1 0x20 PUSH1 0x4 DUP3 ADD MSTORE PUSH1 0x10 PUSH1 0x24 DUP3 ADD MSTORE PUSH16 0x496E76616C696420706C6174666F726D PUSH1 0x80 SHL PUSH1 0x44 DUP3 ADD MSTORE PUSH1 0x64 SWAP1 REVERT JUMPDEST PUSH1 0x0 DUP1 REVERT JUMPDEST PUSH4 0x4E487B71 PUSH1 0xE0 SHL PUSH1 0x0 MSTORE PUSH1 0x41 PUSH1 0x4 MSTORE PUSH1 0x24 PUSH1 0x0 REVERT JUMPDEST MLOAD SWAP1 PUSH1 0x1 PUSH1 0x1 PUSH1 0xA0 SHL SUB DUP3 AND DUP3 SUB PUSH2 0x146 JUMPI JUMP INVALID PUSH1 0x80 PUSH1 0x40 DUP2 DUP2 MSTORE PUSH1 0x4 SWAP2 DUP3 CALLDATASIZE LT ISZERO PUSH2 0x2A JUMPI JUMPDEST POP POP POP CALLDATASIZE ISZERO PUSH2 0x20 JUMPI PUSH1 0x0 DUP1 REVERT JUMPDEST PUSH2 0x28 PUSH2 0x780 JUMP JUMPDEST STOP JUMPDEST PUSH1 0x0 SWAP3 DUP4 CALLDATALOAD PUSH1 0xE0 SHR SWAP2 DUP3 PUSH4 0x12065FE0 EQ PUSH2 0x6B8 JUMPI POP DUP2 PUSH4 0x1357E1DC EQ PUSH2 0x699 JUMPI DUP2 PUSH4 0x14EA9B35 EQ PUSH2 0x622 JUMPI DUP2 PUSH4 0x1CB19421 EQ PUSH2 0x1A9 JUMPI DUP2 PUSH4 0x22F3E2D4 EQ PUSH2 0x5FC JUMPI DUP2 PUSH4 0x351AFE83 EQ PUSH2 0x5DF JUMPI DUP2 PUSH4 0x37B28BFD EQ PUSH2 0x5A7 JUMPI DUP2 PUSH4 0x393B8516 EQ PUSH2 0x569 JUMPI DUP2 PUSH4 0x4185F8EB EQ PUSH2 0x552 JUMPI DUP2 PUSH4 0x4657592F EQ PUSH2 0x535 JUMPI DUP2 PUSH4 0x4B9DDAFE EQ PUSH2 0x512 JUMPI DUP2 PUSH4 0x57831809 EQ PUSH2 0x4F3 JUMPI DUP2 PUSH4 0x5A9249E6 EQ PUSH2 0x4AF JUMPI DUP2 PUSH4 0x5BB47808 EQ PUSH2 0x430 JUMPI DUP2 PUSH4 0x5F828218 EQ PUSH2 0x20F JUMPI DUP2 PUSH4 0x7756CF7E EQ PUSH2 0x3FA JUMPI DUP2 PUSH4 0x785FFB37 EQ PUSH2 0x3D7 JUMPI DUP2 PUSH4 0xA3C2C462 EQ PUSH2 0x3B8 JUMPI DUP2 PUSH4 0xA5BB625E EQ PUSH2 0x37E JUMPI DUP2 PUSH4 0xB0EFD714 EQ PUSH2 0x2D3 JUMPI DUP2 PUSH4 0xBA65B81B EQ PUSH2 0x23B JUMPI POP DUP1 PUSH4 0xC45A0155 EQ PUSH2 0x214 JUMPI DUP1 PUSH4 0xCE91E164 EQ PUSH2 0x20F JUMPI DUP1 PUSH4 0xCF309012 EQ PUSH2 0x1EB JUMPI DUP1 PUSH4 0xD304052F EQ PUSH2 0x1AE JUMPI DUP1 PUSH4 0xE4E4F374 EQ PUSH2 0x1A9 JUMPI PUSH4 0xFA2AF9DA EQ PUSH2 0x163 JUMPI DUP1 PUSH2 0x12 JUMP JUMPDEST CALLVALUE PUSH2 0x1A5 JUMPI DUP2 PUSH1 0x3 NOT CALLDATASIZE ADD SLT PUSH2 0x1A5 JUMPI MLOAD PUSH32 0x0 PUSH1 0x1 PUSH1 0x1 PUSH1 0xA0 SHL SUB AND DUP2 MSTORE PUSH1 0x20 SWAP1 RETURN JUMPDEST POP DUP1 REVERT JUMPDEST PUSH2 0x6ED JUMP JUMPDEST POP CALLVALUE PUSH2 0x1A5 JUMPI PUSH1 0x20 CALLDATASIZE PUSH1 0x3 NOT ADD SLT PUSH2 0x1A5 JUMPI PUSH1 0x20 SWAP2 PUSH1 0xFF SWAP1 DUP3 SWAP1 PUSH1 0x1 PUSH1 0x1 PUSH1 0xA0 SHL SUB PUSH2 0x1D8 PUSH2 0x6D2 JUMP JUMPDEST AND DUP2 MSTORE PUSH1 0x6 DUP6 MSTORE KECCAK256 SLOAD AND SWAP1 MLOAD SWAP1 ISZERO ISZERO DUP2 MSTORE RETURN JUMPDEST POP CALLVALUE PUSH2 0x1A5 JUMPI DUP2 PUSH1 0x3 NOT CALLDATASIZE ADD SLT PUSH2 0x1A5 JUMPI PUSH1 0xFF PUSH1 0x20 SWAP3 SLOAD PUSH1 0xA0 SHR AND SWAP1 MLOAD SWAP1 ISZERO ISZERO DUP2 MSTORE RETURN JUMPDEST PUSH2 0x70A JUMP JUMPDEST POP CALLVALUE PUSH2 0x1A5 JUMPI DUP2 PUSH1 0x3 NOT CALLDATASIZE ADD SLT PUSH2 0x1A5 JUMPI SWAP1 SLOAD SWAP1 MLOAD PUSH1 0x1 PUSH1 0x1 PUSH1 0xA0 SHL SUB SWAP1 SWAP2 AND DUP2 MSTORE PUSH1 0x20 SWAP1 RETURN JUMPDEST SWAP2 SWAP1 POP CALLVALUE PUSH2 0x2CF JUMPI PUSH1 0x20 CALLDATASIZE PUSH1 0x3 NOT ADD SLT PUSH2 0x2CF JUMPI PUSH2 0x257 PUSH2 0x6D2 JUMP JUMPDEST SWAP1 DUP4 SLOAD SWAP3 PUSH1 0xFF DUP5 PUSH1 0xA0 SHR AND PUSH2 0x2A1 JUMPI POP PUSH1 0xFF PUSH1 0xA0 SHL NOT SWAP3 DUP4 AND PUSH1 0x1 PUSH1 0xA0 SHL OR DUP5 SSTORE CALLER DUP5 MSTORE PUSH1 0x7 PUSH1 0x20 MSTORE DUP4 KECCAK256 SLOAD PUSH2 0x299 SWAP2 SWAP1 PUSH2 0x294 SWAP1 PUSH1 0xFF AND PUSH2 0x7BD JUMP JUMPDEST PUSH2 0x86B JUMP JUMPDEST DUP2 SLOAD AND DUP2 SSTORE DUP1 RETURN JUMPDEST PUSH1 0x20 PUSH1 0x64 SWAP3 MLOAD SWAP2 PUSH3 0x461BCD PUSH1 0xE5 SHL DUP4 MSTORE DUP3 ADD MSTORE PUSH1 0x9 PUSH1 0x24 DUP3 ADD MSTORE PUSH9 0x1499595B9D1C985B9D PUSH1 0xBA SHL PUSH1 0x44 DUP3 ADD MSTORE REVERT JUMPDEST DUP3 DUP1 REVERT JUMPDEST SWAP1 POP CALLVALUE PUSH2 0x2CF JUMPI PUSH1 0x20 CALLDATASIZE PUSH1 0x3 NOT ADD SLT PUSH2 0x2CF JUMPI PUSH2 0x2EE PUSH2 0x6D2 JUMP JUMPDEST DUP4 SLOAD PUSH1 0x1 PUSH1 0x1 PUSH1 0xA0 SHL SUB SWAP3 SWAP1 DUP4 AND CALLER SUB PUSH2 0x34C JUMPI POP AND SWAP1 PUSH2 0x310 DUP3 ISZERO ISZERO PUSH2 0x727 JUMP JUMPDEST DUP2 DUP4 MSTORE PUSH1 0x6 PUSH1 0x20 MSTORE DUP3 KECCAK256 DUP1 SLOAD PUSH1 0xFF NOT AND PUSH1 0x1 OR SWAP1 SSTORE PUSH32 0x540B949A90633CBABFF7A7FC81AC68CF370DA403AB1D04575688B08556A5A7B6 DUP3 DUP1 LOG2 DUP1 RETURN JUMPDEST PUSH1 0x64 SWAP1 PUSH1 0x20 DUP6 MLOAD SWAP2 PUSH3 0x461BCD PUSH1 0xE5 SHL DUP4 MSTORE DUP3 ADD MSTORE PUSH1 0xC PUSH1 0x24 DUP3 ADD MSTORE PUSH12 0x4F6E6C7920666163746F7279 PUSH1 0xA0 SHL PUSH1 0x44 DUP3 ADD MSTORE REVERT JUMPDEST SWAP1 POP CALLVALUE PUSH2 0x2CF JUMPI PUSH1 0x20 CALLDATASIZE PUSH1 0x3 NOT ADD SLT PUSH2 0x2CF JUMPI PUSH1 0x20 SWAP3 PUSH1 0x1 PUSH1 0x1 PUSH1 0xA0 SHL SUB SWAP2 DUP4 SWAP2 SWAP1 DUP4 PUSH2 0x3A9 PUSH2 0x6D2 JUMP JUMPDEST AND DUP3 MSTORE DUP6 MSTORE KECCAK256 SLOAD AND SWAP1 MLOAD SWAP1 DUP2 MSTORE RETURN JUMPDEST POP POP CALLVALUE PUSH2 0x1A5 JUMPI DUP2 PUSH1 0x3 NOT CALLDATASIZE ADD SLT PUSH2 0x1A5 JUMPI PUSH1 0x20 SWAP1 PUSH1 0x1 SLOAD SWAP1 MLOAD SWAP1 DUP2 MSTORE RETURN JUMPDEST POP POP CALLVALUE PUSH2 0x1A5 JUMPI DUP2 PUSH1 0x3 NOT CALLDATASIZE ADD SLT PUSH2 0x1A5 JUMPI PUSH1 0x20 SWAP1 MLOAD PUSH8 0xDE0B6B3A7640000 DUP2 MSTORE RETURN JUMPDEST POP POP CALLVALUE PUSH2 0x1A5 JUMPI PUSH1 0x20 CALLDATASIZE PUSH1 0x3 NOT ADD SLT PUSH2 0x1A5 JUMPI PUSH1 0xFF PUSH2 0x42D SWAP2 PUSH2 0x41B PUSH2 0x6D2 JUMP JUMPDEST POP CALLER DUP5 MSTORE PUSH1 0x6 PUSH1 0x20 MSTORE DUP4 KECCAK256 SLOAD AND PUSH2 0x7BD JUMP JUMPDEST DUP1 RETURN JUMPDEST SWAP2 SWAP1 POP CALLVALUE PUSH2 0x2CF JUMPI PUSH1 0x20 CALLDATASIZE PUSH1 0x3 NOT ADD SLT PUSH2 0x2CF JUMPI PUSH2 0x44C PUSH2 0x6D2 JUMP JUMPDEST DUP4 SLOAD SWAP3 PUSH1 0x1 PUSH1 0x1 PUSH1 0xA0 SHL SUB SWAP3 DUP4 DUP6 AND PUSH2 0x47E JUMPI POP POP AND SWAP1 PUSH2 0x46E DUP3 ISZERO ISZERO PUSH2 0x727 JUMP JUMPDEST PUSH1 0x1 PUSH1 0x1 PUSH1 0xA0 SHL SUB NOT AND OR DUP2 SSTORE DUP1 RETURN JUMPDEST SWAP1 PUSH1 0x20 PUSH1 0x64 SWAP3 MLOAD SWAP2 PUSH3 0x461BCD PUSH1 0xE5 SHL DUP4 MSTORE DUP3 ADD MSTORE PUSH1 0xB PUSH1 0x24 DUP3 ADD MSTORE PUSH11 0x105B1C9958591E481CD95D PUSH1 0xAA SHL PUSH1 0x44 DUP3 ADD MSTORE REVERT JUMPDEST POP POP CALLVALUE PUSH2 0x1A5 JUMPI DUP2 PUSH1 0x3 NOT CALLDATASIZE ADD SLT PUSH2 0x1A5 JUMPI MLOAD PUSH32 0x0 PUSH1 0x1 PUSH1 0x1 PUSH1 0xA0 SHL SUB AND DUP2 MSTORE PUSH1 0x20 SWAP1 RETURN JUMPDEST POP POP CALLVALUE PUSH2 0x1A5 JUMPI DUP2 PUSH1 0x3 NOT CALLDATASIZE ADD SLT PUSH2 0x1A5 JUMPI PUSH1 0x20 SWAP1 PUSH1 0x3 SLOAD SWAP1 MLOAD SWAP1 DUP2 MSTORE RETURN JUMPDEST POP POP CALLVALUE PUSH2 0x1A5 JUMPI DUP2 PUSH1 0x3 NOT CALLDATASIZE ADD SLT PUSH2 0x1A5 JUMPI PUSH1 0x20 SWAP1 MLOAD PUSH8 0x1BC16D674EC80000 DUP2 MSTORE RETURN JUMPDEST POP POP CALLVALUE PUSH2 0x1A5 JUMPI DUP2 PUSH1 0x3 NOT CALLDATASIZE ADD SLT PUSH2 0x1A5 JUMPI PUSH1 0x20 SWAP1 MLOAD PUSH2 0x3E8 DUP2 MSTORE RETURN JUMPDEST DUP4 DUP1 PUSH1 0x3 NOT CALLDATASIZE ADD SLT PUSH2 0x566 JUMPI PUSH2 0x42D PUSH2 0x780 JUMP JUMPDEST DUP1 REVERT JUMPDEST POP POP CALLVALUE PUSH2 0x1A5 JUMPI PUSH1 0x20 CALLDATASIZE PUSH1 0x3 NOT ADD SLT PUSH2 0x1A5 JUMPI PUSH1 0x20 SWAP2 PUSH1 0xFF SWAP1 DUP3 SWAP1 PUSH1 0x1 PUSH1 0x1 PUSH1 0xA0 SHL SUB PUSH2 0x594 PUSH2 0x6D2 JUMP JUMPDEST AND DUP2 MSTORE PUSH1 0x7 DUP6 MSTORE KECCAK256 SLOAD AND SWAP1 MLOAD SWAP1 ISZERO ISZERO DUP2 MSTORE RETURN JUMPDEST POP POP CALLVALUE PUSH2 0x1A5 JUMPI PUSH1 0x20 CALLDATASIZE PUSH1 0x3 NOT ADD SLT PUSH2 0x1A5 JUMPI PUSH1 0x20 SWAP2 DUP2 SWAP1 PUSH1 0x1 PUSH1 0x1 PUSH1 0xA0 SHL SUB PUSH2 0x5CF PUSH2 0x6D2 JUMP JUMPDEST AND DUP2 MSTORE PUSH1 0x5 DUP5 MSTORE KECCAK256 SLOAD SWAP1 MLOAD SWAP1 DUP2 MSTORE RETURN JUMPDEST POP POP CALLVALUE PUSH2 0x1A5 JUMPI DUP2 PUSH1 0x3 NOT CALLDATASIZE ADD SLT PUSH2 0x1A5 JUMPI PUSH1 0x20 SWAP1 MLOAD PUSH2 0xFA0 DUP2 MSTORE RETURN JUMPDEST POP POP CALLVALUE PUSH2 0x1A5 JUMPI DUP2 PUSH1 0x3 NOT CALLDATASIZE ADD SLT PUSH2 0x1A5 JUMPI MLOAD PUSH8 0xDE0B6B3A7640000 SELFBALANCE LT ISZERO DUP2 MSTORE PUSH1 0x20 SWAP1 RETURN JUMPDEST SWAP1 POP CALLVALUE PUSH2 0x2CF JUMPI PUSH1 0x60 CALLDATASIZE PUSH1 0x3 NOT ADD SLT PUSH2 0x2CF JUMPI PUSH2 0x63D PUSH2 0x6D2 JUMP JUMPDEST PUSH1 0x1 PUSH1 0x1 PUSH1 0xA0 SHL SUB PUSH1 0x24 CALLDATALOAD DUP2 DUP2 AND SWAP4 SWAP3 SWAP1 DUP5 SWAP1 SUB PUSH2 0x695 JUMPI CALLER DUP7 MSTORE PUSH1 0x6 PUSH1 0x20 MSTORE PUSH2 0x66C PUSH1 0xFF DUP7 DUP9 KECCAK256 SLOAD AND PUSH2 0x7BD JUMP JUMPDEST AND DUP5 MSTORE PUSH1 0x20 SWAP1 DUP2 MSTORE DUP3 DUP5 KECCAK256 DUP1 SLOAD PUSH1 0x1 PUSH1 0x1 PUSH1 0xA0 SHL SUB NOT AND SWAP1 SWAP3 OR SWAP1 SWAP2 SSTORE PUSH1 0x5 SWAP1 MSTORE DUP2 KECCAK256 NUMBER SWAP1 SSTORE DUP1 RETURN JUMPDEST DUP6 DUP1 REVERT JUMPDEST POP POP CALLVALUE PUSH2 0x1A5 JUMPI DUP2 PUSH1 0x3 NOT CALLDATASIZE ADD SLT PUSH2 0x1A5 JUMPI PUSH1 0x20 SWAP1 PUSH1 0x2 SLOAD SWAP1 MLOAD SWAP1 DUP2 MSTORE RETURN JUMPDEST DUP5 SWAP1 CALLVALUE PUSH2 0x1A5 JUMPI DUP2 PUSH1 0x3 NOT CALLDATASIZE ADD SLT PUSH2 0x1A5 JUMPI PUSH1 0x20 SWAP1 SELFBALANCE DUP2 MSTORE RETURN JUMPDEST PUSH1 0x4 CALLDATALOAD SWAP1 PUSH1 0x1 PUSH1 0x1 PUSH1 0xA0 SHL SUB DUP3 AND DUP3 SUB PUSH2 0x6E8 JUMPI JUMP JUMPDEST PUSH1 0x0 DUP1 REVERT JUMPDEST CALLVALUE PUSH2 0x6E8 JUMPI PUSH1 0x0 CALLDATASIZE PUSH1 0x3 NOT ADD SLT PUSH2 0x6E8 JUMPI PUSH1 0x20 PUSH1 0x40 MLOAD PUSH2 0x1F4 DUP2 MSTORE RETURN JUMPDEST CALLVALUE PUSH2 0x6E8 JUMPI PUSH1 0x0 CALLDATASIZE PUSH1 0x3 NOT ADD SLT PUSH2 0x6E8 JUMPI PUSH1 0x20 PUSH1 0x40 MLOAD PUSH2 0x7D0 DUP2 MSTORE RETURN JUMPDEST ISZERO PUSH2 0x72E JUMPI JUMP JUMPDEST PUSH1 0x40 MLOAD PUSH3 0x461BCD PUSH1 0xE5 SHL DUP2 MSTORE PUSH1 0x20 PUSH1 0x4 DUP3 ADD MSTORE PUSH1 0x7 PUSH1 0x24 DUP3 ADD MSTORE PUSH7 0x125B9D985B1A59 PUSH1 0xCA SHL PUSH1 0x44 DUP3 ADD MSTORE PUSH1 0x64 SWAP1 REVERT JUMPDEST SWAP2 SWAP1 DUP3 ADD DUP1 SWAP3 GT PUSH2 0x76A JUMPI JUMP JUMPDEST PUSH4 0x4E487B71 PUSH1 0xE0 SHL PUSH1 0x0 MSTORE PUSH1 0x11 PUSH1 0x4 MSTORE PUSH1 0x24 PUSH1 0x0 REVERT JUMPDEST PUSH2 0x78C CALLVALUE PUSH1 0x1 SLOAD PUSH2 0x75D JUMP JUMPDEST PUSH1 0x1 SSTORE PUSH1 0x40 MLOAD CALLVALUE DUP2 MSTORE PUSH32 0x85177F287940F2F05425A4029951AF0E047A7F9C4EAA9A6E6917BCD869F86695 PUSH1 0x20 CALLER SWAP3 LOG2 JUMP JUMPDEST ISZERO PUSH2 0x7C4 JUMPI JUMP JUMPDEST PUSH1 0x40 MLOAD PUSH3 0x461BCD PUSH1 0xE5 SHL DUP2 MSTORE PUSH1 0x20 PUSH1 0x4 DUP3 ADD MSTORE PUSH1 0xE PUSH1 0x24 DUP3 ADD MSTORE PUSH14 0x139BDD08185D5D1A1BDC9A5E9959 PUSH1 0x92 SHL PUSH1 0x44 DUP3 ADD MSTORE PUSH1 0x64 SWAP1 REVERT JUMPDEST SWAP2 SWAP1 DUP3 SUB SWAP2 DUP3 GT PUSH2 0x76A JUMPI JUMP JUMPDEST PUSH1 0x0 NOT DUP2 EQ PUSH2 0x76A JUMPI PUSH1 0x1 ADD SWAP1 JUMP JUMPDEST PUSH2 0x140 DUP2 ADD SWAP1 DUP2 LT PUSH1 0x1 PUSH1 0x1 PUSH1 0x40 SHL SUB DUP3 GT OR PUSH2 0x832 JUMPI PUSH1 0x40 MSTORE JUMP JUMPDEST PUSH4 0x4E487B71 PUSH1 0xE0 SHL PUSH1 0x0 MSTORE PUSH1 0x41 PUSH1 0x4 MSTORE PUSH1 0x24 PUSH1 0x0 REVERT JUMPDEST PUSH1 0x1F SWAP1 SWAP2 ADD PUSH1 0x1F NOT AND DUP2 ADD SWAP1 PUSH1 0x1 PUSH1 0x1 PUSH1 0x40 SHL SUB DUP3 GT SWAP1 DUP3 LT OR PUSH2 0x832 JUMPI PUSH1 0x40 MSTORE JUMP JUMPDEST SWAP1 SELFBALANCE SWAP2 PUSH8 0xDE0B6B3A7640000 DUP4 LT PUSH2 0xC7D JUMPI PUSH1 0x0 SWAP3 PUSH8 0x1BC16D674EC80000 SWAP1 DUP2 DUP2 GT ISZERO PUSH2 0xC76 JUMPI POP JUMPDEST PUSH2 0xFA0 SWAP1 DUP2 DUP2 MUL SWAP3 DUP2 ISZERO SWAP3 DUP3 DUP6 DIV EQ DUP4 OR ISZERO PUSH2 0x76A JUMPI PUSH2 0x2710 DUP1 SWAP5 DIV PUSH2 0x7D0 DUP1 DUP5 MUL SWAP1 DUP5 DUP3 DIV EQ DUP6 OR ISZERO PUSH2 0x76A JUMPI DUP6 SWAP1 DIV SWAP5 PUSH2 0x3E8 DUP1 DUP6 MUL SWAP1 DUP6 DUP3 DIV EQ DUP7 OR ISZERO PUSH2 0x76A JUMPI DUP2 SWAP1 DIV SWAP5 PUSH2 0x1F4 SWAP1 DUP2 DUP7 MUL SWAP2 DUP7 DUP4 DIV EQ OR ISZERO PUSH2 0x76A JUMPI DIV SWAP2 PUSH2 0x90F DUP4 PUSH2 0x90A DUP2 PUSH2 0x90A DUP10 PUSH2 0x90A DUP13 PUSH2 0x90A DUP11 DUP14 PUSH2 0x7FA JUMP JUMPDEST PUSH2 0x7FA JUMP JUMPDEST SWAP8 PUSH2 0x91C DUP6 PUSH1 0x2 SLOAD PUSH2 0x75D JUMP JUMPDEST PUSH1 0x2 SSTORE PUSH2 0x92A PUSH1 0x3 SLOAD PUSH2 0x807 JUMP JUMPDEST PUSH1 0x3 SSTORE PUSH1 0x1 PUSH1 0x1 PUSH1 0xA0 SHL SUB PUSH32 0x0 DUP2 AND SWAP5 SWAP1 DUP6 EXTCODESIZE ISZERO PUSH2 0x6E8 JUMPI PUSH1 0x40 SWAP6 DUP7 MLOAD SWAP10 DUP11 SWAP6 PUSH4 0x4523FBF PUSH1 0xE0 SHL DUP8 MSTORE DUP7 PUSH1 0x0 DUP6 DUP4 AND SWAP14 DUP15 SWAP11 PUSH1 0x4 SWAP12 DUP13 DUP4 ADD MSTORE PUSH1 0x24 SWAP11 DUP12 SWAP2 DUP9 GAS CALL DUP1 ISZERO PUSH2 0xC6B JUMPI PUSH2 0xC39 JUMPI JUMPDEST POP SWAP1 PUSH2 0x9A1 SWAP2 PUSH2 0xCBD JUMP JUMPDEST DUP10 DUP5 MSTORE PUSH1 0x20 DUP7 DUP2 MSTORE DUP8 DUP6 KECCAK256 SLOAD SWAP1 SWAP10 SWAP1 DUP4 AND SWAP1 DUP2 ISZERO PUSH2 0xC09 JUMPI PUSH2 0x9C2 SWAP2 PUSH2 0xFB3 JUMP JUMPDEST DUP7 MLOAD PUSH4 0x5210F5D PUSH1 0xE5 SHL DUP2 MSTORE DUP7 DUP2 ADD DUP12 SWAP1 MSTORE DUP10 DUP2 DUP8 DUP2 DUP6 GAS STATICCALL SWAP1 DUP2 ISZERO PUSH2 0xBFF JUMPI DUP6 SWAP2 DUP5 SWAP2 DUP4 SWAP2 PUSH2 0xBC2 JUMPI JUMPDEST POP AND DUP5 DUP2 ISZERO PUSH2 0xB90 JUMPI DUP3 DUP1 SWAP3 SWAP2 DUP2 SWAP3 GAS CALL PUSH2 0xA06 PUSH2 0xF74 JUMP JUMPDEST POP ISZERO PUSH2 0xB58 JUMPI JUMPDEST DUP9 DUP11 DUP7 DUP10 MLOAD DUP1 SWAP5 DUP2 SWAP4 PUSH4 0x9ED1057D PUSH1 0xE0 SHL DUP4 MSTORE DUP12 DUP4 ADD MSTORE GAS STATICCALL SWAP1 DUP2 ISZERO PUSH2 0xB4E JUMPI DUP5 SWAP2 PUSH2 0xB15 JUMPI JUMPDEST POP AND DUP1 ISZERO PUSH2 0xACB JUMPI DUP3 DUP1 SWAP3 DUP2 SWAP3 GAS CALL PUSH2 0xA4B PUSH2 0xF74 JUMP JUMPDEST POP ISZERO PUSH2 0xA96 JUMPI POP POP PUSH2 0xA8F PUSH1 0x0 DUP1 MLOAD PUSH1 0x20 PUSH2 0x102C DUP4 CODECOPY DUP2 MLOAD SWAP2 MSTORE SWAP5 SWAP6 SWAP7 JUMPDEST PUSH32 0x0 PUSH2 0xFB3 JUMP JUMPDEST MLOAD SWAP1 DUP2 MSTORE LOG2 JUMP JUMPDEST PUSH1 0x12 SWAP1 DUP6 PUSH1 0x64 SWAP5 MLOAD SWAP4 PUSH3 0x461BCD PUSH1 0xE5 SHL DUP6 MSTORE DUP5 ADD MSTORE DUP3 ADD MSTORE PUSH18 0x105C9B5BDC9E481CD95B990819985A5B1959 PUSH1 0x72 SHL PUSH1 0x44 DUP3 ADD MSTORE REVERT JUMPDEST POP PUSH2 0xA8F SWAP4 POP PUSH1 0x0 DUP1 MLOAD PUSH1 0x20 PUSH2 0x102C DUP4 CODECOPY DUP2 MLOAD SWAP2 MSTORE SWAP8 SWAP9 SWAP10 SWAP3 POP PUSH2 0xB10 SWAP2 POP PUSH32 0x0 PUSH2 0xFB3 JUMP JUMPDEST PUSH2 0xA69 JUMP JUMPDEST SWAP1 POP DUP9 DUP2 DUP2 RETURNDATASIZE DUP4 GT PUSH2 0xB47 JUMPI JUMPDEST PUSH2 0xB2C DUP2 DUP4 PUSH2 0x848 JUMP JUMPDEST DUP2 ADD SUB SLT PUSH2 0xB43 JUMPI PUSH2 0xB3D SWAP1 PUSH2 0xC82 JUMP JUMPDEST CODESIZE PUSH2 0xA34 JUMP JUMPDEST DUP4 DUP1 REVERT JUMPDEST POP RETURNDATASIZE PUSH2 0xB22 JUMP JUMPDEST DUP8 MLOAD RETURNDATASIZE DUP7 DUP3 RETURNDATACOPY RETURNDATASIZE SWAP1 REVERT JUMPDEST DUP7 MLOAD PUSH3 0x461BCD PUSH1 0xE5 SHL DUP2 MSTORE DUP1 DUP8 ADD DUP11 SWAP1 MSTORE PUSH1 0x13 DUP2 DUP8 ADD MSTORE PUSH19 0x119BDC9D1A599E481CD95B990819985A5B1959 PUSH1 0x6A SHL PUSH1 0x44 DUP3 ADD MSTORE PUSH1 0x64 SWAP1 REVERT JUMPDEST SWAP1 POP PUSH2 0xBBD SWAP2 POP PUSH32 0x0 PUSH2 0xFB3 JUMP JUMPDEST PUSH2 0xA0D JUMP JUMPDEST SWAP3 POP POP POP DUP10 DUP2 DUP2 RETURNDATASIZE DUP4 GT PUSH2 0xBF8 JUMPI JUMPDEST PUSH2 0xBDB DUP2 DUP4 PUSH2 0x848 JUMP JUMPDEST DUP2 ADD SUB SLT PUSH2 0xBF4 JUMPI DUP3 PUSH2 0xBEE DUP7 SWAP3 PUSH2 0xC82 JUMP JUMPDEST CODESIZE PUSH2 0x9ED JUMP JUMPDEST DUP5 DUP1 REVERT JUMPDEST POP RETURNDATASIZE PUSH2 0xBD1 JUMP JUMPDEST DUP9 MLOAD RETURNDATASIZE DUP8 DUP3 RETURNDATACOPY RETURNDATASIZE SWAP1 REVERT JUMPDEST PUSH2 0xC34 SWAP2 POP PUSH32 0x0 PUSH2 0xFB3 JUMP JUMPDEST PUSH2 0x9C2 JUMP JUMPDEST SWAP1 SWAP6 POP PUSH1 0x1 PUSH1 0x1 PUSH1 0x40 SHL SUB DUP2 GT PUSH2 0xC57 JUMPI DUP9 MSTORE PUSH1 0x0 SWAP5 PUSH2 0x9A1 PUSH2 0x996 JUMP JUMPDEST DUP7 PUSH1 0x41 DUP10 PUSH4 0x4E487B71 PUSH1 0xE0 SHL PUSH1 0x0 MSTORE MSTORE PUSH1 0x0 REVERT JUMPDEST DUP11 MLOAD RETURNDATASIZE PUSH1 0x0 DUP3 RETURNDATACOPY RETURNDATASIZE SWAP1 REVERT JUMPDEST SWAP1 POP PUSH2 0x894 JUMP JUMPDEST POP SWAP1 POP JUMP JUMPDEST MLOAD SWAP1 PUSH1 0x1 PUSH1 0x1 PUSH1 0xA0 SHL SUB DUP3 AND DUP3 SUB PUSH2 0x6E8 JUMPI JUMP JUMPDEST SWAP1 PUSH1 0xA DUP2 LT ISZERO PUSH2 0xCA7 JUMPI PUSH1 0x5 SHL ADD SWAP1 JUMP JUMPDEST PUSH4 0x4E487B71 PUSH1 0xE0 SHL PUSH1 0x0 MSTORE PUSH1 0x32 PUSH1 0x4 MSTORE PUSH1 0x24 PUSH1 0x0 REVERT JUMPDEST PUSH1 0x40 MLOAD PUSH4 0xAB6C609 PUSH1 0xE4 SHL DUP2 MSTORE PUSH1 0x1 PUSH1 0x1 PUSH1 0xA0 SHL SUB SWAP2 DUP3 AND PUSH1 0x4 DUP1 DUP4 ADD SWAP2 SWAP1 SWAP2 MSTORE SWAP3 PUSH2 0x280 SWAP3 SWAP1 PUSH1 0x24 DUP5 DUP5 DUP3 DUP2 PUSH32 0x0 DUP8 AND GAS STATICCALL SWAP5 DUP6 ISZERO PUSH2 0xF68 JUMPI PUSH1 0x0 SWAP5 DUP6 SWAP7 PUSH2 0xEAA JUMPI JUMPDEST POP POP PUSH1 0x0 SWAP1 DUP2 JUMPDEST PUSH1 0xA DUP2 LT PUSH2 0xE69 JUMPI POP DUP2 ISZERO SWAP6 DUP7 PUSH2 0xE35 JUMPI PUSH1 0x0 SWAP8 DUP9 JUMPDEST PUSH1 0xA DUP11 LT PUSH2 0xD51 JUMPI POP POP POP POP POP POP POP POP POP POP JUMP JUMPDEST DUP7 PUSH2 0xD5C DUP12 DUP11 PUSH2 0xC96 JUMP JUMPDEST MLOAD AND ISZERO DUP1 ISZERO PUSH2 0xE23 JUMPI JUMPDEST PUSH2 0xE19 JUMPI DUP10 DUP9 DUP9 DUP9 PUSH1 0x0 PUSH1 0x9 DUP6 SUB PUSH2 0xDB3 JUMPI POP PUSH2 0xDA7 SWAP4 SWAP3 DUP6 SWAP3 PUSH2 0xD9B PUSH2 0xD93 PUSH2 0xDAD SWAP9 PUSH2 0xDA2 SWAP6 PUSH2 0x7FA JUMP JUMPDEST SWAP6 DUP7 SWAP4 PUSH2 0xC96 JUMP JUMPDEST MLOAD AND PUSH2 0xFB3 JUMP JUMPDEST PUSH2 0x75D JUMP JUMPDEST SWAP10 PUSH2 0x807 JUMP JUMPDEST SWAP9 PUSH2 0xD3D JUMP JUMPDEST SWAP4 SWAP2 POP POP PUSH2 0xDC2 SWAP2 POP DUP6 PUSH2 0xC96 JUMP JUMPDEST MLOAD SWAP1 DUP2 DUP9 MUL SWAP2 DUP9 DUP4 DIV EQ DUP9 ISZERO OR ISZERO PUSH2 0xE07 JUMPI DUP11 PUSH2 0xDF5 JUMPI POP DUP11 PUSH2 0xDAD SWAP3 PUSH2 0xDA2 DUP12 DUP12 PUSH2 0xD9B DUP12 PUSH2 0xDA7 SWAP8 DIV SWAP6 DUP7 SWAP4 PUSH2 0xC96 JUMP JUMPDEST PUSH4 0x4E487B71 PUSH1 0xE0 SHL DUP2 MSTORE PUSH1 0x12 DUP5 MSTORE DUP6 SWAP1 REVERT JUMPDEST PUSH4 0x4E487B71 PUSH1 0xE0 SHL DUP2 MSTORE PUSH1 0x11 DUP5 MSTORE DUP6 SWAP1 REVERT JUMPDEST SWAP9 PUSH2 0xDAD SWAP1 PUSH2 0x807 JUMP JUMPDEST POP PUSH2 0xE2E DUP11 DUP5 PUSH2 0xC96 JUMP JUMPDEST MLOAD ISZERO PUSH2 0xD66 JUMP JUMPDEST POP POP POP SWAP3 POP POP POP PUSH2 0xE67 SWAP2 POP PUSH32 0x0 PUSH2 0xFB3 JUMP JUMPDEST JUMP JUMPDEST DUP5 PUSH2 0xE74 DUP3 DUP9 PUSH2 0xC96 JUMP JUMPDEST MLOAD AND PUSH2 0xE89 JUMPI JUMPDEST PUSH2 0xE84 SWAP1 PUSH2 0x807 JUMP JUMPDEST PUSH2 0xD27 JUMP JUMPDEST SWAP2 PUSH2 0xEA2 PUSH2 0xE84 SWAP2 PUSH2 0xE9B DUP6 DUP11 PUSH2 0xC96 JUMP JUMPDEST MLOAD SWAP1 PUSH2 0x75D JUMP JUMPDEST SWAP3 SWAP1 POP PUSH2 0xE7B JUMP JUMPDEST SWAP1 DUP1 SWAP6 SWAP3 SWAP7 POP RETURNDATASIZE DUP7 GT PUSH2 0xF61 JUMPI JUMPDEST PUSH2 0xEC2 DUP2 DUP4 PUSH2 0x848 JUMP JUMPDEST DUP2 ADD SWAP1 DUP6 DUP2 DUP4 SUB SLT PUSH2 0x2CF JUMPI DUP2 PUSH1 0x1F DUP3 ADD SLT ISZERO PUSH2 0x2CF JUMPI PUSH1 0x40 MLOAD SWAP3 PUSH2 0xEE6 DUP5 PUSH2 0x816 JUMP JUMPDEST PUSH2 0x140 DUP3 ADD SWAP1 DUP5 DUP5 DUP4 GT PUSH2 0x1A5 JUMPI DUP4 SWAP1 JUMPDEST DUP4 DUP3 LT PUSH2 0xF49 JUMPI POP POP DUP4 PUSH2 0x15F DUP5 ADD SLT ISZERO PUSH2 0x566 JUMPI PUSH1 0x40 MLOAD SWAP8 PUSH2 0xF19 DUP10 PUSH2 0x816 JUMP JUMPDEST DUP9 SWAP4 ADD SWAP4 DUP5 GT PUSH2 0x566 JUMPI POP SWAP1 JUMPDEST DUP3 DUP3 LT PUSH2 0xF39 JUMPI POP POP POP SWAP3 SWAP4 CODESIZE DUP1 PUSH2 0xD20 JUMP JUMPDEST DUP2 MLOAD DUP2 MSTORE PUSH1 0x20 SWAP2 DUP3 ADD SWAP2 ADD PUSH2 0xF26 JUMP JUMPDEST PUSH1 0x20 DUP1 SWAP2 PUSH2 0xF56 DUP5 PUSH2 0xC82 JUMP JUMPDEST DUP2 MSTORE ADD SWAP2 ADD SWAP1 PUSH2 0xEF7 JUMP JUMPDEST POP RETURNDATASIZE PUSH2 0xEB8 JUMP JUMPDEST PUSH1 0x40 MLOAD RETURNDATASIZE PUSH1 0x0 DUP3 RETURNDATACOPY RETURNDATASIZE SWAP1 REVERT JUMPDEST RETURNDATASIZE ISZERO PUSH2 0xFAE JUMPI RETURNDATASIZE SWAP1 PUSH1 0x1 PUSH1 0x1 PUSH1 0x40 SHL SUB DUP3 GT PUSH2 0x832 JUMPI PUSH1 0x40 MLOAD SWAP2 PUSH2 0xFA2 PUSH1 0x1F DUP3 ADD PUSH1 0x1F NOT AND PUSH1 0x20 ADD DUP5 PUSH2 0x848 JUMP JUMPDEST DUP3 MSTORE RETURNDATASIZE PUSH1 0x0 PUSH1 0x20 DUP5 ADD RETURNDATACOPY JUMP JUMPDEST PUSH1 0x60 SWAP1 JUMP JUMPDEST DUP2 ISZERO DUP1 ISZERO PUSH2 0x101A JUMPI JUMPDEST PUSH2 0x1016 JUMPI PUSH1 0x0 SWAP2 DUP3 SWAP2 DUP3 SWAP2 DUP3 SWAP2 PUSH1 0x1 PUSH1 0x1 PUSH1 0xA0 SHL SUB AND GAS CALL PUSH2 0xFDC PUSH2 0xF74 JUMP JUMPDEST POP ISZERO PUSH2 0xFE4 JUMPI JUMP JUMPDEST PUSH1 0x40 MLOAD PUSH3 0x461BCD PUSH1 0xE5 SHL DUP2 MSTORE PUSH1 0x20 PUSH1 0x4 DUP3 ADD MSTORE PUSH1 0xA PUSH1 0x24 DUP3 ADD MSTORE PUSH10 0x1155120819985A5B1959 PUSH1 0xB2 SHL PUSH1 0x44 DUP3 ADD MSTORE PUSH1 0x64 SWAP1 REVERT JUMPDEST POP POP JUMP JUMPDEST POP PUSH1 0x1 PUSH1 0x1 PUSH1 0xA0 SHL SUB DUP2 AND ISZERO PUSH2 0xFBC JUMP INVALID 0xAA COINBASE SWAP9 0xE1 0x5C 0xE4 PUSH7 0x6385864542ABB6 0xC3 EXTCODECOPY POP 0xCC SWAP5 ISZERO 0xEE CALLDATASIZE 0xBB PUSH31 0xB4E6F8188FFF6347A264697066735822122048DE7EC6DE20B6DE3B6225C62E AND RETURNDATASIZE DUP2 0xE0 PUSH25 0xE0FABE09A2172762D376418EEE8664736F6C63430008140033 "},"methodIdentifiers":{"ARMORY_BPS()":"e4e4f374","FORTIFY_BPS()":"1cb19421","HOLDERS_BPS()":"5f828218","LASTBUY_BPS()":"4657592f","LIQ_BPS()":"351afe83","MAX_PAYOUT()":"4b9ddafe","PLATFORM_BPS()":"ce91e164","THRESHOLD()":"785ffb37","authorizeCurve(address)":"b0efd714","authorizedCurves(address)":"d304052f","authorizedVaults(address)":"393b8516","factory()":"c45a0155","getBalance()":"12065fe0","isActive()":"22f3e2d4","lastBuyBlock(address)":"37b28bfd","lastBuyer(address)":"a5bb625e","locked()":"cf309012","payoutCount()":"57831809","platformWallet()":"fa2af9da","protocolVault()":"5a9249e6","receiveEth()":"4185f8eb","recordBuy(address,address,uint256)":"14ea9b35","recordGraduation(address)":"7756cf7e","setFactory(address)":"5bb47808","totalPaidOut()":"1357e1dc","totalReceived()":"a3c2c462","triggerPayout(address)":"ba65b81b"}}}}}