{"contracts/ProtocolVault.sol":{"ProtocolVault":{"abi":[{"inputs":[{"internalType":"address","name":"_platform","type":"address"}],"stateMutability":"nonpayable","type":"constructor"},{"anonymous":false,"inputs":[{"indexed":true,"internalType":"address","name":"token","type":"address"},{"indexed":false,"internalType":"uint256","name":"wethAmt","type":"uint256"}],"name":"FeesCollected","type":"event"},{"anonymous":false,"inputs":[{"indexed":true,"internalType":"address","name":"token","type":"address"},{"indexed":false,"internalType":"uint256","name":"ethAmt","type":"uint256"}],"name":"LiqBoosted","type":"event"},{"anonymous":false,"inputs":[{"indexed":true,"internalType":"address","name":"token","type":"address"},{"indexed":true,"internalType":"address","name":"pool","type":"address"},{"indexed":false,"internalType":"uint256","name":"tokenId","type":"uint256"}],"name":"LiqDeployed","type":"event"},{"anonymous":false,"inputs":[{"indexed":true,"internalType":"address","name":"token","type":"address"}],"name":"TokenReg","type":"event"},{"inputs":[],"name":"FORT_BPS","outputs":[{"internalType":"uint256","name":"","type":"uint256"}],"stateMutability":"view","type":"function"},{"inputs":[],"name":"PLAT_BPS","outputs":[{"internalType":"uint256","name":"","type":"uint256"}],"stateMutability":"view","type":"function"},{"inputs":[],"name":"POOL_FEE","outputs":[{"internalType":"uint24","name":"","type":"uint24"}],"stateMutability":"view","type":"function"},{"inputs":[],"name":"POS_MGR","outputs":[{"internalType":"address","name":"","type":"address"}],"stateMutability":"view","type":"function"},{"inputs":[],"name":"TICK_HIGH","outputs":[{"internalType":"int24","name":"","type":"int24"}],"stateMutability":"view","type":"function"},{"inputs":[],"name":"TICK_LOW","outputs":[{"internalType":"int24","name":"","type":"int24"}],"stateMutability":"view","type":"function"},{"inputs":[],"name":"UNI_FACTORY","outputs":[{"internalType":"address","name":"","type":"address"}],"stateMutability":"view","type":"function"},{"inputs":[],"name":"WAR_BPS","outputs":[{"internalType":"uint256","name":"","type":"uint256"}],"stateMutability":"view","type":"function"},{"inputs":[],"name":"WETH","outputs":[{"internalType":"address","name":"","type":"address"}],"stateMutability":"view","type":"function"},{"inputs":[{"internalType":"uint256","name":"","type":"uint256"}],"name":"allTokens","outputs":[{"internalType":"address","name":"","type":"address"}],"stateMutability":"view","type":"function"},{"inputs":[{"internalType":"address","name":"curve","type":"address"}],"name":"authorizeCurve","outputs":[],"stateMutability":"nonpayable","type":"function"},{"inputs":[{"internalType":"address","name":"","type":"address"}],"name":"authorizedCurves","outputs":[{"internalType":"bool","name":"","type":"bool"}],"stateMutability":"view","type":"function"},{"inputs":[{"internalType":"address","name":"","type":"address"}],"name":"authorizedFactories","outputs":[{"internalType":"bool","name":"","type":"bool"}],"stateMutability":"view","type":"function"},{"inputs":[{"internalType":"address","name":"token","type":"address"}],"name":"boostLiquidity","outputs":[],"stateMutability":"payable","type":"function"},{"inputs":[],"name":"collectAllFees","outputs":[],"stateMutability":"nonpayable","type":"function"},{"inputs":[{"internalType":"address","name":"token","type":"address"}],"name":"collectFees","outputs":[],"stateMutability":"nonpayable","type":"function"},{"inputs":[{"internalType":"address","name":"token","type":"address"},{"internalType":"uint256","name":"tokenAmt","type":"uint256"},{"internalType":"uint256","name":"ethAmt","type":"uint256"}],"name":"deployLiquidity","outputs":[{"internalType":"address","name":"pool","type":"address"}],"stateMutability":"payable","type":"function"},{"inputs":[],"name":"factory","outputs":[{"internalType":"address","name":"","type":"address"}],"stateMutability":"view","type":"function"},{"inputs":[],"name":"getAllTokens","outputs":[{"internalType":"address[]","name":"","type":"address[]"}],"stateMutability":"view","type":"function"},{"inputs":[{"internalType":"address","name":"token","type":"address"}],"name":"getArmoryVault","outputs":[{"internalType":"address","name":"","type":"address"}],"stateMutability":"view","type":"function"},{"inputs":[{"internalType":"address","name":"token","type":"address"}],"name":"getFortify","outputs":[{"internalType":"address","name":"","type":"address"}],"stateMutability":"view","type":"function"},{"inputs":[{"internalType":"address","name":"token","type":"address"}],"name":"getPool","outputs":[{"internalType":"address","name":"","type":"address"}],"stateMutability":"view","type":"function"},{"inputs":[{"internalType":"address","name":"token","type":"address"}],"name":"getTopHolders","outputs":[{"internalType":"address[10]","name":"holders","type":"address[10]"},{"internalType":"uint256[10]","name":"balances","type":"uint256[10]"}],"stateMutability":"view","type":"function"},{"inputs":[{"internalType":"address","name":"token","type":"address"}],"name":"isGraduated","outputs":[{"internalType":"bool","name":"","type":"bool"}],"stateMutability":"view","type":"function"},{"inputs":[],"name":"locked","outputs":[{"internalType":"bool","name":"","type":"bool"}],"stateMutability":"view","type":"function"},{"inputs":[],"name":"platformWallet","outputs":[{"internalType":"address","name":"","type":"address"}],"stateMutability":"view","type":"function"},{"inputs":[{"internalType":"address","name":"token","type":"address"},{"internalType":"address","name":"armory","type":"address"},{"internalType":"address","name":"fortify","type":"address"},{"internalType":"address","name":"","type":"address"}],"name":"registerToken","outputs":[],"stateMutability":"nonpayable","type":"function"},{"inputs":[{"internalType":"address","name":"_f","type":"address"}],"name":"setFactory","outputs":[],"stateMutability":"nonpayable","type":"function"},{"inputs":[{"internalType":"address","name":"_wc","type":"address"}],"name":"setWarChest","outputs":[],"stateMutability":"nonpayable","type":"function"},{"inputs":[{"internalType":"address","name":"","type":"address"}],"name":"snapshots","outputs":[{"internalType":"uint256","name":"updated","type":"uint256"}],"stateMutability":"view","type":"function"},{"inputs":[{"internalType":"address","name":"","type":"address"}],"name":"tdata","outputs":[{"internalType":"address","name":"pool","type":"address"},{"internalType":"uint256","name":"lpTokenId","type":"uint256"},{"internalType":"address","name":"armoryVault","type":"address"},{"internalType":"address","name":"fortify","type":"address"},{"internalType":"address","name":"lastBuyer","type":"address"},{"internalType":"bool","name":"graduated","type":"bool"}],"stateMutability":"view","type":"function"},{"inputs":[{"internalType":"address","name":"token","type":"address"},{"internalType":"address[10]","name":"holders","type":"address[10]"},{"internalType":"uint256[10]","name":"balances","type":"uint256[10]"}],"name":"updateHolderSnapshot","outputs":[],"stateMutability":"nonpayable","type":"function"},{"inputs":[],"name":"warChest","outputs":[{"internalType":"address","name":"","type":"address"}],"stateMutability":"view","type":"function"},{"stateMutability":"payable","type":"receive"}],"evm":{"bytecode":{"linkReferences":{},"object":"6080346100b257601f611f6638819003918201601f19168301916001600160401b038311848410176100b7578084926020946040528339810103126100b257516001600160a01b038116908190036100b257801561007a57600080546001600160a01b031916919091179055604051611e9890816100ce8239f35b60405162461bcd60e51b815260206004820152601060248201526f496e76616c696420706c6174666f726d60801b6044820152606490fd5b600080fd5b634e487b7160e01b600052604160045260246000fdfe6080604052600436101561001b575b361561001957600080fd5b005b6000803560e01c806304523fbf146113ff5780630c25213c146113e25780631375e273146113645780632a5c792a146112bc57806334b3081f1461127f5780634c3351411461126057806355acfa50146110a15780635bb4780814611039578063634282af14610ff5578063686f2c9014610f5157806368a4c8b714610f0b57806389fc005614610edc57806396c1c8b914610ebe578063973d4e581461072e5780639ed1057d146106ee578063a421eba0146106af578063a480ca791461065d578063ab6c609014610532578063ad5c46481461050f578063b0efd7141461049f578063b1be15d31461044e578063bb22e37114610425578063bbe4f6db146103e9578063bd865cba146103ba578063c45a015514610391578063c5a660b914610374578063cf3090121461034e578063d304052f1461030f578063dd1b9c4a146102f2578063e05d7b84146102d5578063ecd24a8214610296578063f8ac9f3a146101bb5763fa2af9da14610192575061000e565b346101b857806003193601126101b857546040516001600160a01b039091168152602090f35b80fd5b50346101b8576102a03660031901126101b8576101d6611730565b6101649036821161029257366102a411610292576001600160a01b039081168352600560208190526040842092600a808501939092865b84811061021e574260148801558780f35b80821b90816024013591848316830361028e5761026161028993610242848c611d50565b90919082549060031b9160018060a01b03809116831b921b1916179055565b61026b8289611d50565b819291549060031b91880135821b91600019901b1916179055611d41565b61020d565b8980fd5b8280fd5b50346101b85760203660031901126101b85760209060ff906040906001600160a01b036102c1611730565b168152600784522054166040519015158152f35b50346101b857806003193601126101b8576020604051610fa08152f35b50346101b857806003193601126101b85760206040516127108152f35b50346101b85760203660031901126101b85760209060ff906040906001600160a01b0361033a611730565b168152600684522054166040519015158152f35b50346101b857806003193601126101b857602060ff60025460a01c166040519015158152f35b50346101b857806003193601126101b85760206040516113888152f35b50346101b857806003193601126101b8576002546040516001600160a01b039091168152602090f35b50346101b857806003193601126101b85760206040517303a520b32c04bf3beef7beb72e919cf822ed34f18152f35b50346101b85760203660031901126101b8576020906001600160a01b039060409082610413611730565b16815260038452205416604051908152f35b50346101b857806003193601126101b8576001546040516001600160a01b039091168152602090f35b50346101b85760203660031901126101b857610468611730565b600154906001600160a01b039061048182841615611777565b169061048e8215156117b1565b6001600160a01b0319161760015580f35b50346101b85760203660031901126101b8576104b9611730565b338252600760205260ff60408320541680156104fb575b6104d9906117e7565b6001600160a01b03168152600660205260408120805460ff1916600117905580f35b506002546001600160a01b031633146104d0565b50346101b857806003193601126101b8576040516006602160991b018152602090f35b50346101b857602090816003193601126101b8579061054f611730565b906040519161055d8361186d565b6101408093369037826040516105728161186d565b3690376001600160a01b0390811680855260058352604080862090519591908285885b600a831061064457505050506105aa8661186d565b815260058352600a938460408320019260405193848685915b89831061062d57505050506105d78461186d565b60405196839086895b89841061061457505050505085019190915b8483106105ff5761028086f35b838060019284518152019201920191906105f2565b82518516815260019390930192918101918891016105e0565b8354815260019384019392909201918891016105c3565b8354871681526001938401939290920191879101610595565b50346101b85760203660031901126101b857610677611730565b6106a56002549161068e60ff8460a01c1615611822565b60ff60a01b19928316600160a01b176002556119e3565b6002541660025580f35b50346101b85760203660031901126101b8576020906001600160a01b0390600390604090836106dc611730565b16815282855220015416604051908152f35b50346101b85760203660031901126101b8576020906001600160a01b03906002906040908361071b611730565b1681526003855220015416604051908152f35b5060603660031901126101b857610743611730565b60025461075660ff8260a01c1615611822565b60ff60a01b1916600160a01b176002553382526006602052604082205460ff1615610e8c576044353403610e58576001600160a01b03811682526003602052604082206004015460a01c60ff16610e1f576006602160991b013b15610b7457604051630d0e30db60e41b8152829081816004816044356006602160991b015af18015610bc757610e0b575b50506006602160991b016001600160a01b0382161015610dfc579081906006602160991b015b604051630b4c774160e11b815290602082806108278489600484016118cb565b03817333128a8fc17869897dce68ed026d694621f6fdfd5afa918215610b78578392610ddb575b506001600160a01b03821615610c61575b60405163095ea7b360e01b81527303a520b32c04bf3beef7beb72e919cf822ed34f160048201526024803590820152602081604481876001600160a01b038a165af18015610c3757610c42575b5060405163095ea7b360e01b81527303a520b32c04bf3beef7beb72e919cf822ed34f16004820152604480356024830152602090829081876006602160991b015af18015610c3757610c08575b506006602160991b016001600160a01b0385161015610bfc57602435604435915b61012c42014211610be857604051966001600160401b03610160890190811190891117610bd257610160880160405260018060a01b0316875260018060a01b031660208701526127106040870152620d899f196060870152620d89a0608087015260a086015260c08501528160e0850152816101008501523061012085015261012c420161014085015261014060405194634418b22b60e11b865260018060a01b03815116600487015260018060a01b03602082015116602487015262ffffff6040820151166044870152606081015160020b6064870152608081015160020b608487015260a081015160a487015260c081015160c487015260e081015160e487015261010081015161010487015260018060a01b0361012082015116610124870152015161014485015260808461016481857303a520b32c04bf3beef7beb72e919cf822ed34f15af18015610bc7578290610b83575b6001600160a01b0380851680855260036020908152604080872080546001600160a01b03191696909416958617845560018401859055600493909301805460ff60a01b1916600160a01b17905591519283529495509193849290917f4ada9988b6caa856553453e24786df5e4451e576d3963b200d96a0348890fdf39190a36001546001600160a01b03169283610b1b575b6002805460ff60a01b19169055604051838152602090f35b8382943b156102925760405163ba65b81b60e01b81526001600160a01b0390921660048301529091908290602490829084905af18015610b7857610b60575b80610b03565b610b6a839161185a565b610b745781610b5a565b5080fd5b6040513d85823e3d90fd5b506080843d8211610bbf575b81610b9c60809383611889565b81010312610b745783610bb6602060049596519201611928565b50849350610a71565b3d9150610b8f565b6040513d84823e3d90fd5b634e487b7160e01b600052604160045260246000fd5b634e487b7160e01b85526011600452602485fd5b6044356024359161091a565b610c299060203d602011610c30575b610c218183611889565b8101906118ed565b50386108f9565b503d610c17565b6040513d86823e3d90fd5b610c5a9060203d602011610c3057610c218183611889565b50386108ac565b60405163a167129560e01b8152915060208280610c828489600484016118cb565b0381867333128a8fc17869897dce68ed026d694621f6fdfd5af1918215610b78578392610daa575b50816001600160a01b0386811690861603610d7e57670de0b6b3a7640000806044350290604435820414604435151715610be857610cee610cf39160243590611977565b611dd8565b808060601b04600160601b1481151715610be8576001600160a01b0382163b15610d7a5760405163f637731d60e01b81526001600160a01b03633b9aca0060609390931b9290920482166004820152918591839160249183918591165af18015610c3757908491610d66575b505061085f565b610d6f9061185a565b610292578238610d5f565b8480fd5b670de0b6b3a7640000602435818102918115918304141715610be857610cee610cf39160443590611977565b610dcd91925060203d602011610dd4575b610dc58183611889565b8101906118ac565b9038610caa565b503d610dbb565b610df591925060203d602011610dd457610dc58183611889565b903861084e565b6006602160991b019181610807565b610e149061185a565b610b745781386107e1565b60405162461bcd60e51b8152602060048201526011602482015270105b1c9958591e4819dc98591d585d1959607a1b6044820152606490fd5b60405162461bcd60e51b815260206004820152600c60248201526b08aa89040dad2e6dac2e8c6d60a31b6044820152606490fd5b60405162461bcd60e51b815260206004820152600a6024820152694f6e6c7920637572766560b01b6044820152606490fd5b50346101b857806003193601126101b8576020604051620d89a08152f35b50346101b857806003193601126101b85760206040517333128a8fc17869897dce68ed026d694621f6fdfd8152f35b50346101b85760203660031901126101b85760209060ff906004906040906001600160a01b03610f39611730565b1681526003855220015460a01c166040519015158152f35b50346101b857806003193601126101b857805b600454811015610ff15781610f7882611746565b9054600391821b1c6001600160a01b0316808352602091909152604082206004015460a01c60ff16610fb5575b5050610fb090611d41565b610f64565b303b15610b74576040519063a480ca7960e01b82526004820152818160248183305af115610fa557610fe69061185a565b610b74578138610fa5565b5080f35b50346101b85760203660031901126101b857600435906004548210156101b857602061102083611746565b905460405160039290921b1c6001600160a01b03168152f35b50346101b85760203660031901126101b857611053611730565b600254906001600160a01b039061106c82841615611777565b16809161107a8215156117b1565b6001600160a01b031916176002558152600760205260408120805460ff1916600117905580f35b50346101b85760803660031901126101b8576110bb611730565b6001600160a01b03906024358281169081900361125b576044359280841680940361125b576064358181160361125b57338552600760205260ff604086205416801561124e575b61110b906117e7565b82169283156112195781156111e35780156111ac5783855260036020819052604086206002810180546001600160a01b03199081169095179055018054909216179055600454600160401b81101561119857906102428260016111719401600455611746565b7fa09057c2eaa2dc2d017c0d50ebcf2364a92b5015223d4bf09be7e527773dec3d8280a280f35b634e487b7160e01b84526041600452602484fd5b60405162461bcd60e51b815260206004820152600f60248201526e496e76616c696420666f727469667960881b6044820152606490fd5b60405162461bcd60e51b815260206004820152600e60248201526d496e76616c69642061726d6f727960901b6044820152606490fd5b60405162461bcd60e51b815260206004820152600d60248201526c24b73b30b634b2103a37b5b2b760991b6044820152606490fd5b5060025481163314611102565b600080fd5b50346101b857806003193601126101b8576020604051620d899f198152f35b50346101b85760203660031901126101b8576020906014906040906001600160a01b036112aa611730565b16815260058452200154604051908152f35b50346101b857806003193601126101b857604051809160045490818352602080930180926004835284832090835b8181106113475750505084611300910385611889565b60405193838594850191818652518092526040850193925b82811061132757505050500390f35b83516001600160a01b031685528695509381019392810192600101611318565b82546001600160a01b0316845292860192600192830192016112ea565b50346101b85760203660031901126101b85760c0906001600160a01b039060ff9060409083611391611730565b168152600360205220828154169260018201549181600282015416600483600384015416920154936040519687526020870152604086015260608501528116608084015260a01c16151560a0820152f35b50346101b857806003193601126101b85760206040516103e88152f35b50602080600319360112610b7457611415611730565b906002549161142a60ff8460a01c1615611822565b60ff60a01b19928316600160a01b176002556001546001600160a01b039190821633036116fb5734156116cd5781169182855260038152604085209160ff600484015460a01c16806116c0575b6114809061193c565b6006602160991b01803b156116bc57604051630d0e30db60e41b8152878160048134865af180156116b15761169e575b5060405163095ea7b360e01b81527303a520b32c04bf3beef7beb72e919cf822ed34f160048201819052346024830152929084816044818c875af1801561167657611681575b506004848287541660405192838092630dfe168160e01b82525afa908115611676578991611659575b50160361164f5734600187945b015461012c42019283421161163b576040519060c08201906001600160401b03821183831017610bd25760609560c4948c93604052845287840195865260408401988952868401838152608085019084825260a086019283526040519a8b98899763219f5d1760e01b89525160048901525160248801525160448701525160648601525160848501525160a48401525af18015611630576115ea575b600080516020611e238339815191529150604051348152a26002541660025580f35b6060823d8211611628575b8161160260609383611889565b81010312610d7a57611622600080516020611e2383398151915292611928565b506115c8565b3d91506115f5565b6040513d87823e3d90fd5b634e487b7160e01b89526011600452602489fd5b856001349461152c565b6116709150853d8711610dd457610dc58183611889565b3861151f565b6040513d8b823e3d90fd5b61169790853d8711610c3057610c218183611889565b50386114f6565b6116aa9097919761185a565b95386114b0565b6040513d8a823e3d90fd5b8680fd5b5060018301541515611477565b60405162461bcd60e51b815260048101849052600660248201526509cde408aa8960d31b6044820152606490fd5b60405162461bcd60e51b815260048101849052600d60248201526c13db9b1e4815d85c90da195cdd609a1b6044820152606490fd5b600435906001600160a01b038216820361125b57565b60045481101561176157600460005260206000200190600090565b634e487b7160e01b600052603260045260246000fd5b1561177e57565b60405162461bcd60e51b815260206004820152600b60248201526a105b1c9958591e481cd95d60aa1b6044820152606490fd5b156117b857565b60405162461bcd60e51b8152602060048201526007602482015266125b9d985b1a5960ca1b6044820152606490fd5b156117ee57565b60405162461bcd60e51b815260206004820152600c60248201526b4f6e6c7920666163746f727960a01b6044820152606490fd5b1561182957565b60405162461bcd60e51b81526020600482015260096024820152681499595b9d1c985b9d60ba1b6044820152606490fd5b6001600160401b038111610bd257604052565b61014081019081106001600160401b03821117610bd257604052565b601f909101601f19168101906001600160401b03821190821017610bd257604052565b9081602091031261125b57516001600160a01b038116810361125b5790565b6001600160a01b03918216815291166020820152612710604082015260600190565b9081602091031261125b5751801515810361125b5790565b9190820180921161191257565b634e487b7160e01b600052601160045260246000fd5b51906001600160801b038216820361125b57565b1561194357565b60405162461bcd60e51b815260206004820152600c60248201526b4e6f7420656c696769626c6560a01b6044820152606490fd5b8115611981570490565b634e487b7160e01b600052601260045260246000fd5b9190820391821161191257565b3d156119de573d906001600160401b038211610bd257604051916119d2601f8201601f191660200184611889565b82523d6000602084013e565b606090565b60009160018060a01b0380921680845260206003815260408086209560049660ff8882015460a01c1680611d34575b611a1b9061193c565b6001810154835190608082016001600160401b03811183821017611d215785528152308582019081526001600160801b0382860181815260608401828152875163fc6f786560e01b81529451858e015292518b166024850152518116604484015290511660648201528381608481867303a520b32c04bf3beef7beb72e919cf822ed34f15af18015611d175790899184918591611ce1575b50868a85541687519c8d8092630dfe168160e01b82525afa8015611cd7578a9b869b98999a9b91611cba575b506006602160991b0197168703611cb25750945b8515611ca657803b15611ca2578380916024875180948193632e1a7d4d60e01b83528b888401525af18015611c9857611c85575b506113888502916113871986840401611c725761271080930492610fa08088029088820403611c5f578b916003910492611b6a84611b65888c611997565b611997565b9580151580611c52575b611c3e575b5001541681151580611c35575b15611c11578480809381935af1611b9b6119a4565b5015611bd85750600080516020611e438339815191529596975b81611bc5575b50505051908152a2565b611bd0925416611d60565b388080611bbb565b835162461bcd60e51b81529081018690526013602482015272119bdc9d1a599e481cd95b990819985a5b1959606a1b6044820152606490fd5b50611c2f9150600080516020611e4383398151915297989992611905565b90611bb5565b50801515611b86565b611c4c908460015416611d60565b38611b79565b5083600154161515611b74565b634e487b7160e01b865260118452602486fd5b634e487b7160e01b845260118252602484fd5b611c919093919361185a565b9138611b27565b85513d86823e3d90fd5b8380fd5b50505050505050509050565b905094611af3565b611cd19150893d8b11610dd457610dc58183611889565b38611adf565b86513d87823e3d90fd5b925050508381813d8311611d10575b611cfa8183611889565b810103126102925780858a925191015138611ab3565b503d611cf0565b84513d85823e3d90fd5b634e487b7160e01b855260418b52602485fd5b5060018101541515611a12565b60001981146119125760010190565b600a821015611761570190600090565b81158015611dc7575b611dc3576000918291829182916001600160a01b03165af1611d896119a4565b5015611d9157565b60405162461bcd60e51b815260206004820152600a6024820152691155120819985a5b195960b21b6044820152606490fd5b5050565b506001600160a01b03811615611d69565b908115611e1c57600180830180841161191257811c90835b848310611dfc57505050565b90919350611e1384611e0e8184611977565b611905565b821c9190611df0565b6000915056fe5c0eec4199f95cf196fdac30f5458f67ba720232c0fce87b1540c0c7dc0e773f9dc46f23cfb5ddcad0ae7ea2be38d47fec07bb9382ec7e564efc69e036dd66cea26469706673582212200f87a958667ec2e0a83ba2c33cd6d3b3192ff89fe1da5e0d597c6dd4116e140464736f6c63430008140033","opcodes":"PUSH1 0x80 CALLVALUE PUSH2 0xB2 JUMPI PUSH1 0x1F PUSH2 0x1F66 CODESIZE DUP2 SWAP1 SUB SWAP2 DUP3 ADD PUSH1 0x1F NOT AND DUP4 ADD SWAP2 PUSH1 0x1 PUSH1 0x1 PUSH1 0x40 SHL SUB DUP4 GT DUP5 DUP5 LT OR PUSH2 0xB7 JUMPI DUP1 DUP5 SWAP3 PUSH1 0x20 SWAP5 PUSH1 0x40 MSTORE DUP4 CODECOPY DUP2 ADD SUB SLT PUSH2 0xB2 JUMPI MLOAD PUSH1 0x1 PUSH1 0x1 PUSH1 0xA0 SHL SUB DUP2 AND SWAP1 DUP2 SWAP1 SUB PUSH2 0xB2 JUMPI DUP1 ISZERO PUSH2 0x7A JUMPI PUSH1 0x0 DUP1 SLOAD PUSH1 0x1 PUSH1 0x1 PUSH1 0xA0 SHL SUB NOT AND SWAP2 SWAP1 SWAP2 OR SWAP1 SSTORE PUSH1 0x40 MLOAD PUSH2 0x1E98 SWAP1 DUP2 PUSH2 0xCE DUP3 CODECOPY RETURN JUMPDEST PUSH1 0x40 MLOAD PUSH3 0x461BCD PUSH1 0xE5 SHL DUP2 MSTORE PUSH1 0x20 PUSH1 0x4 DUP3 ADD MSTORE PUSH1 0x10 PUSH1 0x24 DUP3 ADD MSTORE PUSH16 0x496E76616C696420706C6174666F726D PUSH1 0x80 SHL PUSH1 0x44 DUP3 ADD MSTORE PUSH1 0x64 SWAP1 REVERT JUMPDEST PUSH1 0x0 DUP1 REVERT JUMPDEST PUSH4 0x4E487B71 PUSH1 0xE0 SHL PUSH1 0x0 MSTORE PUSH1 0x41 PUSH1 0x4 MSTORE PUSH1 0x24 PUSH1 0x0 REVERT INVALID PUSH1 0x80 PUSH1 0x40 MSTORE PUSH1 0x4 CALLDATASIZE LT ISZERO PUSH2 0x1B JUMPI JUMPDEST CALLDATASIZE ISZERO PUSH2 0x19 JUMPI PUSH1 0x0 DUP1 REVERT JUMPDEST STOP JUMPDEST PUSH1 0x0 DUP1 CALLDATALOAD PUSH1 0xE0 SHR DUP1 PUSH4 0x4523FBF EQ PUSH2 0x13FF JUMPI DUP1 PUSH4 0xC25213C EQ PUSH2 0x13E2 JUMPI DUP1 PUSH4 0x1375E273 EQ PUSH2 0x1364 JUMPI DUP1 PUSH4 0x2A5C792A EQ PUSH2 0x12BC JUMPI DUP1 PUSH4 0x34B3081F EQ PUSH2 0x127F JUMPI DUP1 PUSH4 0x4C335141 EQ PUSH2 0x1260 JUMPI DUP1 PUSH4 0x55ACFA50 EQ PUSH2 0x10A1 JUMPI DUP1 PUSH4 0x5BB47808 EQ PUSH2 0x1039 JUMPI DUP1 PUSH4 0x634282AF EQ PUSH2 0xFF5 JUMPI DUP1 PUSH4 0x686F2C90 EQ PUSH2 0xF51 JUMPI DUP1 PUSH4 0x68A4C8B7 EQ PUSH2 0xF0B JUMPI DUP1 PUSH4 0x89FC0056 EQ PUSH2 0xEDC JUMPI DUP1 PUSH4 0x96C1C8B9 EQ PUSH2 0xEBE JUMPI DUP1 PUSH4 0x973D4E58 EQ PUSH2 0x72E JUMPI DUP1 PUSH4 0x9ED1057D EQ PUSH2 0x6EE JUMPI DUP1 PUSH4 0xA421EBA0 EQ PUSH2 0x6AF JUMPI DUP1 PUSH4 0xA480CA79 EQ PUSH2 0x65D JUMPI DUP1 PUSH4 0xAB6C6090 EQ PUSH2 0x532 JUMPI DUP1 PUSH4 0xAD5C4648 EQ PUSH2 0x50F JUMPI DUP1 PUSH4 0xB0EFD714 EQ PUSH2 0x49F JUMPI DUP1 PUSH4 0xB1BE15D3 EQ PUSH2 0x44E JUMPI DUP1 PUSH4 0xBB22E371 EQ PUSH2 0x425 JUMPI DUP1 PUSH4 0xBBE4F6DB EQ PUSH2 0x3E9 JUMPI DUP1 PUSH4 0xBD865CBA EQ PUSH2 0x3BA JUMPI DUP1 PUSH4 0xC45A0155 EQ PUSH2 0x391 JUMPI DUP1 PUSH4 0xC5A660B9 EQ PUSH2 0x374 JUMPI DUP1 PUSH4 0xCF309012 EQ PUSH2 0x34E JUMPI DUP1 PUSH4 0xD304052F EQ PUSH2 0x30F JUMPI DUP1 PUSH4 0xDD1B9C4A EQ PUSH2 0x2F2 JUMPI DUP1 PUSH4 0xE05D7B84 EQ PUSH2 0x2D5 JUMPI DUP1 PUSH4 0xECD24A82 EQ PUSH2 0x296 JUMPI DUP1 PUSH4 0xF8AC9F3A EQ PUSH2 0x1BB JUMPI PUSH4 0xFA2AF9DA EQ PUSH2 0x192 JUMPI POP PUSH2 0xE JUMP JUMPDEST CALLVALUE PUSH2 0x1B8 JUMPI DUP1 PUSH1 0x3 NOT CALLDATASIZE ADD SLT PUSH2 0x1B8 JUMPI SLOAD PUSH1 0x40 MLOAD PUSH1 0x1 PUSH1 0x1 PUSH1 0xA0 SHL SUB SWAP1 SWAP2 AND DUP2 MSTORE PUSH1 0x20 SWAP1 RETURN JUMPDEST DUP1 REVERT JUMPDEST POP CALLVALUE PUSH2 0x1B8 JUMPI PUSH2 0x2A0 CALLDATASIZE PUSH1 0x3 NOT ADD SLT PUSH2 0x1B8 JUMPI PUSH2 0x1D6 PUSH2 0x1730 JUMP JUMPDEST PUSH2 0x164 SWAP1 CALLDATASIZE DUP3 GT PUSH2 0x292 JUMPI CALLDATASIZE PUSH2 0x2A4 GT PUSH2 0x292 JUMPI PUSH1 0x1 PUSH1 0x1 PUSH1 0xA0 SHL SUB SWAP1 DUP2 AND DUP4 MSTORE PUSH1 0x5 PUSH1 0x20 DUP2 SWAP1 MSTORE PUSH1 0x40 DUP5 KECCAK256 SWAP3 PUSH1 0xA DUP1 DUP6 ADD SWAP4 SWAP1 SWAP3 DUP7 JUMPDEST DUP5 DUP2 LT PUSH2 0x21E JUMPI TIMESTAMP PUSH1 0x14 DUP9 ADD SSTORE DUP8 DUP1 RETURN JUMPDEST DUP1 DUP3 SHL SWAP1 DUP2 PUSH1 0x24 ADD CALLDATALOAD SWAP2 DUP5 DUP4 AND DUP4 SUB PUSH2 0x28E JUMPI PUSH2 0x261 PUSH2 0x289 SWAP4 PUSH2 0x242 DUP5 DUP13 PUSH2 0x1D50 JUMP JUMPDEST SWAP1 SWAP2 SWAP1 DUP3 SLOAD SWAP1 PUSH1 0x3 SHL SWAP2 PUSH1 0x1 DUP1 PUSH1 0xA0 SHL SUB DUP1 SWAP2 AND DUP4 SHL SWAP3 SHL NOT AND OR SWAP1 SSTORE JUMP JUMPDEST PUSH2 0x26B DUP3 DUP10 PUSH2 0x1D50 JUMP JUMPDEST DUP2 SWAP3 SWAP2 SLOAD SWAP1 PUSH1 0x3 SHL SWAP2 DUP9 ADD CALLDATALOAD DUP3 SHL SWAP2 PUSH1 0x0 NOT SWAP1 SHL NOT AND OR SWAP1 SSTORE PUSH2 0x1D41 JUMP JUMPDEST PUSH2 0x20D JUMP JUMPDEST DUP10 DUP1 REVERT JUMPDEST DUP3 DUP1 REVERT JUMPDEST POP CALLVALUE PUSH2 0x1B8 JUMPI PUSH1 0x20 CALLDATASIZE PUSH1 0x3 NOT ADD SLT PUSH2 0x1B8 JUMPI PUSH1 0x20 SWAP1 PUSH1 0xFF SWAP1 PUSH1 0x40 SWAP1 PUSH1 0x1 PUSH1 0x1 PUSH1 0xA0 SHL SUB PUSH2 0x2C1 PUSH2 0x1730 JUMP JUMPDEST AND DUP2 MSTORE PUSH1 0x7 DUP5 MSTORE KECCAK256 SLOAD AND PUSH1 0x40 MLOAD SWAP1 ISZERO ISZERO DUP2 MSTORE RETURN JUMPDEST POP CALLVALUE PUSH2 0x1B8 JUMPI DUP1 PUSH1 0x3 NOT CALLDATASIZE ADD SLT PUSH2 0x1B8 JUMPI PUSH1 0x20 PUSH1 0x40 MLOAD PUSH2 0xFA0 DUP2 MSTORE RETURN JUMPDEST POP CALLVALUE PUSH2 0x1B8 JUMPI DUP1 PUSH1 0x3 NOT CALLDATASIZE ADD SLT PUSH2 0x1B8 JUMPI PUSH1 0x20 PUSH1 0x40 MLOAD PUSH2 0x2710 DUP2 MSTORE RETURN JUMPDEST POP CALLVALUE PUSH2 0x1B8 JUMPI PUSH1 0x20 CALLDATASIZE PUSH1 0x3 NOT ADD SLT PUSH2 0x1B8 JUMPI PUSH1 0x20 SWAP1 PUSH1 0xFF SWAP1 PUSH1 0x40 SWAP1 PUSH1 0x1 PUSH1 0x1 PUSH1 0xA0 SHL SUB PUSH2 0x33A PUSH2 0x1730 JUMP JUMPDEST AND DUP2 MSTORE PUSH1 0x6 DUP5 MSTORE KECCAK256 SLOAD AND PUSH1 0x40 MLOAD SWAP1 ISZERO ISZERO DUP2 MSTORE RETURN JUMPDEST POP CALLVALUE PUSH2 0x1B8 JUMPI DUP1 PUSH1 0x3 NOT CALLDATASIZE ADD SLT PUSH2 0x1B8 JUMPI PUSH1 0x20 PUSH1 0xFF PUSH1 0x2 SLOAD PUSH1 0xA0 SHR AND PUSH1 0x40 MLOAD SWAP1 ISZERO ISZERO DUP2 MSTORE RETURN JUMPDEST POP CALLVALUE PUSH2 0x1B8 JUMPI DUP1 PUSH1 0x3 NOT CALLDATASIZE ADD SLT PUSH2 0x1B8 JUMPI PUSH1 0x20 PUSH1 0x40 MLOAD PUSH2 0x1388 DUP2 MSTORE RETURN JUMPDEST POP CALLVALUE PUSH2 0x1B8 JUMPI DUP1 PUSH1 0x3 NOT CALLDATASIZE ADD SLT PUSH2 0x1B8 JUMPI PUSH1 0x2 SLOAD PUSH1 0x40 MLOAD PUSH1 0x1 PUSH1 0x1 PUSH1 0xA0 SHL SUB SWAP1 SWAP2 AND DUP2 MSTORE PUSH1 0x20 SWAP1 RETURN JUMPDEST POP CALLVALUE PUSH2 0x1B8 JUMPI DUP1 PUSH1 0x3 NOT CALLDATASIZE ADD SLT PUSH2 0x1B8 JUMPI PUSH1 0x20 PUSH1 0x40 MLOAD PUSH20 0x3A520B32C04BF3BEEF7BEB72E919CF822ED34F1 DUP2 MSTORE RETURN JUMPDEST POP CALLVALUE PUSH2 0x1B8 JUMPI PUSH1 0x20 CALLDATASIZE PUSH1 0x3 NOT ADD SLT PUSH2 0x1B8 JUMPI PUSH1 0x20 SWAP1 PUSH1 0x1 PUSH1 0x1 PUSH1 0xA0 SHL SUB SWAP1 PUSH1 0x40 SWAP1 DUP3 PUSH2 0x413 PUSH2 0x1730 JUMP JUMPDEST AND DUP2 MSTORE PUSH1 0x3 DUP5 MSTORE KECCAK256 SLOAD AND PUSH1 0x40 MLOAD SWAP1 DUP2 MSTORE RETURN JUMPDEST POP CALLVALUE PUSH2 0x1B8 JUMPI DUP1 PUSH1 0x3 NOT CALLDATASIZE ADD SLT PUSH2 0x1B8 JUMPI PUSH1 0x1 SLOAD PUSH1 0x40 MLOAD PUSH1 0x1 PUSH1 0x1 PUSH1 0xA0 SHL SUB SWAP1 SWAP2 AND DUP2 MSTORE PUSH1 0x20 SWAP1 RETURN JUMPDEST POP CALLVALUE PUSH2 0x1B8 JUMPI PUSH1 0x20 CALLDATASIZE PUSH1 0x3 NOT ADD SLT PUSH2 0x1B8 JUMPI PUSH2 0x468 PUSH2 0x1730 JUMP JUMPDEST PUSH1 0x1 SLOAD SWAP1 PUSH1 0x1 PUSH1 0x1 PUSH1 0xA0 SHL SUB SWAP1 PUSH2 0x481 DUP3 DUP5 AND ISZERO PUSH2 0x1777 JUMP JUMPDEST AND SWAP1 PUSH2 0x48E DUP3 ISZERO ISZERO PUSH2 0x17B1 JUMP JUMPDEST PUSH1 0x1 PUSH1 0x1 PUSH1 0xA0 SHL SUB NOT AND OR PUSH1 0x1 SSTORE DUP1 RETURN JUMPDEST POP CALLVALUE PUSH2 0x1B8 JUMPI PUSH1 0x20 CALLDATASIZE PUSH1 0x3 NOT ADD SLT PUSH2 0x1B8 JUMPI PUSH2 0x4B9 PUSH2 0x1730 JUMP JUMPDEST CALLER DUP3 MSTORE PUSH1 0x7 PUSH1 0x20 MSTORE PUSH1 0xFF PUSH1 0x40 DUP4 KECCAK256 SLOAD AND DUP1 ISZERO PUSH2 0x4FB JUMPI JUMPDEST PUSH2 0x4D9 SWAP1 PUSH2 0x17E7 JUMP JUMPDEST PUSH1 0x1 PUSH1 0x1 PUSH1 0xA0 SHL SUB AND DUP2 MSTORE PUSH1 0x6 PUSH1 0x20 MSTORE PUSH1 0x40 DUP2 KECCAK256 DUP1 SLOAD PUSH1 0xFF NOT AND PUSH1 0x1 OR SWAP1 SSTORE DUP1 RETURN JUMPDEST POP PUSH1 0x2 SLOAD PUSH1 0x1 PUSH1 0x1 PUSH1 0xA0 SHL SUB AND CALLER EQ PUSH2 0x4D0 JUMP JUMPDEST POP CALLVALUE PUSH2 0x1B8 JUMPI DUP1 PUSH1 0x3 NOT CALLDATASIZE ADD SLT PUSH2 0x1B8 JUMPI PUSH1 0x40 MLOAD PUSH1 0x6 PUSH1 0x21 PUSH1 0x99 SHL ADD DUP2 MSTORE PUSH1 0x20 SWAP1 RETURN JUMPDEST POP CALLVALUE PUSH2 0x1B8 JUMPI PUSH1 0x20 SWAP1 DUP2 PUSH1 0x3 NOT CALLDATASIZE ADD SLT PUSH2 0x1B8 JUMPI SWAP1 PUSH2 0x54F PUSH2 0x1730 JUMP JUMPDEST SWAP1 PUSH1 0x40 MLOAD SWAP2 PUSH2 0x55D DUP4 PUSH2 0x186D JUMP JUMPDEST PUSH2 0x140 DUP1 SWAP4 CALLDATASIZE SWAP1 CALLDATACOPY DUP3 PUSH1 0x40 MLOAD PUSH2 0x572 DUP2 PUSH2 0x186D JUMP JUMPDEST CALLDATASIZE SWAP1 CALLDATACOPY PUSH1 0x1 PUSH1 0x1 PUSH1 0xA0 SHL SUB SWAP1 DUP2 AND DUP1 DUP6 MSTORE PUSH1 0x5 DUP4 MSTORE PUSH1 0x40 DUP1 DUP7 KECCAK256 SWAP1 MLOAD SWAP6 SWAP2 SWAP1 DUP3 DUP6 DUP9 JUMPDEST PUSH1 0xA DUP4 LT PUSH2 0x644 JUMPI POP POP POP POP PUSH2 0x5AA DUP7 PUSH2 0x186D JUMP JUMPDEST DUP2 MSTORE PUSH1 0x5 DUP4 MSTORE PUSH1 0xA SWAP4 DUP5 PUSH1 0x40 DUP4 KECCAK256 ADD SWAP3 PUSH1 0x40 MLOAD SWAP4 DUP5 DUP7 DUP6 SWAP2 JUMPDEST DUP10 DUP4 LT PUSH2 0x62D JUMPI POP POP POP POP PUSH2 0x5D7 DUP5 PUSH2 0x186D JUMP JUMPDEST PUSH1 0x40 MLOAD SWAP7 DUP4 SWAP1 DUP7 DUP10 JUMPDEST DUP10 DUP5 LT PUSH2 0x614 JUMPI POP POP POP POP POP DUP6 ADD SWAP2 SWAP1 SWAP2 JUMPDEST DUP5 DUP4 LT PUSH2 0x5FF JUMPI PUSH2 0x280 DUP7 RETURN JUMPDEST DUP4 DUP1 PUSH1 0x1 SWAP3 DUP5 MLOAD DUP2 MSTORE ADD SWAP3 ADD SWAP3 ADD SWAP2 SWAP1 PUSH2 0x5F2 JUMP JUMPDEST DUP3 MLOAD DUP6 AND DUP2 MSTORE PUSH1 0x1 SWAP4 SWAP1 SWAP4 ADD SWAP3 SWAP2 DUP2 ADD SWAP2 DUP9 SWAP2 ADD PUSH2 0x5E0 JUMP JUMPDEST DUP4 SLOAD DUP2 MSTORE PUSH1 0x1 SWAP4 DUP5 ADD SWAP4 SWAP3 SWAP1 SWAP3 ADD SWAP2 DUP9 SWAP2 ADD PUSH2 0x5C3 JUMP JUMPDEST DUP4 SLOAD DUP8 AND DUP2 MSTORE PUSH1 0x1 SWAP4 DUP5 ADD SWAP4 SWAP3 SWAP1 SWAP3 ADD SWAP2 DUP8 SWAP2 ADD PUSH2 0x595 JUMP JUMPDEST POP CALLVALUE PUSH2 0x1B8 JUMPI PUSH1 0x20 CALLDATASIZE PUSH1 0x3 NOT ADD SLT PUSH2 0x1B8 JUMPI PUSH2 0x677 PUSH2 0x1730 JUMP JUMPDEST PUSH2 0x6A5 PUSH1 0x2 SLOAD SWAP2 PUSH2 0x68E PUSH1 0xFF DUP5 PUSH1 0xA0 SHR AND ISZERO PUSH2 0x1822 JUMP JUMPDEST PUSH1 0xFF PUSH1 0xA0 SHL NOT SWAP3 DUP4 AND PUSH1 0x1 PUSH1 0xA0 SHL OR PUSH1 0x2 SSTORE PUSH2 0x19E3 JUMP JUMPDEST PUSH1 0x2 SLOAD AND PUSH1 0x2 SSTORE DUP1 RETURN JUMPDEST POP CALLVALUE PUSH2 0x1B8 JUMPI PUSH1 0x20 CALLDATASIZE PUSH1 0x3 NOT ADD SLT PUSH2 0x1B8 JUMPI PUSH1 0x20 SWAP1 PUSH1 0x1 PUSH1 0x1 PUSH1 0xA0 SHL SUB SWAP1 PUSH1 0x3 SWAP1 PUSH1 0x40 SWAP1 DUP4 PUSH2 0x6DC PUSH2 0x1730 JUMP JUMPDEST AND DUP2 MSTORE DUP3 DUP6 MSTORE KECCAK256 ADD SLOAD AND PUSH1 0x40 MLOAD SWAP1 DUP2 MSTORE RETURN JUMPDEST POP CALLVALUE PUSH2 0x1B8 JUMPI PUSH1 0x20 CALLDATASIZE PUSH1 0x3 NOT ADD SLT PUSH2 0x1B8 JUMPI PUSH1 0x20 SWAP1 PUSH1 0x1 PUSH1 0x1 PUSH1 0xA0 SHL SUB SWAP1 PUSH1 0x2 SWAP1 PUSH1 0x40 SWAP1 DUP4 PUSH2 0x71B PUSH2 0x1730 JUMP JUMPDEST AND DUP2 MSTORE PUSH1 0x3 DUP6 MSTORE KECCAK256 ADD SLOAD AND PUSH1 0x40 MLOAD SWAP1 DUP2 MSTORE RETURN JUMPDEST POP PUSH1 0x60 CALLDATASIZE PUSH1 0x3 NOT ADD SLT PUSH2 0x1B8 JUMPI PUSH2 0x743 PUSH2 0x1730 JUMP JUMPDEST PUSH1 0x2 SLOAD PUSH2 0x756 PUSH1 0xFF DUP3 PUSH1 0xA0 SHR AND ISZERO PUSH2 0x1822 JUMP JUMPDEST PUSH1 0xFF PUSH1 0xA0 SHL NOT AND PUSH1 0x1 PUSH1 0xA0 SHL OR PUSH1 0x2 SSTORE CALLER DUP3 MSTORE PUSH1 0x6 PUSH1 0x20 MSTORE PUSH1 0x40 DUP3 KECCAK256 SLOAD PUSH1 0xFF AND ISZERO PUSH2 0xE8C JUMPI PUSH1 0x44 CALLDATALOAD CALLVALUE SUB PUSH2 0xE58 JUMPI PUSH1 0x1 PUSH1 0x1 PUSH1 0xA0 SHL SUB DUP2 AND DUP3 MSTORE PUSH1 0x3 PUSH1 0x20 MSTORE PUSH1 0x40 DUP3 KECCAK256 PUSH1 0x4 ADD SLOAD PUSH1 0xA0 SHR PUSH1 0xFF AND PUSH2 0xE1F JUMPI PUSH1 0x6 PUSH1 0x21 PUSH1 0x99 SHL ADD EXTCODESIZE ISZERO PUSH2 0xB74 JUMPI PUSH1 0x40 MLOAD PUSH4 0xD0E30DB PUSH1 0xE4 SHL DUP2 MSTORE DUP3 SWAP1 DUP2 DUP2 PUSH1 0x4 DUP2 PUSH1 0x44 CALLDATALOAD PUSH1 0x6 PUSH1 0x21 PUSH1 0x99 SHL ADD GAS CALL DUP1 ISZERO PUSH2 0xBC7 JUMPI PUSH2 0xE0B JUMPI JUMPDEST POP POP PUSH1 0x6 PUSH1 0x21 PUSH1 0x99 SHL ADD PUSH1 0x1 PUSH1 0x1 PUSH1 0xA0 SHL SUB DUP3 AND LT ISZERO PUSH2 0xDFC JUMPI SWAP1 DUP2 SWAP1 PUSH1 0x6 PUSH1 0x21 PUSH1 0x99 SHL ADD JUMPDEST PUSH1 0x40 MLOAD PUSH4 0xB4C7741 PUSH1 0xE1 SHL DUP2 MSTORE SWAP1 PUSH1 0x20 DUP3 DUP1 PUSH2 0x827 DUP5 DUP10 PUSH1 0x4 DUP5 ADD PUSH2 0x18CB JUMP JUMPDEST SUB DUP2 PUSH20 0x33128A8FC17869897DCE68ED026D694621F6FDFD GAS STATICCALL SWAP2 DUP3 ISZERO PUSH2 0xB78 JUMPI DUP4 SWAP3 PUSH2 0xDDB JUMPI JUMPDEST POP PUSH1 0x1 PUSH1 0x1 PUSH1 0xA0 SHL SUB DUP3 AND ISZERO PUSH2 0xC61 JUMPI JUMPDEST PUSH1 0x40 MLOAD PUSH4 0x95EA7B3 PUSH1 0xE0 SHL DUP2 MSTORE PUSH20 0x3A520B32C04BF3BEEF7BEB72E919CF822ED34F1 PUSH1 0x4 DUP3 ADD MSTORE PUSH1 0x24 DUP1 CALLDATALOAD SWAP1 DUP3 ADD MSTORE PUSH1 0x20 DUP2 PUSH1 0x44 DUP2 DUP8 PUSH1 0x1 PUSH1 0x1 PUSH1 0xA0 SHL SUB DUP11 AND GAS CALL DUP1 ISZERO PUSH2 0xC37 JUMPI PUSH2 0xC42 JUMPI JUMPDEST POP PUSH1 0x40 MLOAD PUSH4 0x95EA7B3 PUSH1 0xE0 SHL DUP2 MSTORE PUSH20 0x3A520B32C04BF3BEEF7BEB72E919CF822ED34F1 PUSH1 0x4 DUP3 ADD MSTORE PUSH1 0x44 DUP1 CALLDATALOAD PUSH1 0x24 DUP4 ADD MSTORE PUSH1 0x20 SWAP1 DUP3 SWAP1 DUP2 DUP8 PUSH1 0x6 PUSH1 0x21 PUSH1 0x99 SHL ADD GAS CALL DUP1 ISZERO PUSH2 0xC37 JUMPI PUSH2 0xC08 JUMPI JUMPDEST POP PUSH1 0x6 PUSH1 0x21 PUSH1 0x99 SHL ADD PUSH1 0x1 PUSH1 0x1 PUSH1 0xA0 SHL SUB DUP6 AND LT ISZERO PUSH2 0xBFC JUMPI PUSH1 0x24 CALLDATALOAD PUSH1 0x44 CALLDATALOAD SWAP2 JUMPDEST PUSH2 0x12C TIMESTAMP ADD TIMESTAMP GT PUSH2 0xBE8 JUMPI PUSH1 0x40 MLOAD SWAP7 PUSH1 0x1 PUSH1 0x1 PUSH1 0x40 SHL SUB PUSH2 0x160 DUP10 ADD SWAP1 DUP2 GT SWAP1 DUP10 GT OR PUSH2 0xBD2 JUMPI PUSH2 0x160 DUP9 ADD PUSH1 0x40 MSTORE PUSH1 0x1 DUP1 PUSH1 0xA0 SHL SUB AND DUP8 MSTORE PUSH1 0x1 DUP1 PUSH1 0xA0 SHL SUB AND PUSH1 0x20 DUP8 ADD MSTORE PUSH2 0x2710 PUSH1 0x40 DUP8 ADD MSTORE PUSH3 0xD899F NOT PUSH1 0x60 DUP8 ADD MSTORE PUSH3 0xD89A0 PUSH1 0x80 DUP8 ADD MSTORE PUSH1 0xA0 DUP7 ADD MSTORE PUSH1 0xC0 DUP6 ADD MSTORE DUP2 PUSH1 0xE0 DUP6 ADD MSTORE DUP2 PUSH2 0x100 DUP6 ADD MSTORE ADDRESS PUSH2 0x120 DUP6 ADD MSTORE PUSH2 0x12C TIMESTAMP ADD PUSH2 0x140 DUP6 ADD MSTORE PUSH2 0x140 PUSH1 0x40 MLOAD SWAP5 PUSH4 0x4418B22B PUSH1 0xE1 SHL DUP7 MSTORE PUSH1 0x1 DUP1 PUSH1 0xA0 SHL SUB DUP2 MLOAD AND PUSH1 0x4 DUP8 ADD MSTORE PUSH1 0x1 DUP1 PUSH1 0xA0 SHL SUB PUSH1 0x20 DUP3 ADD MLOAD AND PUSH1 0x24 DUP8 ADD MSTORE PUSH3 0xFFFFFF PUSH1 0x40 DUP3 ADD MLOAD AND PUSH1 0x44 DUP8 ADD MSTORE PUSH1 0x60 DUP2 ADD MLOAD PUSH1 0x2 SIGNEXTEND PUSH1 0x64 DUP8 ADD MSTORE PUSH1 0x80 DUP2 ADD MLOAD PUSH1 0x2 SIGNEXTEND PUSH1 0x84 DUP8 ADD MSTORE PUSH1 0xA0 DUP2 ADD MLOAD PUSH1 0xA4 DUP8 ADD MSTORE PUSH1 0xC0 DUP2 ADD MLOAD PUSH1 0xC4 DUP8 ADD MSTORE PUSH1 0xE0 DUP2 ADD MLOAD PUSH1 0xE4 DUP8 ADD MSTORE PUSH2 0x100 DUP2 ADD MLOAD PUSH2 0x104 DUP8 ADD MSTORE PUSH1 0x1 DUP1 PUSH1 0xA0 SHL SUB PUSH2 0x120 DUP3 ADD MLOAD AND PUSH2 0x124 DUP8 ADD MSTORE ADD MLOAD PUSH2 0x144 DUP6 ADD MSTORE PUSH1 0x80 DUP5 PUSH2 0x164 DUP2 DUP6 PUSH20 0x3A520B32C04BF3BEEF7BEB72E919CF822ED34F1 GAS CALL DUP1 ISZERO PUSH2 0xBC7 JUMPI DUP3 SWAP1 PUSH2 0xB83 JUMPI JUMPDEST PUSH1 0x1 PUSH1 0x1 PUSH1 0xA0 SHL SUB DUP1 DUP6 AND DUP1 DUP6 MSTORE PUSH1 0x3 PUSH1 0x20 SWAP1 DUP2 MSTORE PUSH1 0x40 DUP1 DUP8 KECCAK256 DUP1 SLOAD PUSH1 0x1 PUSH1 0x1 PUSH1 0xA0 SHL SUB NOT AND SWAP7 SWAP1 SWAP5 AND SWAP6 DUP7 OR DUP5 SSTORE PUSH1 0x1 DUP5 ADD DUP6 SWAP1 SSTORE PUSH1 0x4 SWAP4 SWAP1 SWAP4 ADD DUP1 SLOAD PUSH1 0xFF PUSH1 0xA0 SHL NOT AND PUSH1 0x1 PUSH1 0xA0 SHL OR SWAP1 SSTORE SWAP2 MLOAD SWAP3 DUP4 MSTORE SWAP5 SWAP6 POP SWAP2 SWAP4 DUP5 SWAP3 SWAP1 SWAP2 PUSH32 0x4ADA9988B6CAA856553453E24786DF5E4451E576D3963B200D96A0348890FDF3 SWAP2 SWAP1 LOG3 PUSH1 0x1 SLOAD PUSH1 0x1 PUSH1 0x1 PUSH1 0xA0 SHL SUB AND SWAP3 DUP4 PUSH2 0xB1B JUMPI JUMPDEST PUSH1 0x2 DUP1 SLOAD PUSH1 0xFF PUSH1 0xA0 SHL NOT AND SWAP1 SSTORE PUSH1 0x40 MLOAD DUP4 DUP2 MSTORE PUSH1 0x20 SWAP1 RETURN JUMPDEST DUP4 DUP3 SWAP5 EXTCODESIZE ISZERO PUSH2 0x292 JUMPI PUSH1 0x40 MLOAD PUSH4 0xBA65B81B PUSH1 0xE0 SHL DUP2 MSTORE PUSH1 0x1 PUSH1 0x1 PUSH1 0xA0 SHL SUB SWAP1 SWAP3 AND PUSH1 0x4 DUP4 ADD MSTORE SWAP1 SWAP2 SWAP1 DUP3 SWAP1 PUSH1 0x24 SWAP1 DUP3 SWAP1 DUP5 SWAP1 GAS CALL DUP1 ISZERO PUSH2 0xB78 JUMPI PUSH2 0xB60 JUMPI JUMPDEST DUP1 PUSH2 0xB03 JUMP JUMPDEST PUSH2 0xB6A DUP4 SWAP2 PUSH2 0x185A JUMP JUMPDEST PUSH2 0xB74 JUMPI DUP2 PUSH2 0xB5A JUMP JUMPDEST POP DUP1 REVERT JUMPDEST PUSH1 0x40 MLOAD RETURNDATASIZE DUP6 DUP3 RETURNDATACOPY RETURNDATASIZE SWAP1 REVERT JUMPDEST POP PUSH1 0x80 DUP5 RETURNDATASIZE DUP3 GT PUSH2 0xBBF JUMPI JUMPDEST DUP2 PUSH2 0xB9C PUSH1 0x80 SWAP4 DUP4 PUSH2 0x1889 JUMP JUMPDEST DUP2 ADD SUB SLT PUSH2 0xB74 JUMPI DUP4 PUSH2 0xBB6 PUSH1 0x20 PUSH1 0x4 SWAP6 SWAP7 MLOAD SWAP3 ADD PUSH2 0x1928 JUMP JUMPDEST POP DUP5 SWAP4 POP PUSH2 0xA71 JUMP JUMPDEST RETURNDATASIZE SWAP2 POP PUSH2 0xB8F JUMP JUMPDEST PUSH1 0x40 MLOAD RETURNDATASIZE DUP5 DUP3 RETURNDATACOPY RETURNDATASIZE SWAP1 REVERT JUMPDEST PUSH4 0x4E487B71 PUSH1 0xE0 SHL PUSH1 0x0 MSTORE PUSH1 0x41 PUSH1 0x4 MSTORE PUSH1 0x24 PUSH1 0x0 REVERT JUMPDEST PUSH4 0x4E487B71 PUSH1 0xE0 SHL DUP6 MSTORE PUSH1 0x11 PUSH1 0x4 MSTORE PUSH1 0x24 DUP6 REVERT JUMPDEST PUSH1 0x44 CALLDATALOAD PUSH1 0x24 CALLDATALOAD SWAP2 PUSH2 0x91A JUMP JUMPDEST PUSH2 0xC29 SWAP1 PUSH1 0x20 RETURNDATASIZE PUSH1 0x20 GT PUSH2 0xC30 JUMPI JUMPDEST PUSH2 0xC21 DUP2 DUP4 PUSH2 0x1889 JUMP JUMPDEST DUP2 ADD SWAP1 PUSH2 0x18ED JUMP JUMPDEST POP CODESIZE PUSH2 0x8F9 JUMP JUMPDEST POP RETURNDATASIZE PUSH2 0xC17 JUMP JUMPDEST PUSH1 0x40 MLOAD RETURNDATASIZE DUP7 DUP3 RETURNDATACOPY RETURNDATASIZE SWAP1 REVERT JUMPDEST PUSH2 0xC5A SWAP1 PUSH1 0x20 RETURNDATASIZE PUSH1 0x20 GT PUSH2 0xC30 JUMPI PUSH2 0xC21 DUP2 DUP4 PUSH2 0x1889 JUMP JUMPDEST POP CODESIZE PUSH2 0x8AC JUMP JUMPDEST PUSH1 0x40 MLOAD PUSH4 0xA1671295 PUSH1 0xE0 SHL DUP2 MSTORE SWAP2 POP PUSH1 0x20 DUP3 DUP1 PUSH2 0xC82 DUP5 DUP10 PUSH1 0x4 DUP5 ADD PUSH2 0x18CB JUMP JUMPDEST SUB DUP2 DUP7 PUSH20 0x33128A8FC17869897DCE68ED026D694621F6FDFD GAS CALL SWAP2 DUP3 ISZERO PUSH2 0xB78 JUMPI DUP4 SWAP3 PUSH2 0xDAA JUMPI JUMPDEST POP DUP2 PUSH1 0x1 PUSH1 0x1 PUSH1 0xA0 SHL SUB DUP7 DUP2 AND SWAP1 DUP7 AND SUB PUSH2 0xD7E JUMPI PUSH8 0xDE0B6B3A7640000 DUP1 PUSH1 0x44 CALLDATALOAD MUL SWAP1 PUSH1 0x44 CALLDATALOAD DUP3 DIV EQ PUSH1 0x44 CALLDATALOAD ISZERO OR ISZERO PUSH2 0xBE8 JUMPI PUSH2 0xCEE PUSH2 0xCF3 SWAP2 PUSH1 0x24 CALLDATALOAD SWAP1 PUSH2 0x1977 JUMP JUMPDEST PUSH2 0x1DD8 JUMP JUMPDEST DUP1 DUP1 PUSH1 0x60 SHL DIV PUSH1 0x1 PUSH1 0x60 SHL EQ DUP2 ISZERO OR ISZERO PUSH2 0xBE8 JUMPI PUSH1 0x1 PUSH1 0x1 PUSH1 0xA0 SHL SUB DUP3 AND EXTCODESIZE ISZERO PUSH2 0xD7A JUMPI PUSH1 0x40 MLOAD PUSH4 0xF637731D PUSH1 0xE0 SHL DUP2 MSTORE PUSH1 0x1 PUSH1 0x1 PUSH1 0xA0 SHL SUB PUSH4 0x3B9ACA00 PUSH1 0x60 SWAP4 SWAP1 SWAP4 SHL SWAP3 SWAP1 SWAP3 DIV DUP3 AND PUSH1 0x4 DUP3 ADD MSTORE SWAP2 DUP6 SWAP2 DUP4 SWAP2 PUSH1 0x24 SWAP2 DUP4 SWAP2 DUP6 SWAP2 AND GAS CALL DUP1 ISZERO PUSH2 0xC37 JUMPI SWAP1 DUP5 SWAP2 PUSH2 0xD66 JUMPI JUMPDEST POP POP PUSH2 0x85F JUMP JUMPDEST PUSH2 0xD6F SWAP1 PUSH2 0x185A JUMP JUMPDEST PUSH2 0x292 JUMPI DUP3 CODESIZE PUSH2 0xD5F JUMP JUMPDEST DUP5 DUP1 REVERT JUMPDEST PUSH8 0xDE0B6B3A7640000 PUSH1 0x24 CALLDATALOAD DUP2 DUP2 MUL SWAP2 DUP2 ISZERO SWAP2 DUP4 DIV EQ OR ISZERO PUSH2 0xBE8 JUMPI PUSH2 0xCEE PUSH2 0xCF3 SWAP2 PUSH1 0x44 CALLDATALOAD SWAP1 PUSH2 0x1977 JUMP JUMPDEST PUSH2 0xDCD SWAP2 SWAP3 POP PUSH1 0x20 RETURNDATASIZE PUSH1 0x20 GT PUSH2 0xDD4 JUMPI JUMPDEST PUSH2 0xDC5 DUP2 DUP4 PUSH2 0x1889 JUMP JUMPDEST DUP2 ADD SWAP1 PUSH2 0x18AC JUMP JUMPDEST SWAP1 CODESIZE PUSH2 0xCAA JUMP JUMPDEST POP RETURNDATASIZE PUSH2 0xDBB JUMP JUMPDEST PUSH2 0xDF5 SWAP2 SWAP3 POP PUSH1 0x20 RETURNDATASIZE PUSH1 0x20 GT PUSH2 0xDD4 JUMPI PUSH2 0xDC5 DUP2 DUP4 PUSH2 0x1889 JUMP JUMPDEST SWAP1 CODESIZE PUSH2 0x84E JUMP JUMPDEST PUSH1 0x6 PUSH1 0x21 PUSH1 0x99 SHL ADD SWAP2 DUP2 PUSH2 0x807 JUMP JUMPDEST PUSH2 0xE14 SWAP1 PUSH2 0x185A JUMP JUMPDEST PUSH2 0xB74 JUMPI DUP2 CODESIZE PUSH2 0x7E1 JUMP JUMPDEST PUSH1 0x40 MLOAD PUSH3 0x461BCD PUSH1 0xE5 SHL DUP2 MSTORE PUSH1 0x20 PUSH1 0x4 DUP3 ADD MSTORE PUSH1 0x11 PUSH1 0x24 DUP3 ADD MSTORE PUSH17 0x105B1C9958591E4819DC98591D585D1959 PUSH1 0x7A SHL PUSH1 0x44 DUP3 ADD MSTORE PUSH1 0x64 SWAP1 REVERT JUMPDEST PUSH1 0x40 MLOAD PUSH3 0x461BCD PUSH1 0xE5 SHL DUP2 MSTORE PUSH1 0x20 PUSH1 0x4 DUP3 ADD MSTORE PUSH1 0xC PUSH1 0x24 DUP3 ADD MSTORE PUSH12 0x8AA89040DAD2E6DAC2E8C6D PUSH1 0xA3 SHL PUSH1 0x44 DUP3 ADD MSTORE PUSH1 0x64 SWAP1 REVERT JUMPDEST PUSH1 0x40 MLOAD PUSH3 0x461BCD PUSH1 0xE5 SHL DUP2 MSTORE PUSH1 0x20 PUSH1 0x4 DUP3 ADD MSTORE PUSH1 0xA PUSH1 0x24 DUP3 ADD MSTORE PUSH10 0x4F6E6C79206375727665 PUSH1 0xB0 SHL PUSH1 0x44 DUP3 ADD MSTORE PUSH1 0x64 SWAP1 REVERT JUMPDEST POP CALLVALUE PUSH2 0x1B8 JUMPI DUP1 PUSH1 0x3 NOT CALLDATASIZE ADD SLT PUSH2 0x1B8 JUMPI PUSH1 0x20 PUSH1 0x40 MLOAD PUSH3 0xD89A0 DUP2 MSTORE RETURN JUMPDEST POP CALLVALUE PUSH2 0x1B8 JUMPI DUP1 PUSH1 0x3 NOT CALLDATASIZE ADD SLT PUSH2 0x1B8 JUMPI PUSH1 0x20 PUSH1 0x40 MLOAD PUSH20 0x33128A8FC17869897DCE68ED026D694621F6FDFD DUP2 MSTORE RETURN JUMPDEST POP CALLVALUE PUSH2 0x1B8 JUMPI PUSH1 0x20 CALLDATASIZE PUSH1 0x3 NOT ADD SLT PUSH2 0x1B8 JUMPI PUSH1 0x20 SWAP1 PUSH1 0xFF SWAP1 PUSH1 0x4 SWAP1 PUSH1 0x40 SWAP1 PUSH1 0x1 PUSH1 0x1 PUSH1 0xA0 SHL SUB PUSH2 0xF39 PUSH2 0x1730 JUMP JUMPDEST AND DUP2 MSTORE PUSH1 0x3 DUP6 MSTORE KECCAK256 ADD SLOAD PUSH1 0xA0 SHR AND PUSH1 0x40 MLOAD SWAP1 ISZERO ISZERO DUP2 MSTORE RETURN JUMPDEST POP CALLVALUE PUSH2 0x1B8 JUMPI DUP1 PUSH1 0x3 NOT CALLDATASIZE ADD SLT PUSH2 0x1B8 JUMPI DUP1 JUMPDEST PUSH1 0x4 SLOAD DUP2 LT ISZERO PUSH2 0xFF1 JUMPI DUP2 PUSH2 0xF78 DUP3 PUSH2 0x1746 JUMP JUMPDEST SWAP1 SLOAD PUSH1 0x3 SWAP2 DUP3 SHL SHR PUSH1 0x1 PUSH1 0x1 PUSH1 0xA0 SHL SUB AND DUP1 DUP4 MSTORE PUSH1 0x20 SWAP2 SWAP1 SWAP2 MSTORE PUSH1 0x40 DUP3 KECCAK256 PUSH1 0x4 ADD SLOAD PUSH1 0xA0 SHR PUSH1 0xFF AND PUSH2 0xFB5 JUMPI JUMPDEST POP POP PUSH2 0xFB0 SWAP1 PUSH2 0x1D41 JUMP JUMPDEST PUSH2 0xF64 JUMP JUMPDEST ADDRESS EXTCODESIZE ISZERO PUSH2 0xB74 JUMPI PUSH1 0x40 MLOAD SWAP1 PUSH4 0xA480CA79 PUSH1 0xE0 SHL DUP3 MSTORE PUSH1 0x4 DUP3 ADD MSTORE DUP2 DUP2 PUSH1 0x24 DUP2 DUP4 ADDRESS GAS CALL ISZERO PUSH2 0xFA5 JUMPI PUSH2 0xFE6 SWAP1 PUSH2 0x185A JUMP JUMPDEST PUSH2 0xB74 JUMPI DUP2 CODESIZE PUSH2 0xFA5 JUMP JUMPDEST POP DUP1 RETURN JUMPDEST POP CALLVALUE PUSH2 0x1B8 JUMPI PUSH1 0x20 CALLDATASIZE PUSH1 0x3 NOT ADD SLT PUSH2 0x1B8 JUMPI PUSH1 0x4 CALLDATALOAD SWAP1 PUSH1 0x4 SLOAD DUP3 LT ISZERO PUSH2 0x1B8 JUMPI PUSH1 0x20 PUSH2 0x1020 DUP4 PUSH2 0x1746 JUMP JUMPDEST SWAP1 SLOAD PUSH1 0x40 MLOAD PUSH1 0x3 SWAP3 SWAP1 SWAP3 SHL SHR PUSH1 0x1 PUSH1 0x1 PUSH1 0xA0 SHL SUB AND DUP2 MSTORE RETURN JUMPDEST POP CALLVALUE PUSH2 0x1B8 JUMPI PUSH1 0x20 CALLDATASIZE PUSH1 0x3 NOT ADD SLT PUSH2 0x1B8 JUMPI PUSH2 0x1053 PUSH2 0x1730 JUMP JUMPDEST PUSH1 0x2 SLOAD SWAP1 PUSH1 0x1 PUSH1 0x1 PUSH1 0xA0 SHL SUB SWAP1 PUSH2 0x106C DUP3 DUP5 AND ISZERO PUSH2 0x1777 JUMP JUMPDEST AND DUP1 SWAP2 PUSH2 0x107A DUP3 ISZERO ISZERO PUSH2 0x17B1 JUMP JUMPDEST PUSH1 0x1 PUSH1 0x1 PUSH1 0xA0 SHL SUB NOT AND OR PUSH1 0x2 SSTORE DUP2 MSTORE PUSH1 0x7 PUSH1 0x20 MSTORE PUSH1 0x40 DUP2 KECCAK256 DUP1 SLOAD PUSH1 0xFF NOT AND PUSH1 0x1 OR SWAP1 SSTORE DUP1 RETURN JUMPDEST POP CALLVALUE PUSH2 0x1B8 JUMPI PUSH1 0x80 CALLDATASIZE PUSH1 0x3 NOT ADD SLT PUSH2 0x1B8 JUMPI PUSH2 0x10BB PUSH2 0x1730 JUMP JUMPDEST PUSH1 0x1 PUSH1 0x1 PUSH1 0xA0 SHL SUB SWAP1 PUSH1 0x24 CALLDATALOAD DUP3 DUP2 AND SWAP1 DUP2 SWAP1 SUB PUSH2 0x125B JUMPI PUSH1 0x44 CALLDATALOAD SWAP3 DUP1 DUP5 AND DUP1 SWAP5 SUB PUSH2 0x125B JUMPI PUSH1 0x64 CALLDATALOAD DUP2 DUP2 AND SUB PUSH2 0x125B JUMPI CALLER DUP6 MSTORE PUSH1 0x7 PUSH1 0x20 MSTORE PUSH1 0xFF PUSH1 0x40 DUP7 KECCAK256 SLOAD AND DUP1 ISZERO PUSH2 0x124E JUMPI JUMPDEST PUSH2 0x110B SWAP1 PUSH2 0x17E7 JUMP JUMPDEST DUP3 AND SWAP3 DUP4 ISZERO PUSH2 0x1219 JUMPI DUP2 ISZERO PUSH2 0x11E3 JUMPI DUP1 ISZERO PUSH2 0x11AC JUMPI DUP4 DUP6 MSTORE PUSH1 0x3 PUSH1 0x20 DUP2 SWAP1 MSTORE PUSH1 0x40 DUP7 KECCAK256 PUSH1 0x2 DUP2 ADD DUP1 SLOAD PUSH1 0x1 PUSH1 0x1 PUSH1 0xA0 SHL SUB NOT SWAP1 DUP2 AND SWAP1 SWAP6 OR SWAP1 SSTORE ADD DUP1 SLOAD SWAP1 SWAP3 AND OR SWAP1 SSTORE PUSH1 0x4 SLOAD PUSH1 0x1 PUSH1 0x40 SHL DUP2 LT ISZERO PUSH2 0x1198 JUMPI SWAP1 PUSH2 0x242 DUP3 PUSH1 0x1 PUSH2 0x1171 SWAP5 ADD PUSH1 0x4 SSTORE PUSH2 0x1746 JUMP JUMPDEST PUSH32 0xA09057C2EAA2DC2D017C0D50EBCF2364A92B5015223D4BF09BE7E527773DEC3D DUP3 DUP1 LOG2 DUP1 RETURN JUMPDEST PUSH4 0x4E487B71 PUSH1 0xE0 SHL DUP5 MSTORE PUSH1 0x41 PUSH1 0x4 MSTORE PUSH1 0x24 DUP5 REVERT JUMPDEST PUSH1 0x40 MLOAD PUSH3 0x461BCD PUSH1 0xE5 SHL DUP2 MSTORE PUSH1 0x20 PUSH1 0x4 DUP3 ADD MSTORE PUSH1 0xF PUSH1 0x24 DUP3 ADD MSTORE PUSH15 0x496E76616C696420666F7274696679 PUSH1 0x88 SHL PUSH1 0x44 DUP3 ADD MSTORE PUSH1 0x64 SWAP1 REVERT JUMPDEST PUSH1 0x40 MLOAD PUSH3 0x461BCD PUSH1 0xE5 SHL DUP2 MSTORE PUSH1 0x20 PUSH1 0x4 DUP3 ADD MSTORE PUSH1 0xE PUSH1 0x24 DUP3 ADD MSTORE PUSH14 0x496E76616C69642061726D6F7279 PUSH1 0x90 SHL PUSH1 0x44 DUP3 ADD MSTORE PUSH1 0x64 SWAP1 REVERT JUMPDEST PUSH1 0x40 MLOAD PUSH3 0x461BCD PUSH1 0xE5 SHL DUP2 MSTORE PUSH1 0x20 PUSH1 0x4 DUP3 ADD MSTORE PUSH1 0xD PUSH1 0x24 DUP3 ADD MSTORE PUSH13 0x24B73B30B634B2103A37B5B2B7 PUSH1 0x99 SHL PUSH1 0x44 DUP3 ADD MSTORE PUSH1 0x64 SWAP1 REVERT JUMPDEST POP PUSH1 0x2 SLOAD DUP2 AND CALLER EQ PUSH2 0x1102 JUMP JUMPDEST PUSH1 0x0 DUP1 REVERT JUMPDEST POP CALLVALUE PUSH2 0x1B8 JUMPI DUP1 PUSH1 0x3 NOT CALLDATASIZE ADD SLT PUSH2 0x1B8 JUMPI PUSH1 0x20 PUSH1 0x40 MLOAD PUSH3 0xD899F NOT DUP2 MSTORE RETURN JUMPDEST POP CALLVALUE PUSH2 0x1B8 JUMPI PUSH1 0x20 CALLDATASIZE PUSH1 0x3 NOT ADD SLT PUSH2 0x1B8 JUMPI PUSH1 0x20 SWAP1 PUSH1 0x14 SWAP1 PUSH1 0x40 SWAP1 PUSH1 0x1 PUSH1 0x1 PUSH1 0xA0 SHL SUB PUSH2 0x12AA PUSH2 0x1730 JUMP JUMPDEST AND DUP2 MSTORE PUSH1 0x5 DUP5 MSTORE KECCAK256 ADD SLOAD PUSH1 0x40 MLOAD SWAP1 DUP2 MSTORE RETURN JUMPDEST POP CALLVALUE PUSH2 0x1B8 JUMPI DUP1 PUSH1 0x3 NOT CALLDATASIZE ADD SLT PUSH2 0x1B8 JUMPI PUSH1 0x40 MLOAD DUP1 SWAP2 PUSH1 0x4 SLOAD SWAP1 DUP2 DUP4 MSTORE PUSH1 0x20 DUP1 SWAP4 ADD DUP1 SWAP3 PUSH1 0x4 DUP4 MSTORE DUP5 DUP4 KECCAK256 SWAP1 DUP4 JUMPDEST DUP2 DUP2 LT PUSH2 0x1347 JUMPI POP POP POP DUP5 PUSH2 0x1300 SWAP2 SUB DUP6 PUSH2 0x1889 JUMP JUMPDEST PUSH1 0x40 MLOAD SWAP4 DUP4 DUP6 SWAP5 DUP6 ADD SWAP2 DUP2 DUP7 MSTORE MLOAD DUP1 SWAP3 MSTORE PUSH1 0x40 DUP6 ADD SWAP4 SWAP3 JUMPDEST DUP3 DUP2 LT PUSH2 0x1327 JUMPI POP POP POP POP SUB SWAP1 RETURN JUMPDEST DUP4 MLOAD PUSH1 0x1 PUSH1 0x1 PUSH1 0xA0 SHL SUB AND DUP6 MSTORE DUP7 SWAP6 POP SWAP4 DUP2 ADD SWAP4 SWAP3 DUP2 ADD SWAP3 PUSH1 0x1 ADD PUSH2 0x1318 JUMP JUMPDEST DUP3 SLOAD PUSH1 0x1 PUSH1 0x1 PUSH1 0xA0 SHL SUB AND DUP5 MSTORE SWAP3 DUP7 ADD SWAP3 PUSH1 0x1 SWAP3 DUP4 ADD SWAP3 ADD PUSH2 0x12EA JUMP JUMPDEST POP CALLVALUE PUSH2 0x1B8 JUMPI PUSH1 0x20 CALLDATASIZE PUSH1 0x3 NOT ADD SLT PUSH2 0x1B8 JUMPI PUSH1 0xC0 SWAP1 PUSH1 0x1 PUSH1 0x1 PUSH1 0xA0 SHL SUB SWAP1 PUSH1 0xFF SWAP1 PUSH1 0x40 SWAP1 DUP4 PUSH2 0x1391 PUSH2 0x1730 JUMP JUMPDEST AND DUP2 MSTORE PUSH1 0x3 PUSH1 0x20 MSTORE KECCAK256 DUP3 DUP2 SLOAD AND SWAP3 PUSH1 0x1 DUP3 ADD SLOAD SWAP2 DUP2 PUSH1 0x2 DUP3 ADD SLOAD AND PUSH1 0x4 DUP4 PUSH1 0x3 DUP5 ADD SLOAD AND SWAP3 ADD SLOAD SWAP4 PUSH1 0x40 MLOAD SWAP7 DUP8 MSTORE PUSH1 0x20 DUP8 ADD MSTORE PUSH1 0x40 DUP7 ADD MSTORE PUSH1 0x60 DUP6 ADD MSTORE DUP2 AND PUSH1 0x80 DUP5 ADD MSTORE PUSH1 0xA0 SHR AND ISZERO ISZERO PUSH1 0xA0 DUP3 ADD MSTORE RETURN JUMPDEST POP CALLVALUE PUSH2 0x1B8 JUMPI DUP1 PUSH1 0x3 NOT CALLDATASIZE ADD SLT PUSH2 0x1B8 JUMPI PUSH1 0x20 PUSH1 0x40 MLOAD PUSH2 0x3E8 DUP2 MSTORE RETURN JUMPDEST POP PUSH1 0x20 DUP1 PUSH1 0x3 NOT CALLDATASIZE ADD SLT PUSH2 0xB74 JUMPI PUSH2 0x1415 PUSH2 0x1730 JUMP JUMPDEST SWAP1 PUSH1 0x2 SLOAD SWAP2 PUSH2 0x142A PUSH1 0xFF DUP5 PUSH1 0xA0 SHR AND ISZERO PUSH2 0x1822 JUMP JUMPDEST PUSH1 0xFF PUSH1 0xA0 SHL NOT SWAP3 DUP4 AND PUSH1 0x1 PUSH1 0xA0 SHL OR PUSH1 0x2 SSTORE PUSH1 0x1 SLOAD PUSH1 0x1 PUSH1 0x1 PUSH1 0xA0 SHL SUB SWAP2 SWAP1 DUP3 AND CALLER SUB PUSH2 0x16FB JUMPI CALLVALUE ISZERO PUSH2 0x16CD JUMPI DUP2 AND SWAP2 DUP3 DUP6 MSTORE PUSH1 0x3 DUP2 MSTORE PUSH1 0x40 DUP6 KECCAK256 SWAP2 PUSH1 0xFF PUSH1 0x4 DUP5 ADD SLOAD PUSH1 0xA0 SHR AND DUP1 PUSH2 0x16C0 JUMPI JUMPDEST PUSH2 0x1480 SWAP1 PUSH2 0x193C JUMP JUMPDEST PUSH1 0x6 PUSH1 0x21 PUSH1 0x99 SHL ADD DUP1 EXTCODESIZE ISZERO PUSH2 0x16BC JUMPI PUSH1 0x40 MLOAD PUSH4 0xD0E30DB PUSH1 0xE4 SHL DUP2 MSTORE DUP8 DUP2 PUSH1 0x4 DUP2 CALLVALUE DUP7 GAS CALL DUP1 ISZERO PUSH2 0x16B1 JUMPI PUSH2 0x169E JUMPI JUMPDEST POP PUSH1 0x40 MLOAD PUSH4 0x95EA7B3 PUSH1 0xE0 SHL DUP2 MSTORE PUSH20 0x3A520B32C04BF3BEEF7BEB72E919CF822ED34F1 PUSH1 0x4 DUP3 ADD DUP2 SWAP1 MSTORE CALLVALUE PUSH1 0x24 DUP4 ADD MSTORE SWAP3 SWAP1 DUP5 DUP2 PUSH1 0x44 DUP2 DUP13 DUP8 GAS CALL DUP1 ISZERO PUSH2 0x1676 JUMPI PUSH2 0x1681 JUMPI JUMPDEST POP PUSH1 0x4 DUP5 DUP3 DUP8 SLOAD AND PUSH1 0x40 MLOAD SWAP3 DUP4 DUP1 SWAP3 PUSH4 0xDFE1681 PUSH1 0xE0 SHL DUP3 MSTORE GAS STATICCALL SWAP1 DUP2 ISZERO PUSH2 0x1676 JUMPI DUP10 SWAP2 PUSH2 0x1659 JUMPI JUMPDEST POP AND SUB PUSH2 0x164F JUMPI CALLVALUE PUSH1 0x1 DUP8 SWAP5 JUMPDEST ADD SLOAD PUSH2 0x12C TIMESTAMP ADD SWAP3 DUP4 TIMESTAMP GT PUSH2 0x163B JUMPI PUSH1 0x40 MLOAD SWAP1 PUSH1 0xC0 DUP3 ADD SWAP1 PUSH1 0x1 PUSH1 0x1 PUSH1 0x40 SHL SUB DUP3 GT DUP4 DUP4 LT OR PUSH2 0xBD2 JUMPI PUSH1 0x60 SWAP6 PUSH1 0xC4 SWAP5 DUP13 SWAP4 PUSH1 0x40 MSTORE DUP5 MSTORE DUP8 DUP5 ADD SWAP6 DUP7 MSTORE PUSH1 0x40 DUP5 ADD SWAP9 DUP10 MSTORE DUP7 DUP5 ADD DUP4 DUP2 MSTORE PUSH1 0x80 DUP6 ADD SWAP1 DUP5 DUP3 MSTORE PUSH1 0xA0 DUP7 ADD SWAP3 DUP4 MSTORE PUSH1 0x40 MLOAD SWAP11 DUP12 SWAP9 DUP10 SWAP8 PUSH4 0x219F5D17 PUSH1 0xE0 SHL DUP10 MSTORE MLOAD PUSH1 0x4 DUP10 ADD MSTORE MLOAD PUSH1 0x24 DUP9 ADD MSTORE MLOAD PUSH1 0x44 DUP8 ADD MSTORE MLOAD PUSH1 0x64 DUP7 ADD MSTORE MLOAD PUSH1 0x84 DUP6 ADD MSTORE MLOAD PUSH1 0xA4 DUP5 ADD MSTORE GAS CALL DUP1 ISZERO PUSH2 0x1630 JUMPI PUSH2 0x15EA JUMPI JUMPDEST PUSH1 0x0 DUP1 MLOAD PUSH1 0x20 PUSH2 0x1E23 DUP4 CODECOPY DUP2 MLOAD SWAP2 MSTORE SWAP2 POP PUSH1 0x40 MLOAD CALLVALUE DUP2 MSTORE LOG2 PUSH1 0x2 SLOAD AND PUSH1 0x2 SSTORE DUP1 RETURN JUMPDEST PUSH1 0x60 DUP3 RETURNDATASIZE DUP3 GT PUSH2 0x1628 JUMPI JUMPDEST DUP2 PUSH2 0x1602 PUSH1 0x60 SWAP4 DUP4 PUSH2 0x1889 JUMP JUMPDEST DUP2 ADD SUB SLT PUSH2 0xD7A JUMPI PUSH2 0x1622 PUSH1 0x0 DUP1 MLOAD PUSH1 0x20 PUSH2 0x1E23 DUP4 CODECOPY DUP2 MLOAD SWAP2 MSTORE SWAP3 PUSH2 0x1928 JUMP JUMPDEST POP PUSH2 0x15C8 JUMP JUMPDEST RETURNDATASIZE SWAP2 POP PUSH2 0x15F5 JUMP JUMPDEST PUSH1 0x40 MLOAD RETURNDATASIZE DUP8 DUP3 RETURNDATACOPY RETURNDATASIZE SWAP1 REVERT JUMPDEST PUSH4 0x4E487B71 PUSH1 0xE0 SHL DUP10 MSTORE PUSH1 0x11 PUSH1 0x4 MSTORE PUSH1 0x24 DUP10 REVERT JUMPDEST DUP6 PUSH1 0x1 CALLVALUE SWAP5 PUSH2 0x152C JUMP JUMPDEST PUSH2 0x1670 SWAP2 POP DUP6 RETURNDATASIZE DUP8 GT PUSH2 0xDD4 JUMPI PUSH2 0xDC5 DUP2 DUP4 PUSH2 0x1889 JUMP JUMPDEST CODESIZE PUSH2 0x151F JUMP JUMPDEST PUSH1 0x40 MLOAD RETURNDATASIZE DUP12 DUP3 RETURNDATACOPY RETURNDATASIZE SWAP1 REVERT JUMPDEST PUSH2 0x1697 SWAP1 DUP6 RETURNDATASIZE DUP8 GT PUSH2 0xC30 JUMPI PUSH2 0xC21 DUP2 DUP4 PUSH2 0x1889 JUMP JUMPDEST POP CODESIZE PUSH2 0x14F6 JUMP JUMPDEST PUSH2 0x16AA SWAP1 SWAP8 SWAP2 SWAP8 PUSH2 0x185A JUMP JUMPDEST SWAP6 CODESIZE PUSH2 0x14B0 JUMP JUMPDEST PUSH1 0x40 MLOAD RETURNDATASIZE DUP11 DUP3 RETURNDATACOPY RETURNDATASIZE SWAP1 REVERT JUMPDEST DUP7 DUP1 REVERT JUMPDEST POP PUSH1 0x1 DUP4 ADD SLOAD ISZERO ISZERO PUSH2 0x1477 JUMP JUMPDEST PUSH1 0x40 MLOAD PUSH3 0x461BCD PUSH1 0xE5 SHL DUP2 MSTORE PUSH1 0x4 DUP2 ADD DUP5 SWAP1 MSTORE PUSH1 0x6 PUSH1 0x24 DUP3 ADD MSTORE PUSH6 0x9CDE408AA89 PUSH1 0xD3 SHL PUSH1 0x44 DUP3 ADD MSTORE PUSH1 0x64 SWAP1 REVERT JUMPDEST PUSH1 0x40 MLOAD PUSH3 0x461BCD PUSH1 0xE5 SHL DUP2 MSTORE PUSH1 0x4 DUP2 ADD DUP5 SWAP1 MSTORE PUSH1 0xD PUSH1 0x24 DUP3 ADD MSTORE PUSH13 0x13DB9B1E4815D85C90DA195CDD PUSH1 0x9A SHL PUSH1 0x44 DUP3 ADD MSTORE PUSH1 0x64 SWAP1 REVERT JUMPDEST PUSH1 0x4 CALLDATALOAD SWAP1 PUSH1 0x1 PUSH1 0x1 PUSH1 0xA0 SHL SUB DUP3 AND DUP3 SUB PUSH2 0x125B JUMPI JUMP JUMPDEST PUSH1 0x4 SLOAD DUP2 LT ISZERO PUSH2 0x1761 JUMPI PUSH1 0x4 PUSH1 0x0 MSTORE PUSH1 0x20 PUSH1 0x0 KECCAK256 ADD SWAP1 PUSH1 0x0 SWAP1 JUMP JUMPDEST PUSH4 0x4E487B71 PUSH1 0xE0 SHL PUSH1 0x0 MSTORE PUSH1 0x32 PUSH1 0x4 MSTORE PUSH1 0x24 PUSH1 0x0 REVERT JUMPDEST ISZERO PUSH2 0x177E JUMPI JUMP JUMPDEST PUSH1 0x40 MLOAD PUSH3 0x461BCD PUSH1 0xE5 SHL DUP2 MSTORE PUSH1 0x20 PUSH1 0x4 DUP3 ADD MSTORE PUSH1 0xB PUSH1 0x24 DUP3 ADD MSTORE PUSH11 0x105B1C9958591E481CD95D PUSH1 0xAA SHL PUSH1 0x44 DUP3 ADD MSTORE PUSH1 0x64 SWAP1 REVERT JUMPDEST ISZERO PUSH2 0x17B8 JUMPI JUMP JUMPDEST PUSH1 0x40 MLOAD PUSH3 0x461BCD PUSH1 0xE5 SHL DUP2 MSTORE PUSH1 0x20 PUSH1 0x4 DUP3 ADD MSTORE PUSH1 0x7 PUSH1 0x24 DUP3 ADD MSTORE PUSH7 0x125B9D985B1A59 PUSH1 0xCA SHL PUSH1 0x44 DUP3 ADD MSTORE PUSH1 0x64 SWAP1 REVERT JUMPDEST ISZERO PUSH2 0x17EE JUMPI JUMP JUMPDEST PUSH1 0x40 MLOAD PUSH3 0x461BCD PUSH1 0xE5 SHL DUP2 MSTORE PUSH1 0x20 PUSH1 0x4 DUP3 ADD MSTORE PUSH1 0xC PUSH1 0x24 DUP3 ADD MSTORE PUSH12 0x4F6E6C7920666163746F7279 PUSH1 0xA0 SHL PUSH1 0x44 DUP3 ADD MSTORE PUSH1 0x64 SWAP1 REVERT JUMPDEST ISZERO PUSH2 0x1829 JUMPI JUMP JUMPDEST PUSH1 0x40 MLOAD PUSH3 0x461BCD PUSH1 0xE5 SHL DUP2 MSTORE PUSH1 0x20 PUSH1 0x4 DUP3 ADD MSTORE PUSH1 0x9 PUSH1 0x24 DUP3 ADD MSTORE PUSH9 0x1499595B9D1C985B9D PUSH1 0xBA SHL PUSH1 0x44 DUP3 ADD MSTORE PUSH1 0x64 SWAP1 REVERT JUMPDEST PUSH1 0x1 PUSH1 0x1 PUSH1 0x40 SHL SUB DUP2 GT PUSH2 0xBD2 JUMPI PUSH1 0x40 MSTORE JUMP JUMPDEST PUSH2 0x140 DUP2 ADD SWAP1 DUP2 LT PUSH1 0x1 PUSH1 0x1 PUSH1 0x40 SHL SUB DUP3 GT OR PUSH2 0xBD2 JUMPI PUSH1 0x40 MSTORE JUMP JUMPDEST PUSH1 0x1F SWAP1 SWAP2 ADD PUSH1 0x1F NOT AND DUP2 ADD SWAP1 PUSH1 0x1 PUSH1 0x1 PUSH1 0x40 SHL SUB DUP3 GT SWAP1 DUP3 LT OR PUSH2 0xBD2 JUMPI PUSH1 0x40 MSTORE JUMP JUMPDEST SWAP1 DUP2 PUSH1 0x20 SWAP2 SUB SLT PUSH2 0x125B JUMPI MLOAD PUSH1 0x1 PUSH1 0x1 PUSH1 0xA0 SHL SUB DUP2 AND DUP2 SUB PUSH2 0x125B JUMPI SWAP1 JUMP JUMPDEST PUSH1 0x1 PUSH1 0x1 PUSH1 0xA0 SHL SUB SWAP2 DUP3 AND DUP2 MSTORE SWAP2 AND PUSH1 0x20 DUP3 ADD MSTORE PUSH2 0x2710 PUSH1 0x40 DUP3 ADD MSTORE PUSH1 0x60 ADD SWAP1 JUMP JUMPDEST SWAP1 DUP2 PUSH1 0x20 SWAP2 SUB SLT PUSH2 0x125B JUMPI MLOAD DUP1 ISZERO ISZERO DUP2 SUB PUSH2 0x125B JUMPI SWAP1 JUMP JUMPDEST SWAP2 SWAP1 DUP3 ADD DUP1 SWAP3 GT PUSH2 0x1912 JUMPI JUMP JUMPDEST PUSH4 0x4E487B71 PUSH1 0xE0 SHL PUSH1 0x0 MSTORE PUSH1 0x11 PUSH1 0x4 MSTORE PUSH1 0x24 PUSH1 0x0 REVERT JUMPDEST MLOAD SWAP1 PUSH1 0x1 PUSH1 0x1 PUSH1 0x80 SHL SUB DUP3 AND DUP3 SUB PUSH2 0x125B JUMPI JUMP JUMPDEST ISZERO PUSH2 0x1943 JUMPI JUMP JUMPDEST PUSH1 0x40 MLOAD PUSH3 0x461BCD PUSH1 0xE5 SHL DUP2 MSTORE PUSH1 0x20 PUSH1 0x4 DUP3 ADD MSTORE PUSH1 0xC PUSH1 0x24 DUP3 ADD MSTORE PUSH12 0x4E6F7420656C696769626C65 PUSH1 0xA0 SHL PUSH1 0x44 DUP3 ADD MSTORE PUSH1 0x64 SWAP1 REVERT JUMPDEST DUP2 ISZERO PUSH2 0x1981 JUMPI DIV SWAP1 JUMP JUMPDEST PUSH4 0x4E487B71 PUSH1 0xE0 SHL PUSH1 0x0 MSTORE PUSH1 0x12 PUSH1 0x4 MSTORE PUSH1 0x24 PUSH1 0x0 REVERT JUMPDEST SWAP2 SWAP1 DUP3 SUB SWAP2 DUP3 GT PUSH2 0x1912 JUMPI JUMP JUMPDEST RETURNDATASIZE ISZERO PUSH2 0x19DE JUMPI RETURNDATASIZE SWAP1 PUSH1 0x1 PUSH1 0x1 PUSH1 0x40 SHL SUB DUP3 GT PUSH2 0xBD2 JUMPI PUSH1 0x40 MLOAD SWAP2 PUSH2 0x19D2 PUSH1 0x1F DUP3 ADD PUSH1 0x1F NOT AND PUSH1 0x20 ADD DUP5 PUSH2 0x1889 JUMP JUMPDEST DUP3 MSTORE RETURNDATASIZE PUSH1 0x0 PUSH1 0x20 DUP5 ADD RETURNDATACOPY JUMP JUMPDEST PUSH1 0x60 SWAP1 JUMP JUMPDEST PUSH1 0x0 SWAP2 PUSH1 0x1 DUP1 PUSH1 0xA0 SHL SUB DUP1 SWAP3 AND DUP1 DUP5 MSTORE PUSH1 0x20 PUSH1 0x3 DUP2 MSTORE PUSH1 0x40 DUP1 DUP7 KECCAK256 SWAP6 PUSH1 0x4 SWAP7 PUSH1 0xFF DUP9 DUP3 ADD SLOAD PUSH1 0xA0 SHR AND DUP1 PUSH2 0x1D34 JUMPI JUMPDEST PUSH2 0x1A1B SWAP1 PUSH2 0x193C JUMP JUMPDEST PUSH1 0x1 DUP2 ADD SLOAD DUP4 MLOAD SWAP1 PUSH1 0x80 DUP3 ADD PUSH1 0x1 PUSH1 0x1 PUSH1 0x40 SHL SUB DUP2 GT DUP4 DUP3 LT OR PUSH2 0x1D21 JUMPI DUP6 MSTORE DUP2 MSTORE ADDRESS DUP6 DUP3 ADD SWAP1 DUP2 MSTORE PUSH1 0x1 PUSH1 0x1 PUSH1 0x80 SHL SUB DUP3 DUP7 ADD DUP2 DUP2 MSTORE PUSH1 0x60 DUP5 ADD DUP3 DUP2 MSTORE DUP8 MLOAD PUSH4 0xFC6F7865 PUSH1 0xE0 SHL DUP2 MSTORE SWAP5 MLOAD DUP6 DUP15 ADD MSTORE SWAP3 MLOAD DUP12 AND PUSH1 0x24 DUP6 ADD MSTORE MLOAD DUP2 AND PUSH1 0x44 DUP5 ADD MSTORE SWAP1 MLOAD AND PUSH1 0x64 DUP3 ADD MSTORE DUP4 DUP2 PUSH1 0x84 DUP2 DUP7 PUSH20 0x3A520B32C04BF3BEEF7BEB72E919CF822ED34F1 GAS CALL DUP1 ISZERO PUSH2 0x1D17 JUMPI SWAP1 DUP10 SWAP2 DUP5 SWAP2 DUP6 SWAP2 PUSH2 0x1CE1 JUMPI JUMPDEST POP DUP7 DUP11 DUP6 SLOAD AND DUP8 MLOAD SWAP13 DUP14 DUP1 SWAP3 PUSH4 0xDFE1681 PUSH1 0xE0 SHL DUP3 MSTORE GAS STATICCALL DUP1 ISZERO PUSH2 0x1CD7 JUMPI DUP11 SWAP12 DUP7 SWAP12 SWAP9 SWAP10 SWAP11 SWAP12 SWAP2 PUSH2 0x1CBA JUMPI JUMPDEST POP PUSH1 0x6 PUSH1 0x21 PUSH1 0x99 SHL ADD SWAP8 AND DUP8 SUB PUSH2 0x1CB2 JUMPI POP SWAP5 JUMPDEST DUP6 ISZERO PUSH2 0x1CA6 JUMPI DUP1 EXTCODESIZE ISZERO PUSH2 0x1CA2 JUMPI DUP4 DUP1 SWAP2 PUSH1 0x24 DUP8 MLOAD DUP1 SWAP5 DUP2 SWAP4 PUSH4 0x2E1A7D4D PUSH1 0xE0 SHL DUP4 MSTORE DUP12 DUP9 DUP5 ADD MSTORE GAS CALL DUP1 ISZERO PUSH2 0x1C98 JUMPI PUSH2 0x1C85 JUMPI JUMPDEST POP PUSH2 0x1388 DUP6 MUL SWAP2 PUSH2 0x1387 NOT DUP7 DUP5 DIV ADD PUSH2 0x1C72 JUMPI PUSH2 0x2710 DUP1 SWAP4 DIV SWAP3 PUSH2 0xFA0 DUP1 DUP9 MUL SWAP1 DUP9 DUP3 DIV SUB PUSH2 0x1C5F JUMPI DUP12 SWAP2 PUSH1 0x3 SWAP2 DIV SWAP3 PUSH2 0x1B6A DUP5 PUSH2 0x1B65 DUP9 DUP13 PUSH2 0x1997 JUMP JUMPDEST PUSH2 0x1997 JUMP JUMPDEST SWAP6 DUP1 ISZERO ISZERO DUP1 PUSH2 0x1C52 JUMPI JUMPDEST PUSH2 0x1C3E JUMPI JUMPDEST POP ADD SLOAD AND DUP2 ISZERO ISZERO DUP1 PUSH2 0x1C35 JUMPI JUMPDEST ISZERO PUSH2 0x1C11 JUMPI DUP5 DUP1 DUP1 SWAP4 DUP2 SWAP4 GAS CALL PUSH2 0x1B9B PUSH2 0x19A4 JUMP JUMPDEST POP ISZERO PUSH2 0x1BD8 JUMPI POP PUSH1 0x0 DUP1 MLOAD PUSH1 0x20 PUSH2 0x1E43 DUP4 CODECOPY DUP2 MLOAD SWAP2 MSTORE SWAP6 SWAP7 SWAP8 JUMPDEST DUP2 PUSH2 0x1BC5 JUMPI JUMPDEST POP POP POP MLOAD SWAP1 DUP2 MSTORE LOG2 JUMP JUMPDEST PUSH2 0x1BD0 SWAP3 SLOAD AND PUSH2 0x1D60 JUMP JUMPDEST CODESIZE DUP1 DUP1 PUSH2 0x1BBB JUMP JUMPDEST DUP4 MLOAD PUSH3 0x461BCD PUSH1 0xE5 SHL DUP2 MSTORE SWAP1 DUP2 ADD DUP7 SWAP1 MSTORE PUSH1 0x13 PUSH1 0x24 DUP3 ADD MSTORE PUSH19 0x119BDC9D1A599E481CD95B990819985A5B1959 PUSH1 0x6A SHL PUSH1 0x44 DUP3 ADD MSTORE PUSH1 0x64 SWAP1 REVERT JUMPDEST POP PUSH2 0x1C2F SWAP2 POP PUSH1 0x0 DUP1 MLOAD PUSH1 0x20 PUSH2 0x1E43 DUP4 CODECOPY DUP2 MLOAD SWAP2 MSTORE SWAP8 SWAP9 SWAP10 SWAP3 PUSH2 0x1905 JUMP JUMPDEST SWAP1 PUSH2 0x1BB5 JUMP JUMPDEST POP DUP1 ISZERO ISZERO PUSH2 0x1B86 JUMP JUMPDEST PUSH2 0x1C4C SWAP1 DUP5 PUSH1 0x1 SLOAD AND PUSH2 0x1D60 JUMP JUMPDEST CODESIZE PUSH2 0x1B79 JUMP JUMPDEST POP DUP4 PUSH1 0x1 SLOAD AND ISZERO ISZERO PUSH2 0x1B74 JUMP JUMPDEST PUSH4 0x4E487B71 PUSH1 0xE0 SHL DUP7 MSTORE PUSH1 0x11 DUP5 MSTORE PUSH1 0x24 DUP7 REVERT JUMPDEST PUSH4 0x4E487B71 PUSH1 0xE0 SHL DUP5 MSTORE PUSH1 0x11 DUP3 MSTORE PUSH1 0x24 DUP5 REVERT JUMPDEST PUSH2 0x1C91 SWAP1 SWAP4 SWAP2 SWAP4 PUSH2 0x185A JUMP JUMPDEST SWAP2 CODESIZE PUSH2 0x1B27 JUMP JUMPDEST DUP6 MLOAD RETURNDATASIZE DUP7 DUP3 RETURNDATACOPY RETURNDATASIZE SWAP1 REVERT JUMPDEST DUP4 DUP1 REVERT JUMPDEST POP POP POP POP POP POP POP POP SWAP1 POP JUMP JUMPDEST SWAP1 POP SWAP5 PUSH2 0x1AF3 JUMP JUMPDEST PUSH2 0x1CD1 SWAP2 POP DUP10 RETURNDATASIZE DUP12 GT PUSH2 0xDD4 JUMPI PUSH2 0xDC5 DUP2 DUP4 PUSH2 0x1889 JUMP JUMPDEST CODESIZE PUSH2 0x1ADF JUMP JUMPDEST DUP7 MLOAD RETURNDATASIZE DUP8 DUP3 RETURNDATACOPY RETURNDATASIZE SWAP1 REVERT JUMPDEST SWAP3 POP POP POP DUP4 DUP2 DUP2 RETURNDATASIZE DUP4 GT PUSH2 0x1D10 JUMPI JUMPDEST PUSH2 0x1CFA DUP2 DUP4 PUSH2 0x1889 JUMP JUMPDEST DUP2 ADD SUB SLT PUSH2 0x292 JUMPI DUP1 DUP6 DUP11 SWAP3 MLOAD SWAP2 ADD MLOAD CODESIZE PUSH2 0x1AB3 JUMP JUMPDEST POP RETURNDATASIZE PUSH2 0x1CF0 JUMP JUMPDEST DUP5 MLOAD RETURNDATASIZE DUP6 DUP3 RETURNDATACOPY RETURNDATASIZE SWAP1 REVERT JUMPDEST PUSH4 0x4E487B71 PUSH1 0xE0 SHL DUP6 MSTORE PUSH1 0x41 DUP12 MSTORE PUSH1 0x24 DUP6 REVERT JUMPDEST POP PUSH1 0x1 DUP2 ADD SLOAD ISZERO ISZERO PUSH2 0x1A12 JUMP JUMPDEST PUSH1 0x0 NOT DUP2 EQ PUSH2 0x1912 JUMPI PUSH1 0x1 ADD SWAP1 JUMP JUMPDEST PUSH1 0xA DUP3 LT ISZERO PUSH2 0x1761 JUMPI ADD SWAP1 PUSH1 0x0 SWAP1 JUMP JUMPDEST DUP2 ISZERO DUP1 ISZERO PUSH2 0x1DC7 JUMPI JUMPDEST PUSH2 0x1DC3 JUMPI PUSH1 0x0 SWAP2 DUP3 SWAP2 DUP3 SWAP2 DUP3 SWAP2 PUSH1 0x1 PUSH1 0x1 PUSH1 0xA0 SHL SUB AND GAS CALL PUSH2 0x1D89 PUSH2 0x19A4 JUMP JUMPDEST POP ISZERO PUSH2 0x1D91 JUMPI JUMP JUMPDEST PUSH1 0x40 MLOAD PUSH3 0x461BCD PUSH1 0xE5 SHL DUP2 MSTORE PUSH1 0x20 PUSH1 0x4 DUP3 ADD MSTORE PUSH1 0xA PUSH1 0x24 DUP3 ADD MSTORE PUSH10 0x1155120819985A5B1959 PUSH1 0xB2 SHL PUSH1 0x44 DUP3 ADD MSTORE PUSH1 0x64 SWAP1 REVERT JUMPDEST POP POP JUMP JUMPDEST POP PUSH1 0x1 PUSH1 0x1 PUSH1 0xA0 SHL SUB DUP2 AND ISZERO PUSH2 0x1D69 JUMP JUMPDEST SWAP1 DUP2 ISZERO PUSH2 0x1E1C JUMPI PUSH1 0x1 DUP1 DUP4 ADD DUP1 DUP5 GT PUSH2 0x1912 JUMPI DUP2 SHR SWAP1 DUP4 JUMPDEST DUP5 DUP4 LT PUSH2 0x1DFC JUMPI POP POP POP JUMP JUMPDEST SWAP1 SWAP2 SWAP4 POP PUSH2 0x1E13 DUP5 PUSH2 0x1E0E DUP2 DUP5 PUSH2 0x1977 JUMP JUMPDEST PUSH2 0x1905 JUMP JUMPDEST DUP3 SHR SWAP2 SWAP1 PUSH2 0x1DF0 JUMP JUMPDEST PUSH1 0x0 SWAP2 POP JUMP INVALID 0x5C 0xE 0xEC COINBASE SWAP10 0xF9 0x5C CALL SWAP7 REVERT 0xAC ADDRESS CREATE2 GASLIMIT DUP16 PUSH8 0xBA720232C0FCE87B ISZERO BLOCKHASH 0xC0 0xC7 0xDC 0xE PUSH24 0x3F9DC46F23CFB5DDCAD0AE7EA2BE38D47FEC07BB9382EC7E JUMP 0x4E 0xFC PUSH10 0xE036DD66CEA264697066 PUSH20 0x582212200F87A958667EC2E0A83BA2C33CD6D3B3 NOT 0x2F 0xF8 SWAP16 0xE1 0xDA 0x5E 0xD MSIZE PUSH29 0x6DD4116E140464736F6C63430008140033000000000000000000000000 "},"methodIdentifiers":{"FORT_BPS()":"e05d7b84","PLAT_BPS()":"0c25213c","POOL_FEE()":"dd1b9c4a","POS_MGR()":"bd865cba","TICK_HIGH()":"96c1c8b9","TICK_LOW()":"4c335141","UNI_FACTORY()":"89fc0056","WAR_BPS()":"c5a660b9","WETH()":"ad5c4648","allTokens(uint256)":"634282af","authorizeCurve(address)":"b0efd714","authorizedCurves(address)":"d304052f","authorizedFactories(address)":"ecd24a82","boostLiquidity(address)":"04523fbf","collectAllFees()":"686f2c90","collectFees(address)":"a480ca79","deployLiquidity(address,uint256,uint256)":"973d4e58","factory()":"c45a0155","getAllTokens()":"2a5c792a","getArmoryVault(address)":"9ed1057d","getFortify(address)":"a421eba0","getPool(address)":"bbe4f6db","getTopHolders(address)":"ab6c6090","isGraduated(address)":"68a4c8b7","locked()":"cf309012","platformWallet()":"fa2af9da","registerToken(address,address,address,address)":"55acfa50","setFactory(address)":"5bb47808","setWarChest(address)":"b1be15d3","snapshots(address)":"34b3081f","tdata(address)":"1375e273","updateHolderSnapshot(address,address[10],uint256[10])":"f8ac9f3a","warChest()":"bb22e371"}}}}}