{
  "_format": "hh-sol-artifact-1",
  "contractName": "ProtocolVault",
  "sourceName": "contracts/ProtocolVault.sol",
  "abi": [
    {
      "inputs": [
        {
          "internalType": "address",
          "name": "_platform",
          "type": "address"
        }
      ],
      "stateMutability": "nonpayable",
      "type": "constructor"
    },
    {
      "anonymous": false,
      "inputs": [
        {
          "indexed": true,
          "internalType": "address",
          "name": "token",
          "type": "address"
        },
        {
          "indexed": false,
          "internalType": "uint256",
          "name": "wethAmt",
          "type": "uint256"
        }
      ],
      "name": "FeesCollected",
      "type": "event"
    },
    {
      "anonymous": false,
      "inputs": [
        {
          "indexed": true,
          "internalType": "address",
          "name": "token",
          "type": "address"
        },
        {
          "indexed": false,
          "internalType": "uint256",
          "name": "ethAmt",
          "type": "uint256"
        }
      ],
      "name": "LiqBoosted",
      "type": "event"
    },
    {
      "anonymous": false,
      "inputs": [
        {
          "indexed": true,
          "internalType": "address",
          "name": "token",
          "type": "address"
        },
        {
          "indexed": true,
          "internalType": "address",
          "name": "pool",
          "type": "address"
        },
        {
          "indexed": false,
          "internalType": "uint256",
          "name": "tokenId",
          "type": "uint256"
        }
      ],
      "name": "LiqDeployed",
      "type": "event"
    },
    {
      "anonymous": false,
      "inputs": [
        {
          "indexed": true,
          "internalType": "address",
          "name": "token",
          "type": "address"
        }
      ],
      "name": "TokenReg",
      "type": "event"
    },
    {
      "inputs": [],
      "name": "FORT_BPS",
      "outputs": [
        {
          "internalType": "uint256",
          "name": "",
          "type": "uint256"
        }
      ],
      "stateMutability": "view",
      "type": "function"
    },
    {
      "inputs": [],
      "name": "PLAT_BPS",
      "outputs": [
        {
          "internalType": "uint256",
          "name": "",
          "type": "uint256"
        }
      ],
      "stateMutability": "view",
      "type": "function"
    },
    {
      "inputs": [],
      "name": "POOL_FEE",
      "outputs": [
        {
          "internalType": "uint24",
          "name": "",
          "type": "uint24"
        }
      ],
      "stateMutability": "view",
      "type": "function"
    },
    {
      "inputs": [],
      "name": "POS_MGR",
      "outputs": [
        {
          "internalType": "address",
          "name": "",
          "type": "address"
        }
      ],
      "stateMutability": "view",
      "type": "function"
    },
    {
      "inputs": [],
      "name": "TICK_HIGH",
      "outputs": [
        {
          "internalType": "int24",
          "name": "",
          "type": "int24"
        }
      ],
      "stateMutability": "view",
      "type": "function"
    },
    {
      "inputs": [],
      "name": "TICK_LOW",
      "outputs": [
        {
          "internalType": "int24",
          "name": "",
          "type": "int24"
        }
      ],
      "stateMutability": "view",
      "type": "function"
    },
    {
      "inputs": [],
      "name": "UNI_FACTORY",
      "outputs": [
        {
          "internalType": "address",
          "name": "",
          "type": "address"
        }
      ],
      "stateMutability": "view",
      "type": "function"
    },
    {
      "inputs": [],
      "name": "WAR_BPS",
      "outputs": [
        {
          "internalType": "uint256",
          "name": "",
          "type": "uint256"
        }
      ],
      "stateMutability": "view",
      "type": "function"
    },
    {
      "inputs": [],
      "name": "WETH",
      "outputs": [
        {
          "internalType": "address",
          "name": "",
          "type": "address"
        }
      ],
      "stateMutability": "view",
      "type": "function"
    },
    {
      "inputs": [
        {
          "internalType": "uint256",
          "name": "",
          "type": "uint256"
        }
      ],
      "name": "allTokens",
      "outputs": [
        {
          "internalType": "address",
          "name": "",
          "type": "address"
        }
      ],
      "stateMutability": "view",
      "type": "function"
    },
    {
      "inputs": [
        {
          "internalType": "address",
          "name": "curve",
          "type": "address"
        }
      ],
      "name": "authorizeCurve",
      "outputs": [],
      "stateMutability": "nonpayable",
      "type": "function"
    },
    {
      "inputs": [
        {
          "internalType": "address",
          "name": "",
          "type": "address"
        }
      ],
      "name": "authorizedCurves",
      "outputs": [
        {
          "internalType": "bool",
          "name": "",
          "type": "bool"
        }
      ],
      "stateMutability": "view",
      "type": "function"
    },
    {
      "inputs": [
        {
          "internalType": "address",
          "name": "",
          "type": "address"
        }
      ],
      "name": "authorizedFactories",
      "outputs": [
        {
          "internalType": "bool",
          "name": "",
          "type": "bool"
        }
      ],
      "stateMutability": "view",
      "type": "function"
    },
    {
      "inputs": [
        {
          "internalType": "address",
          "name": "token",
          "type": "address"
        }
      ],
      "name": "boostLiquidity",
      "outputs": [],
      "stateMutability": "payable",
      "type": "function"
    },
    {
      "inputs": [],
      "name": "collectAllFees",
      "outputs": [],
      "stateMutability": "nonpayable",
      "type": "function"
    },
    {
      "inputs": [
        {
          "internalType": "address",
          "name": "token",
          "type": "address"
        }
      ],
      "name": "collectFees",
      "outputs": [],
      "stateMutability": "nonpayable",
      "type": "function"
    },
    {
      "inputs": [
        {
          "internalType": "address",
          "name": "token",
          "type": "address"
        },
        {
          "internalType": "uint256",
          "name": "tokenAmt",
          "type": "uint256"
        },
        {
          "internalType": "uint256",
          "name": "ethAmt",
          "type": "uint256"
        }
      ],
      "name": "deployLiquidity",
      "outputs": [
        {
          "internalType": "address",
          "name": "pool",
          "type": "address"
        }
      ],
      "stateMutability": "payable",
      "type": "function"
    },
    {
      "inputs": [],
      "name": "factory",
      "outputs": [
        {
          "internalType": "address",
          "name": "",
          "type": "address"
        }
      ],
      "stateMutability": "view",
      "type": "function"
    },
    {
      "inputs": [],
      "name": "getAllTokens",
      "outputs": [
        {
          "internalType": "address[]",
          "name": "",
          "type": "address[]"
        }
      ],
      "stateMutability": "view",
      "type": "function"
    },
    {
      "inputs": [
        {
          "internalType": "address",
          "name": "token",
          "type": "address"
        }
      ],
      "name": "getArmoryVault",
      "outputs": [
        {
          "internalType": "address",
          "name": "",
          "type": "address"
        }
      ],
      "stateMutability": "view",
      "type": "function"
    },
    {
      "inputs": [
        {
          "internalType": "address",
          "name": "token",
          "type": "address"
        }
      ],
      "name": "getFortify",
      "outputs": [
        {
          "internalType": "address",
          "name": "",
          "type": "address"
        }
      ],
      "stateMutability": "view",
      "type": "function"
    },
    {
      "inputs": [
        {
          "internalType": "address",
          "name": "token",
          "type": "address"
        }
      ],
      "name": "getPool",
      "outputs": [
        {
          "internalType": "address",
          "name": "",
          "type": "address"
        }
      ],
      "stateMutability": "view",
      "type": "function"
    },
    {
      "inputs": [
        {
          "internalType": "address",
          "name": "token",
          "type": "address"
        }
      ],
      "name": "getTopHolders",
      "outputs": [
        {
          "internalType": "address[10]",
          "name": "holders",
          "type": "address[10]"
        },
        {
          "internalType": "uint256[10]",
          "name": "balances",
          "type": "uint256[10]"
        }
      ],
      "stateMutability": "view",
      "type": "function"
    },
    {
      "inputs": [
        {
          "internalType": "address",
          "name": "token",
          "type": "address"
        }
      ],
      "name": "isGraduated",
      "outputs": [
        {
          "internalType": "bool",
          "name": "",
          "type": "bool"
        }
      ],
      "stateMutability": "view",
      "type": "function"
    },
    {
      "inputs": [],
      "name": "locked",
      "outputs": [
        {
          "internalType": "bool",
          "name": "",
          "type": "bool"
        }
      ],
      "stateMutability": "view",
      "type": "function"
    },
    {
      "inputs": [],
      "name": "platformWallet",
      "outputs": [
        {
          "internalType": "address",
          "name": "",
          "type": "address"
        }
      ],
      "stateMutability": "view",
      "type": "function"
    },
    {
      "inputs": [
        {
          "internalType": "address",
          "name": "token",
          "type": "address"
        },
        {
          "internalType": "address",
          "name": "armory",
          "type": "address"
        },
        {
          "internalType": "address",
          "name": "fortify",
          "type": "address"
        },
        {
          "internalType": "address",
          "name": "",
          "type": "address"
        }
      ],
      "name": "registerToken",
      "outputs": [],
      "stateMutability": "nonpayable",
      "type": "function"
    },
    {
      "inputs": [
        {
          "internalType": "address",
          "name": "_f",
          "type": "address"
        }
      ],
      "name": "setFactory",
      "outputs": [],
      "stateMutability": "nonpayable",
      "type": "function"
    },
    {
      "inputs": [
        {
          "internalType": "address",
          "name": "_wc",
          "type": "address"
        }
      ],
      "name": "setWarChest",
      "outputs": [],
      "stateMutability": "nonpayable",
      "type": "function"
    },
    {
      "inputs": [
        {
          "internalType": "address",
          "name": "",
          "type": "address"
        }
      ],
      "name": "snapshots",
      "outputs": [
        {
          "internalType": "uint256",
          "name": "updated",
          "type": "uint256"
        }
      ],
      "stateMutability": "view",
      "type": "function"
    },
    {
      "inputs": [
        {
          "internalType": "address",
          "name": "",
          "type": "address"
        }
      ],
      "name": "tdata",
      "outputs": [
        {
          "internalType": "address",
          "name": "pool",
          "type": "address"
        },
        {
          "internalType": "uint256",
          "name": "lpTokenId",
          "type": "uint256"
        },
        {
          "internalType": "address",
          "name": "armoryVault",
          "type": "address"
        },
        {
          "internalType": "address",
          "name": "fortify",
          "type": "address"
        },
        {
          "internalType": "address",
          "name": "lastBuyer",
          "type": "address"
        },
        {
          "internalType": "bool",
          "name": "graduated",
          "type": "bool"
        }
      ],
      "stateMutability": "view",
      "type": "function"
    },
    {
      "inputs": [
        {
          "internalType": "address",
          "name": "token",
          "type": "address"
        },
        {
          "internalType": "address[10]",
          "name": "holders",
          "type": "address[10]"
        },
        {
          "internalType": "uint256[10]",
          "name": "balances",
          "type": "uint256[10]"
        }
      ],
      "name": "updateHolderSnapshot",
      "outputs": [],
      "stateMutability": "nonpayable",
      "type": "function"
    },
    {
      "inputs": [],
      "name": "warChest",
      "outputs": [
        {
          "internalType": "address",
          "name": "",
          "type": "address"
        }
      ],
      "stateMutability": "view",
      "type": "function"
    },
    {
      "stateMutability": "payable",
      "type": "receive"
    }
  ],
  "bytecode": "0x6080346100b257601f611f6638819003918201601f19168301916001600160401b038311848410176100b7578084926020946040528339810103126100b257516001600160a01b038116908190036100b257801561007a57600080546001600160a01b031916919091179055604051611e9890816100ce8239f35b60405162461bcd60e51b815260206004820152601060248201526f496e76616c696420706c6174666f726d60801b6044820152606490fd5b600080fd5b634e487b7160e01b600052604160045260246000fdfe6080604052600436101561001b575b361561001957600080fd5b005b6000803560e01c806304523fbf146113ff5780630c25213c146113e25780631375e273146113645780632a5c792a146112bc57806334b3081f1461127f5780634c3351411461126057806355acfa50146110a15780635bb4780814611039578063634282af14610ff5578063686f2c9014610f5157806368a4c8b714610f0b57806389fc005614610edc57806396c1c8b914610ebe578063973d4e581461072e5780639ed1057d146106ee578063a421eba0146106af578063a480ca791461065d578063ab6c609014610532578063ad5c46481461050f578063b0efd7141461049f578063b1be15d31461044e578063bb22e37114610425578063bbe4f6db146103e9578063bd865cba146103ba578063c45a015514610391578063c5a660b914610374578063cf3090121461034e578063d304052f1461030f578063dd1b9c4a146102f2578063e05d7b84146102d5578063ecd24a8214610296578063f8ac9f3a146101bb5763fa2af9da14610192575061000e565b346101b857806003193601126101b857546040516001600160a01b039091168152602090f35b80fd5b50346101b8576102a03660031901126101b8576101d6611730565b6101649036821161029257366102a411610292576001600160a01b039081168352600560208190526040842092600a808501939092865b84811061021e574260148801558780f35b80821b90816024013591848316830361028e5761026161028993610242848c611d50565b90919082549060031b9160018060a01b03809116831b921b1916179055565b61026b8289611d50565b819291549060031b91880135821b91600019901b1916179055611d41565b61020d565b8980fd5b8280fd5b50346101b85760203660031901126101b85760209060ff906040906001600160a01b036102c1611730565b168152600784522054166040519015158152f35b50346101b857806003193601126101b8576020604051610fa08152f35b50346101b857806003193601126101b85760206040516127108152f35b50346101b85760203660031901126101b85760209060ff906040906001600160a01b0361033a611730565b168152600684522054166040519015158152f35b50346101b857806003193601126101b857602060ff60025460a01c166040519015158152f35b50346101b857806003193601126101b85760206040516113888152f35b50346101b857806003193601126101b8576002546040516001600160a01b039091168152602090f35b50346101b857806003193601126101b85760206040517303a520b32c04bf3beef7beb72e919cf822ed34f18152f35b50346101b85760203660031901126101b8576020906001600160a01b039060409082610413611730565b16815260038452205416604051908152f35b50346101b857806003193601126101b8576001546040516001600160a01b039091168152602090f35b50346101b85760203660031901126101b857610468611730565b600154906001600160a01b039061048182841615611777565b169061048e8215156117b1565b6001600160a01b0319161760015580f35b50346101b85760203660031901126101b8576104b9611730565b338252600760205260ff60408320541680156104fb575b6104d9906117e7565b6001600160a01b03168152600660205260408120805460ff1916600117905580f35b506002546001600160a01b031633146104d0565b50346101b857806003193601126101b8576040516006602160991b018152602090f35b50346101b857602090816003193601126101b8579061054f611730565b906040519161055d8361186d565b6101408093369037826040516105728161186d565b3690376001600160a01b0390811680855260058352604080862090519591908285885b600a831061064457505050506105aa8661186d565b815260058352600a938460408320019260405193848685915b89831061062d57505050506105d78461186d565b60405196839086895b89841061061457505050505085019190915b8483106105ff5761028086f35b838060019284518152019201920191906105f2565b82518516815260019390930192918101918891016105e0565b8354815260019384019392909201918891016105c3565b8354871681526001938401939290920191879101610595565b50346101b85760203660031901126101b857610677611730565b6106a56002549161068e60ff8460a01c1615611822565b60ff60a01b19928316600160a01b176002556119e3565b6002541660025580f35b50346101b85760203660031901126101b8576020906001600160a01b0390600390604090836106dc611730565b16815282855220015416604051908152f35b50346101b85760203660031901126101b8576020906001600160a01b03906002906040908361071b611730565b1681526003855220015416604051908152f35b5060603660031901126101b857610743611730565b60025461075660ff8260a01c1615611822565b60ff60a01b1916600160a01b176002553382526006602052604082205460ff1615610e8c576044353403610e58576001600160a01b03811682526003602052604082206004015460a01c60ff16610e1f576006602160991b013b15610b7457604051630d0e30db60e41b8152829081816004816044356006602160991b015af18015610bc757610e0b575b50506006602160991b016001600160a01b0382161015610dfc579081906006602160991b015b604051630b4c774160e11b815290602082806108278489600484016118cb565b03817333128a8fc17869897dce68ed026d694621f6fdfd5afa918215610b78578392610ddb575b506001600160a01b03821615610c61575b60405163095ea7b360e01b81527303a520b32c04bf3beef7beb72e919cf822ed34f160048201526024803590820152602081604481876001600160a01b038a165af18015610c3757610c42575b5060405163095ea7b360e01b81527303a520b32c04bf3beef7beb72e919cf822ed34f16004820152604480356024830152602090829081876006602160991b015af18015610c3757610c08575b506006602160991b016001600160a01b0385161015610bfc57602435604435915b61012c42014211610be857604051966001600160401b03610160890190811190891117610bd257610160880160405260018060a01b0316875260018060a01b031660208701526127106040870152620d899f196060870152620d89a0608087015260a086015260c08501528160e0850152816101008501523061012085015261012c420161014085015261014060405194634418b22b60e11b865260018060a01b03815116600487015260018060a01b03602082015116602487015262ffffff6040820151166044870152606081015160020b6064870152608081015160020b608487015260a081015160a487015260c081015160c487015260e081015160e487015261010081015161010487015260018060a01b0361012082015116610124870152015161014485015260808461016481857303a520b32c04bf3beef7beb72e919cf822ed34f15af18015610bc7578290610b83575b6001600160a01b0380851680855260036020908152604080872080546001600160a01b03191696909416958617845560018401859055600493909301805460ff60a01b1916600160a01b17905591519283529495509193849290917f4ada9988b6caa856553453e24786df5e4451e576d3963b200d96a0348890fdf39190a36001546001600160a01b03169283610b1b575b6002805460ff60a01b19169055604051838152602090f35b8382943b156102925760405163ba65b81b60e01b81526001600160a01b0390921660048301529091908290602490829084905af18015610b7857610b60575b80610b03565b610b6a839161185a565b610b745781610b5a565b5080fd5b6040513d85823e3d90fd5b506080843d8211610bbf575b81610b9c60809383611889565b81010312610b745783610bb6602060049596519201611928565b50849350610a71565b3d9150610b8f565b6040513d84823e3d90fd5b634e487b7160e01b600052604160045260246000fd5b634e487b7160e01b85526011600452602485fd5b6044356024359161091a565b610c299060203d602011610c30575b610c218183611889565b8101906118ed565b50386108f9565b503d610c17565b6040513d86823e3d90fd5b610c5a9060203d602011610c3057610c218183611889565b50386108ac565b60405163a167129560e01b8152915060208280610c828489600484016118cb565b0381867333128a8fc17869897dce68ed026d694621f6fdfd5af1918215610b78578392610daa575b50816001600160a01b0386811690861603610d7e57670de0b6b3a7640000806044350290604435820414604435151715610be857610cee610cf39160243590611977565b611dd8565b808060601b04600160601b1481151715610be8576001600160a01b0382163b15610d7a5760405163f637731d60e01b81526001600160a01b03633b9aca0060609390931b9290920482166004820152918591839160249183918591165af18015610c3757908491610d66575b505061085f565b610d6f9061185a565b610292578238610d5f565b8480fd5b670de0b6b3a7640000602435818102918115918304141715610be857610cee610cf39160443590611977565b610dcd91925060203d602011610dd4575b610dc58183611889565b8101906118ac565b9038610caa565b503d610dbb565b610df591925060203d602011610dd457610dc58183611889565b903861084e565b6006602160991b019181610807565b610e149061185a565b610b745781386107e1565b60405162461bcd60e51b8152602060048201526011602482015270105b1c9958591e4819dc98591d585d1959607a1b6044820152606490fd5b60405162461bcd60e51b815260206004820152600c60248201526b08aa89040dad2e6dac2e8c6d60a31b6044820152606490fd5b60405162461bcd60e51b815260206004820152600a6024820152694f6e6c7920637572766560b01b6044820152606490fd5b50346101b857806003193601126101b8576020604051620d89a08152f35b50346101b857806003193601126101b85760206040517333128a8fc17869897dce68ed026d694621f6fdfd8152f35b50346101b85760203660031901126101b85760209060ff906004906040906001600160a01b03610f39611730565b1681526003855220015460a01c166040519015158152f35b50346101b857806003193601126101b857805b600454811015610ff15781610f7882611746565b9054600391821b1c6001600160a01b0316808352602091909152604082206004015460a01c60ff16610fb5575b5050610fb090611d41565b610f64565b303b15610b74576040519063a480ca7960e01b82526004820152818160248183305af115610fa557610fe69061185a565b610b74578138610fa5565b5080f35b50346101b85760203660031901126101b857600435906004548210156101b857602061102083611746565b905460405160039290921b1c6001600160a01b03168152f35b50346101b85760203660031901126101b857611053611730565b600254906001600160a01b039061106c82841615611777565b16809161107a8215156117b1565b6001600160a01b031916176002558152600760205260408120805460ff1916600117905580f35b50346101b85760803660031901126101b8576110bb611730565b6001600160a01b03906024358281169081900361125b576044359280841680940361125b576064358181160361125b57338552600760205260ff604086205416801561124e575b61110b906117e7565b82169283156112195781156111e35780156111ac5783855260036020819052604086206002810180546001600160a01b03199081169095179055018054909216179055600454600160401b81101561119857906102428260016111719401600455611746565b7fa09057c2eaa2dc2d017c0d50ebcf2364a92b5015223d4bf09be7e527773dec3d8280a280f35b634e487b7160e01b84526041600452602484fd5b60405162461bcd60e51b815260206004820152600f60248201526e496e76616c696420666f727469667960881b6044820152606490fd5b60405162461bcd60e51b815260206004820152600e60248201526d496e76616c69642061726d6f727960901b6044820152606490fd5b60405162461bcd60e51b815260206004820152600d60248201526c24b73b30b634b2103a37b5b2b760991b6044820152606490fd5b5060025481163314611102565b600080fd5b50346101b857806003193601126101b8576020604051620d899f198152f35b50346101b85760203660031901126101b8576020906014906040906001600160a01b036112aa611730565b16815260058452200154604051908152f35b50346101b857806003193601126101b857604051809160045490818352602080930180926004835284832090835b8181106113475750505084611300910385611889565b60405193838594850191818652518092526040850193925b82811061132757505050500390f35b83516001600160a01b031685528695509381019392810192600101611318565b82546001600160a01b0316845292860192600192830192016112ea565b50346101b85760203660031901126101b85760c0906001600160a01b039060ff9060409083611391611730565b168152600360205220828154169260018201549181600282015416600483600384015416920154936040519687526020870152604086015260608501528116608084015260a01c16151560a0820152f35b50346101b857806003193601126101b85760206040516103e88152f35b50602080600319360112610b7457611415611730565b906002549161142a60ff8460a01c1615611822565b60ff60a01b19928316600160a01b176002556001546001600160a01b039190821633036116fb5734156116cd5781169182855260038152604085209160ff600484015460a01c16806116c0575b6114809061193c565b6006602160991b01803b156116bc57604051630d0e30db60e41b8152878160048134865af180156116b15761169e575b5060405163095ea7b360e01b81527303a520b32c04bf3beef7beb72e919cf822ed34f160048201819052346024830152929084816044818c875af1801561167657611681575b506004848287541660405192838092630dfe168160e01b82525afa908115611676578991611659575b50160361164f5734600187945b015461012c42019283421161163b576040519060c08201906001600160401b03821183831017610bd25760609560c4948c93604052845287840195865260408401988952868401838152608085019084825260a086019283526040519a8b98899763219f5d1760e01b89525160048901525160248801525160448701525160648601525160848501525160a48401525af18015611630576115ea575b600080516020611e238339815191529150604051348152a26002541660025580f35b6060823d8211611628575b8161160260609383611889565b81010312610d7a57611622600080516020611e2383398151915292611928565b506115c8565b3d91506115f5565b6040513d87823e3d90fd5b634e487b7160e01b89526011600452602489fd5b856001349461152c565b6116709150853d8711610dd457610dc58183611889565b3861151f565b6040513d8b823e3d90fd5b61169790853d8711610c3057610c218183611889565b50386114f6565b6116aa9097919761185a565b95386114b0565b6040513d8a823e3d90fd5b8680fd5b5060018301541515611477565b60405162461bcd60e51b815260048101849052600660248201526509cde408aa8960d31b6044820152606490fd5b60405162461bcd60e51b815260048101849052600d60248201526c13db9b1e4815d85c90da195cdd609a1b6044820152606490fd5b600435906001600160a01b038216820361125b57565b60045481101561176157600460005260206000200190600090565b634e487b7160e01b600052603260045260246000fd5b1561177e57565b60405162461bcd60e51b815260206004820152600b60248201526a105b1c9958591e481cd95d60aa1b6044820152606490fd5b156117b857565b60405162461bcd60e51b8152602060048201526007602482015266125b9d985b1a5960ca1b6044820152606490fd5b156117ee57565b60405162461bcd60e51b815260206004820152600c60248201526b4f6e6c7920666163746f727960a01b6044820152606490fd5b1561182957565b60405162461bcd60e51b81526020600482015260096024820152681499595b9d1c985b9d60ba1b6044820152606490fd5b6001600160401b038111610bd257604052565b61014081019081106001600160401b03821117610bd257604052565b601f909101601f19168101906001600160401b03821190821017610bd257604052565b9081602091031261125b57516001600160a01b038116810361125b5790565b6001600160a01b03918216815291166020820152612710604082015260600190565b9081602091031261125b5751801515810361125b5790565b9190820180921161191257565b634e487b7160e01b600052601160045260246000fd5b51906001600160801b038216820361125b57565b1561194357565b60405162461bcd60e51b815260206004820152600c60248201526b4e6f7420656c696769626c6560a01b6044820152606490fd5b8115611981570490565b634e487b7160e01b600052601260045260246000fd5b9190820391821161191257565b3d156119de573d906001600160401b038211610bd257604051916119d2601f8201601f191660200184611889565b82523d6000602084013e565b606090565b60009160018060a01b0380921680845260206003815260408086209560049660ff8882015460a01c1680611d34575b611a1b9061193c565b6001810154835190608082016001600160401b03811183821017611d215785528152308582019081526001600160801b0382860181815260608401828152875163fc6f786560e01b81529451858e015292518b166024850152518116604484015290511660648201528381608481867303a520b32c04bf3beef7beb72e919cf822ed34f15af18015611d175790899184918591611ce1575b50868a85541687519c8d8092630dfe168160e01b82525afa8015611cd7578a9b869b98999a9b91611cba575b506006602160991b0197168703611cb25750945b8515611ca657803b15611ca2578380916024875180948193632e1a7d4d60e01b83528b888401525af18015611c9857611c85575b506113888502916113871986840401611c725761271080930492610fa08088029088820403611c5f578b916003910492611b6a84611b65888c611997565b611997565b9580151580611c52575b611c3e575b5001541681151580611c35575b15611c11578480809381935af1611b9b6119a4565b5015611bd85750600080516020611e438339815191529596975b81611bc5575b50505051908152a2565b611bd0925416611d60565b388080611bbb565b835162461bcd60e51b81529081018690526013602482015272119bdc9d1a599e481cd95b990819985a5b1959606a1b6044820152606490fd5b50611c2f9150600080516020611e4383398151915297989992611905565b90611bb5565b50801515611b86565b611c4c908460015416611d60565b38611b79565b5083600154161515611b74565b634e487b7160e01b865260118452602486fd5b634e487b7160e01b845260118252602484fd5b611c919093919361185a565b9138611b27565b85513d86823e3d90fd5b8380fd5b50505050505050509050565b905094611af3565b611cd19150893d8b11610dd457610dc58183611889565b38611adf565b86513d87823e3d90fd5b925050508381813d8311611d10575b611cfa8183611889565b810103126102925780858a925191015138611ab3565b503d611cf0565b84513d85823e3d90fd5b634e487b7160e01b855260418b52602485fd5b5060018101541515611a12565b60001981146119125760010190565b600a821015611761570190600090565b81158015611dc7575b611dc3576000918291829182916001600160a01b03165af1611d896119a4565b5015611d9157565b60405162461bcd60e51b815260206004820152600a6024820152691155120819985a5b195960b21b6044820152606490fd5b5050565b506001600160a01b03811615611d69565b908115611e1c57600180830180841161191257811c90835b848310611dfc57505050565b90919350611e1384611e0e8184611977565b611905565b821c9190611df0565b6000915056fe5c0eec4199f95cf196fdac30f5458f67ba720232c0fce87b1540c0c7dc0e773f9dc46f23cfb5ddcad0ae7ea2be38d47fec07bb9382ec7e564efc69e036dd66cea26469706673582212200f87a958667ec2e0a83ba2c33cd6d3b3192ff89fe1da5e0d597c6dd4116e140464736f6c63430008140033",
  "linkReferences": {},
  "deployedLinkReferences": {}
}